{
  "contractName": "DeliveryNode",
  "abi": [
    {
      "inputs": [
        {
          "internalType": "string",
          "name": "_name",
          "type": "string"
        },
        {
          "internalType": "enum DeliveryNode.NodeStatus",
          "name": "_status",
          "type": "uint8"
        },
        {
          "internalType": "address",
          "name": "_packageTokenAddress",
          "type": "address"
        },
        {
          "internalType": "address",
          "name": "_receiptTokenAddress",
          "type": "address"
        }
      ],
      "stateMutability": "nonpayable",
      "type": "constructor"
    },
    {
      "anonymous": false,
      "inputs": [
        {
          "indexed": true,
          "internalType": "address",
          "name": "previousOwner",
          "type": "address"
        },
        {
          "indexed": true,
          "internalType": "address",
          "name": "newOwner",
          "type": "address"
        }
      ],
      "name": "OwnershipTransferred",
      "type": "event"
    },
    {
      "inputs": [],
      "name": "name",
      "outputs": [
        {
          "internalType": "string",
          "name": "",
          "type": "string"
        }
      ],
      "stateMutability": "view",
      "type": "function"
    },
    {
      "inputs": [],
      "name": "owner",
      "outputs": [
        {
          "internalType": "address",
          "name": "",
          "type": "address"
        }
      ],
      "stateMutability": "view",
      "type": "function"
    },
    {
      "inputs": [],
      "name": "packageTokenAddress",
      "outputs": [
        {
          "internalType": "address",
          "name": "",
          "type": "address"
        }
      ],
      "stateMutability": "view",
      "type": "function"
    },
    {
      "inputs": [],
      "name": "receiptTokenAddress",
      "outputs": [
        {
          "internalType": "address",
          "name": "",
          "type": "address"
        }
      ],
      "stateMutability": "view",
      "type": "function"
    },
    {
      "inputs": [],
      "name": "renounceOwnership",
      "outputs": [],
      "stateMutability": "nonpayable",
      "type": "function"
    },
    {
      "inputs": [],
      "name": "status",
      "outputs": [
        {
          "internalType": "enum DeliveryNode.NodeStatus",
          "name": "",
          "type": "uint8"
        }
      ],
      "stateMutability": "view",
      "type": "function"
    },
    {
      "inputs": [
        {
          "internalType": "address",
          "name": "newOwner",
          "type": "address"
        }
      ],
      "name": "transferOwnership",
      "outputs": [],
      "stateMutability": "nonpayable",
      "type": "function"
    },
    {
      "inputs": [
        {
          "internalType": "address",
          "name": "operator",
          "type": "address"
        },
        {
          "internalType": "address",
          "name": "from",
          "type": "address"
        },
        {
          "internalType": "uint256",
          "name": "tokenId",
          "type": "uint256"
        },
        {
          "internalType": "bytes",
          "name": "data",
          "type": "bytes"
        }
      ],
      "name": "onERC721Received",
      "outputs": [
        {
          "internalType": "bytes4",
          "name": "",
          "type": "bytes4"
        }
      ],
      "stateMutability": "nonpayable",
      "type": "function"
    },
    {
      "inputs": [
        {
          "internalType": "address",
          "name": "deliveryNodeAddress",
          "type": "address"
        },
        {
          "internalType": "uint256",
          "name": "packageTokenId",
          "type": "uint256"
        }
      ],
      "name": "forwardPackage",
      "outputs": [],
      "stateMutability": "nonpayable",
      "type": "function"
    },
    {
      "inputs": [
        {
          "internalType": "enum DeliveryNode.NodeStatus",
          "name": "_status",
          "type": "uint8"
        }
      ],
      "name": "setNodeStatus",
      "outputs": [],
      "stateMutability": "nonpayable",
      "type": "function"
    }
  ],
  "bytecode": "0x60806040523480156200001157600080fd5b5060405162001aa838038062001aa8833981810160405281019062000037919062000369565b620000576200004b6200014d60201b60201c565b6200015560201b60201c565b83600190805190602001906200006f92919062000219565b5082600260006101000a81548160ff02191690836001811115620000bc577f4e487b7100000000000000000000000000000000000000000000000000000000600052602160045260246000fd5b021790555081600260016101000a81548173ffffffffffffffffffffffffffffffffffffffff021916908373ffffffffffffffffffffffffffffffffffffffff16021790555080600360006101000a81548173ffffffffffffffffffffffffffffffffffffffff021916908373ffffffffffffffffffffffffffffffffffffffff16021790555050505050620005bd565b600033905090565b60008060009054906101000a900473ffffffffffffffffffffffffffffffffffffffff169050816000806101000a81548173ffffffffffffffffffffffffffffffffffffffff021916908373ffffffffffffffffffffffffffffffffffffffff1602179055508173ffffffffffffffffffffffffffffffffffffffff168173ffffffffffffffffffffffffffffffffffffffff167f8be0079c531659141344cd1fd0a4f28419497f9722a3daafe3b4186f6b6457e060405160405180910390a35050565b8280546200022790620004b7565b90600052602060002090601f0160209004810192826200024b576000855562000297565b82601f106200026657805160ff191683800117855562000297565b8280016001018555821562000297579182015b828111156200029657825182559160200191906001019062000279565b5b509050620002a69190620002aa565b5090565b5b80821115620002c5576000816000905550600101620002ab565b5090565b6000620002e0620002da8462000417565b620003ee565b905082815260208101848484011115620002f957600080fd5b6200030684828562000481565b509392505050565b6000815190506200031f8162000592565b92915050565b6000815190506200033681620005ac565b92915050565b600082601f8301126200034e57600080fd5b815162000360848260208601620002c9565b91505092915050565b600080600080608085870312156200038057600080fd5b600085015167ffffffffffffffff8111156200039b57600080fd5b620003a9878288016200033c565b9450506020620003bc8782880162000325565b9350506040620003cf878288016200030e565b9250506060620003e2878288016200030e565b91505092959194509250565b6000620003fa6200040d565b9050620004088282620004ed565b919050565b6000604051905090565b600067ffffffffffffffff82111562000435576200043462000552565b5b620004408262000581565b9050602081019050919050565b60006200045a8262000461565b9050919050565b600073ffffffffffffffffffffffffffffffffffffffff82169050919050565b60005b83811015620004a157808201518184015260208101905062000484565b83811115620004b1576000848401525b50505050565b60006002820490506001821680620004d057607f821691505b60208210811415620004e757620004e662000523565b5b50919050565b620004f88262000581565b810181811067ffffffffffffffff821117156200051a576200051962000552565b5b80604052505050565b7f4e487b7100000000000000000000000000000000000000000000000000000000600052602260045260246000fd5b7f4e487b7100000000000000000000000000000000000000000000000000000000600052604160045260246000fd5b6000601f19601f8301169050919050565b6200059d816200044d565b8114620005a957600080fd5b50565b60028110620005ba57600080fd5b50565b6114db80620005cd6000396000f3fe608060405234801561001057600080fd5b506004361061009e5760003560e01c8063715018a611610066578063715018a6146101475780638da5cb5b146101515780639d8d81781461016f578063c17ca3e71461018d578063f2fde38b146101ab5761009e565b8063018b1698146100a357806306fdde03146100bf578063150b7a02146100dd578063200d2ed21461010d5780636e2ebae71461012b575b600080fd5b6100bd60048036038101906100b89190610d95565b6101c7565b005b6100c76102de565b6040516100d49190610fcf565b60405180910390f35b6100f760048036038101906100f29190610d1a565b61036c565b6040516101049190610f99565b60405180910390f35b61011561058e565b6040516101229190610fb4565b60405180910390f35b61014560048036038101906101409190610dd1565b6105a1565b005b61014f610670565b005b6101596106f8565b6040516101669190610f47565b60405180910390f35b610177610721565b6040516101849190610f47565b60405180910390f35b610195610747565b6040516101a29190610f47565b60405180910390f35b6101c560048036038101906101c09190610cc8565b61076d565b005b6101cf610865565b73ffffffffffffffffffffffffffffffffffffffff166101ed6106f8565b73ffffffffffffffffffffffffffffffffffffffff1614610243576040517f08c379a000000000000000000000000000000000000000000000000000000000815260040161023a90611051565b60405180910390fd5b6000600260019054906101000a900473ffffffffffffffffffffffffffffffffffffffff1690508073ffffffffffffffffffffffffffffffffffffffff166342842e0e3085856040518463ffffffff1660e01b81526004016102a793929190610f62565b600060405180830381600087803b1580156102c157600080fd5b505af11580156102d5573d6000803e3d6000fd5b50505050505050565b600180546102eb906111ed565b80601f0160208091040260200160405190810160405280929190818152602001828054610317906111ed565b80156103645780601f1061033957610100808354040283529160200191610364565b820191906000526020600020905b81548152906001019060200180831161034757829003601f168201915b505050505081565b60008060018111156103a7577f4e487b7100000000000000000000000000000000000000000000000000000000600052602160045260246000fd5b600260009054906101000a900460ff1660018111156103ef577f4e487b7100000000000000000000000000000000000000000000000000000000600052602160045260246000fd5b1461042f576040517f08c379a000000000000000000000000000000000000000000000000000000000815260040161042690611011565b60405180910390fd5b600260019054906101000a900473ffffffffffffffffffffffffffffffffffffffff1673ffffffffffffffffffffffffffffffffffffffff163373ffffffffffffffffffffffffffffffffffffffff1614806104d85750600360009054906101000a900473ffffffffffffffffffffffffffffffffffffffff1673ffffffffffffffffffffffffffffffffffffffff163373ffffffffffffffffffffffffffffffffffffffff16145b610517576040517f08c379a000000000000000000000000000000000000000000000000000000000815260040161050e90611071565b60405180910390fd5b600360009054906101000a900473ffffffffffffffffffffffffffffffffffffffff1673ffffffffffffffffffffffffffffffffffffffff163373ffffffffffffffffffffffffffffffffffffffff16141561057857610577848461086d565b5b61058485858585610b1f565b9050949350505050565b600260009054906101000a900460ff1681565b6105a9610865565b73ffffffffffffffffffffffffffffffffffffffff166105c76106f8565b73ffffffffffffffffffffffffffffffffffffffff161461061d576040517f08c379a000000000000000000000000000000000000000000000000000000000815260040161061490611051565b60405180910390fd5b80600260006101000a81548160ff02191690836001811115610668577f4e487b7100000000000000000000000000000000000000000000000000000000600052602160045260246000fd5b021790555050565b610678610865565b73ffffffffffffffffffffffffffffffffffffffff166106966106f8565b73ffffffffffffffffffffffffffffffffffffffff16146106ec576040517f08c379a00000000000000000000000000000000000000000000000000000000081526004016106e390611051565b60405180910390fd5b6106f66000610b33565b565b60008060009054906101000a900473ffffffffffffffffffffffffffffffffffffffff16905090565b600260019054906101000a900473ffffffffffffffffffffffffffffffffffffffff1681565b600360009054906101000a900473ffffffffffffffffffffffffffffffffffffffff1681565b610775610865565b73ffffffffffffffffffffffffffffffffffffffff166107936106f8565b73ffffffffffffffffffffffffffffffffffffffff16146107e9576040517f08c379a00000000000000000000000000000000000000000000000000000000081526004016107e090611051565b60405180910390fd5b600073ffffffffffffffffffffffffffffffffffffffff168173ffffffffffffffffffffffffffffffffffffffff161415610859576040517f08c379a000000000000000000000000000000000000000000000000000000000815260040161085090610ff1565b60405180910390fd5b61086281610b33565b50565b600033905090565b6000600260019054906101000a900473ffffffffffffffffffffffffffffffffffffffff1690506000600360009054906101000a900473ffffffffffffffffffffffffffffffffffffffff16905060008173ffffffffffffffffffffffffffffffffffffffff166327d35db7856040518263ffffffff1660e01b81526004016108f69190611091565b60206040518083038186803b15801561090e57600080fd5b505afa158015610922573d6000803e3d6000fd5b505050506040513d601f19601f820116820180604052508101906109469190610dfa565b90508273ffffffffffffffffffffffffffffffffffffffff16636352211e826040518263ffffffff1660e01b81526004016109819190611091565b60206040518083038186803b15801561099957600080fd5b505afa1580156109ad573d6000803e3d6000fd5b505050506040513d601f19601f820116820180604052508101906109d19190610cf1565b73ffffffffffffffffffffffffffffffffffffffff163073ffffffffffffffffffffffffffffffffffffffff1614610a3e576040517f08c379a0000000000000000000000000000000000000000000000000000000008152600401610a3590611031565b60405180910390fd5b8273ffffffffffffffffffffffffffffffffffffffff166342842e0e3087846040518463ffffffff1660e01b8152600401610a7b93929190610f62565b600060405180830381600087803b158015610a9557600080fd5b505af1158015610aa9573d6000803e3d6000fd5b505050508173ffffffffffffffffffffffffffffffffffffffff166342966c68856040518263ffffffff1660e01b8152600401610ae69190611091565b600060405180830381600087803b158015610b0057600080fd5b505af1158015610b14573d6000803e3d6000fd5b505050505050505050565b600063150b7a0260e01b9050949350505050565b60008060009054906101000a900473ffffffffffffffffffffffffffffffffffffffff169050816000806101000a81548173ffffffffffffffffffffffffffffffffffffffff021916908373ffffffffffffffffffffffffffffffffffffffff1602179055508173ffffffffffffffffffffffffffffffffffffffff168173ffffffffffffffffffffffffffffffffffffffff167f8be0079c531659141344cd1fd0a4f28419497f9722a3daafe3b4186f6b6457e060405160405180910390a35050565b6000610c0a610c05846110d1565b6110ac565b905082815260208101848484011115610c2257600080fd5b610c2d8482856111ab565b509392505050565b600081359050610c4481611467565b92915050565b600081519050610c5981611467565b92915050565b600082601f830112610c7057600080fd5b8135610c80848260208601610bf7565b91505092915050565b600081359050610c988161147e565b92915050565b600081359050610cad8161148e565b92915050565b600081519050610cc28161148e565b92915050565b600060208284031215610cda57600080fd5b6000610ce884828501610c35565b91505092915050565b600060208284031215610d0357600080fd5b6000610d1184828501610c4a565b91505092915050565b60008060008060808587031215610d3057600080fd5b6000610d3e87828801610c35565b9450506020610d4f87828801610c35565b9350506040610d6087828801610c9e565b925050606085013567ffffffffffffffff811115610d7d57600080fd5b610d8987828801610c5f565b91505092959194509250565b60008060408385031215610da857600080fd5b6000610db685828601610c35565b9250506020610dc785828601610c9e565b9150509250929050565b600060208284031215610de357600080fd5b6000610df184828501610c89565b91505092915050565b600060208284031215610e0c57600080fd5b6000610e1a84828501610cb3565b91505092915050565b610e2c8161111e565b82525050565b610e3b81611130565b82525050565b610e4a81611199565b82525050565b6000610e5b82611102565b610e65818561110d565b9350610e758185602086016111ba565b610e7e816112dd565b840191505092915050565b6000610e9660268361110d565b9150610ea1826112ee565b604082019050919050565b6000610eb9601b8361110d565b9150610ec48261133d565b602082019050919050565b6000610edc604a8361110d565b9150610ee782611366565b606082019050919050565b6000610eff60208361110d565b9150610f0a826113db565b602082019050919050565b6000610f22602f8361110d565b9150610f2d82611404565b604082019050919050565b610f418161118f565b82525050565b6000602082019050610f5c6000830184610e23565b92915050565b6000606082019050610f776000830186610e23565b610f846020830185610e23565b610f916040830184610f38565b949350505050565b6000602082019050610fae6000830184610e32565b92915050565b6000602082019050610fc96000830184610e41565b92915050565b60006020820190508181036000830152610fe98184610e50565b905092915050565b6000602082019050818103600083015261100a81610e89565b9050919050565b6000602082019050818103600083015261102a81610eac565b9050919050565b6000602082019050818103600083015261104a81610ecf565b9050919050565b6000602082019050818103600083015261106a81610ef2565b9050919050565b6000602082019050818103600083015261108a81610f15565b9050919050565b60006020820190506110a66000830184610f38565b92915050565b60006110b66110c7565b90506110c2828261121f565b919050565b6000604051905090565b600067ffffffffffffffff8211156110ec576110eb6112ae565b5b6110f5826112dd565b9050602081019050919050565b600081519050919050565b600082825260208201905092915050565b60006111298261116f565b9050919050565b60007fffffffff0000000000000000000000000000000000000000000000000000000082169050919050565b600081905061116a82611453565b919050565b600073ffffffffffffffffffffffffffffffffffffffff82169050919050565b6000819050919050565b60006111a48261115c565b9050919050565b82818337600083830152505050565b60005b838110156111d85780820151818401526020810190506111bd565b838111156111e7576000848401525b50505050565b6000600282049050600182168061120557607f821691505b602082108114156112195761121861127f565b5b50919050565b611228826112dd565b810181811067ffffffffffffffff82111715611247576112466112ae565b5b80604052505050565b7f4e487b7100000000000000000000000000000000000000000000000000000000600052602160045260246000fd5b7f4e487b7100000000000000000000000000000000000000000000000000000000600052602260045260246000fd5b7f4e487b7100000000000000000000000000000000000000000000000000000000600052604160045260246000fd5b6000601f19601f8301169050919050565b7f4f776e61626c653a206e6577206f776e657220697320746865207a65726f206160008201527f6464726573730000000000000000000000000000000000000000000000000000602082015250565b7f44656c6976657279206e6f6465206973206e6f74206f6e6c696e650000000000600082015250565b7f546869732064656c6976657279206e6f646520646f6573206e6f74206375727260008201527f656e746c7920686f6c642074686520636f72726573706f6e64696e672070616360208201527f6b61676520746f6b656e00000000000000000000000000000000000000000000604082015250565b7f4f776e61626c653a2063616c6c6572206973206e6f7420746865206f776e6572600082015250565b7f455243373231207265636569766564206973206e6f742066726f6d206b6e6f7760008201527f6e20746f6b656e20616464726573730000000000000000000000000000000000602082015250565b6002811061146457611463611250565b5b50565b6114708161111e565b811461147b57600080fd5b50565b6002811061148b57600080fd5b50565b6114978161118f565b81146114a257600080fd5b5056fea2646970667358221220c7ad4107be8e1322892b55268b128425a1215e31ce2255e9e3b92091b3bb690464736f6c63430008040033",
  "immutableReferences": {},
  "source": "// SPDX-License-Identifier: MIT\npragma solidity ^0.8.0;\n\nimport '@openzeppelin/contracts/access/Ownable.sol';\nimport '@openzeppelin/contracts/token/ERC721/utils/ERC721Holder.sol';\n\nimport \"./PackageToken.sol\";\nimport \"./ReceiptToken.sol\";\n\ncontract DeliveryNode is ERC721Holder, Ownable {\n\n  enum NodeStatus{\n    ONLINE,\n    OFFILINE\n  }\n\n  string public name;\n  NodeStatus public status;\n  address public packageTokenAddress;\n  address public receiptTokenAddress;\n\n  // TODO - Secure the constructor such that only the deliver coordinator can call it, if that's possible?\n  // This may require some sort of intermediary factory contract\n  constructor(string memory _name, NodeStatus _status, address _packageTokenAddress, address _receiptTokenAddress) {\n    name = _name;\n    status = _status;\n    packageTokenAddress = _packageTokenAddress;\n    receiptTokenAddress = _receiptTokenAddress;\n  }\n\n  function onERC721Received(address operator, address from, uint256 tokenId, bytes memory data) public override returns (bytes4) {\n    require(status == NodeStatus.ONLINE, \"Delivery node is not online\");\n    require(msg.sender == packageTokenAddress || msg.sender == receiptTokenAddress, \"ERC721 received is not from known token address\");\n\n    if (msg.sender == receiptTokenAddress) {\n      receiptTokenReceived(from, tokenId);\n    }\n\n    return super.onERC721Received(operator, from, tokenId, data);\n  }\n\n  function receiptTokenReceived(address from, uint256 receiptTokenId) internal {\n    PackageToken deployedPackageTokenContract = PackageToken(packageTokenAddress);\n    ReceiptToken deployedReceiptTokenContract = ReceiptToken(receiptTokenAddress);\n    \n    uint256 correspondingPackageTokenId = deployedReceiptTokenContract.receiptData(receiptTokenId);\n\n    require(address(this) == deployedPackageTokenContract.ownerOf(correspondingPackageTokenId), \"This delivery node does not currently hold the corresponding package token\");\n\n    deployedPackageTokenContract.safeTransferFrom(address(this), from, correspondingPackageTokenId);\n    deployedReceiptTokenContract.burn(receiptTokenId);\n  }\n\n  function forwardPackage(address deliveryNodeAddress, uint256 packageTokenId) external onlyOwner {\n    PackageToken deployedTokenContract = PackageToken(packageTokenAddress);\n    \n    deployedTokenContract.safeTransferFrom(address(this), deliveryNodeAddress, packageTokenId);\n  }\n\n  function setNodeStatus(NodeStatus _status) external onlyOwner {\n    status = _status;\n  }\n\n}\n",
  "sourcePath": "/home/james/Workspaces/tracking-demo/contracts/DeliveryNode.sol",
  "compiler": {
    "name": "solc",
    "version": "0.8.4+commit.c7e474f2.Emscripten.clang"
  },
  "schemaVersion": "3.4.6",
  "updatedAt": "2022-04-11T14:54:25.339Z",
  "devdoc": {
    "kind": "dev",
    "methods": {
      "owner()": {
        "details": "Returns the address of the current owner."
      },
      "renounceOwnership()": {
        "details": "Leaves the contract without owner. It will not be possible to call `onlyOwner` functions anymore. Can only be called by the current owner. NOTE: Renouncing ownership will leave the contract without an owner, thereby removing any functionality that is only available to the owner."
      },
      "transferOwnership(address)": {
        "details": "Transfers ownership of the contract to a new account (`newOwner`). Can only be called by the current owner."
      }
    },
    "version": 1
  },
  "userdoc": {
    "kind": "user",
    "methods": {},
    "version": 1
  }
}