{
  "contractName": "DeliveryCoordinator",
  "abi": [
    {
      "inputs": [
        {
          "internalType": "address",
          "name": "_packageTokenAddress",
          "type": "address"
        },
        {
          "internalType": "address",
          "name": "_receiptTokenAddress",
          "type": "address"
        }
      ],
      "stateMutability": "nonpayable",
      "type": "constructor"
    },
    {
      "anonymous": false,
      "inputs": [
        {
          "indexed": true,
          "internalType": "address",
          "name": "previousOwner",
          "type": "address"
        },
        {
          "indexed": true,
          "internalType": "address",
          "name": "newOwner",
          "type": "address"
        }
      ],
      "name": "OwnershipTransferred",
      "type": "event"
    },
    {
      "inputs": [
        {
          "internalType": "uint256",
          "name": "",
          "type": "uint256"
        }
      ],
      "name": "deliveryNodes",
      "outputs": [
        {
          "internalType": "contract DeliveryNode",
          "name": "",
          "type": "address"
        }
      ],
      "stateMutability": "view",
      "type": "function"
    },
    {
      "inputs": [],
      "name": "owner",
      "outputs": [
        {
          "internalType": "address",
          "name": "",
          "type": "address"
        }
      ],
      "stateMutability": "view",
      "type": "function"
    },
    {
      "inputs": [],
      "name": "packageTokenAddress",
      "outputs": [
        {
          "internalType": "address",
          "name": "",
          "type": "address"
        }
      ],
      "stateMutability": "view",
      "type": "function"
    },
    {
      "inputs": [],
      "name": "receiptTokenAddress",
      "outputs": [
        {
          "internalType": "address",
          "name": "",
          "type": "address"
        }
      ],
      "stateMutability": "view",
      "type": "function"
    },
    {
      "inputs": [],
      "name": "renounceOwnership",
      "outputs": [],
      "stateMutability": "nonpayable",
      "type": "function"
    },
    {
      "inputs": [
        {
          "internalType": "address",
          "name": "newOwner",
          "type": "address"
        }
      ],
      "name": "transferOwnership",
      "outputs": [],
      "stateMutability": "nonpayable",
      "type": "function"
    },
    {
      "inputs": [
        {
          "internalType": "string",
          "name": "_nodeName",
          "type": "string"
        }
      ],
      "name": "addDeliveryNode",
      "outputs": [],
      "stateMutability": "nonpayable",
      "type": "function"
    },
    {
      "inputs": [
        {
          "internalType": "string",
          "name": "_packageContents",
          "type": "string"
        },
        {
          "internalType": "string",
          "name": "_packageWeight",
          "type": "string"
        }
      ],
      "name": "createPackage",
      "outputs": [],
      "stateMutability": "nonpayable",
      "type": "function"
    },
    {
      "inputs": [
        {
          "internalType": "address",
          "name": "operator",
          "type": "address"
        },
        {
          "internalType": "address",
          "name": "from",
          "type": "address"
        },
        {
          "internalType": "uint256",
          "name": "tokenId",
          "type": "uint256"
        },
        {
          "internalType": "bytes",
          "name": "data",
          "type": "bytes"
        }
      ],
      "name": "onERC721Received",
      "outputs": [
        {
          "internalType": "bytes4",
          "name": "",
          "type": "bytes4"
        }
      ],
      "stateMutability": "nonpayable",
      "type": "function"
    }
  ],
  "bytecode": "0x60806040523480156200001157600080fd5b5060405162001c5838038062001c588339818101604052810190620000379190620001c4565b620000576200004b620000e160201b60201c565b620000e960201b60201c565b81600260006101000a81548173ffffffffffffffffffffffffffffffffffffffff021916908373ffffffffffffffffffffffffffffffffffffffff16021790555080600360006101000a81548173ffffffffffffffffffffffffffffffffffffffff021916908373ffffffffffffffffffffffffffffffffffffffff160217905550505062000253565b600033905090565b60008060009054906101000a900473ffffffffffffffffffffffffffffffffffffffff169050816000806101000a81548173ffffffffffffffffffffffffffffffffffffffff021916908373ffffffffffffffffffffffffffffffffffffffff1602179055508173ffffffffffffffffffffffffffffffffffffffff168173ffffffffffffffffffffffffffffffffffffffff167f8be0079c531659141344cd1fd0a4f28419497f9722a3daafe3b4186f6b6457e060405160405180910390a35050565b600081519050620001be8162000239565b92915050565b60008060408385031215620001d857600080fd5b6000620001e885828601620001ad565b9250506020620001fb85828601620001ad565b9150509250929050565b6000620002128262000219565b9050919050565b600073ffffffffffffffffffffffffffffffffffffffff82169050919050565b620002448162000205565b81146200025057600080fd5b50565b6119f580620002636000396000f3fe60806040523480156200001157600080fd5b5060043610620000a05760003560e01c806383b72592116200006f57806383b7259214620001275780638da5cb5b146200015d5780639d8d8178146200017f578063c17ca3e714620001a1578063f2fde38b14620001c357620000a0565b8063093fbbb714620000a5578063150b7a0214620000c557806328331c8814620000fb578063715018a6146200011b575b600080fd5b620000c36004803603810190620000bd919062000bb1565b620001e3565b005b620000e36004803603810190620000dd919062000b2c565b62000307565b604051620000f2919062000e88565b60405180910390f35b62000119600480360381019062000113919062000bf6565b620004d5565b005b6200012562000597565b005b6200014560048036038101906200013f919062000c69565b62000628565b60405162000154919062000ea5565b60405180910390f35b6200016762000668565b60405162000176919062000df3565b60405180910390f35b6200018962000691565b60405162000198919062000df3565b60405180910390f35b620001ab620006b7565b604051620001ba919062000df3565b60405180910390f35b620001e16004803603810190620001db919062000b00565b620006dd565b005b620001ed620007e1565b73ffffffffffffffffffffffffffffffffffffffff166200020d62000668565b73ffffffffffffffffffffffffffffffffffffffff161462000266576040517f08c379a00000000000000000000000000000000000000000000000000000000081526004016200025d9062000f3a565b60405180910390fd5b60018160006040516200027990620009c9565b6200028692919062000ec2565b604051809103906000f080158015620002a3573d6000803e3d6000fd5b509080600181540180825580915050600190039060005260206000200160009091909190916101000a81548173ffffffffffffffffffffffffffffffffffffffff021916908373ffffffffffffffffffffffffffffffffffffffff16021790555050565b6000600260009054906101000a900473ffffffffffffffffffffffffffffffffffffffff1673ffffffffffffffffffffffffffffffffffffffff163373ffffffffffffffffffffffffffffffffffffffff161480620003b35750600360009054906101000a900473ffffffffffffffffffffffffffffffffffffffff1673ffffffffffffffffffffffffffffffffffffffff163373ffffffffffffffffffffffffffffffffffffffff16145b620003f5576040517f08c379a0000000000000000000000000000000000000000000000000000000008152600401620003ec9062000f5c565b60405180910390fd5b600260009054906101000a900473ffffffffffffffffffffffffffffffffffffffff1673ffffffffffffffffffffffffffffffffffffffff163373ffffffffffffffffffffffffffffffffffffffff1614156200045957620004588484620007e9565b5b600360009054906101000a900473ffffffffffffffffffffffffffffffffffffffff1673ffffffffffffffffffffffffffffffffffffffff163373ffffffffffffffffffffffffffffffffffffffff161415620004bd57620004bc8484620008a9565b5b620004cb85858585620008f1565b9050949350505050565b6000600260009054906101000a900473ffffffffffffffffffffffffffffffffffffffff1690508073ffffffffffffffffffffffffffffffffffffffff16636c8d75353385856040518463ffffffff1660e01b81526004016200053b9392919062000e10565b602060405180830381600087803b1580156200055657600080fd5b505af11580156200056b573d6000803e3d6000fd5b505050506040513d601f19601f8201168201806040525081019062000591919062000c95565b50505050565b620005a1620007e1565b73ffffffffffffffffffffffffffffffffffffffff16620005c162000668565b73ffffffffffffffffffffffffffffffffffffffff16146200061a576040517f08c379a0000000000000000000000000000000000000000000000000000000008152600401620006119062000f3a565b60405180910390fd5b62000626600062000905565b565b600181815481106200063957600080fd5b906000526020600020016000915054906101000a900473ffffffffffffffffffffffffffffffffffffffff1681565b60008060009054906101000a900473ffffffffffffffffffffffffffffffffffffffff16905090565b600260009054906101000a900473ffffffffffffffffffffffffffffffffffffffff1681565b600360009054906101000a900473ffffffffffffffffffffffffffffffffffffffff1681565b620006e7620007e1565b73ffffffffffffffffffffffffffffffffffffffff166200070762000668565b73ffffffffffffffffffffffffffffffffffffffff161462000760576040517f08c379a0000000000000000000000000000000000000000000000000000000008152600401620007579062000f3a565b60405180910390fd5b600073ffffffffffffffffffffffffffffffffffffffff168173ffffffffffffffffffffffffffffffffffffffff161415620007d3576040517f08c379a0000000000000000000000000000000000000000000000000000000008152600401620007ca9062000f18565b60405180910390fd5b620007de8162000905565b50565b600033905090565b6000600360009054906101000a900473ffffffffffffffffffffffffffffffffffffffff1690508073ffffffffffffffffffffffffffffffffffffffff1663d62914c984846040518363ffffffff1660e01b81526004016200084d92919062000e5b565b602060405180830381600087803b1580156200086857600080fd5b505af11580156200087d573d6000803e3d6000fd5b505050506040513d601f19601f82011682018060405250810190620008a3919062000c95565b50505050565b6000620008ed576040517f08c379a0000000000000000000000000000000000000000000000000000000008152600401620008e49062000ef6565b60405180910390fd5b5050565b600063150b7a0260e01b9050949350505050565b60008060009054906101000a900473ffffffffffffffffffffffffffffffffffffffff169050816000806101000a81548173ffffffffffffffffffffffffffffffffffffffff021916908373ffffffffffffffffffffffffffffffffffffffff1602179055508173ffffffffffffffffffffffffffffffffffffffff168173ffffffffffffffffffffffffffffffffffffffff167f8be0079c531659141344cd1fd0a4f28419497f9722a3daafe3b4186f6b6457e060405160405180910390a35050565b61068a806200133683390190565b6000620009ee620009e88462000fa7565b62000f7e565b90508281526020810184848401111562000a0757600080fd5b62000a14848285620010ea565b509392505050565b600062000a3362000a2d8462000fdd565b62000f7e565b90508281526020810184848401111562000a4c57600080fd5b62000a59848285620010ea565b509392505050565b60008135905062000a728162001301565b92915050565b600082601f83011262000a8a57600080fd5b813562000a9c848260208601620009d7565b91505092915050565b600082601f83011262000ab757600080fd5b813562000ac984826020860162000a1c565b91505092915050565b60008135905062000ae3816200131b565b92915050565b60008151905062000afa816200131b565b92915050565b60006020828403121562000b1357600080fd5b600062000b238482850162000a61565b91505092915050565b6000806000806080858703121562000b4357600080fd5b600062000b538782880162000a61565b945050602062000b668782880162000a61565b935050604062000b798782880162000ad2565b925050606085013567ffffffffffffffff81111562000b9757600080fd5b62000ba58782880162000a78565b91505092959194509250565b60006020828403121562000bc457600080fd5b600082013567ffffffffffffffff81111562000bdf57600080fd5b62000bed8482850162000aa5565b91505092915050565b6000806040838503121562000c0a57600080fd5b600083013567ffffffffffffffff81111562000c2557600080fd5b62000c338582860162000aa5565b925050602083013567ffffffffffffffff81111562000c5157600080fd5b62000c5f8582860162000aa5565b9150509250929050565b60006020828403121562000c7c57600080fd5b600062000c8c8482850162000ad2565b91505092915050565b60006020828403121562000ca857600080fd5b600062000cb88482850162000ae9565b91505092915050565b62000ccc816200102f565b82525050565b62000cdd8162001043565b82525050565b62000cee81620010ae565b82525050565b62000cff81620010d6565b82525050565b600062000d128262001013565b62000d1e81856200101e565b935062000d30818560208601620010f9565b62000d3b81620011c3565b840191505092915050565b600062000d55602f836200101e565b915062000d6282620011d4565b604082019050919050565b600062000d7c6026836200101e565b915062000d898262001223565b604082019050919050565b600062000da36020836200101e565b915062000db08262001272565b602082019050919050565b600062000dca602f836200101e565b915062000dd7826200129b565b604082019050919050565b62000ded81620010a4565b82525050565b600060208201905062000e0a600083018462000cc1565b92915050565b600060608201905062000e27600083018662000cc1565b818103602083015262000e3b818562000d05565b9050818103604083015262000e51818462000d05565b9050949350505050565b600060408201905062000e72600083018562000cc1565b62000e81602083018462000de2565b9392505050565b600060208201905062000e9f600083018462000cd2565b92915050565b600060208201905062000ebc600083018462000ce3565b92915050565b6000604082019050818103600083015262000ede818562000d05565b905062000eef602083018462000cf4565b9392505050565b6000602082019050818103600083015262000f118162000d46565b9050919050565b6000602082019050818103600083015262000f338162000d6d565b9050919050565b6000602082019050818103600083015262000f558162000d94565b9050919050565b6000602082019050818103600083015262000f778162000dbb565b9050919050565b600062000f8a62000f9d565b905062000f9882826200112f565b919050565b6000604051905090565b600067ffffffffffffffff82111562000fc55762000fc462001194565b5b62000fd082620011c3565b9050602081019050919050565b600067ffffffffffffffff82111562000ffb5762000ffa62001194565b5b6200100682620011c3565b9050602081019050919050565b600081519050919050565b600082825260208201905092915050565b60006200103c8262001084565b9050919050565b60007fffffffff0000000000000000000000000000000000000000000000000000000082169050919050565b60008190506200107f82620012ea565b919050565b600073ffffffffffffffffffffffffffffffffffffffff82169050919050565b6000819050919050565b6000620010bb82620010c2565b9050919050565b6000620010cf8262001084565b9050919050565b6000620010e3826200106f565b9050919050565b82818337600083830152505050565b60005b8381101562001119578082015181840152602081019050620010fc565b8381111562001129576000848401525b50505050565b6200113a82620011c3565b810181811067ffffffffffffffff821117156200115c576200115b62001194565b5b80604052505050565b7f4e487b7100000000000000000000000000000000000000000000000000000000600052602160045260246000fd5b7f4e487b7100000000000000000000000000000000000000000000000000000000600052604160045260246000fd5b6000601f19601f8301169050919050565b7f526563656976696e67207265636569707420746f6b656e73206973206e6f742060008201527f79657420696d706c656d656e7465640000000000000000000000000000000000602082015250565b7f4f776e61626c653a206e6577206f776e657220697320746865207a65726f206160008201527f6464726573730000000000000000000000000000000000000000000000000000602082015250565b7f4f776e61626c653a2063616c6c6572206973206e6f7420746865206f776e6572600082015250565b7f455243373231207265636569766564206973206e6f742066726f6d206b6e6f7760008201527f6e20746f6b656e20616464726573730000000000000000000000000000000000602082015250565b60028110620012fe57620012fd62001165565b5b50565b6200130c816200102f565b81146200131857600080fd5b50565b6200132681620010a4565b81146200133257600080fd5b5056fe608060405234801561001057600080fd5b5060405161068a38038061068a833981810160405281019061003291906101c0565b81600090805190602001906100489291906100a0565b5080600160006101000a81548160ff02191690836001811115610094577f4e487b7100000000000000000000000000000000000000000000000000000000600052602160045260246000fd5b0217905550505061037f565b8280546100ac9061029d565b90600052602060002090601f0160209004810192826100ce5760008555610115565b82601f106100e757805160ff1916838001178555610115565b82800160010185558215610115579182015b828111156101145782518255916020019190600101906100f9565b5b5090506101229190610126565b5090565b5b8082111561013f576000816000905550600101610127565b5090565b600061015661015184610239565b610214565b90508281526020810184848401111561016e57600080fd5b61017984828561026a565b509392505050565b6000815190506101908161036f565b92915050565b600082601f8301126101a757600080fd5b81516101b7848260208601610143565b91505092915050565b600080604083850312156101d357600080fd5b600083015167ffffffffffffffff8111156101ed57600080fd5b6101f985828601610196565b925050602061020a85828601610181565b9150509250929050565b600061021e61022f565b905061022a82826102cf565b919050565b6000604051905090565b600067ffffffffffffffff8211156102545761025361032f565b5b61025d8261035e565b9050602081019050919050565b60005b8381101561028857808201518184015260208101905061026d565b83811115610297576000848401525b50505050565b600060028204905060018216806102b557607f821691505b602082108114156102c9576102c8610300565b5b50919050565b6102d88261035e565b810181811067ffffffffffffffff821117156102f7576102f661032f565b5b80604052505050565b7f4e487b7100000000000000000000000000000000000000000000000000000000600052602260045260246000fd5b7f4e487b7100000000000000000000000000000000000000000000000000000000600052604160045260246000fd5b6000601f19601f8301169050919050565b6002811061037c57600080fd5b50565b6102fc8061038e6000396000f3fe608060405234801561001057600080fd5b50600436106100365760003560e01c806306fdde031461003b578063200d2ed214610059575b600080fd5b610043610077565b604051610050919061017b565b60405180910390f35b610061610105565b60405161006e9190610160565b60405180910390f35b6000805461008490610211565b80601f01602080910402602001604051908101604052809291908181526020018280546100b090610211565b80156100fd5780601f106100d2576101008083540402835291602001916100fd565b820191906000526020600020905b8154815290600101906020018083116100e057829003601f168201915b505050505081565b600160009054906101000a900460ff1681565b610121816101cc565b82525050565b60006101328261019d565b61013c81856101a8565b935061014c8185602086016101de565b610155816102a1565b840191505092915050565b60006020820190506101756000830184610118565b92915050565b600060208201905081810360008301526101958184610127565b905092915050565b600081519050919050565b600082825260208201905092915050565b60008190506101c7826102b2565b919050565b60006101d7826101b9565b9050919050565b60005b838110156101fc5780820151818401526020810190506101e1565b8381111561020b576000848401525b50505050565b6000600282049050600182168061022957607f821691505b6020821081141561023d5761023c610272565b5b50919050565b7f4e487b7100000000000000000000000000000000000000000000000000000000600052602160045260246000fd5b7f4e487b7100000000000000000000000000000000000000000000000000000000600052602260045260246000fd5b6000601f19601f8301169050919050565b600281106102c3576102c2610243565b5b5056fea26469706673582212202f407361fb63cfdb91389ced30bb678b34d327cde7c2bd196c923cdb3f53b8d764736f6c63430008040033a2646970667358221220ae356ea57a1c162af6c43e60d2a261aef507c3937a5922a4a7ef8df57f821b8564736f6c63430008040033",
  "immutableReferences": {},
  "source": "// SPDX-License-Identifier: MIT\npragma solidity ^0.8.0;\n\nimport '@openzeppelin/contracts/access/Ownable.sol';\nimport '@openzeppelin/contracts/token/ERC721/utils/ERC721Holder.sol';\n\nimport \"./DeliveryNode.sol\";\nimport \"./PackageToken.sol\";\nimport \"./ReceiptToken.sol\";\n\ncontract DeliveryCoordinator is ERC721Holder, Ownable {\n\n  DeliveryNode[] public deliveryNodes;\n  address public packageTokenAddress;\n  address public receiptTokenAddress;\n\n  constructor(address _packageTokenAddress, address _receiptTokenAddress) {\n    packageTokenAddress = _packageTokenAddress;\n    receiptTokenAddress = _receiptTokenAddress;\n  }\n\n  function addDeliveryNode(string memory _nodeName) public onlyOwner {\n    deliveryNodes.push(new DeliveryNode(_nodeName, DeliveryNode.NodeStatus.ONLINE));\n  }\n\n  function createPackage(string memory _packageContents, string memory _packageWeight) public {\n    PackageToken deployedTokenContract = PackageToken(packageTokenAddress);\n    deployedTokenContract.createPackage(msg.sender, _packageContents, _packageWeight);\n  }\n\n  function onERC721Received(address operator, address from, uint256 tokenId, bytes memory data) public override returns (bytes4) {\n      require(msg.sender == packageTokenAddress || msg.sender == receiptTokenAddress, \"ERC721 received is not from known token address\");\n\n      if (msg.sender == packageTokenAddress) {\n        packageTokenReceived(from, tokenId);\n      }\n\n      if (msg.sender == receiptTokenAddress) {\n        receiptTokenReceived(from, tokenId);\n      }\n\n      return super.onERC721Received(operator, from, tokenId, data);\n  }\n\n  function packageTokenReceived(address from, uint256 packageTokenId) internal {\n    ReceiptToken deployedTokenContract = ReceiptToken(receiptTokenAddress);\n    deployedTokenContract.createReceipt(from, packageTokenId);\n  }\n\n  function receiptTokenReceived(address, uint256) pure internal {\n    require(false, \"Receiving receipt tokens is not yet implemented\");\n  }\n\n}\n",
  "sourcePath": "/home/james/Workspaces/tracking-demo/contracts/DeliveryCoordinator.sol",
  "compiler": {
    "name": "solc",
    "version": "0.8.4+commit.c7e474f2.Emscripten.clang"
  },
  "schemaVersion": "3.4.6",
  "updatedAt": "2022-04-07T15:13:52.695Z",
  "devdoc": {
    "kind": "dev",
    "methods": {
      "owner()": {
        "details": "Returns the address of the current owner."
      },
      "renounceOwnership()": {
        "details": "Leaves the contract without owner. It will not be possible to call `onlyOwner` functions anymore. Can only be called by the current owner. NOTE: Renouncing ownership will leave the contract without an owner, thereby removing any functionality that is only available to the owner."
      },
      "transferOwnership(address)": {
        "details": "Transfers ownership of the contract to a new account (`newOwner`). Can only be called by the current owner."
      }
    },
    "version": 1
  },
  "userdoc": {
    "kind": "user",
    "methods": {},
    "version": 1
  }
}