{
  "contractName": "DeliveryNode",
  "abi": [
    {
      "inputs": [
        {
          "internalType": "string",
          "name": "_name",
          "type": "string"
        },
        {
          "internalType": "enum DeliveryNode.NodeStatus",
          "name": "_status",
          "type": "uint8"
        },
        {
          "internalType": "address",
          "name": "_packageTokenAddress",
          "type": "address"
        },
        {
          "internalType": "address",
          "name": "_receiptTokenAddress",
          "type": "address"
        }
      ],
      "stateMutability": "nonpayable",
      "type": "constructor"
    },
    {
      "anonymous": false,
      "inputs": [
        {
          "indexed": true,
          "internalType": "address",
          "name": "previousOwner",
          "type": "address"
        },
        {
          "indexed": true,
          "internalType": "address",
          "name": "newOwner",
          "type": "address"
        }
      ],
      "name": "OwnershipTransferred",
      "type": "event"
    },
    {
      "inputs": [],
      "name": "name",
      "outputs": [
        {
          "internalType": "string",
          "name": "",
          "type": "string"
        }
      ],
      "stateMutability": "view",
      "type": "function"
    },
    {
      "inputs": [],
      "name": "owner",
      "outputs": [
        {
          "internalType": "address",
          "name": "",
          "type": "address"
        }
      ],
      "stateMutability": "view",
      "type": "function"
    },
    {
      "inputs": [],
      "name": "packageTokenAddress",
      "outputs": [
        {
          "internalType": "address",
          "name": "",
          "type": "address"
        }
      ],
      "stateMutability": "view",
      "type": "function"
    },
    {
      "inputs": [],
      "name": "receiptTokenAddress",
      "outputs": [
        {
          "internalType": "address",
          "name": "",
          "type": "address"
        }
      ],
      "stateMutability": "view",
      "type": "function"
    },
    {
      "inputs": [],
      "name": "renounceOwnership",
      "outputs": [],
      "stateMutability": "nonpayable",
      "type": "function"
    },
    {
      "inputs": [],
      "name": "status",
      "outputs": [
        {
          "internalType": "enum DeliveryNode.NodeStatus",
          "name": "",
          "type": "uint8"
        }
      ],
      "stateMutability": "view",
      "type": "function"
    },
    {
      "inputs": [
        {
          "internalType": "address",
          "name": "newOwner",
          "type": "address"
        }
      ],
      "name": "transferOwnership",
      "outputs": [],
      "stateMutability": "nonpayable",
      "type": "function"
    },
    {
      "inputs": [
        {
          "internalType": "address",
          "name": "operator",
          "type": "address"
        },
        {
          "internalType": "address",
          "name": "from",
          "type": "address"
        },
        {
          "internalType": "uint256",
          "name": "tokenId",
          "type": "uint256"
        },
        {
          "internalType": "bytes",
          "name": "data",
          "type": "bytes"
        }
      ],
      "name": "onERC721Received",
      "outputs": [
        {
          "internalType": "bytes4",
          "name": "",
          "type": "bytes4"
        }
      ],
      "stateMutability": "nonpayable",
      "type": "function"
    },
    {
      "inputs": [
        {
          "internalType": "address",
          "name": "recipientAddress",
          "type": "address"
        },
        {
          "internalType": "uint256",
          "name": "packageTokenId",
          "type": "uint256"
        }
      ],
      "name": "forwardPackage",
      "outputs": [],
      "stateMutability": "nonpayable",
      "type": "function"
    },
    {
      "inputs": [
        {
          "internalType": "enum DeliveryNode.NodeStatus",
          "name": "_status",
          "type": "uint8"
        }
      ],
      "name": "setNodeStatus",
      "outputs": [],
      "stateMutability": "nonpayable",
      "type": "function"
    }
  ],
  "bytecode": "0x60806040523480156200001157600080fd5b50604051620015ee380380620015ee833981810160405281019062000037919062000369565b620000576200004b6200014d60201b60201c565b6200015560201b60201c565b83600190805190602001906200006f92919062000219565b5082600260006101000a81548160ff02191690836001811115620000bc577f4e487b7100000000000000000000000000000000000000000000000000000000600052602160045260246000fd5b021790555081600260016101000a81548173ffffffffffffffffffffffffffffffffffffffff021916908373ffffffffffffffffffffffffffffffffffffffff16021790555080600360006101000a81548173ffffffffffffffffffffffffffffffffffffffff021916908373ffffffffffffffffffffffffffffffffffffffff16021790555050505050620005bd565b600033905090565b60008060009054906101000a900473ffffffffffffffffffffffffffffffffffffffff169050816000806101000a81548173ffffffffffffffffffffffffffffffffffffffff021916908373ffffffffffffffffffffffffffffffffffffffff1602179055508173ffffffffffffffffffffffffffffffffffffffff168173ffffffffffffffffffffffffffffffffffffffff167f8be0079c531659141344cd1fd0a4f28419497f9722a3daafe3b4186f6b6457e060405160405180910390a35050565b8280546200022790620004b7565b90600052602060002090601f0160209004810192826200024b576000855562000297565b82601f106200026657805160ff191683800117855562000297565b8280016001018555821562000297579182015b828111156200029657825182559160200191906001019062000279565b5b509050620002a69190620002aa565b5090565b5b80821115620002c5576000816000905550600101620002ab565b5090565b6000620002e0620002da8462000417565b620003ee565b905082815260208101848484011115620002f957600080fd5b6200030684828562000481565b509392505050565b6000815190506200031f8162000592565b92915050565b6000815190506200033681620005ac565b92915050565b600082601f8301126200034e57600080fd5b815162000360848260208601620002c9565b91505092915050565b600080600080608085870312156200038057600080fd5b600085015167ffffffffffffffff8111156200039b57600080fd5b620003a9878288016200033c565b9450506020620003bc8782880162000325565b9350506040620003cf878288016200030e565b9250506060620003e2878288016200030e565b91505092959194509250565b6000620003fa6200040d565b9050620004088282620004ed565b919050565b6000604051905090565b600067ffffffffffffffff82111562000435576200043462000552565b5b620004408262000581565b9050602081019050919050565b60006200045a8262000461565b9050919050565b600073ffffffffffffffffffffffffffffffffffffffff82169050919050565b60005b83811015620004a157808201518184015260208101905062000484565b83811115620004b1576000848401525b50505050565b60006002820490506001821680620004d057607f821691505b60208210811415620004e757620004e662000523565b5b50919050565b620004f88262000581565b810181811067ffffffffffffffff821117156200051a576200051962000552565b5b80604052505050565b7f4e487b7100000000000000000000000000000000000000000000000000000000600052602260045260246000fd5b7f4e487b7100000000000000000000000000000000000000000000000000000000600052604160045260246000fd5b6000601f19601f8301169050919050565b6200059d816200044d565b8114620005a957600080fd5b50565b60028110620005ba57600080fd5b50565b61102180620005cd6000396000f3fe608060405234801561001057600080fd5b506004361061009e5760003560e01c8063715018a611610066578063715018a6146101475780638da5cb5b146101515780639d8d81781461016f578063c17ca3e71461018d578063f2fde38b146101ab5761009e565b8063018b1698146100a357806306fdde03146100bf578063150b7a02146100dd578063200d2ed21461010d5780636e2ebae71461012b575b600080fd5b6100bd60048036038101906100b891906109d7565b6101c7565b005b6100c76102de565b6040516100d49190610bc5565b60405180910390f35b6100f760048036038101906100f2919061095c565b61036c565b6040516101049190610b8f565b60405180910390f35b6101156104d5565b6040516101229190610baa565b60405180910390f35b61014560048036038101906101409190610a13565b6104e8565b005b61014f6105b7565b005b61015961063f565b6040516101669190610b3d565b60405180910390f35b610177610668565b6040516101849190610b3d565b60405180910390f35b61019561068e565b6040516101a29190610b3d565b60405180910390f35b6101c560048036038101906101c09190610933565b6106b4565b005b6101cf6107ac565b73ffffffffffffffffffffffffffffffffffffffff166101ed61063f565b73ffffffffffffffffffffffffffffffffffffffff1614610243576040517f08c379a000000000000000000000000000000000000000000000000000000000815260040161023a90610c27565b60405180910390fd5b6000600260019054906101000a900473ffffffffffffffffffffffffffffffffffffffff1690508073ffffffffffffffffffffffffffffffffffffffff166342842e0e3085856040518463ffffffff1660e01b81526004016102a793929190610b58565b600060405180830381600087803b1580156102c157600080fd5b505af11580156102d5573d6000803e3d6000fd5b50505050505050565b600180546102eb90610da8565b80601f016020809104026020016040519081016040528092919081815260200182805461031790610da8565b80156103645780601f1061033957610100808354040283529160200191610364565b820191906000526020600020905b81548152906001019060200180831161034757829003601f168201915b505050505081565b60008060018111156103a7577f4e487b7100000000000000000000000000000000000000000000000000000000600052602160045260246000fd5b600260009054906101000a900460ff1660018111156103ef577f4e487b7100000000000000000000000000000000000000000000000000000000600052602160045260246000fd5b1461042f576040517f08c379a000000000000000000000000000000000000000000000000000000000815260040161042690610c07565b60405180910390fd5b600260019054906101000a900473ffffffffffffffffffffffffffffffffffffffff1673ffffffffffffffffffffffffffffffffffffffff163373ffffffffffffffffffffffffffffffffffffffff16146104bf576040517f08c379a00000000000000000000000000000000000000000000000000000000081526004016104b690610c47565b60405180910390fd5b6104cb858585856107b4565b9050949350505050565b600260009054906101000a900460ff1681565b6104f06107ac565b73ffffffffffffffffffffffffffffffffffffffff1661050e61063f565b73ffffffffffffffffffffffffffffffffffffffff1614610564576040517f08c379a000000000000000000000000000000000000000000000000000000000815260040161055b90610c27565b60405180910390fd5b80600260006101000a81548160ff021916908360018111156105af577f4e487b7100000000000000000000000000000000000000000000000000000000600052602160045260246000fd5b021790555050565b6105bf6107ac565b73ffffffffffffffffffffffffffffffffffffffff166105dd61063f565b73ffffffffffffffffffffffffffffffffffffffff1614610633576040517f08c379a000000000000000000000000000000000000000000000000000000000815260040161062a90610c27565b60405180910390fd5b61063d60006107c8565b565b60008060009054906101000a900473ffffffffffffffffffffffffffffffffffffffff16905090565b600260019054906101000a900473ffffffffffffffffffffffffffffffffffffffff1681565b600360009054906101000a900473ffffffffffffffffffffffffffffffffffffffff1681565b6106bc6107ac565b73ffffffffffffffffffffffffffffffffffffffff166106da61063f565b73ffffffffffffffffffffffffffffffffffffffff1614610730576040517f08c379a000000000000000000000000000000000000000000000000000000000815260040161072790610c27565b60405180910390fd5b600073ffffffffffffffffffffffffffffffffffffffff168173ffffffffffffffffffffffffffffffffffffffff1614156107a0576040517f08c379a000000000000000000000000000000000000000000000000000000000815260040161079790610be7565b60405180910390fd5b6107a9816107c8565b50565b600033905090565b600063150b7a0260e01b9050949350505050565b60008060009054906101000a900473ffffffffffffffffffffffffffffffffffffffff169050816000806101000a81548173ffffffffffffffffffffffffffffffffffffffff021916908373ffffffffffffffffffffffffffffffffffffffff1602179055508173ffffffffffffffffffffffffffffffffffffffff168173ffffffffffffffffffffffffffffffffffffffff167f8be0079c531659141344cd1fd0a4f28419497f9722a3daafe3b4186f6b6457e060405160405180910390a35050565b600061089f61089a84610c8c565b610c67565b9050828152602081018484840111156108b757600080fd5b6108c2848285610d66565b509392505050565b6000813590506108d981610fad565b92915050565b600082601f8301126108f057600080fd5b813561090084826020860161088c565b91505092915050565b60008135905061091881610fc4565b92915050565b60008135905061092d81610fd4565b92915050565b60006020828403121561094557600080fd5b6000610953848285016108ca565b91505092915050565b6000806000806080858703121561097257600080fd5b6000610980878288016108ca565b9450506020610991878288016108ca565b93505060406109a28782880161091e565b925050606085013567ffffffffffffffff8111156109bf57600080fd5b6109cb878288016108df565b91505092959194509250565b600080604083850312156109ea57600080fd5b60006109f8858286016108ca565b9250506020610a098582860161091e565b9150509250929050565b600060208284031215610a2557600080fd5b6000610a3384828501610909565b91505092915050565b610a4581610cd9565b82525050565b610a5481610ceb565b82525050565b610a6381610d54565b82525050565b6000610a7482610cbd565b610a7e8185610cc8565b9350610a8e818560208601610d75565b610a9781610e98565b840191505092915050565b6000610aaf602683610cc8565b9150610aba82610ea9565b604082019050919050565b6000610ad2601b83610cc8565b9150610add82610ef8565b602082019050919050565b6000610af5602083610cc8565b9150610b0082610f21565b602082019050919050565b6000610b18602f83610cc8565b9150610b2382610f4a565b604082019050919050565b610b3781610d4a565b82525050565b6000602082019050610b526000830184610a3c565b92915050565b6000606082019050610b6d6000830186610a3c565b610b7a6020830185610a3c565b610b876040830184610b2e565b949350505050565b6000602082019050610ba46000830184610a4b565b92915050565b6000602082019050610bbf6000830184610a5a565b92915050565b60006020820190508181036000830152610bdf8184610a69565b905092915050565b60006020820190508181036000830152610c0081610aa2565b9050919050565b60006020820190508181036000830152610c2081610ac5565b9050919050565b60006020820190508181036000830152610c4081610ae8565b9050919050565b60006020820190508181036000830152610c6081610b0b565b9050919050565b6000610c71610c82565b9050610c7d8282610dda565b919050565b6000604051905090565b600067ffffffffffffffff821115610ca757610ca6610e69565b5b610cb082610e98565b9050602081019050919050565b600081519050919050565b600082825260208201905092915050565b6000610ce482610d2a565b9050919050565b60007fffffffff0000000000000000000000000000000000000000000000000000000082169050919050565b6000819050610d2582610f99565b919050565b600073ffffffffffffffffffffffffffffffffffffffff82169050919050565b6000819050919050565b6000610d5f82610d17565b9050919050565b82818337600083830152505050565b60005b83811015610d93578082015181840152602081019050610d78565b83811115610da2576000848401525b50505050565b60006002820490506001821680610dc057607f821691505b60208210811415610dd457610dd3610e3a565b5b50919050565b610de382610e98565b810181811067ffffffffffffffff82111715610e0257610e01610e69565b5b80604052505050565b7f4e487b7100000000000000000000000000000000000000000000000000000000600052602160045260246000fd5b7f4e487b7100000000000000000000000000000000000000000000000000000000600052602260045260246000fd5b7f4e487b7100000000000000000000000000000000000000000000000000000000600052604160045260246000fd5b6000601f19601f8301169050919050565b7f4f776e61626c653a206e6577206f776e657220697320746865207a65726f206160008201527f6464726573730000000000000000000000000000000000000000000000000000602082015250565b7f44656c6976657279206e6f6465206973206e6f74206f6e6c696e650000000000600082015250565b7f4f776e61626c653a2063616c6c6572206973206e6f7420746865206f776e6572600082015250565b7f455243373231207265636569766564206973206e6f742066726f6d206b6e6f7760008201527f6e20746f6b656e20616464726573730000000000000000000000000000000000602082015250565b60028110610faa57610fa9610e0b565b5b50565b610fb681610cd9565b8114610fc157600080fd5b50565b60028110610fd157600080fd5b50565b610fdd81610d4a565b8114610fe857600080fd5b5056fea26469706673582212207762056eb4f72693d24abf2e01b9d442bb815d9fe139efdf7d6b162bd13bb09b64736f6c63430008040033",
  "immutableReferences": {},
  "source": "// SPDX-License-Identifier: MIT\npragma solidity ^0.8.0;\n\nimport '@openzeppelin/contracts/access/Ownable.sol';\nimport '@openzeppelin/contracts/token/ERC721/utils/ERC721Holder.sol';\n\nimport \"./PackageToken.sol\";\nimport \"./ReceiptToken.sol\";\n\ncontract DeliveryNode is ERC721Holder, Ownable {\n\n  enum NodeStatus{\n    ONLINE,\n    OFFILINE\n  }\n\n  string public name;\n  NodeStatus public status;\n  address public packageTokenAddress;\n  address public receiptTokenAddress;\n\n  constructor(string memory _name, NodeStatus _status, address _packageTokenAddress, address _receiptTokenAddress) {\n    name = _name;\n    status = _status;\n    packageTokenAddress = _packageTokenAddress;\n    receiptTokenAddress = _receiptTokenAddress;\n  }\n\n  function onERC721Received(address operator, address from, uint256 tokenId, bytes memory data) public override returns (bytes4) {\n    require(status == NodeStatus.ONLINE, \"Delivery node is not online\");\n    require(msg.sender == packageTokenAddress, \"ERC721 received is not from known token address\");\n\n    return super.onERC721Received(operator, from, tokenId, data);\n  }\n\n  function forwardPackage(address recipientAddress, uint256 packageTokenId) external onlyOwner {\n    PackageToken deployedTokenContract = PackageToken(packageTokenAddress);\n    \n    deployedTokenContract.safeTransferFrom(address(this), recipientAddress, packageTokenId);\n  }\n\n  function setNodeStatus(NodeStatus _status) external onlyOwner {\n    status = _status;\n  }\n\n}\n",
  "sourcePath": "/home/james/Workspaces/tracking-demo/contracts/DeliveryNode.sol",
  "compiler": {
    "name": "solc",
    "version": "0.8.4+commit.c7e474f2.Emscripten.clang"
  },
  "schemaVersion": "3.4.6",
  "updatedAt": "2022-04-20T14:51:15.846Z",
  "devdoc": {
    "kind": "dev",
    "methods": {
      "owner()": {
        "details": "Returns the address of the current owner."
      },
      "renounceOwnership()": {
        "details": "Leaves the contract without owner. It will not be possible to call `onlyOwner` functions anymore. Can only be called by the current owner. NOTE: Renouncing ownership will leave the contract without an owner, thereby removing any functionality that is only available to the owner."
      },
      "transferOwnership(address)": {
        "details": "Transfers ownership of the contract to a new account (`newOwner`). Can only be called by the current owner."
      }
    },
    "version": 1
  },
  "userdoc": {
    "kind": "user",
    "methods": {},
    "version": 1
  }
}