{
  "contractName": "DeliveryNode",
  "abi": [
    {
      "inputs": [
        {
          "internalType": "string",
          "name": "_name",
          "type": "string"
        },
        {
          "internalType": "enum DeliveryNode.NodeStatus",
          "name": "_status",
          "type": "uint8"
        },
        {
          "internalType": "address",
          "name": "_packageTokenAddress",
          "type": "address"
        }
      ],
      "stateMutability": "nonpayable",
      "type": "constructor"
    },
    {
      "anonymous": false,
      "inputs": [
        {
          "indexed": true,
          "internalType": "address",
          "name": "previousOwner",
          "type": "address"
        },
        {
          "indexed": true,
          "internalType": "address",
          "name": "newOwner",
          "type": "address"
        }
      ],
      "name": "OwnershipTransferred",
      "type": "event"
    },
    {
      "inputs": [],
      "name": "name",
      "outputs": [
        {
          "internalType": "string",
          "name": "",
          "type": "string"
        }
      ],
      "stateMutability": "view",
      "type": "function"
    },
    {
      "inputs": [],
      "name": "owner",
      "outputs": [
        {
          "internalType": "address",
          "name": "",
          "type": "address"
        }
      ],
      "stateMutability": "view",
      "type": "function"
    },
    {
      "inputs": [],
      "name": "packageTokenAddress",
      "outputs": [
        {
          "internalType": "address",
          "name": "",
          "type": "address"
        }
      ],
      "stateMutability": "view",
      "type": "function"
    },
    {
      "inputs": [],
      "name": "renounceOwnership",
      "outputs": [],
      "stateMutability": "nonpayable",
      "type": "function"
    },
    {
      "inputs": [],
      "name": "status",
      "outputs": [
        {
          "internalType": "enum DeliveryNode.NodeStatus",
          "name": "",
          "type": "uint8"
        }
      ],
      "stateMutability": "view",
      "type": "function"
    },
    {
      "inputs": [
        {
          "internalType": "address",
          "name": "newOwner",
          "type": "address"
        }
      ],
      "name": "transferOwnership",
      "outputs": [],
      "stateMutability": "nonpayable",
      "type": "function"
    },
    {
      "inputs": [
        {
          "internalType": "address",
          "name": "operator",
          "type": "address"
        },
        {
          "internalType": "address",
          "name": "from",
          "type": "address"
        },
        {
          "internalType": "uint256",
          "name": "tokenId",
          "type": "uint256"
        },
        {
          "internalType": "bytes",
          "name": "data",
          "type": "bytes"
        }
      ],
      "name": "onERC721Received",
      "outputs": [
        {
          "internalType": "bytes4",
          "name": "",
          "type": "bytes4"
        }
      ],
      "stateMutability": "nonpayable",
      "type": "function"
    },
    {
      "inputs": [
        {
          "internalType": "address",
          "name": "recipientAddress",
          "type": "address"
        },
        {
          "internalType": "uint256",
          "name": "packageTokenId",
          "type": "uint256"
        }
      ],
      "name": "forwardPackage",
      "outputs": [],
      "stateMutability": "nonpayable",
      "type": "function"
    },
    {
      "inputs": [
        {
          "internalType": "enum DeliveryNode.NodeStatus",
          "name": "_status",
          "type": "uint8"
        }
      ],
      "name": "setNodeStatus",
      "outputs": [],
      "stateMutability": "nonpayable",
      "type": "function"
    }
  ],
  "bytecode": "0x60806040523480156200001157600080fd5b506040516200154738038062001547833981810160405281019062000037919062000327565b620000576200004b6200010b60201b60201c565b6200011360201b60201c565b82600190805190602001906200006f929190620001d7565b5081600260006101000a81548160ff02191690836001811115620000bc577f4e487b7100000000000000000000000000000000000000000000000000000000600052602160045260246000fd5b021790555080600260016101000a81548173ffffffffffffffffffffffffffffffffffffffff021916908373ffffffffffffffffffffffffffffffffffffffff16021790555050505062000565565b600033905090565b60008060009054906101000a900473ffffffffffffffffffffffffffffffffffffffff169050816000806101000a81548173ffffffffffffffffffffffffffffffffffffffff021916908373ffffffffffffffffffffffffffffffffffffffff1602179055508173ffffffffffffffffffffffffffffffffffffffff168173ffffffffffffffffffffffffffffffffffffffff167f8be0079c531659141344cd1fd0a4f28419497f9722a3daafe3b4186f6b6457e060405160405180910390a35050565b828054620001e5906200045f565b90600052602060002090601f01602090048101928262000209576000855562000255565b82601f106200022457805160ff191683800117855562000255565b8280016001018555821562000255579182015b828111156200025457825182559160200191906001019062000237565b5b50905062000264919062000268565b5090565b5b808211156200028357600081600090555060010162000269565b5090565b60006200029e6200029884620003bf565b62000396565b905082815260208101848484011115620002b757600080fd5b620002c484828562000429565b509392505050565b600081519050620002dd816200053a565b92915050565b600081519050620002f48162000554565b92915050565b600082601f8301126200030c57600080fd5b81516200031e84826020860162000287565b91505092915050565b6000806000606084860312156200033d57600080fd5b600084015167ffffffffffffffff8111156200035857600080fd5b6200036686828701620002fa565b93505060206200037986828701620002e3565b92505060406200038c86828701620002cc565b9150509250925092565b6000620003a2620003b5565b9050620003b0828262000495565b919050565b6000604051905090565b600067ffffffffffffffff821115620003dd57620003dc620004fa565b5b620003e88262000529565b9050602081019050919050565b6000620004028262000409565b9050919050565b600073ffffffffffffffffffffffffffffffffffffffff82169050919050565b60005b83811015620004495780820151818401526020810190506200042c565b8381111562000459576000848401525b50505050565b600060028204905060018216806200047857607f821691505b602082108114156200048f576200048e620004cb565b5b50919050565b620004a08262000529565b810181811067ffffffffffffffff82111715620004c257620004c1620004fa565b5b80604052505050565b7f4e487b7100000000000000000000000000000000000000000000000000000000600052602260045260246000fd5b7f4e487b7100000000000000000000000000000000000000000000000000000000600052604160045260246000fd5b6000601f19601f8301169050919050565b6200054581620003f5565b81146200055157600080fd5b50565b600281106200056257600080fd5b50565b610fd280620005756000396000f3fe608060405234801561001057600080fd5b50600436106100935760003560e01c80636e2ebae7116100665780636e2ebae714610120578063715018a61461013c5780638da5cb5b146101465780639d8d817814610164578063f2fde38b1461018257610093565b8063018b16981461009857806306fdde03146100b4578063150b7a02146100d2578063200d2ed214610102575b600080fd5b6100b260048036038101906100ad9190610988565b61019e565b005b6100bc6102b5565b6040516100c99190610b76565b60405180910390f35b6100ec60048036038101906100e7919061090d565b610343565b6040516100f99190610b40565b60405180910390f35b61010a6104ac565b6040516101179190610b5b565b60405180910390f35b61013a600480360381019061013591906109c4565b6104bf565b005b61014461058e565b005b61014e610616565b60405161015b9190610aee565b60405180910390f35b61016c61063f565b6040516101799190610aee565b60405180910390f35b61019c600480360381019061019791906108e4565b610665565b005b6101a661075d565b73ffffffffffffffffffffffffffffffffffffffff166101c4610616565b73ffffffffffffffffffffffffffffffffffffffff161461021a576040517f08c379a000000000000000000000000000000000000000000000000000000000815260040161021190610bd8565b60405180910390fd5b6000600260019054906101000a900473ffffffffffffffffffffffffffffffffffffffff1690508073ffffffffffffffffffffffffffffffffffffffff166342842e0e3085856040518463ffffffff1660e01b815260040161027e93929190610b09565b600060405180830381600087803b15801561029857600080fd5b505af11580156102ac573d6000803e3d6000fd5b50505050505050565b600180546102c290610d59565b80601f01602080910402602001604051908101604052809291908181526020018280546102ee90610d59565b801561033b5780601f106103105761010080835404028352916020019161033b565b820191906000526020600020905b81548152906001019060200180831161031e57829003601f168201915b505050505081565b600080600181111561037e577f4e487b7100000000000000000000000000000000000000000000000000000000600052602160045260246000fd5b600260009054906101000a900460ff1660018111156103c6577f4e487b7100000000000000000000000000000000000000000000000000000000600052602160045260246000fd5b14610406576040517f08c379a00000000000000000000000000000000000000000000000000000000081526004016103fd90610b98565b60405180910390fd5b600260019054906101000a900473ffffffffffffffffffffffffffffffffffffffff1673ffffffffffffffffffffffffffffffffffffffff163373ffffffffffffffffffffffffffffffffffffffff1614610496576040517f08c379a000000000000000000000000000000000000000000000000000000000815260040161048d90610bf8565b60405180910390fd5b6104a285858585610765565b9050949350505050565b600260009054906101000a900460ff1681565b6104c761075d565b73ffffffffffffffffffffffffffffffffffffffff166104e5610616565b73ffffffffffffffffffffffffffffffffffffffff161461053b576040517f08c379a000000000000000000000000000000000000000000000000000000000815260040161053290610bd8565b60405180910390fd5b80600260006101000a81548160ff02191690836001811115610586577f4e487b7100000000000000000000000000000000000000000000000000000000600052602160045260246000fd5b021790555050565b61059661075d565b73ffffffffffffffffffffffffffffffffffffffff166105b4610616565b73ffffffffffffffffffffffffffffffffffffffff161461060a576040517f08c379a000000000000000000000000000000000000000000000000000000000815260040161060190610bd8565b60405180910390fd5b6106146000610779565b565b60008060009054906101000a900473ffffffffffffffffffffffffffffffffffffffff16905090565b600260019054906101000a900473ffffffffffffffffffffffffffffffffffffffff1681565b61066d61075d565b73ffffffffffffffffffffffffffffffffffffffff1661068b610616565b73ffffffffffffffffffffffffffffffffffffffff16146106e1576040517f08c379a00000000000000000000000000000000000000000000000000000000081526004016106d890610bd8565b60405180910390fd5b600073ffffffffffffffffffffffffffffffffffffffff168173ffffffffffffffffffffffffffffffffffffffff161415610751576040517f08c379a000000000000000000000000000000000000000000000000000000000815260040161074890610bb8565b60405180910390fd5b61075a81610779565b50565b600033905090565b600063150b7a0260e01b9050949350505050565b60008060009054906101000a900473ffffffffffffffffffffffffffffffffffffffff169050816000806101000a81548173ffffffffffffffffffffffffffffffffffffffff021916908373ffffffffffffffffffffffffffffffffffffffff1602179055508173ffffffffffffffffffffffffffffffffffffffff168173ffffffffffffffffffffffffffffffffffffffff167f8be0079c531659141344cd1fd0a4f28419497f9722a3daafe3b4186f6b6457e060405160405180910390a35050565b600061085061084b84610c3d565b610c18565b90508281526020810184848401111561086857600080fd5b610873848285610d17565b509392505050565b60008135905061088a81610f5e565b92915050565b600082601f8301126108a157600080fd5b81356108b184826020860161083d565b91505092915050565b6000813590506108c981610f75565b92915050565b6000813590506108de81610f85565b92915050565b6000602082840312156108f657600080fd5b60006109048482850161087b565b91505092915050565b6000806000806080858703121561092357600080fd5b60006109318782880161087b565b94505060206109428782880161087b565b9350506040610953878288016108cf565b925050606085013567ffffffffffffffff81111561097057600080fd5b61097c87828801610890565b91505092959194509250565b6000806040838503121561099b57600080fd5b60006109a98582860161087b565b92505060206109ba858286016108cf565b9150509250929050565b6000602082840312156109d657600080fd5b60006109e4848285016108ba565b91505092915050565b6109f681610c8a565b82525050565b610a0581610c9c565b82525050565b610a1481610d05565b82525050565b6000610a2582610c6e565b610a2f8185610c79565b9350610a3f818560208601610d26565b610a4881610e49565b840191505092915050565b6000610a60601883610c79565b9150610a6b82610e5a565b602082019050919050565b6000610a83602683610c79565b9150610a8e82610e83565b604082019050919050565b6000610aa6602083610c79565b9150610ab182610ed2565b602082019050919050565b6000610ac9602f83610c79565b9150610ad482610efb565b604082019050919050565b610ae881610cfb565b82525050565b6000602082019050610b0360008301846109ed565b92915050565b6000606082019050610b1e60008301866109ed565b610b2b60208301856109ed565b610b386040830184610adf565b949350505050565b6000602082019050610b5560008301846109fc565b92915050565b6000602082019050610b706000830184610a0b565b92915050565b60006020820190508181036000830152610b908184610a1a565b905092915050565b60006020820190508181036000830152610bb181610a53565b9050919050565b60006020820190508181036000830152610bd181610a76565b9050919050565b60006020820190508181036000830152610bf181610a99565b9050919050565b60006020820190508181036000830152610c1181610abc565b9050919050565b6000610c22610c33565b9050610c2e8282610d8b565b919050565b6000604051905090565b600067ffffffffffffffff821115610c5857610c57610e1a565b5b610c6182610e49565b9050602081019050919050565b600081519050919050565b600082825260208201905092915050565b6000610c9582610cdb565b9050919050565b60007fffffffff0000000000000000000000000000000000000000000000000000000082169050919050565b6000819050610cd682610f4a565b919050565b600073ffffffffffffffffffffffffffffffffffffffff82169050919050565b6000819050919050565b6000610d1082610cc8565b9050919050565b82818337600083830152505050565b60005b83811015610d44578082015181840152602081019050610d29565b83811115610d53576000848401525b50505050565b60006002820490506001821680610d7157607f821691505b60208210811415610d8557610d84610deb565b5b50919050565b610d9482610e49565b810181811067ffffffffffffffff82111715610db357610db2610e1a565b5b80604052505050565b7f4e487b7100000000000000000000000000000000000000000000000000000000600052602160045260246000fd5b7f4e487b7100000000000000000000000000000000000000000000000000000000600052602260045260246000fd5b7f4e487b7100000000000000000000000000000000000000000000000000000000600052604160045260246000fd5b6000601f19601f8301169050919050565b7f44656c6976657279206e6f6465206973206f66666c696e650000000000000000600082015250565b7f4f776e61626c653a206e6577206f776e657220697320746865207a65726f206160008201527f6464726573730000000000000000000000000000000000000000000000000000602082015250565b7f4f776e61626c653a2063616c6c6572206973206e6f7420746865206f776e6572600082015250565b7f455243373231207265636569766564206973206e6f742066726f6d206b6e6f7760008201527f6e20746f6b656e20616464726573730000000000000000000000000000000000602082015250565b60028110610f5b57610f5a610dbc565b5b50565b610f6781610c8a565b8114610f7257600080fd5b50565b60028110610f8257600080fd5b50565b610f8e81610cfb565b8114610f9957600080fd5b5056fea2646970667358221220732af17cbfc5b2ca973d450cc63c1fe4cfefc92f5c183489efbc0fb8899d419264736f6c63430008040033",
  "immutableReferences": {},
  "source": "// SPDX-License-Identifier: MIT\npragma solidity ^0.8.0;\n\nimport '@openzeppelin/contracts/access/Ownable.sol';\nimport '@openzeppelin/contracts/token/ERC721/utils/ERC721Holder.sol';\n\nimport \"./PackageToken.sol\";\nimport \"./ReceiptToken.sol\";\n\ncontract DeliveryNode is ERC721Holder, Ownable {\n\n  enum NodeStatus{\n    ONLINE,\n    OFFLINE\n  }\n\n  string public name;\n  NodeStatus public status;\n  address public packageTokenAddress;\n\n  constructor(string memory _name, NodeStatus _status, address _packageTokenAddress) {\n    name = _name;\n    status = _status;\n    packageTokenAddress = _packageTokenAddress;\n  }\n\n  function onERC721Received(address operator, address from, uint256 tokenId, bytes memory data) public override returns (bytes4) {\n    require(status == NodeStatus.ONLINE, \"Delivery node is offline\");\n    require(msg.sender == packageTokenAddress, \"ERC721 received is not from known token address\");\n\n    return super.onERC721Received(operator, from, tokenId, data);\n  }\n\n  function forwardPackage(address recipientAddress, uint256 packageTokenId) external onlyOwner {\n    PackageToken deployedTokenContract = PackageToken(packageTokenAddress);\n    \n    deployedTokenContract.safeTransferFrom(address(this), recipientAddress, packageTokenId);\n  }\n\n  function setNodeStatus(NodeStatus _status) external onlyOwner {\n    status = _status;\n  }\n\n}\n",
  "sourcePath": "/home/james/Workspaces/tracking-demo/contracts/DeliveryNode.sol",
  "compiler": {
    "name": "solc",
    "version": "0.8.4+commit.c7e474f2.Emscripten.clang"
  },
  "schemaVersion": "3.4.6",
  "updatedAt": "2022-04-26T13:20:17.528Z",
  "devdoc": {
    "kind": "dev",
    "methods": {
      "owner()": {
        "details": "Returns the address of the current owner."
      },
      "renounceOwnership()": {
        "details": "Leaves the contract without owner. It will not be possible to call `onlyOwner` functions anymore. Can only be called by the current owner. NOTE: Renouncing ownership will leave the contract without an owner, thereby removing any functionality that is only available to the owner."
      },
      "transferOwnership(address)": {
        "details": "Transfers ownership of the contract to a new account (`newOwner`). Can only be called by the current owner."
      }
    },
    "version": 1
  },
  "userdoc": {
    "kind": "user",
    "methods": {},
    "version": 1
  }
}