{
  "contractName": "DeliveryCoordinator",
  "abi": [
    {
      "inputs": [
        {
          "internalType": "address",
          "name": "_packageTokenAddress",
          "type": "address"
        },
        {
          "internalType": "address",
          "name": "_receiptTokenAddress",
          "type": "address"
        }
      ],
      "stateMutability": "nonpayable",
      "type": "constructor"
    },
    {
      "anonymous": false,
      "inputs": [
        {
          "indexed": true,
          "internalType": "address",
          "name": "previousOwner",
          "type": "address"
        },
        {
          "indexed": true,
          "internalType": "address",
          "name": "newOwner",
          "type": "address"
        }
      ],
      "name": "OwnershipTransferred",
      "type": "event"
    },
    {
      "inputs": [
        {
          "internalType": "uint256",
          "name": "",
          "type": "uint256"
        }
      ],
      "name": "deliveryNodes",
      "outputs": [
        {
          "internalType": "contract DeliveryNode",
          "name": "",
          "type": "address"
        }
      ],
      "stateMutability": "view",
      "type": "function",
      "constant": true
    },
    {
      "inputs": [],
      "name": "owner",
      "outputs": [
        {
          "internalType": "address",
          "name": "",
          "type": "address"
        }
      ],
      "stateMutability": "view",
      "type": "function",
      "constant": true
    },
    {
      "inputs": [],
      "name": "packageTokenAddress",
      "outputs": [
        {
          "internalType": "address",
          "name": "",
          "type": "address"
        }
      ],
      "stateMutability": "view",
      "type": "function",
      "constant": true
    },
    {
      "inputs": [],
      "name": "receiptTokenAddress",
      "outputs": [
        {
          "internalType": "address",
          "name": "",
          "type": "address"
        }
      ],
      "stateMutability": "view",
      "type": "function",
      "constant": true
    },
    {
      "inputs": [],
      "name": "renounceOwnership",
      "outputs": [],
      "stateMutability": "nonpayable",
      "type": "function"
    },
    {
      "inputs": [
        {
          "internalType": "address",
          "name": "newOwner",
          "type": "address"
        }
      ],
      "name": "transferOwnership",
      "outputs": [],
      "stateMutability": "nonpayable",
      "type": "function"
    },
    {
      "inputs": [
        {
          "internalType": "string",
          "name": "_nodeName",
          "type": "string"
        }
      ],
      "name": "addDeliveryNode",
      "outputs": [],
      "stateMutability": "nonpayable",
      "type": "function"
    },
    {
      "inputs": [
        {
          "internalType": "string",
          "name": "_packageContents",
          "type": "string"
        },
        {
          "internalType": "string",
          "name": "_packageWeight",
          "type": "string"
        }
      ],
      "name": "createPackage",
      "outputs": [],
      "stateMutability": "nonpayable",
      "type": "function"
    }
  ],
  "bytecode": "0x60806040523480156200001157600080fd5b5060405162001637380380620016378339818101604052810190620000379190620001c4565b620000576200004b620000e160201b60201c565b620000e960201b60201c565b81600260006101000a81548173ffffffffffffffffffffffffffffffffffffffff021916908373ffffffffffffffffffffffffffffffffffffffff16021790555080600360006101000a81548173ffffffffffffffffffffffffffffffffffffffff021916908373ffffffffffffffffffffffffffffffffffffffff160217905550505062000253565b600033905090565b60008060009054906101000a900473ffffffffffffffffffffffffffffffffffffffff169050816000806101000a81548173ffffffffffffffffffffffffffffffffffffffff021916908373ffffffffffffffffffffffffffffffffffffffff1602179055508173ffffffffffffffffffffffffffffffffffffffff168173ffffffffffffffffffffffffffffffffffffffff167f8be0079c531659141344cd1fd0a4f28419497f9722a3daafe3b4186f6b6457e060405160405180910390a35050565b600081519050620001be8162000239565b92915050565b60008060408385031215620001d857600080fd5b6000620001e885828601620001ad565b9250506020620001fb85828601620001ad565b9150509250929050565b6000620002128262000219565b9050919050565b600073ffffffffffffffffffffffffffffffffffffffff82169050919050565b620002448162000205565b81146200025057600080fd5b50565b6113d480620002636000396000f3fe60806040523480156200001157600080fd5b5060043610620000945760003560e01c80638da5cb5b11620000635780638da5cb5b146200011b5780639d8d8178146200013d578063c17ca3e7146200015f578063f2fde38b14620001815762000094565b8063093fbbb7146200009957806328331c8814620000b9578063715018a614620000d957806383b7259214620000e5575b600080fd5b620000b76004803603810190620000b191906200078e565b620001a1565b005b620000d76004803603810190620000d19190620007d3565b620002c5565b005b620000e362000387565b005b620001036004803603810190620000fd919062000846565b62000418565b604051620001129190620009c8565b60405180910390f35b6200012562000458565b60405162000134919062000960565b60405180910390f35b6200014762000481565b60405162000156919062000960565b60405180910390f35b62000169620004a7565b60405162000178919062000960565b60405180910390f35b6200019f600480360381019062000199919062000762565b620004cd565b005b620001ab620005d1565b73ffffffffffffffffffffffffffffffffffffffff16620001cb62000458565b73ffffffffffffffffffffffffffffffffffffffff161462000224576040517f08c379a00000000000000000000000000000000000000000000000000000000081526004016200021b9062000a3b565b60405180910390fd5b600181600060405162000237906200069d565b62000244929190620009e5565b604051809103906000f08015801562000261573d6000803e3d6000fd5b509080600181540180825580915050600190039060005260206000200160009091909190916101000a81548173ffffffffffffffffffffffffffffffffffffffff021916908373ffffffffffffffffffffffffffffffffffffffff16021790555050565b6000600260009054906101000a900473ffffffffffffffffffffffffffffffffffffffff1690508073ffffffffffffffffffffffffffffffffffffffff16636c8d75353385856040518463ffffffff1660e01b81526004016200032b939291906200097d565b602060405180830381600087803b1580156200034657600080fd5b505af11580156200035b573d6000803e3d6000fd5b505050506040513d601f19601f8201168201806040525081019062000381919062000872565b50505050565b62000391620005d1565b73ffffffffffffffffffffffffffffffffffffffff16620003b162000458565b73ffffffffffffffffffffffffffffffffffffffff16146200040a576040517f08c379a0000000000000000000000000000000000000000000000000000000008152600401620004019062000a3b565b60405180910390fd5b620004166000620005d9565b565b600181815481106200042957600080fd5b906000526020600020016000915054906101000a900473ffffffffffffffffffffffffffffffffffffffff1681565b60008060009054906101000a900473ffffffffffffffffffffffffffffffffffffffff16905090565b600260009054906101000a900473ffffffffffffffffffffffffffffffffffffffff1681565b600360009054906101000a900473ffffffffffffffffffffffffffffffffffffffff1681565b620004d7620005d1565b73ffffffffffffffffffffffffffffffffffffffff16620004f762000458565b73ffffffffffffffffffffffffffffffffffffffff161462000550576040517f08c379a0000000000000000000000000000000000000000000000000000000008152600401620005479062000a3b565b60405180910390fd5b600073ffffffffffffffffffffffffffffffffffffffff168173ffffffffffffffffffffffffffffffffffffffff161415620005c3576040517f08c379a0000000000000000000000000000000000000000000000000000000008152600401620005ba9062000a19565b60405180910390fd5b620005ce81620005d9565b50565b600033905090565b60008060009054906101000a900473ffffffffffffffffffffffffffffffffffffffff169050816000806101000a81548173ffffffffffffffffffffffffffffffffffffffff021916908373ffffffffffffffffffffffffffffffffffffffff1602179055508173ffffffffffffffffffffffffffffffffffffffff168173ffffffffffffffffffffffffffffffffffffffff167f8be0079c531659141344cd1fd0a4f28419497f9722a3daafe3b4186f6b6457e060405160405180910390a35050565b61068a8062000d1583390190565b6000620006c2620006bc8462000a86565b62000a5d565b905082815260208101848484011115620006db57600080fd5b620006e884828562000b67565b509392505050565b600081359050620007018162000ce0565b92915050565b600082601f8301126200071957600080fd5b81356200072b848260208601620006ab565b91505092915050565b600081359050620007458162000cfa565b92915050565b6000815190506200075c8162000cfa565b92915050565b6000602082840312156200077557600080fd5b60006200078584828501620006f0565b91505092915050565b600060208284031215620007a157600080fd5b600082013567ffffffffffffffff811115620007bc57600080fd5b620007ca8482850162000707565b91505092915050565b60008060408385031215620007e757600080fd5b600083013567ffffffffffffffff8111156200080257600080fd5b620008108582860162000707565b925050602083013567ffffffffffffffff8111156200082e57600080fd5b6200083c8582860162000707565b9150509250929050565b6000602082840312156200085957600080fd5b6000620008698482850162000734565b91505092915050565b6000602082840312156200088557600080fd5b600062000895848285016200074b565b91505092915050565b620008a98162000ad8565b82525050565b620008ba8162000b2b565b82525050565b620008cb8162000b53565b82525050565b6000620008de8262000abc565b620008ea818562000ac7565b9350620008fc81856020860162000b76565b620009078162000c40565b840191505092915050565b60006200092160268362000ac7565b91506200092e8262000c51565b604082019050919050565b60006200094860208362000ac7565b9150620009558262000ca0565b602082019050919050565b60006020820190506200097760008301846200089e565b92915050565b60006060820190506200099460008301866200089e565b8181036020830152620009a88185620008d1565b90508181036040830152620009be8184620008d1565b9050949350505050565b6000602082019050620009df6000830184620008af565b92915050565b6000604082019050818103600083015262000a018185620008d1565b905062000a126020830184620008c0565b9392505050565b6000602082019050818103600083015262000a348162000912565b9050919050565b6000602082019050818103600083015262000a568162000939565b9050919050565b600062000a6962000a7c565b905062000a77828262000bac565b919050565b6000604051905090565b600067ffffffffffffffff82111562000aa45762000aa362000c11565b5b62000aaf8262000c40565b9050602081019050919050565b600081519050919050565b600082825260208201905092915050565b600062000ae58262000b01565b9050919050565b600081905062000afc8262000cc9565b919050565b600073ffffffffffffffffffffffffffffffffffffffff82169050919050565b6000819050919050565b600062000b388262000b3f565b9050919050565b600062000b4c8262000b01565b9050919050565b600062000b608262000aec565b9050919050565b82818337600083830152505050565b60005b8381101562000b9657808201518184015260208101905062000b79565b8381111562000ba6576000848401525b50505050565b62000bb78262000c40565b810181811067ffffffffffffffff8211171562000bd95762000bd862000c11565b5b80604052505050565b7f4e487b7100000000000000000000000000000000000000000000000000000000600052602160045260246000fd5b7f4e487b7100000000000000000000000000000000000000000000000000000000600052604160045260246000fd5b6000601f19601f8301169050919050565b7f4f776e61626c653a206e6577206f776e657220697320746865207a65726f206160008201527f6464726573730000000000000000000000000000000000000000000000000000602082015250565b7f4f776e61626c653a2063616c6c6572206973206e6f7420746865206f776e6572600082015250565b6002811062000cdd5762000cdc62000be2565b5b50565b62000ceb8162000ad8565b811462000cf757600080fd5b50565b62000d058162000b21565b811462000d1157600080fd5b5056fe608060405234801561001057600080fd5b5060405161068a38038061068a833981810160405281019061003291906101c0565b81600090805190602001906100489291906100a0565b5080600160006101000a81548160ff02191690836001811115610094577f4e487b7100000000000000000000000000000000000000000000000000000000600052602160045260246000fd5b0217905550505061037f565b8280546100ac9061029d565b90600052602060002090601f0160209004810192826100ce5760008555610115565b82601f106100e757805160ff1916838001178555610115565b82800160010185558215610115579182015b828111156101145782518255916020019190600101906100f9565b5b5090506101229190610126565b5090565b5b8082111561013f576000816000905550600101610127565b5090565b600061015661015184610239565b610214565b90508281526020810184848401111561016e57600080fd5b61017984828561026a565b509392505050565b6000815190506101908161036f565b92915050565b600082601f8301126101a757600080fd5b81516101b7848260208601610143565b91505092915050565b600080604083850312156101d357600080fd5b600083015167ffffffffffffffff8111156101ed57600080fd5b6101f985828601610196565b925050602061020a85828601610181565b9150509250929050565b600061021e61022f565b905061022a82826102cf565b919050565b6000604051905090565b600067ffffffffffffffff8211156102545761025361032f565b5b61025d8261035e565b9050602081019050919050565b60005b8381101561028857808201518184015260208101905061026d565b83811115610297576000848401525b50505050565b600060028204905060018216806102b557607f821691505b602082108114156102c9576102c8610300565b5b50919050565b6102d88261035e565b810181811067ffffffffffffffff821117156102f7576102f661032f565b5b80604052505050565b7f4e487b7100000000000000000000000000000000000000000000000000000000600052602260045260246000fd5b7f4e487b7100000000000000000000000000000000000000000000000000000000600052604160045260246000fd5b6000601f19601f8301169050919050565b6002811061037c57600080fd5b50565b6102fc8061038e6000396000f3fe608060405234801561001057600080fd5b50600436106100365760003560e01c806306fdde031461003b578063200d2ed214610059575b600080fd5b610043610077565b604051610050919061017b565b60405180910390f35b610061610105565b60405161006e9190610160565b60405180910390f35b6000805461008490610211565b80601f01602080910402602001604051908101604052809291908181526020018280546100b090610211565b80156100fd5780601f106100d2576101008083540402835291602001916100fd565b820191906000526020600020905b8154815290600101906020018083116100e057829003601f168201915b505050505081565b600160009054906101000a900460ff1681565b610121816101cc565b82525050565b60006101328261019d565b61013c81856101a8565b935061014c8185602086016101de565b610155816102a1565b840191505092915050565b60006020820190506101756000830184610118565b92915050565b600060208201905081810360008301526101958184610127565b905092915050565b600081519050919050565b600082825260208201905092915050565b60008190506101c7826102b2565b919050565b60006101d7826101b9565b9050919050565b60005b838110156101fc5780820151818401526020810190506101e1565b8381111561020b576000848401525b50505050565b6000600282049050600182168061022957607f821691505b6020821081141561023d5761023c610272565b5b50919050565b7f4e487b7100000000000000000000000000000000000000000000000000000000600052602160045260246000fd5b7f4e487b7100000000000000000000000000000000000000000000000000000000600052602260045260246000fd5b6000601f19601f8301169050919050565b600281106102c3576102c2610243565b5b5056fea26469706673582212202f407361fb63cfdb91389ced30bb678b34d327cde7c2bd196c923cdb3f53b8d764736f6c63430008040033a2646970667358221220ebd558e5831b5df8928ee4f45e7b420a35e6279358e138f8318ce8377ce457ea64736f6c63430008040033",
  "immutableReferences": {},
  "source": "// SPDX-License-Identifier: MIT\npragma solidity ^0.8.0;\n\nimport '@openzeppelin/contracts/access/Ownable.sol';\n\nimport \"./DeliveryNode.sol\";\nimport \"./PackageToken.sol\";\nimport \"./ReceiptToken.sol\";\n\ncontract DeliveryCoordinator is Ownable {\n\n  DeliveryNode[] public deliveryNodes;\n  address public packageTokenAddress;\n  address public receiptTokenAddress;\n\n  constructor(address _packageTokenAddress, address _receiptTokenAddress) {\n    packageTokenAddress = _packageTokenAddress;\n    receiptTokenAddress = _receiptTokenAddress;\n  }\n\n  function addDeliveryNode(string memory _nodeName) public onlyOwner {\n    deliveryNodes.push(new DeliveryNode(_nodeName, DeliveryNode.NodeStatus.ONLINE));\n  }\n\n  function createPackage(string memory _packageContents, string memory _packageWeight) public {\n    PackageToken deployedTokenContract = PackageToken(packageTokenAddress);\n    deployedTokenContract.createPackage(msg.sender, _packageContents, _packageWeight);\n  }\n\n}\n",
  "sourcePath": "/home/james/Workspaces/tracking-demo/contracts/DeliveryCoordinator.sol",
  "compiler": {
    "name": "solc",
    "version": "0.8.4+commit.c7e474f2.Emscripten.clang"
  },
  "schemaVersion": "3.4.6",
  "updatedAt": "2022-04-04T15:20:05.086Z",
  "networkType": "ethereum",
  "devdoc": {
    "kind": "dev",
    "methods": {
      "owner()": {
        "details": "Returns the address of the current owner."
      },
      "renounceOwnership()": {
        "details": "Leaves the contract without owner. It will not be possible to call `onlyOwner` functions anymore. Can only be called by the current owner. NOTE: Renouncing ownership will leave the contract without an owner, thereby removing any functionality that is only available to the owner."
      },
      "transferOwnership(address)": {
        "details": "Transfers ownership of the contract to a new account (`newOwner`). Can only be called by the current owner."
      }
    },
    "version": 1
  },
  "userdoc": {
    "kind": "user",
    "methods": {},
    "version": 1
  }
}