{
  "contractName": "DeliveryCoordinator",
  "abi": [
    {
      "inputs": [
        {
          "internalType": "address",
          "name": "_packageTokenAddress",
          "type": "address"
        },
        {
          "internalType": "address",
          "name": "_receiptTokenAddress",
          "type": "address"
        }
      ],
      "stateMutability": "nonpayable",
      "type": "constructor"
    },
    {
      "anonymous": false,
      "inputs": [
        {
          "indexed": true,
          "internalType": "address",
          "name": "previousOwner",
          "type": "address"
        },
        {
          "indexed": true,
          "internalType": "address",
          "name": "newOwner",
          "type": "address"
        }
      ],
      "name": "OwnershipTransferred",
      "type": "event"
    },
    {
      "inputs": [
        {
          "internalType": "uint256",
          "name": "",
          "type": "uint256"
        }
      ],
      "name": "deliveryNodes",
      "outputs": [
        {
          "internalType": "contract DeliveryNode",
          "name": "",
          "type": "address"
        }
      ],
      "stateMutability": "view",
      "type": "function"
    },
    {
      "inputs": [],
      "name": "owner",
      "outputs": [
        {
          "internalType": "address",
          "name": "",
          "type": "address"
        }
      ],
      "stateMutability": "view",
      "type": "function"
    },
    {
      "inputs": [],
      "name": "packageTokenAddress",
      "outputs": [
        {
          "internalType": "address",
          "name": "",
          "type": "address"
        }
      ],
      "stateMutability": "view",
      "type": "function"
    },
    {
      "inputs": [],
      "name": "receiptTokenAddress",
      "outputs": [
        {
          "internalType": "address",
          "name": "",
          "type": "address"
        }
      ],
      "stateMutability": "view",
      "type": "function"
    },
    {
      "inputs": [],
      "name": "renounceOwnership",
      "outputs": [],
      "stateMutability": "nonpayable",
      "type": "function"
    },
    {
      "inputs": [
        {
          "internalType": "address",
          "name": "newOwner",
          "type": "address"
        }
      ],
      "name": "transferOwnership",
      "outputs": [],
      "stateMutability": "nonpayable",
      "type": "function"
    },
    {
      "inputs": [
        {
          "internalType": "string",
          "name": "_nodeName",
          "type": "string"
        }
      ],
      "name": "addDeliveryNode",
      "outputs": [],
      "stateMutability": "nonpayable",
      "type": "function"
    },
    {
      "inputs": [
        {
          "internalType": "string",
          "name": "_packageContents",
          "type": "string"
        },
        {
          "internalType": "string",
          "name": "_packageWeight",
          "type": "string"
        }
      ],
      "name": "createPackage",
      "outputs": [
        {
          "internalType": "uint256",
          "name": "",
          "type": "uint256"
        }
      ],
      "stateMutability": "nonpayable",
      "type": "function"
    },
    {
      "inputs": [
        {
          "internalType": "address",
          "name": "destinationNode",
          "type": "address"
        },
        {
          "internalType": "uint256",
          "name": "packageTokenId",
          "type": "uint256"
        }
      ],
      "name": "forwardPackage",
      "outputs": [],
      "stateMutability": "nonpayable",
      "type": "function"
    },
    {
      "inputs": [
        {
          "internalType": "address",
          "name": "operator",
          "type": "address"
        },
        {
          "internalType": "address",
          "name": "from",
          "type": "address"
        },
        {
          "internalType": "uint256",
          "name": "tokenId",
          "type": "uint256"
        },
        {
          "internalType": "bytes",
          "name": "data",
          "type": "bytes"
        }
      ],
      "name": "onERC721Received",
      "outputs": [
        {
          "internalType": "bytes4",
          "name": "",
          "type": "bytes4"
        }
      ],
      "stateMutability": "nonpayable",
      "type": "function"
    }
  ],
  "bytecode": "0x60806040523480156200001157600080fd5b506040516200359c3803806200359c8339818101604052810190620000379190620001c4565b620000576200004b620000e160201b60201c565b620000e960201b60201c565b81600360006101000a81548173ffffffffffffffffffffffffffffffffffffffff021916908373ffffffffffffffffffffffffffffffffffffffff16021790555080600460006101000a81548173ffffffffffffffffffffffffffffffffffffffff021916908373ffffffffffffffffffffffffffffffffffffffff160217905550505062000253565b600033905090565b60008060009054906101000a900473ffffffffffffffffffffffffffffffffffffffff169050816000806101000a81548173ffffffffffffffffffffffffffffffffffffffff021916908373ffffffffffffffffffffffffffffffffffffffff1602179055508173ffffffffffffffffffffffffffffffffffffffff168173ffffffffffffffffffffffffffffffffffffffff167f8be0079c531659141344cd1fd0a4f28419497f9722a3daafe3b4186f6b6457e060405160405180910390a35050565b600081519050620001be8162000239565b92915050565b60008060408385031215620001d857600080fd5b6000620001e885828601620001ad565b9250506020620001fb85828601620001ad565b9150509250929050565b6000620002128262000219565b9050919050565b600073ffffffffffffffffffffffffffffffffffffffff82169050919050565b620002448162000205565b81146200025057600080fd5b50565b61333980620002636000396000f3fe60806040523480156200001157600080fd5b5060043610620000ac5760003560e01c806383b72592116200006f57806383b7259214620001695780638da5cb5b146200019f5780639d8d817814620001c1578063c17ca3e714620001e3578063f2fde38b146200020557620000ac565b8063018b169814620000b1578063093fbbb714620000d1578063150b7a0214620000f157806328331c881462000127578063715018a6146200015d575b600080fd5b620000cf6004803603810190620000c9919062001334565b62000225565b005b620000ef6004803603810190620000e9919062001375565b620005c9565b005b6200010f6004803603810190620001099190620012af565b62000793565b6040516200011e9190620016d7565b60405180910390f35b6200014560048036038101906200013f9190620013ba565b62000961565b60405162000154919062001831565b60405180910390f35b6200016762000a27565b005b6200018760048036038101906200018191906200142d565b62000ab8565b604051620001969190620016f4565b60405180910390f35b620001a962000af8565b604051620001b8919062001605565b60405180910390f35b620001cb62000b21565b604051620001da919062001605565b60405180910390f35b620001ed62000b47565b604051620001fc919062001605565b60405180910390f35b6200022360048036038101906200021d919062001257565b62000b6d565b005b60011515600260008473ffffffffffffffffffffffffffffffffffffffff1673ffffffffffffffffffffffffffffffffffffffff16815260200190815260200160002060009054906101000a900460ff16151514620002bb576040517f08c379a0000000000000000000000000000000000000000000000000000000008152600401620002b290620017a9565b60405180910390fd5b6000600360009054906101000a900473ffffffffffffffffffffffffffffffffffffffff16905060008173ffffffffffffffffffffffffffffffffffffffff16636352211e846040518263ffffffff1660e01b81526004016200031f919062001831565b60206040518083038186803b1580156200033857600080fd5b505afa1580156200034d573d6000803e3d6000fd5b505050506040513d601f19601f8201168201806040525081019062000373919062001283565b905060011515600260008373ffffffffffffffffffffffffffffffffffffffff1673ffffffffffffffffffffffffffffffffffffffff16815260200190815260200160002060009054906101000a900460ff16151514806200040057503073ffffffffffffffffffffffffffffffffffffffff168173ffffffffffffffffffffffffffffffffffffffff16145b62000442576040517f08c379a000000000000000000000000000000000000000000000000000000000815260040162000439906200180f565b60405180910390fd5b60011515600260008373ffffffffffffffffffffffffffffffffffffffff1673ffffffffffffffffffffffffffffffffffffffff16815260200190815260200160002060009054906101000a900460ff1615151415620005195760008190508073ffffffffffffffffffffffffffffffffffffffff1663018b169886866040518363ffffffff1660e01b8152600401620004de929190620016aa565b600060405180830381600087803b158015620004f957600080fd5b505af11580156200050e573d6000803e3d6000fd5b5050505050620005c3565b3073ffffffffffffffffffffffffffffffffffffffff168173ffffffffffffffffffffffffffffffffffffffff161415620005c2578173ffffffffffffffffffffffffffffffffffffffff166342842e0e3086866040518463ffffffff1660e01b81526004016200058d9392919062001622565b600060405180830381600087803b158015620005a857600080fd5b505af1158015620005bd573d6000803e3d6000fd5b505050505b5b50505050565b620005d362000c71565b73ffffffffffffffffffffffffffffffffffffffff16620005f362000af8565b73ffffffffffffffffffffffffffffffffffffffff16146200064c576040517f08c379a0000000000000000000000000000000000000000000000000000000008152600401620006439062001787565b60405180910390fd5b6000816000600360009054906101000a900473ffffffffffffffffffffffffffffffffffffffff16600460009054906101000a900473ffffffffffffffffffffffffffffffffffffffff16604051620006a59062001109565b620006b4949392919062001711565b604051809103906000f080158015620006d1573d6000803e3d6000fd5b5090506001819080600181540180825580915050600190039060005260206000200160009091909190916101000a81548173ffffffffffffffffffffffffffffffffffffffff021916908373ffffffffffffffffffffffffffffffffffffffff1602179055506001600260008373ffffffffffffffffffffffffffffffffffffffff1673ffffffffffffffffffffffffffffffffffffffff16815260200190815260200160002060006101000a81548160ff0219169083151502179055505050565b6000600360009054906101000a900473ffffffffffffffffffffffffffffffffffffffff1673ffffffffffffffffffffffffffffffffffffffff163373ffffffffffffffffffffffffffffffffffffffff1614806200083f5750600460009054906101000a900473ffffffffffffffffffffffffffffffffffffffff1673ffffffffffffffffffffffffffffffffffffffff163373ffffffffffffffffffffffffffffffffffffffff16145b62000881576040517f08c379a00000000000000000000000000000000000000000000000000000000081526004016200087890620017cb565b60405180910390fd5b600360009054906101000a900473ffffffffffffffffffffffffffffffffffffffff1673ffffffffffffffffffffffffffffffffffffffff163373ffffffffffffffffffffffffffffffffffffffff161415620008e557620008e4848462000c79565b5b600460009054906101000a900473ffffffffffffffffffffffffffffffffffffffff1673ffffffffffffffffffffffffffffffffffffffff163373ffffffffffffffffffffffffffffffffffffffff161415620009495762000948848462000d39565b5b620009578585858562001031565b9050949350505050565b600080600360009054906101000a900473ffffffffffffffffffffffffffffffffffffffff1690508073ffffffffffffffffffffffffffffffffffffffff16636c8d75353386866040518463ffffffff1660e01b8152600401620009c8939291906200165f565b602060405180830381600087803b158015620009e357600080fd5b505af1158015620009f8573d6000803e3d6000fd5b505050506040513d601f19601f8201168201806040525081019062000a1e919062001459565b91505092915050565b62000a3162000c71565b73ffffffffffffffffffffffffffffffffffffffff1662000a5162000af8565b73ffffffffffffffffffffffffffffffffffffffff161462000aaa576040517f08c379a000000000000000000000000000000000000000000000000000000000815260040162000aa19062001787565b60405180910390fd5b62000ab6600062001045565b565b6001818154811062000ac957600080fd5b906000526020600020016000915054906101000a900473ffffffffffffffffffffffffffffffffffffffff1681565b60008060009054906101000a900473ffffffffffffffffffffffffffffffffffffffff16905090565b600360009054906101000a900473ffffffffffffffffffffffffffffffffffffffff1681565b600460009054906101000a900473ffffffffffffffffffffffffffffffffffffffff1681565b62000b7762000c71565b73ffffffffffffffffffffffffffffffffffffffff1662000b9762000af8565b73ffffffffffffffffffffffffffffffffffffffff161462000bf0576040517f08c379a000000000000000000000000000000000000000000000000000000000815260040162000be79062001787565b60405180910390fd5b600073ffffffffffffffffffffffffffffffffffffffff168173ffffffffffffffffffffffffffffffffffffffff16141562000c63576040517f08c379a000000000000000000000000000000000000000000000000000000000815260040162000c5a9062001765565b60405180910390fd5b62000c6e8162001045565b50565b600033905090565b6000600460009054906101000a900473ffffffffffffffffffffffffffffffffffffffff1690508073ffffffffffffffffffffffffffffffffffffffff1663d62914c984846040518363ffffffff1660e01b815260040162000cdd929190620016aa565b602060405180830381600087803b15801562000cf857600080fd5b505af115801562000d0d573d6000803e3d6000fd5b505050506040513d601f19601f8201168201806040525081019062000d33919062001459565b50505050565b6000600360009054906101000a900473ffffffffffffffffffffffffffffffffffffffff1690506000600460009054906101000a900473ffffffffffffffffffffffffffffffffffffffff16905060008173ffffffffffffffffffffffffffffffffffffffff166327d35db7856040518263ffffffff1660e01b815260040162000dc4919062001831565b60206040518083038186803b15801562000ddd57600080fd5b505afa15801562000df2573d6000803e3d6000fd5b505050506040513d601f19601f8201168201806040525081019062000e18919062001459565b905060008373ffffffffffffffffffffffffffffffffffffffff16636352211e836040518263ffffffff1660e01b815260040162000e57919062001831565b60206040518083038186803b15801562000e7057600080fd5b505afa15801562000e85573d6000803e3d6000fd5b505050506040513d601f19601f8201168201806040525081019062000eab919062001283565b905060011515600260008373ffffffffffffffffffffffffffffffffffffffff1673ffffffffffffffffffffffffffffffffffffffff16815260200190815260200160002060009054906101000a900460ff1615151462000f43576040517f08c379a000000000000000000000000000000000000000000000000000000000815260040162000f3a90620017ed565b60405180910390fd5b60008190508073ffffffffffffffffffffffffffffffffffffffff1663018b169888856040518363ffffffff1660e01b815260040162000f85929190620016aa565b600060405180830381600087803b15801562000fa057600080fd5b505af115801562000fb5573d6000803e3d6000fd5b505050508373ffffffffffffffffffffffffffffffffffffffff166342966c68876040518263ffffffff1660e01b815260040162000ff4919062001831565b600060405180830381600087803b1580156200100f57600080fd5b505af115801562001024573d6000803e3d6000fd5b5050505050505050505050565b600063150b7a0260e01b9050949350505050565b60008060009054906101000a900473ffffffffffffffffffffffffffffffffffffffff169050816000806101000a81548173ffffffffffffffffffffffffffffffffffffffff021916908373ffffffffffffffffffffffffffffffffffffffff1602179055508173ffffffffffffffffffffffffffffffffffffffff168173ffffffffffffffffffffffffffffffffffffffff167f8be0079c531659141344cd1fd0a4f28419497f9722a3daafe3b4186f6b6457e060405160405180910390a35050565b6115ee8062001d1683390190565b60006200112e620011288462001877565b6200184e565b9050828152602081018484840111156200114757600080fd5b62001154848285620019ba565b509392505050565b6000620011736200116d84620018ad565b6200184e565b9050828152602081018484840111156200118c57600080fd5b62001199848285620019ba565b509392505050565b600081359050620011b28162001ce1565b92915050565b600081519050620011c98162001ce1565b92915050565b600082601f830112620011e157600080fd5b8135620011f384826020860162001117565b91505092915050565b600082601f8301126200120e57600080fd5b8135620012208482602086016200115c565b91505092915050565b6000813590506200123a8162001cfb565b92915050565b600081519050620012518162001cfb565b92915050565b6000602082840312156200126a57600080fd5b60006200127a84828501620011a1565b91505092915050565b6000602082840312156200129657600080fd5b6000620012a684828501620011b8565b91505092915050565b60008060008060808587031215620012c657600080fd5b6000620012d687828801620011a1565b9450506020620012e987828801620011a1565b9350506040620012fc8782880162001229565b925050606085013567ffffffffffffffff8111156200131a57600080fd5b6200132887828801620011cf565b91505092959194509250565b600080604083850312156200134857600080fd5b60006200135885828601620011a1565b92505060206200136b8582860162001229565b9150509250929050565b6000602082840312156200138857600080fd5b600082013567ffffffffffffffff811115620013a357600080fd5b620013b184828501620011fc565b91505092915050565b60008060408385031215620013ce57600080fd5b600083013567ffffffffffffffff811115620013e957600080fd5b620013f785828601620011fc565b925050602083013567ffffffffffffffff8111156200141557600080fd5b6200142385828601620011fc565b9150509250929050565b6000602082840312156200144057600080fd5b6000620014508482850162001229565b91505092915050565b6000602082840312156200146c57600080fd5b60006200147c8482850162001240565b91505092915050565b6200149081620018ff565b82525050565b620014a18162001913565b82525050565b620014b2816200197e565b82525050565b620014c381620019a6565b82525050565b6000620014d682620018e3565b620014e28185620018ee565b9350620014f4818560208601620019c9565b620014ff8162001a93565b840191505092915050565b600062001519602683620018ee565b9150620015268262001aa4565b604082019050919050565b600062001540602083620018ee565b91506200154d8262001af3565b602082019050919050565b600062001567604583620018ee565b9150620015748262001b1c565b606082019050919050565b60006200158e602f83620018ee565b91506200159b8262001b91565b604082019050919050565b6000620015b5604683620018ee565b9150620015c28262001be0565b606082019050919050565b6000620015dc605883620018ee565b9150620015e98262001c55565b606082019050919050565b620015ff8162001974565b82525050565b60006020820190506200161c600083018462001485565b92915050565b600060608201905062001639600083018662001485565b62001648602083018562001485565b620016576040830184620015f4565b949350505050565b600060608201905062001676600083018662001485565b81810360208301526200168a8185620014c9565b90508181036040830152620016a08184620014c9565b9050949350505050565b6000604082019050620016c1600083018562001485565b620016d06020830184620015f4565b9392505050565b6000602082019050620016ee600083018462001496565b92915050565b60006020820190506200170b6000830184620014a7565b92915050565b600060808201905081810360008301526200172d8187620014c9565b90506200173e6020830186620014b8565b6200174d604083018562001485565b6200175c606083018462001485565b95945050505050565b6000602082019050818103600083015262001780816200150a565b9050919050565b60006020820190508181036000830152620017a28162001531565b9050919050565b60006020820190508181036000830152620017c48162001558565b9050919050565b60006020820190508181036000830152620017e6816200157f565b9050919050565b600060208201905081810360008301526200180881620015a6565b9050919050565b600060208201905081810360008301526200182a81620015cd565b9050919050565b6000602082019050620018486000830184620015f4565b92915050565b60006200185a6200186d565b9050620018688282620019ff565b919050565b6000604051905090565b600067ffffffffffffffff82111562001895576200189462001a64565b5b620018a08262001a93565b9050602081019050919050565b600067ffffffffffffffff821115620018cb57620018ca62001a64565b5b620018d68262001a93565b9050602081019050919050565b600081519050919050565b600082825260208201905092915050565b60006200190c8262001954565b9050919050565b60007fffffffff0000000000000000000000000000000000000000000000000000000082169050919050565b60008190506200194f8262001cca565b919050565b600073ffffffffffffffffffffffffffffffffffffffff82169050919050565b6000819050919050565b60006200198b8262001992565b9050919050565b60006200199f8262001954565b9050919050565b6000620019b3826200193f565b9050919050565b82818337600083830152505050565b60005b83811015620019e9578082015181840152602081019050620019cc565b83811115620019f9576000848401525b50505050565b62001a0a8262001a93565b810181811067ffffffffffffffff8211171562001a2c5762001a2b62001a64565b5b80604052505050565b7f4e487b7100000000000000000000000000000000000000000000000000000000600052602160045260246000fd5b7f4e487b7100000000000000000000000000000000000000000000000000000000600052604160045260246000fd5b6000601f19601f8301169050919050565b7f4f776e61626c653a206e6577206f776e657220697320746865207a65726f206160008201527f6464726573730000000000000000000000000000000000000000000000000000602082015250565b7f4f776e61626c653a2063616c6c6572206973206e6f7420746865206f776e6572600082015250565b7f5468652070726f76696465642064657374696e6174696f6e206164647265737360008201527f206973206e6f742074686174206f662061206b6e6f776e2064656c697665727960208201527f206e6f6465000000000000000000000000000000000000000000000000000000604082015250565b7f455243373231207265636569766564206973206e6f742066726f6d206b6e6f7760008201527f6e20746f6b656e20616464726573730000000000000000000000000000000000602082015250565b7f546865207061636b61676520746f6b656e206973206e6f742063757272656e7460008201527f6c79206265696e672068656c642062792061206b6e6f776e2064656c6976657260208201527f79206e6f64650000000000000000000000000000000000000000000000000000604082015250565b7f546865207061636b61676520746f6b656e206973206e6569746865722068656c60008201527f64206279207468652064656c697665727920636f6f7264696e61746f722c206e60208201527f6f722061206b6e6f776e2064656c6976657279206e6f64650000000000000000604082015250565b6002811062001cde5762001cdd62001a35565b5b50565b62001cec81620018ff565b811462001cf857600080fd5b50565b62001d068162001974565b811462001d1257600080fd5b5056fe60806040523480156200001157600080fd5b50604051620015ee380380620015ee833981810160405281019062000037919062000369565b620000576200004b6200014d60201b60201c565b6200015560201b60201c565b83600190805190602001906200006f92919062000219565b5082600260006101000a81548160ff02191690836001811115620000bc577f4e487b7100000000000000000000000000000000000000000000000000000000600052602160045260246000fd5b021790555081600260016101000a81548173ffffffffffffffffffffffffffffffffffffffff021916908373ffffffffffffffffffffffffffffffffffffffff16021790555080600360006101000a81548173ffffffffffffffffffffffffffffffffffffffff021916908373ffffffffffffffffffffffffffffffffffffffff16021790555050505050620005bd565b600033905090565b60008060009054906101000a900473ffffffffffffffffffffffffffffffffffffffff169050816000806101000a81548173ffffffffffffffffffffffffffffffffffffffff021916908373ffffffffffffffffffffffffffffffffffffffff1602179055508173ffffffffffffffffffffffffffffffffffffffff168173ffffffffffffffffffffffffffffffffffffffff167f8be0079c531659141344cd1fd0a4f28419497f9722a3daafe3b4186f6b6457e060405160405180910390a35050565b8280546200022790620004b7565b90600052602060002090601f0160209004810192826200024b576000855562000297565b82601f106200026657805160ff191683800117855562000297565b8280016001018555821562000297579182015b828111156200029657825182559160200191906001019062000279565b5b509050620002a69190620002aa565b5090565b5b80821115620002c5576000816000905550600101620002ab565b5090565b6000620002e0620002da8462000417565b620003ee565b905082815260208101848484011115620002f957600080fd5b6200030684828562000481565b509392505050565b6000815190506200031f8162000592565b92915050565b6000815190506200033681620005ac565b92915050565b600082601f8301126200034e57600080fd5b815162000360848260208601620002c9565b91505092915050565b600080600080608085870312156200038057600080fd5b600085015167ffffffffffffffff8111156200039b57600080fd5b620003a9878288016200033c565b9450506020620003bc8782880162000325565b9350506040620003cf878288016200030e565b9250506060620003e2878288016200030e565b91505092959194509250565b6000620003fa6200040d565b9050620004088282620004ed565b919050565b6000604051905090565b600067ffffffffffffffff82111562000435576200043462000552565b5b620004408262000581565b9050602081019050919050565b60006200045a8262000461565b9050919050565b600073ffffffffffffffffffffffffffffffffffffffff82169050919050565b60005b83811015620004a157808201518184015260208101905062000484565b83811115620004b1576000848401525b50505050565b60006002820490506001821680620004d057607f821691505b60208210811415620004e757620004e662000523565b5b50919050565b620004f88262000581565b810181811067ffffffffffffffff821117156200051a576200051962000552565b5b80604052505050565b7f4e487b7100000000000000000000000000000000000000000000000000000000600052602260045260246000fd5b7f4e487b7100000000000000000000000000000000000000000000000000000000600052604160045260246000fd5b6000601f19601f8301169050919050565b6200059d816200044d565b8114620005a957600080fd5b50565b60028110620005ba57600080fd5b50565b61102180620005cd6000396000f3fe608060405234801561001057600080fd5b506004361061009e5760003560e01c8063715018a611610066578063715018a6146101475780638da5cb5b146101515780639d8d81781461016f578063c17ca3e71461018d578063f2fde38b146101ab5761009e565b8063018b1698146100a357806306fdde03146100bf578063150b7a02146100dd578063200d2ed21461010d5780636e2ebae71461012b575b600080fd5b6100bd60048036038101906100b891906109d7565b6101c7565b005b6100c76102de565b6040516100d49190610bc5565b60405180910390f35b6100f760048036038101906100f2919061095c565b61036c565b6040516101049190610b8f565b60405180910390f35b6101156104d5565b6040516101229190610baa565b60405180910390f35b61014560048036038101906101409190610a13565b6104e8565b005b61014f6105b7565b005b61015961063f565b6040516101669190610b3d565b60405180910390f35b610177610668565b6040516101849190610b3d565b60405180910390f35b61019561068e565b6040516101a29190610b3d565b60405180910390f35b6101c560048036038101906101c09190610933565b6106b4565b005b6101cf6107ac565b73ffffffffffffffffffffffffffffffffffffffff166101ed61063f565b73ffffffffffffffffffffffffffffffffffffffff1614610243576040517f08c379a000000000000000000000000000000000000000000000000000000000815260040161023a90610c27565b60405180910390fd5b6000600260019054906101000a900473ffffffffffffffffffffffffffffffffffffffff1690508073ffffffffffffffffffffffffffffffffffffffff166342842e0e3085856040518463ffffffff1660e01b81526004016102a793929190610b58565b600060405180830381600087803b1580156102c157600080fd5b505af11580156102d5573d6000803e3d6000fd5b50505050505050565b600180546102eb90610da8565b80601f016020809104026020016040519081016040528092919081815260200182805461031790610da8565b80156103645780601f1061033957610100808354040283529160200191610364565b820191906000526020600020905b81548152906001019060200180831161034757829003601f168201915b505050505081565b60008060018111156103a7577f4e487b7100000000000000000000000000000000000000000000000000000000600052602160045260246000fd5b600260009054906101000a900460ff1660018111156103ef577f4e487b7100000000000000000000000000000000000000000000000000000000600052602160045260246000fd5b1461042f576040517f08c379a000000000000000000000000000000000000000000000000000000000815260040161042690610c07565b60405180910390fd5b600260019054906101000a900473ffffffffffffffffffffffffffffffffffffffff1673ffffffffffffffffffffffffffffffffffffffff163373ffffffffffffffffffffffffffffffffffffffff16146104bf576040517f08c379a00000000000000000000000000000000000000000000000000000000081526004016104b690610c47565b60405180910390fd5b6104cb858585856107b4565b9050949350505050565b600260009054906101000a900460ff1681565b6104f06107ac565b73ffffffffffffffffffffffffffffffffffffffff1661050e61063f565b73ffffffffffffffffffffffffffffffffffffffff1614610564576040517f08c379a000000000000000000000000000000000000000000000000000000000815260040161055b90610c27565b60405180910390fd5b80600260006101000a81548160ff021916908360018111156105af577f4e487b7100000000000000000000000000000000000000000000000000000000600052602160045260246000fd5b021790555050565b6105bf6107ac565b73ffffffffffffffffffffffffffffffffffffffff166105dd61063f565b73ffffffffffffffffffffffffffffffffffffffff1614610633576040517f08c379a000000000000000000000000000000000000000000000000000000000815260040161062a90610c27565b60405180910390fd5b61063d60006107c8565b565b60008060009054906101000a900473ffffffffffffffffffffffffffffffffffffffff16905090565b600260019054906101000a900473ffffffffffffffffffffffffffffffffffffffff1681565b600360009054906101000a900473ffffffffffffffffffffffffffffffffffffffff1681565b6106bc6107ac565b73ffffffffffffffffffffffffffffffffffffffff166106da61063f565b73ffffffffffffffffffffffffffffffffffffffff1614610730576040517f08c379a000000000000000000000000000000000000000000000000000000000815260040161072790610c27565b60405180910390fd5b600073ffffffffffffffffffffffffffffffffffffffff168173ffffffffffffffffffffffffffffffffffffffff1614156107a0576040517f08c379a000000000000000000000000000000000000000000000000000000000815260040161079790610be7565b60405180910390fd5b6107a9816107c8565b50565b600033905090565b600063150b7a0260e01b9050949350505050565b60008060009054906101000a900473ffffffffffffffffffffffffffffffffffffffff169050816000806101000a81548173ffffffffffffffffffffffffffffffffffffffff021916908373ffffffffffffffffffffffffffffffffffffffff1602179055508173ffffffffffffffffffffffffffffffffffffffff168173ffffffffffffffffffffffffffffffffffffffff167f8be0079c531659141344cd1fd0a4f28419497f9722a3daafe3b4186f6b6457e060405160405180910390a35050565b600061089f61089a84610c8c565b610c67565b9050828152602081018484840111156108b757600080fd5b6108c2848285610d66565b509392505050565b6000813590506108d981610fad565b92915050565b600082601f8301126108f057600080fd5b813561090084826020860161088c565b91505092915050565b60008135905061091881610fc4565b92915050565b60008135905061092d81610fd4565b92915050565b60006020828403121561094557600080fd5b6000610953848285016108ca565b91505092915050565b6000806000806080858703121561097257600080fd5b6000610980878288016108ca565b9450506020610991878288016108ca565b93505060406109a28782880161091e565b925050606085013567ffffffffffffffff8111156109bf57600080fd5b6109cb878288016108df565b91505092959194509250565b600080604083850312156109ea57600080fd5b60006109f8858286016108ca565b9250506020610a098582860161091e565b9150509250929050565b600060208284031215610a2557600080fd5b6000610a3384828501610909565b91505092915050565b610a4581610cd9565b82525050565b610a5481610ceb565b82525050565b610a6381610d54565b82525050565b6000610a7482610cbd565b610a7e8185610cc8565b9350610a8e818560208601610d75565b610a9781610e98565b840191505092915050565b6000610aaf602683610cc8565b9150610aba82610ea9565b604082019050919050565b6000610ad2601b83610cc8565b9150610add82610ef8565b602082019050919050565b6000610af5602083610cc8565b9150610b0082610f21565b602082019050919050565b6000610b18602f83610cc8565b9150610b2382610f4a565b604082019050919050565b610b3781610d4a565b82525050565b6000602082019050610b526000830184610a3c565b92915050565b6000606082019050610b6d6000830186610a3c565b610b7a6020830185610a3c565b610b876040830184610b2e565b949350505050565b6000602082019050610ba46000830184610a4b565b92915050565b6000602082019050610bbf6000830184610a5a565b92915050565b60006020820190508181036000830152610bdf8184610a69565b905092915050565b60006020820190508181036000830152610c0081610aa2565b9050919050565b60006020820190508181036000830152610c2081610ac5565b9050919050565b60006020820190508181036000830152610c4081610ae8565b9050919050565b60006020820190508181036000830152610c6081610b0b565b9050919050565b6000610c71610c82565b9050610c7d8282610dda565b919050565b6000604051905090565b600067ffffffffffffffff821115610ca757610ca6610e69565b5b610cb082610e98565b9050602081019050919050565b600081519050919050565b600082825260208201905092915050565b6000610ce482610d2a565b9050919050565b60007fffffffff0000000000000000000000000000000000000000000000000000000082169050919050565b6000819050610d2582610f99565b919050565b600073ffffffffffffffffffffffffffffffffffffffff82169050919050565b6000819050919050565b6000610d5f82610d17565b9050919050565b82818337600083830152505050565b60005b83811015610d93578082015181840152602081019050610d78565b83811115610da2576000848401525b50505050565b60006002820490506001821680610dc057607f821691505b60208210811415610dd457610dd3610e3a565b5b50919050565b610de382610e98565b810181811067ffffffffffffffff82111715610e0257610e01610e69565b5b80604052505050565b7f4e487b7100000000000000000000000000000000000000000000000000000000600052602160045260246000fd5b7f4e487b7100000000000000000000000000000000000000000000000000000000600052602260045260246000fd5b7f4e487b7100000000000000000000000000000000000000000000000000000000600052604160045260246000fd5b6000601f19601f8301169050919050565b7f4f776e61626c653a206e6577206f776e657220697320746865207a65726f206160008201527f6464726573730000000000000000000000000000000000000000000000000000602082015250565b7f44656c6976657279206e6f6465206973206e6f74206f6e6c696e650000000000600082015250565b7f4f776e61626c653a2063616c6c6572206973206e6f7420746865206f776e6572600082015250565b7f455243373231207265636569766564206973206e6f742066726f6d206b6e6f7760008201527f6e20746f6b656e20616464726573730000000000000000000000000000000000602082015250565b60028110610faa57610fa9610e0b565b5b50565b610fb681610cd9565b8114610fc157600080fd5b50565b60028110610fd157600080fd5b50565b610fdd81610d4a565b8114610fe857600080fd5b5056fea26469706673582212207762056eb4f72693d24abf2e01b9d442bb815d9fe139efdf7d6b162bd13bb09b64736f6c63430008040033a2646970667358221220d147be5c371f86941b413177ad7946e7441b826f903c5959513b6c56caf7614264736f6c63430008040033",
  "immutableReferences": {},
  "source": "// SPDX-License-Identifier: MIT\npragma solidity ^0.8.0;\n\nimport '@openzeppelin/contracts/access/Ownable.sol';\nimport '@openzeppelin/contracts/token/ERC721/utils/ERC721Holder.sol';\n\nimport \"./DeliveryNode.sol\";\nimport \"./PackageToken.sol\";\nimport \"./ReceiptToken.sol\";\n\ncontract DeliveryCoordinator is ERC721Holder, Ownable {\n\n  DeliveryNode[] public deliveryNodes;\n  mapping(address => bool) private knownDeliveryNodes;\n\n  address public packageTokenAddress;\n  address public receiptTokenAddress;\n\n  constructor(address _packageTokenAddress, address _receiptTokenAddress) {\n    packageTokenAddress = _packageTokenAddress;\n    receiptTokenAddress = _receiptTokenAddress;\n  }\n\n  function addDeliveryNode(string memory _nodeName) external onlyOwner {\n    DeliveryNode newDeliveryNode = new DeliveryNode(_nodeName, DeliveryNode.NodeStatus.ONLINE, packageTokenAddress, receiptTokenAddress);\n    deliveryNodes.push(newDeliveryNode);\n    knownDeliveryNodes[address(newDeliveryNode)] = true;\n  }\n\n  function createPackage(string memory _packageContents, string memory _packageWeight) external returns (uint256) {\n    PackageToken deployedTokenContract = PackageToken(packageTokenAddress);\n    return deployedTokenContract.createPackage(msg.sender, _packageContents, _packageWeight);\n  }\n\n  function forwardPackage(address destinationNode, uint256 packageTokenId) external {\n    require(knownDeliveryNodes[destinationNode] == true, \"The provided destination address is not that of a known delivery node\");\n\n    PackageToken deployedTokenContract = PackageToken(packageTokenAddress);\n    address currentPackageOwner = deployedTokenContract.ownerOf(packageTokenId);\n\n    require(knownDeliveryNodes[currentPackageOwner] == true || currentPackageOwner == address(this),\n      \"The package token is neither held by the delivery coordinator, nor a known delivery node\");\n\n    if (knownDeliveryNodes[currentPackageOwner] == true) {\n      DeliveryNode deliveryNodeContract = DeliveryNode(currentPackageOwner);\n      deliveryNodeContract.forwardPackage(destinationNode, packageTokenId);\n    } else if (currentPackageOwner == address(this)) {\n      deployedTokenContract.safeTransferFrom(address(this), destinationNode, packageTokenId);\n    }\n  }\n\n  function onERC721Received(address operator, address from, uint256 tokenId, bytes memory data) public override returns (bytes4) {\n      require(msg.sender == packageTokenAddress || msg.sender == receiptTokenAddress, \"ERC721 received is not from known token address\");\n\n      if (msg.sender == packageTokenAddress) {\n        packageTokenReceived(from, tokenId);\n      }\n\n      if (msg.sender == receiptTokenAddress) {\n        receiptTokenReceived(from, tokenId);\n      }\n\n      return super.onERC721Received(operator, from, tokenId, data);\n  }\n\n  function packageTokenReceived(address from, uint256 packageTokenId) internal {\n    ReceiptToken deployedTokenContract = ReceiptToken(receiptTokenAddress);\n    deployedTokenContract.createReceipt(from, packageTokenId);\n  }\n\n  function receiptTokenReceived(address from, uint256 receiptTokenId) internal {\n    PackageToken deployedPackageTokenContract = PackageToken(packageTokenAddress);\n    ReceiptToken deployedReceiptTokenContract = ReceiptToken(receiptTokenAddress);\n    \n    uint256 correspondingPackageTokenId = deployedReceiptTokenContract.receiptData(receiptTokenId);\n    address currentPackageOwner = deployedPackageTokenContract.ownerOf(correspondingPackageTokenId);\n\n    require(knownDeliveryNodes[currentPackageOwner] == true, \"The package token is not currently being held by a known delivery node\");\n\n    DeliveryNode packageHolder = DeliveryNode(currentPackageOwner);\n\n    packageHolder.forwardPackage(from, correspondingPackageTokenId);\n    deployedReceiptTokenContract.burn(receiptTokenId);\n  }\n\n}\n",
  "sourcePath": "/home/james/Workspaces/tracking-demo/contracts/DeliveryCoordinator.sol",
  "compiler": {
    "name": "solc",
    "version": "0.8.4+commit.c7e474f2.Emscripten.clang"
  },
  "schemaVersion": "3.4.6",
  "updatedAt": "2022-04-20T14:51:15.840Z",
  "devdoc": {
    "kind": "dev",
    "methods": {
      "owner()": {
        "details": "Returns the address of the current owner."
      },
      "renounceOwnership()": {
        "details": "Leaves the contract without owner. It will not be possible to call `onlyOwner` functions anymore. Can only be called by the current owner. NOTE: Renouncing ownership will leave the contract without an owner, thereby removing any functionality that is only available to the owner."
      },
      "transferOwnership(address)": {
        "details": "Transfers ownership of the contract to a new account (`newOwner`). Can only be called by the current owner."
      }
    },
    "version": 1
  },
  "userdoc": {
    "kind": "user",
    "methods": {},
    "version": 1
  }
}