{
  "contractName": "DeliveryNode",
  "abi": [
    {
      "inputs": [
        {
          "internalType": "string",
          "name": "_name",
          "type": "string"
        },
        {
          "internalType": "enum DeliveryNode.NodeStatus",
          "name": "_status",
          "type": "uint8"
        }
      ],
      "stateMutability": "nonpayable",
      "type": "constructor"
    },
    {
      "inputs": [],
      "name": "name",
      "outputs": [
        {
          "internalType": "string",
          "name": "",
          "type": "string"
        }
      ],
      "stateMutability": "view",
      "type": "function"
    },
    {
      "inputs": [],
      "name": "status",
      "outputs": [
        {
          "internalType": "enum DeliveryNode.NodeStatus",
          "name": "",
          "type": "uint8"
        }
      ],
      "stateMutability": "view",
      "type": "function"
    }
  ],
  "bytecode": "0x608060405234801561001057600080fd5b5060405161068a38038061068a833981810160405281019061003291906101c0565b81600090805190602001906100489291906100a0565b5080600160006101000a81548160ff02191690836001811115610094577f4e487b7100000000000000000000000000000000000000000000000000000000600052602160045260246000fd5b0217905550505061037f565b8280546100ac9061029d565b90600052602060002090601f0160209004810192826100ce5760008555610115565b82601f106100e757805160ff1916838001178555610115565b82800160010185558215610115579182015b828111156101145782518255916020019190600101906100f9565b5b5090506101229190610126565b5090565b5b8082111561013f576000816000905550600101610127565b5090565b600061015661015184610239565b610214565b90508281526020810184848401111561016e57600080fd5b61017984828561026a565b509392505050565b6000815190506101908161036f565b92915050565b600082601f8301126101a757600080fd5b81516101b7848260208601610143565b91505092915050565b600080604083850312156101d357600080fd5b600083015167ffffffffffffffff8111156101ed57600080fd5b6101f985828601610196565b925050602061020a85828601610181565b9150509250929050565b600061021e61022f565b905061022a82826102cf565b919050565b6000604051905090565b600067ffffffffffffffff8211156102545761025361032f565b5b61025d8261035e565b9050602081019050919050565b60005b8381101561028857808201518184015260208101905061026d565b83811115610297576000848401525b50505050565b600060028204905060018216806102b557607f821691505b602082108114156102c9576102c8610300565b5b50919050565b6102d88261035e565b810181811067ffffffffffffffff821117156102f7576102f661032f565b5b80604052505050565b7f4e487b7100000000000000000000000000000000000000000000000000000000600052602260045260246000fd5b7f4e487b7100000000000000000000000000000000000000000000000000000000600052604160045260246000fd5b6000601f19601f8301169050919050565b6002811061037c57600080fd5b50565b6102fc8061038e6000396000f3fe608060405234801561001057600080fd5b50600436106100365760003560e01c806306fdde031461003b578063200d2ed214610059575b600080fd5b610043610077565b604051610050919061017b565b60405180910390f35b610061610105565b60405161006e9190610160565b60405180910390f35b6000805461008490610211565b80601f01602080910402602001604051908101604052809291908181526020018280546100b090610211565b80156100fd5780601f106100d2576101008083540402835291602001916100fd565b820191906000526020600020905b8154815290600101906020018083116100e057829003601f168201915b505050505081565b600160009054906101000a900460ff1681565b610121816101cc565b82525050565b60006101328261019d565b61013c81856101a8565b935061014c8185602086016101de565b610155816102a1565b840191505092915050565b60006020820190506101756000830184610118565b92915050565b600060208201905081810360008301526101958184610127565b905092915050565b600081519050919050565b600082825260208201905092915050565b60008190506101c7826102b2565b919050565b60006101d7826101b9565b9050919050565b60005b838110156101fc5780820151818401526020810190506101e1565b8381111561020b576000848401525b50505050565b6000600282049050600182168061022957607f821691505b6020821081141561023d5761023c610272565b5b50919050565b7f4e487b7100000000000000000000000000000000000000000000000000000000600052602160045260246000fd5b7f4e487b7100000000000000000000000000000000000000000000000000000000600052602260045260246000fd5b6000601f19601f8301169050919050565b600281106102c3576102c2610243565b5b5056fea26469706673582212202f407361fb63cfdb91389ced30bb678b34d327cde7c2bd196c923cdb3f53b8d764736f6c63430008040033",
  "immutableReferences": {},
  "source": "// SPDX-License-Identifier: MIT\npragma solidity ^0.8.0;\n\ncontract DeliveryNode {\n\n  enum NodeStatus{\n    ONLINE,\n    OFFILINE\n  }\n\n  string public name;\n  NodeStatus public status;\n\n  constructor(string memory _name, NodeStatus _status) {\n    name = _name;\n    status = _status;\n  }\n\n}\n",
  "sourcePath": "/home/james/Workspaces/tracking-demo/contracts/DeliveryNode.sol",
  "compiler": {
    "name": "solc",
    "version": "0.8.4+commit.c7e474f2.Emscripten.clang"
  },
  "schemaVersion": "3.4.6",
  "updatedAt": "2022-04-04T14:11:50.625Z",
  "devdoc": {
    "kind": "dev",
    "methods": {},
    "version": 1
  },
  "userdoc": {
    "kind": "user",
    "methods": {},
    "version": 1
  }
}