{
  "contractName": "DeliveryCoordinator",
  "abi": [
    {
      "inputs": [],
      "stateMutability": "nonpayable",
      "type": "constructor"
    },
    {
      "inputs": [
        {
          "internalType": "uint256",
          "name": "",
          "type": "uint256"
        }
      ],
      "name": "deliveryNodes",
      "outputs": [
        {
          "internalType": "contract DeliveryNode",
          "name": "",
          "type": "address"
        }
      ],
      "stateMutability": "view",
      "type": "function",
      "constant": true
    },
    {
      "inputs": [],
      "name": "packageToken",
      "outputs": [
        {
          "internalType": "contract PackageToken",
          "name": "",
          "type": "address"
        }
      ],
      "stateMutability": "view",
      "type": "function",
      "constant": true
    },
    {
      "inputs": [],
      "name": "receiptToken",
      "outputs": [
        {
          "internalType": "contract ReceiptToken",
          "name": "",
          "type": "address"
        }
      ],
      "stateMutability": "view",
      "type": "function",
      "constant": true
    },
    {
      "inputs": [
        {
          "internalType": "string",
          "name": "_nodeName",
          "type": "string"
        }
      ],
      "name": "addDeliveryNode",
      "outputs": [],
      "stateMutability": "nonpayable",
      "type": "function"
    },
    {
      "inputs": [],
      "name": "numberOfDeliveryNodes",
      "outputs": [
        {
          "internalType": "uint256",
          "name": "",
          "type": "uint256"
        }
      ],
      "stateMutability": "view",
      "type": "function",
      "constant": true
    },
    {
      "inputs": [
        {
          "internalType": "string",
          "name": "_packageContents",
          "type": "string"
        },
        {
          "internalType": "string",
          "name": "_packageWeight",
          "type": "string"
        }
      ],
      "name": "createPackage",
      "outputs": [
        {
          "internalType": "uint256",
          "name": "",
          "type": "uint256"
        }
      ],
      "stateMutability": "nonpayable",
      "type": "function"
    },
    {
      "inputs": [
        {
          "internalType": "address",
          "name": "destinationNode",
          "type": "address"
        },
        {
          "internalType": "uint256",
          "name": "packageTokenId",
          "type": "uint256"
        }
      ],
      "name": "forwardPackage",
      "outputs": [],
      "stateMutability": "nonpayable",
      "type": "function"
    },
    {
      "inputs": [
        {
          "internalType": "address",
          "name": "operator",
          "type": "address"
        },
        {
          "internalType": "address",
          "name": "from",
          "type": "address"
        },
        {
          "internalType": "uint256",
          "name": "tokenId",
          "type": "uint256"
        },
        {
          "internalType": "bytes",
          "name": "data",
          "type": "bytes"
        }
      ],
      "name": "onERC721Received",
      "outputs": [
        {
          "internalType": "bytes4",
          "name": "",
          "type": "bytes4"
        }
      ],
      "stateMutability": "nonpayable",
      "type": "function"
    }
  ],
  "bytecode": "0x60806040523480156200001157600080fd5b506040516200002090620000ef565b604051809103906000f0801580156200003d573d6000803e3d6000fd5b506000806101000a81548173ffffffffffffffffffffffffffffffffffffffff021916908373ffffffffffffffffffffffffffffffffffffffff1602179055506040516200008b90620000fd565b604051809103906000f080158015620000a8573d6000803e3d6000fd5b50600160006101000a81548173ffffffffffffffffffffffffffffffffffffffff021916908373ffffffffffffffffffffffffffffffffffffffff1602179055506200010b565b6132718062002faa83390190565b613146806200621b83390190565b612e8f806200011b6000396000f3fe60806040523480156200001157600080fd5b5060043610620000945760003560e01c806383b72592116200006357806383b725921462000145578063c4948715146200017b578063d8aa0b84146200019d578063ec78e83214620001bf5762000094565b8063018b16981462000099578063093fbbb714620000b9578063150b7a0214620000d957806328331c88146200010f575b600080fd5b620000b76004803603810190620000b1919062000fbc565b620001e1565b005b620000d76004803603810190620000d1919062000ffd565b6200059e565b005b620000f76004803603810190620000f1919062000f37565b620006c0565b60405162000106919062001316565b60405180910390f35b6200012d600480360381019062000127919062001042565b6200088b565b6040516200013c919062001456565b60405180910390f35b6200016360048036038101906200015d9190620010b5565b6200094b565b60405162000172919062001333565b60405180910390f35b620001856200098b565b60405162000194919062001456565b60405180910390f35b620001a762000998565b604051620001b6919062001350565b60405180910390f35b620001c9620009bc565b604051620001d891906200136d565b60405180910390f35b60011515600360008473ffffffffffffffffffffffffffffffffffffffff1673ffffffffffffffffffffffffffffffffffffffff16815260200190815260200160002060009054906101000a900460ff1615151462000277576040517f08c379a00000000000000000000000000000000000000000000000000000000081526004016200026e90620013ce565b60405180910390fd5b60008060009054906101000a900473ffffffffffffffffffffffffffffffffffffffff1673ffffffffffffffffffffffffffffffffffffffff16636352211e836040518263ffffffff1660e01b8152600401620002d5919062001456565b60206040518083038186803b158015620002ee57600080fd5b505afa15801562000303573d6000803e3d6000fd5b505050506040513d601f19601f8201168201806040525081019062000329919062000f0b565b905060011515600360008373ffffffffffffffffffffffffffffffffffffffff1673ffffffffffffffffffffffffffffffffffffffff16815260200190815260200160002060009054906101000a900460ff1615151480620003b657503073ffffffffffffffffffffffffffffffffffffffff168173ffffffffffffffffffffffffffffffffffffffff16145b620003f8576040517f08c379a0000000000000000000000000000000000000000000000000000000008152600401620003ef9062001434565b60405180910390fd5b60011515600360008373ffffffffffffffffffffffffffffffffffffffff1673ffffffffffffffffffffffffffffffffffffffff16815260200190815260200160002060009054906101000a900460ff1615151415620004cf5760008190508073ffffffffffffffffffffffffffffffffffffffff1663018b169885856040518363ffffffff1660e01b815260040162000494929190620012e9565b600060405180830381600087803b158015620004af57600080fd5b505af1158015620004c4573d6000803e3d6000fd5b505050505062000599565b3073ffffffffffffffffffffffffffffffffffffffff168173ffffffffffffffffffffffffffffffffffffffff161415620005985760008054906101000a900473ffffffffffffffffffffffffffffffffffffffff1673ffffffffffffffffffffffffffffffffffffffff166342842e0e3085856040518463ffffffff1660e01b8152600401620005639392919062001261565b600060405180830381600087803b1580156200057e57600080fd5b505af115801562000593573d6000803e3d6000fd5b505050505b5b505050565b60008160008060009054906101000a900473ffffffffffffffffffffffffffffffffffffffff16604051620005d39062000dbd565b620005e1939291906200138a565b604051809103906000f080158015620005fe573d6000803e3d6000fd5b5090506002819080600181540180825580915050600190039060005260206000200160009091909190916101000a81548173ffffffffffffffffffffffffffffffffffffffff021916908373ffffffffffffffffffffffffffffffffffffffff1602179055506001600360008373ffffffffffffffffffffffffffffffffffffffff1673ffffffffffffffffffffffffffffffffffffffff16815260200190815260200160002060006101000a81548160ff0219169083151502179055505050565b60008060009054906101000a900473ffffffffffffffffffffffffffffffffffffffff1673ffffffffffffffffffffffffffffffffffffffff163373ffffffffffffffffffffffffffffffffffffffff1614806200076b5750600160009054906101000a900473ffffffffffffffffffffffffffffffffffffffff1673ffffffffffffffffffffffffffffffffffffffff163373ffffffffffffffffffffffffffffffffffffffff16145b620007ad576040517f08c379a0000000000000000000000000000000000000000000000000000000008152600401620007a490620013f0565b60405180910390fd5b60008054906101000a900473ffffffffffffffffffffffffffffffffffffffff1673ffffffffffffffffffffffffffffffffffffffff163373ffffffffffffffffffffffffffffffffffffffff1614156200080f576200080e8484620009e2565b5b600160009054906101000a900473ffffffffffffffffffffffffffffffffffffffff1673ffffffffffffffffffffffffffffffffffffffff163373ffffffffffffffffffffffffffffffffffffffff161415620008735762000872848462000a9c565b5b620008818585858562000da9565b9050949350505050565b60008060009054906101000a900473ffffffffffffffffffffffffffffffffffffffff1673ffffffffffffffffffffffffffffffffffffffff16636c8d75353385856040518463ffffffff1660e01b8152600401620008ed939291906200129e565b602060405180830381600087803b1580156200090857600080fd5b505af11580156200091d573d6000803e3d6000fd5b505050506040513d601f19601f82011682018060405250810190620009439190620010e1565b905092915050565b600281815481106200095c57600080fd5b906000526020600020016000915054906101000a900473ffffffffffffffffffffffffffffffffffffffff1681565b6000600280549050905090565b60008054906101000a900473ffffffffffffffffffffffffffffffffffffffff1681565b600160009054906101000a900473ffffffffffffffffffffffffffffffffffffffff1681565b600160009054906101000a900473ffffffffffffffffffffffffffffffffffffffff1673ffffffffffffffffffffffffffffffffffffffff1663d62914c983836040518363ffffffff1660e01b815260040162000a41929190620012e9565b602060405180830381600087803b15801562000a5c57600080fd5b505af115801562000a71573d6000803e3d6000fd5b505050506040513d601f19601f8201168201806040525081019062000a979190620010e1565b505050565b6000600160009054906101000a900473ffffffffffffffffffffffffffffffffffffffff1673ffffffffffffffffffffffffffffffffffffffff166327d35db7836040518263ffffffff1660e01b815260040162000afb919062001456565b60206040518083038186803b15801562000b1457600080fd5b505afa15801562000b29573d6000803e3d6000fd5b505050506040513d601f19601f8201168201806040525081019062000b4f9190620010e1565b905060008060009054906101000a900473ffffffffffffffffffffffffffffffffffffffff1673ffffffffffffffffffffffffffffffffffffffff16636352211e836040518263ffffffff1660e01b815260040162000baf919062001456565b60206040518083038186803b15801562000bc857600080fd5b505afa15801562000bdd573d6000803e3d6000fd5b505050506040513d601f19601f8201168201806040525081019062000c03919062000f0b565b905060011515600360008373ffffffffffffffffffffffffffffffffffffffff1673ffffffffffffffffffffffffffffffffffffffff16815260200190815260200160002060009054906101000a900460ff1615151462000c9b576040517f08c379a000000000000000000000000000000000000000000000000000000000815260040162000c929062001412565b60405180910390fd5b60008190508073ffffffffffffffffffffffffffffffffffffffff1663018b169886856040518363ffffffff1660e01b815260040162000cdd929190620012e9565b600060405180830381600087803b15801562000cf857600080fd5b505af115801562000d0d573d6000803e3d6000fd5b50505050600160009054906101000a900473ffffffffffffffffffffffffffffffffffffffff1673ffffffffffffffffffffffffffffffffffffffff166342966c68856040518263ffffffff1660e01b815260040162000d6e919062001456565b600060405180830381600087803b15801562000d8957600080fd5b505af115801562000d9e573d6000803e3d6000fd5b505050505050505050565b600063150b7a0260e01b9050949350505050565b611547806200191383390190565b600062000de262000ddc846200149c565b62001473565b90508281526020810184848401111562000dfb57600080fd5b62000e088482856200162f565b509392505050565b600062000e2762000e2184620014d2565b62001473565b90508281526020810184848401111562000e4057600080fd5b62000e4d8482856200162f565b509392505050565b60008135905062000e6681620018de565b92915050565b60008151905062000e7d81620018de565b92915050565b600082601f83011262000e9557600080fd5b813562000ea784826020860162000dcb565b91505092915050565b600082601f83011262000ec257600080fd5b813562000ed484826020860162000e10565b91505092915050565b60008135905062000eee81620018f8565b92915050565b60008151905062000f0581620018f8565b92915050565b60006020828403121562000f1e57600080fd5b600062000f2e8482850162000e6c565b91505092915050565b6000806000806080858703121562000f4e57600080fd5b600062000f5e8782880162000e55565b945050602062000f718782880162000e55565b935050604062000f848782880162000edd565b925050606085013567ffffffffffffffff81111562000fa257600080fd5b62000fb08782880162000e83565b91505092959194509250565b6000806040838503121562000fd057600080fd5b600062000fe08582860162000e55565b925050602062000ff38582860162000edd565b9150509250929050565b6000602082840312156200101057600080fd5b600082013567ffffffffffffffff8111156200102b57600080fd5b620010398482850162000eb0565b91505092915050565b600080604083850312156200105657600080fd5b600083013567ffffffffffffffff8111156200107157600080fd5b6200107f8582860162000eb0565b925050602083013567ffffffffffffffff8111156200109d57600080fd5b620010ab8582860162000eb0565b9150509250929050565b600060208284031215620010c857600080fd5b6000620010d88482850162000edd565b91505092915050565b600060208284031215620010f457600080fd5b6000620011048482850162000ef4565b91505092915050565b620011188162001524565b82525050565b620011298162001538565b82525050565b6200113a81620015a3565b82525050565b6200114b81620015cb565b82525050565b6200115c81620015f3565b82525050565b6200116d816200161b565b82525050565b6000620011808262001508565b6200118c818562001513565b93506200119e8185602086016200163e565b620011a98162001708565b840191505092915050565b6000620011c360458362001513565b9150620011d08262001719565b606082019050919050565b6000620011ea602f8362001513565b9150620011f7826200178e565b604082019050919050565b60006200121160468362001513565b91506200121e82620017dd565b606082019050919050565b60006200123860588362001513565b9150620012458262001852565b606082019050919050565b6200125b8162001599565b82525050565b60006060820190506200127860008301866200110d565b6200128760208301856200110d565b62001296604083018462001250565b949350505050565b6000606082019050620012b560008301866200110d565b8181036020830152620012c9818562001173565b90508181036040830152620012df818462001173565b9050949350505050565b60006040820190506200130060008301856200110d565b6200130f602083018462001250565b9392505050565b60006020820190506200132d60008301846200111e565b92915050565b60006020820190506200134a60008301846200112f565b92915050565b600060208201905062001367600083018462001140565b92915050565b600060208201905062001384600083018462001151565b92915050565b60006060820190508181036000830152620013a6818662001173565b9050620013b7602083018562001162565b620013c660408301846200110d565b949350505050565b60006020820190508181036000830152620013e981620011b4565b9050919050565b600060208201905081810360008301526200140b81620011db565b9050919050565b600060208201905081810360008301526200142d8162001202565b9050919050565b600060208201905081810360008301526200144f8162001229565b9050919050565b60006020820190506200146d600083018462001250565b92915050565b60006200147f62001492565b90506200148d828262001674565b919050565b6000604051905090565b600067ffffffffffffffff821115620014ba57620014b9620016d9565b5b620014c58262001708565b9050602081019050919050565b600067ffffffffffffffff821115620014f057620014ef620016d9565b5b620014fb8262001708565b9050602081019050919050565b600081519050919050565b600082825260208201905092915050565b6000620015318262001579565b9050919050565b60007fffffffff0000000000000000000000000000000000000000000000000000000082169050919050565b60008190506200157482620018c7565b919050565b600073ffffffffffffffffffffffffffffffffffffffff82169050919050565b6000819050919050565b6000620015b082620015b7565b9050919050565b6000620015c48262001579565b9050919050565b6000620015d882620015df565b9050919050565b6000620015ec8262001579565b9050919050565b6000620016008262001607565b9050919050565b6000620016148262001579565b9050919050565b6000620016288262001564565b9050919050565b82818337600083830152505050565b60005b838110156200165e57808201518184015260208101905062001641565b838111156200166e576000848401525b50505050565b6200167f8262001708565b810181811067ffffffffffffffff82111715620016a157620016a0620016d9565b5b80604052505050565b7f4e487b7100000000000000000000000000000000000000000000000000000000600052602160045260246000fd5b7f4e487b7100000000000000000000000000000000000000000000000000000000600052604160045260246000fd5b6000601f19601f8301169050919050565b7f5468652070726f76696465642064657374696e6174696f6e206164647265737360008201527f206973206e6f742074686174206f662061206b6e6f776e2064656c697665727960208201527f206e6f6465000000000000000000000000000000000000000000000000000000604082015250565b7f455243373231207265636569766564206973206e6f742066726f6d206b6e6f7760008201527f6e20746f6b656e20616464726573730000000000000000000000000000000000602082015250565b7f546865207061636b61676520746f6b656e206973206e6f742063757272656e7460008201527f6c79206265696e672068656c642062792061206b6e6f776e2064656c6976657260208201527f79206e6f64650000000000000000000000000000000000000000000000000000604082015250565b7f546865207061636b61676520746f6b656e206973206e6569746865722068656c60008201527f64206279207468652064656c697665727920636f6f7264696e61746f722c206e60208201527f6f722061206b6e6f776e2064656c6976657279206e6f64650000000000000000604082015250565b60028110620018db57620018da620016aa565b5b50565b620018e98162001524565b8114620018f557600080fd5b50565b620019038162001599565b81146200190f57600080fd5b5056fe60806040523480156200001157600080fd5b506040516200154738038062001547833981810160405281019062000037919062000327565b620000576200004b6200010b60201b60201c565b6200011360201b60201c565b82600190805190602001906200006f929190620001d7565b5081600260006101000a81548160ff02191690836001811115620000bc577f4e487b7100000000000000000000000000000000000000000000000000000000600052602160045260246000fd5b021790555080600260016101000a81548173ffffffffffffffffffffffffffffffffffffffff021916908373ffffffffffffffffffffffffffffffffffffffff16021790555050505062000565565b600033905090565b60008060009054906101000a900473ffffffffffffffffffffffffffffffffffffffff169050816000806101000a81548173ffffffffffffffffffffffffffffffffffffffff021916908373ffffffffffffffffffffffffffffffffffffffff1602179055508173ffffffffffffffffffffffffffffffffffffffff168173ffffffffffffffffffffffffffffffffffffffff167f8be0079c531659141344cd1fd0a4f28419497f9722a3daafe3b4186f6b6457e060405160405180910390a35050565b828054620001e5906200045f565b90600052602060002090601f01602090048101928262000209576000855562000255565b82601f106200022457805160ff191683800117855562000255565b8280016001018555821562000255579182015b828111156200025457825182559160200191906001019062000237565b5b50905062000264919062000268565b5090565b5b808211156200028357600081600090555060010162000269565b5090565b60006200029e6200029884620003bf565b62000396565b905082815260208101848484011115620002b757600080fd5b620002c484828562000429565b509392505050565b600081519050620002dd816200053a565b92915050565b600081519050620002f48162000554565b92915050565b600082601f8301126200030c57600080fd5b81516200031e84826020860162000287565b91505092915050565b6000806000606084860312156200033d57600080fd5b600084015167ffffffffffffffff8111156200035857600080fd5b6200036686828701620002fa565b93505060206200037986828701620002e3565b92505060406200038c86828701620002cc565b9150509250925092565b6000620003a2620003b5565b9050620003b0828262000495565b919050565b6000604051905090565b600067ffffffffffffffff821115620003dd57620003dc620004fa565b5b620003e88262000529565b9050602081019050919050565b6000620004028262000409565b9050919050565b600073ffffffffffffffffffffffffffffffffffffffff82169050919050565b60005b83811015620004495780820151818401526020810190506200042c565b8381111562000459576000848401525b50505050565b600060028204905060018216806200047857607f821691505b602082108114156200048f576200048e620004cb565b5b50919050565b620004a08262000529565b810181811067ffffffffffffffff82111715620004c257620004c1620004fa565b5b80604052505050565b7f4e487b7100000000000000000000000000000000000000000000000000000000600052602260045260246000fd5b7f4e487b7100000000000000000000000000000000000000000000000000000000600052604160045260246000fd5b6000601f19601f8301169050919050565b6200054581620003f5565b81146200055157600080fd5b50565b600281106200056257600080fd5b50565b610fd280620005756000396000f3fe608060405234801561001057600080fd5b50600436106100935760003560e01c80636e2ebae7116100665780636e2ebae714610120578063715018a61461013c5780638da5cb5b146101465780639d8d817814610164578063f2fde38b1461018257610093565b8063018b16981461009857806306fdde03146100b4578063150b7a02146100d2578063200d2ed214610102575b600080fd5b6100b260048036038101906100ad9190610988565b61019e565b005b6100bc6102b5565b6040516100c99190610b76565b60405180910390f35b6100ec60048036038101906100e7919061090d565b610343565b6040516100f99190610b40565b60405180910390f35b61010a6104ac565b6040516101179190610b5b565b60405180910390f35b61013a600480360381019061013591906109c4565b6104bf565b005b61014461058e565b005b61014e610616565b60405161015b9190610aee565b60405180910390f35b61016c61063f565b6040516101799190610aee565b60405180910390f35b61019c600480360381019061019791906108e4565b610665565b005b6101a661075d565b73ffffffffffffffffffffffffffffffffffffffff166101c4610616565b73ffffffffffffffffffffffffffffffffffffffff161461021a576040517f08c379a000000000000000000000000000000000000000000000000000000000815260040161021190610bd8565b60405180910390fd5b6000600260019054906101000a900473ffffffffffffffffffffffffffffffffffffffff1690508073ffffffffffffffffffffffffffffffffffffffff166342842e0e3085856040518463ffffffff1660e01b815260040161027e93929190610b09565b600060405180830381600087803b15801561029857600080fd5b505af11580156102ac573d6000803e3d6000fd5b50505050505050565b600180546102c290610d59565b80601f01602080910402602001604051908101604052809291908181526020018280546102ee90610d59565b801561033b5780601f106103105761010080835404028352916020019161033b565b820191906000526020600020905b81548152906001019060200180831161031e57829003601f168201915b505050505081565b600080600181111561037e577f4e487b7100000000000000000000000000000000000000000000000000000000600052602160045260246000fd5b600260009054906101000a900460ff1660018111156103c6577f4e487b7100000000000000000000000000000000000000000000000000000000600052602160045260246000fd5b14610406576040517f08c379a00000000000000000000000000000000000000000000000000000000081526004016103fd90610b98565b60405180910390fd5b600260019054906101000a900473ffffffffffffffffffffffffffffffffffffffff1673ffffffffffffffffffffffffffffffffffffffff163373ffffffffffffffffffffffffffffffffffffffff1614610496576040517f08c379a000000000000000000000000000000000000000000000000000000000815260040161048d90610bf8565b60405180910390fd5b6104a285858585610765565b9050949350505050565b600260009054906101000a900460ff1681565b6104c761075d565b73ffffffffffffffffffffffffffffffffffffffff166104e5610616565b73ffffffffffffffffffffffffffffffffffffffff161461053b576040517f08c379a000000000000000000000000000000000000000000000000000000000815260040161053290610bd8565b60405180910390fd5b80600260006101000a81548160ff02191690836001811115610586577f4e487b7100000000000000000000000000000000000000000000000000000000600052602160045260246000fd5b021790555050565b61059661075d565b73ffffffffffffffffffffffffffffffffffffffff166105b4610616565b73ffffffffffffffffffffffffffffffffffffffff161461060a576040517f08c379a000000000000000000000000000000000000000000000000000000000815260040161060190610bd8565b60405180910390fd5b6106146000610779565b565b60008060009054906101000a900473ffffffffffffffffffffffffffffffffffffffff16905090565b600260019054906101000a900473ffffffffffffffffffffffffffffffffffffffff1681565b61066d61075d565b73ffffffffffffffffffffffffffffffffffffffff1661068b610616565b73ffffffffffffffffffffffffffffffffffffffff16146106e1576040517f08c379a00000000000000000000000000000000000000000000000000000000081526004016106d890610bd8565b60405180910390fd5b600073ffffffffffffffffffffffffffffffffffffffff168173ffffffffffffffffffffffffffffffffffffffff161415610751576040517f08c379a000000000000000000000000000000000000000000000000000000000815260040161074890610bb8565b60405180910390fd5b61075a81610779565b50565b600033905090565b600063150b7a0260e01b9050949350505050565b60008060009054906101000a900473ffffffffffffffffffffffffffffffffffffffff169050816000806101000a81548173ffffffffffffffffffffffffffffffffffffffff021916908373ffffffffffffffffffffffffffffffffffffffff1602179055508173ffffffffffffffffffffffffffffffffffffffff168173ffffffffffffffffffffffffffffffffffffffff167f8be0079c531659141344cd1fd0a4f28419497f9722a3daafe3b4186f6b6457e060405160405180910390a35050565b600061085061084b84610c3d565b610c18565b90508281526020810184848401111561086857600080fd5b610873848285610d17565b509392505050565b60008135905061088a81610f5e565b92915050565b600082601f8301126108a157600080fd5b81356108b184826020860161083d565b91505092915050565b6000813590506108c981610f75565b92915050565b6000813590506108de81610f85565b92915050565b6000602082840312156108f657600080fd5b60006109048482850161087b565b91505092915050565b6000806000806080858703121561092357600080fd5b60006109318782880161087b565b94505060206109428782880161087b565b9350506040610953878288016108cf565b925050606085013567ffffffffffffffff81111561097057600080fd5b61097c87828801610890565b91505092959194509250565b6000806040838503121561099b57600080fd5b60006109a98582860161087b565b92505060206109ba858286016108cf565b9150509250929050565b6000602082840312156109d657600080fd5b60006109e4848285016108ba565b91505092915050565b6109f681610c8a565b82525050565b610a0581610c9c565b82525050565b610a1481610d05565b82525050565b6000610a2582610c6e565b610a2f8185610c79565b9350610a3f818560208601610d26565b610a4881610e49565b840191505092915050565b6000610a60601883610c79565b9150610a6b82610e5a565b602082019050919050565b6000610a83602683610c79565b9150610a8e82610e83565b604082019050919050565b6000610aa6602083610c79565b9150610ab182610ed2565b602082019050919050565b6000610ac9602f83610c79565b9150610ad482610efb565b604082019050919050565b610ae881610cfb565b82525050565b6000602082019050610b0360008301846109ed565b92915050565b6000606082019050610b1e60008301866109ed565b610b2b60208301856109ed565b610b386040830184610adf565b949350505050565b6000602082019050610b5560008301846109fc565b92915050565b6000602082019050610b706000830184610a0b565b92915050565b60006020820190508181036000830152610b908184610a1a565b905092915050565b60006020820190508181036000830152610bb181610a53565b9050919050565b60006020820190508181036000830152610bd181610a76565b9050919050565b60006020820190508181036000830152610bf181610a99565b9050919050565b60006020820190508181036000830152610c1181610abc565b9050919050565b6000610c22610c33565b9050610c2e8282610d8b565b919050565b6000604051905090565b600067ffffffffffffffff821115610c5857610c57610e1a565b5b610c6182610e49565b9050602081019050919050565b600081519050919050565b600082825260208201905092915050565b6000610c9582610cdb565b9050919050565b60007fffffffff0000000000000000000000000000000000000000000000000000000082169050919050565b6000819050610cd682610f4a565b919050565b600073ffffffffffffffffffffffffffffffffffffffff82169050919050565b6000819050919050565b6000610d1082610cc8565b9050919050565b82818337600083830152505050565b60005b83811015610d44578082015181840152602081019050610d29565b83811115610d53576000848401525b50505050565b60006002820490506001821680610d7157607f821691505b60208210811415610d8557610d84610deb565b5b50919050565b610d9482610e49565b810181811067ffffffffffffffff82111715610db357610db2610e1a565b5b80604052505050565b7f4e487b7100000000000000000000000000000000000000000000000000000000600052602160045260246000fd5b7f4e487b7100000000000000000000000000000000000000000000000000000000600052602260045260246000fd5b7f4e487b7100000000000000000000000000000000000000000000000000000000600052604160045260246000fd5b6000601f19601f8301169050919050565b7f44656c6976657279206e6f6465206973206f66666c696e650000000000000000600082015250565b7f4f776e61626c653a206e6577206f776e657220697320746865207a65726f206160008201527f6464726573730000000000000000000000000000000000000000000000000000602082015250565b7f4f776e61626c653a2063616c6c6572206973206e6f7420746865206f776e6572600082015250565b7f455243373231207265636569766564206973206e6f742066726f6d206b6e6f7760008201527f6e20746f6b656e20616464726573730000000000000000000000000000000000602082015250565b60028110610f5b57610f5a610dbc565b5b50565b610f6781610c8a565b8114610f7257600080fd5b50565b60028110610f8257600080fd5b50565b610f8e81610cfb565b8114610f9957600080fd5b5056fea26469706673582212200840d23748a17c187ad5a8b210335332292e40c61fd1ca3b065b801440cce67164736f6c63430008040033a2646970667358221220fd8122c2ea0e58a3ee17423930069e18f62c7fe7a6b0179d14cfcdbd0b35b65664736f6c6343000804003360806040523480156200001157600080fd5b506040518060400160405280600c81526020017f5061636b616765546f6b656e00000000000000000000000000000000000000008152506040518060400160405280600381526020017f504b470000000000000000000000000000000000000000000000000000000000815250816000908051906020019062000096929190620001a6565b508060019080519060200190620000af929190620001a6565b505050620000d2620000c6620000d860201b60201c565b620000e060201b60201c565b620002bb565b600033905090565b6000600660009054906101000a900473ffffffffffffffffffffffffffffffffffffffff16905081600660006101000a81548173ffffffffffffffffffffffffffffffffffffffff021916908373ffffffffffffffffffffffffffffffffffffffff1602179055508173ffffffffffffffffffffffffffffffffffffffff168173ffffffffffffffffffffffffffffffffffffffff167f8be0079c531659141344cd1fd0a4f28419497f9722a3daafe3b4186f6b6457e060405160405180910390a35050565b828054620001b49062000256565b90600052602060002090601f016020900481019282620001d8576000855562000224565b82601f10620001f357805160ff191683800117855562000224565b8280016001018555821562000224579182015b828111156200022357825182559160200191906001019062000206565b5b50905062000233919062000237565b5090565b5b808211156200025257600081600090555060010162000238565b5090565b600060028204905060018216806200026f57607f821691505b602082108114156200028657620002856200028c565b5b50919050565b7f4e487b7100000000000000000000000000000000000000000000000000000000600052602260045260246000fd5b612fa680620002cb6000396000f3fe608060405234801561001057600080fd5b50600436106101165760003560e01c8063715018a6116100a2578063abc7854411610071578063abc78544146102df578063b88d4fde14610310578063c87b56dd1461032c578063e985e9c51461035c578063f2fde38b1461038c57610116565b8063715018a61461027d5780638da5cb5b1461028757806395d89b41146102a5578063a22cb465146102c357610116565b806323b872dd116100e957806323b872dd146101b557806342842e0e146101d15780636352211e146101ed5780636c8d75351461021d57806370a082311461024d57610116565b806301ffc9a71461011b57806306fdde031461014b578063081812fc14610169578063095ea7b314610199575b600080fd5b61013560048036038101906101309190612042565b6103a8565b6040516101429190612448565b60405180910390f35b61015361048a565b6040516101609190612463565b60405180910390f35b610183600480360381019061017e9190612094565b61051c565b60405161019091906123e1565b60405180910390f35b6101b360048036038101906101ae9190612006565b6105a1565b005b6101cf60048036038101906101ca9190611e81565b6106b9565b005b6101eb60048036038101906101e69190611e81565b610719565b005b61020760048036038101906102029190612094565b610739565b60405161021491906123e1565b60405180910390f35b61023760048036038101906102329190611f87565b6107eb565b60405161024491906126bc565b60405180910390f35b61026760048036038101906102629190611e1c565b6108fb565b60405161027491906126bc565b60405180910390f35b6102856109b3565b005b61028f610a3b565b60405161029c91906123e1565b60405180910390f35b6102ad610a65565b6040516102ba9190612463565b60405180910390f35b6102dd60048036038101906102d89190611f4b565b610af7565b005b6102f960048036038101906102f49190612094565b610b0d565b604051610307929190612485565b60405180910390f35b61032a60048036038101906103259190611ed0565b610c41565b005b61034660048036038101906103419190612094565b610ca3565b6040516103539190612463565b60405180910390f35b61037660048036038101906103719190611e45565b610d4a565b6040516103839190612448565b60405180910390f35b6103a660048036038101906103a19190611e1c565b610dde565b005b60007f80ac58cd000000000000000000000000000000000000000000000000000000007bffffffffffffffffffffffffffffffffffffffffffffffffffffffff1916827bffffffffffffffffffffffffffffffffffffffffffffffffffffffff1916148061047357507f5b5e139f000000000000000000000000000000000000000000000000000000007bffffffffffffffffffffffffffffffffffffffffffffffffffffffff1916827bffffffffffffffffffffffffffffffffffffffffffffffffffffffff1916145b80610483575061048282610ed6565b5b9050919050565b60606000805461049990612912565b80601f01602080910402602001604051908101604052809291908181526020018280546104c590612912565b80156105125780601f106104e757610100808354040283529160200191610512565b820191906000526020600020905b8154815290600101906020018083116104f557829003601f168201915b5050505050905090565b600061052782610f40565b610566576040517f08c379a000000000000000000000000000000000000000000000000000000000815260040161055d9061261c565b60405180910390fd5b6004600083815260200190815260200160002060009054906101000a900473ffffffffffffffffffffffffffffffffffffffff169050919050565b60006105ac82610739565b90508073ffffffffffffffffffffffffffffffffffffffff168373ffffffffffffffffffffffffffffffffffffffff16141561061d576040517f08c379a00000000000000000000000000000000000000000000000000000000081526004016106149061267c565b60405180910390fd5b8073ffffffffffffffffffffffffffffffffffffffff1661063c610fac565b73ffffffffffffffffffffffffffffffffffffffff16148061066b575061066a81610665610fac565b610d4a565b5b6106aa576040517f08c379a00000000000000000000000000000000000000000000000000000000081526004016106a19061259c565b60405180910390fd5b6106b48383610fb4565b505050565b6106ca6106c4610fac565b8261106d565b610709576040517f08c379a00000000000000000000000000000000000000000000000000000000081526004016107009061269c565b60405180910390fd5b61071483838361114b565b505050565b61073483838360405180602001604052806000815250610c41565b505050565b6000806002600084815260200190815260200160002060009054906101000a900473ffffffffffffffffffffffffffffffffffffffff169050600073ffffffffffffffffffffffffffffffffffffffff168173ffffffffffffffffffffffffffffffffffffffff1614156107e2576040517f08c379a00000000000000000000000000000000000000000000000000000000081526004016107d9906125dc565b60405180910390fd5b80915050919050565b60006107f5610fac565b73ffffffffffffffffffffffffffffffffffffffff16610813610a3b565b73ffffffffffffffffffffffffffffffffffffffff1614610869576040517f08c379a00000000000000000000000000000000000000000000000000000000081526004016108609061263c565b60405180910390fd5b61087360076113b2565b600061087f60076113c8565b905061088b85826113d6565b6040518060400160405280858152602001848152506008600083815260200190815260200160002060008201518160000190805190602001906108cf929190611c40565b5060208201518160010190805190602001906108ec929190611c40565b50905050809150509392505050565b60008073ffffffffffffffffffffffffffffffffffffffff168273ffffffffffffffffffffffffffffffffffffffff16141561096c576040517f08c379a0000000000000000000000000000000000000000000000000000000008152600401610963906125bc565b60405180910390fd5b600360008373ffffffffffffffffffffffffffffffffffffffff1673ffffffffffffffffffffffffffffffffffffffff168152602001908152602001600020549050919050565b6109bb610fac565b73ffffffffffffffffffffffffffffffffffffffff166109d9610a3b565b73ffffffffffffffffffffffffffffffffffffffff1614610a2f576040517f08c379a0000000000000000000000000000000000000000000000000000000008152600401610a269061263c565b60405180910390fd5b610a3960006113f4565b565b6000600660009054906101000a900473ffffffffffffffffffffffffffffffffffffffff16905090565b606060018054610a7490612912565b80601f0160208091040260200160405190810160405280929190818152602001828054610aa090612912565b8015610aed5780601f10610ac257610100808354040283529160200191610aed565b820191906000526020600020905b815481529060010190602001808311610ad057829003601f168201915b5050505050905090565b610b09610b02610fac565b83836114ba565b5050565b6008602052806000526040600020600091509050806000018054610b3090612912565b80601f0160208091040260200160405190810160405280929190818152602001828054610b5c90612912565b8015610ba95780601f10610b7e57610100808354040283529160200191610ba9565b820191906000526020600020905b815481529060010190602001808311610b8c57829003601f168201915b505050505090806001018054610bbe90612912565b80601f0160208091040260200160405190810160405280929190818152602001828054610bea90612912565b8015610c375780601f10610c0c57610100808354040283529160200191610c37565b820191906000526020600020905b815481529060010190602001808311610c1a57829003601f168201915b5050505050905082565b610c52610c4c610fac565b8361106d565b610c91576040517f08c379a0000000000000000000000000000000000000000000000000000000008152600401610c889061269c565b60405180910390fd5b610c9d84848484611627565b50505050565b6060610cae82610f40565b610ced576040517f08c379a0000000000000000000000000000000000000000000000000000000008152600401610ce49061265c565b60405180910390fd5b6000610cf7611683565b90506000815111610d175760405180602001604052806000815250610d42565b80610d218461169a565b604051602001610d329291906123bd565b6040516020818303038152906040525b915050919050565b6000600560008473ffffffffffffffffffffffffffffffffffffffff1673ffffffffffffffffffffffffffffffffffffffff16815260200190815260200160002060008373ffffffffffffffffffffffffffffffffffffffff1673ffffffffffffffffffffffffffffffffffffffff16815260200190815260200160002060009054906101000a900460ff16905092915050565b610de6610fac565b73ffffffffffffffffffffffffffffffffffffffff16610e04610a3b565b73ffffffffffffffffffffffffffffffffffffffff1614610e5a576040517f08c379a0000000000000000000000000000000000000000000000000000000008152600401610e519061263c565b60405180910390fd5b600073ffffffffffffffffffffffffffffffffffffffff168173ffffffffffffffffffffffffffffffffffffffff161415610eca576040517f08c379a0000000000000000000000000000000000000000000000000000000008152600401610ec1906124dc565b60405180910390fd5b610ed3816113f4565b50565b60007f01ffc9a7000000000000000000000000000000000000000000000000000000007bffffffffffffffffffffffffffffffffffffffffffffffffffffffff1916827bffffffffffffffffffffffffffffffffffffffffffffffffffffffff1916149050919050565b60008073ffffffffffffffffffffffffffffffffffffffff166002600084815260200190815260200160002060009054906101000a900473ffffffffffffffffffffffffffffffffffffffff1673ffffffffffffffffffffffffffffffffffffffff1614159050919050565b600033905090565b816004600083815260200190815260200160002060006101000a81548173ffffffffffffffffffffffffffffffffffffffff021916908373ffffffffffffffffffffffffffffffffffffffff160217905550808273ffffffffffffffffffffffffffffffffffffffff1661102783610739565b73ffffffffffffffffffffffffffffffffffffffff167f8c5be1e5ebec7d5bd14f71427d1e84f3dd0314c0f7b2291e5b200ac8c7c3b92560405160405180910390a45050565b600061107882610f40565b6110b7576040517f08c379a00000000000000000000000000000000000000000000000000000000081526004016110ae9061257c565b60405180910390fd5b60006110c283610739565b90508073ffffffffffffffffffffffffffffffffffffffff168473ffffffffffffffffffffffffffffffffffffffff16148061113157508373ffffffffffffffffffffffffffffffffffffffff166111198461051c565b73ffffffffffffffffffffffffffffffffffffffff16145b8061114257506111418185610d4a565b5b91505092915050565b8273ffffffffffffffffffffffffffffffffffffffff1661116b82610739565b73ffffffffffffffffffffffffffffffffffffffff16146111c1576040517f08c379a00000000000000000000000000000000000000000000000000000000081526004016111b8906124fc565b60405180910390fd5b600073ffffffffffffffffffffffffffffffffffffffff168273ffffffffffffffffffffffffffffffffffffffff161415611231576040517f08c379a00000000000000000000000000000000000000000000000000000000081526004016112289061253c565b60405180910390fd5b61123c838383611847565b611247600082610fb4565b6001600360008573ffffffffffffffffffffffffffffffffffffffff1673ffffffffffffffffffffffffffffffffffffffff16815260200190815260200160002060008282546112979190612828565b925050819055506001600360008473ffffffffffffffffffffffffffffffffffffffff1673ffffffffffffffffffffffffffffffffffffffff16815260200190815260200160002060008282546112ee91906127a1565b92505081905550816002600083815260200190815260200160002060006101000a81548173ffffffffffffffffffffffffffffffffffffffff021916908373ffffffffffffffffffffffffffffffffffffffff160217905550808273ffffffffffffffffffffffffffffffffffffffff168473ffffffffffffffffffffffffffffffffffffffff167fddf252ad1be2c89b69c2b068fc378daa952ba7f163c4a11628f55a4df523b3ef60405160405180910390a46113ad83838361184c565b505050565b6001816000016000828254019250508190555050565b600081600001549050919050565b6113f0828260405180602001604052806000815250611851565b5050565b6000600660009054906101000a900473ffffffffffffffffffffffffffffffffffffffff16905081600660006101000a81548173ffffffffffffffffffffffffffffffffffffffff021916908373ffffffffffffffffffffffffffffffffffffffff1602179055508173ffffffffffffffffffffffffffffffffffffffff168173ffffffffffffffffffffffffffffffffffffffff167f8be0079c531659141344cd1fd0a4f28419497f9722a3daafe3b4186f6b6457e060405160405180910390a35050565b8173ffffffffffffffffffffffffffffffffffffffff168373ffffffffffffffffffffffffffffffffffffffff161415611529576040517f08c379a00000000000000000000000000000000000000000000000000000000081526004016115209061255c565b60405180910390fd5b80600560008573ffffffffffffffffffffffffffffffffffffffff1673ffffffffffffffffffffffffffffffffffffffff16815260200190815260200160002060008473ffffffffffffffffffffffffffffffffffffffff1673ffffffffffffffffffffffffffffffffffffffff16815260200190815260200160002060006101000a81548160ff0219169083151502179055508173ffffffffffffffffffffffffffffffffffffffff168373ffffffffffffffffffffffffffffffffffffffff167f17307eab39ab6107e8899845ad3d59bd9653f200f220920489ca2b5937696c318360405161161a9190612448565b60405180910390a3505050565b61163284848461114b565b61163e848484846118ac565b61167d576040517f08c379a0000000000000000000000000000000000000000000000000000000008152600401611674906124bc565b60405180910390fd5b50505050565b606060405180602001604052806000815250905090565b606060008214156116e2576040518060400160405280600181526020017f30000000000000000000000000000000000000000000000000000000000000008152509050611842565b600082905060005b600082146117145780806116fd90612975565b915050600a8261170d91906127f7565b91506116ea565b60008167ffffffffffffffff811115611756577f4e487b7100000000000000000000000000000000000000000000000000000000600052604160045260246000fd5b6040519080825280601f01601f1916602001820160405280156117885781602001600182028036833780820191505090505b5090505b6000851461183b576001826117a19190612828565b9150600a856117b091906129be565b60306117bc91906127a1565b60f81b8183815181106117f8577f4e487b7100000000000000000000000000000000000000000000000000000000600052603260045260246000fd5b60200101907effffffffffffffffffffffffffffffffffffffffffffffffffffffffffffff1916908160001a905350600a8561183491906127f7565b945061178c565b8093505050505b919050565b505050565b505050565b61185b8383611a43565b61186860008484846118ac565b6118a7576040517f08c379a000000000000000000000000000000000000000000000000000000000815260040161189e906124bc565b60405180910390fd5b505050565b60006118cd8473ffffffffffffffffffffffffffffffffffffffff16611c1d565b15611a36578373ffffffffffffffffffffffffffffffffffffffff1663150b7a026118f6610fac565b8786866040518563ffffffff1660e01b815260040161191894939291906123fc565b602060405180830381600087803b15801561193257600080fd5b505af192505050801561196357506040513d601f19601f82011682018060405250810190611960919061206b565b60015b6119e6573d8060008114611993576040519150601f19603f3d011682016040523d82523d6000602084013e611998565b606091505b506000815114156119de576040517f08c379a00000000000000000000000000000000000000000000000000000000081526004016119d5906124bc565b60405180910390fd5b805181602001fd5b63150b7a0260e01b7bffffffffffffffffffffffffffffffffffffffffffffffffffffffff1916817bffffffffffffffffffffffffffffffffffffffffffffffffffffffff191614915050611a3b565b600190505b949350505050565b600073ffffffffffffffffffffffffffffffffffffffff168273ffffffffffffffffffffffffffffffffffffffff161415611ab3576040517f08c379a0000000000000000000000000000000000000000000000000000000008152600401611aaa906125fc565b60405180910390fd5b611abc81610f40565b15611afc576040517f08c379a0000000000000000000000000000000000000000000000000000000008152600401611af39061251c565b60405180910390fd5b611b0860008383611847565b6001600360008473ffffffffffffffffffffffffffffffffffffffff1673ffffffffffffffffffffffffffffffffffffffff1681526020019081526020016000206000828254611b5891906127a1565b92505081905550816002600083815260200190815260200160002060006101000a81548173ffffffffffffffffffffffffffffffffffffffff021916908373ffffffffffffffffffffffffffffffffffffffff160217905550808273ffffffffffffffffffffffffffffffffffffffff16600073ffffffffffffffffffffffffffffffffffffffff167fddf252ad1be2c89b69c2b068fc378daa952ba7f163c4a11628f55a4df523b3ef60405160405180910390a4611c196000838361184c565b5050565b6000808273ffffffffffffffffffffffffffffffffffffffff163b119050919050565b828054611c4c90612912565b90600052602060002090601f016020900481019282611c6e5760008555611cb5565b82601f10611c8757805160ff1916838001178555611cb5565b82800160010185558215611cb5579182015b82811115611cb4578251825591602001919060010190611c99565b5b509050611cc29190611cc6565b5090565b5b80821115611cdf576000816000905550600101611cc7565b5090565b6000611cf6611cf1846126fc565b6126d7565b905082815260208101848484011115611d0e57600080fd5b611d198482856128d0565b509392505050565b6000611d34611d2f8461272d565b6126d7565b905082815260208101848484011115611d4c57600080fd5b611d578482856128d0565b509392505050565b600081359050611d6e81612f14565b92915050565b600081359050611d8381612f2b565b92915050565b600081359050611d9881612f42565b92915050565b600081519050611dad81612f42565b92915050565b600082601f830112611dc457600080fd5b8135611dd4848260208601611ce3565b91505092915050565b600082601f830112611dee57600080fd5b8135611dfe848260208601611d21565b91505092915050565b600081359050611e1681612f59565b92915050565b600060208284031215611e2e57600080fd5b6000611e3c84828501611d5f565b91505092915050565b60008060408385031215611e5857600080fd5b6000611e6685828601611d5f565b9250506020611e7785828601611d5f565b9150509250929050565b600080600060608486031215611e9657600080fd5b6000611ea486828701611d5f565b9350506020611eb586828701611d5f565b9250506040611ec686828701611e07565b9150509250925092565b60008060008060808587031215611ee657600080fd5b6000611ef487828801611d5f565b9450506020611f0587828801611d5f565b9350506040611f1687828801611e07565b925050606085013567ffffffffffffffff811115611f3357600080fd5b611f3f87828801611db3565b91505092959194509250565b60008060408385031215611f5e57600080fd5b6000611f6c85828601611d5f565b9250506020611f7d85828601611d74565b9150509250929050565b600080600060608486031215611f9c57600080fd5b6000611faa86828701611d5f565b935050602084013567ffffffffffffffff811115611fc757600080fd5b611fd386828701611ddd565b925050604084013567ffffffffffffffff811115611ff057600080fd5b611ffc86828701611ddd565b9150509250925092565b6000806040838503121561201957600080fd5b600061202785828601611d5f565b925050602061203885828601611e07565b9150509250929050565b60006020828403121561205457600080fd5b600061206284828501611d89565b91505092915050565b60006020828403121561207d57600080fd5b600061208b84828501611d9e565b91505092915050565b6000602082840312156120a657600080fd5b60006120b484828501611e07565b91505092915050565b6120c68161285c565b82525050565b6120d58161286e565b82525050565b60006120e68261275e565b6120f08185612774565b93506121008185602086016128df565b61210981612aab565b840191505092915050565b600061211f82612769565b6121298185612785565b93506121398185602086016128df565b61214281612aab565b840191505092915050565b600061215882612769565b6121628185612796565b93506121728185602086016128df565b80840191505092915050565b600061218b603283612785565b915061219682612abc565b604082019050919050565b60006121ae602683612785565b91506121b982612b0b565b604082019050919050565b60006121d1602583612785565b91506121dc82612b5a565b604082019050919050565b60006121f4601c83612785565b91506121ff82612ba9565b602082019050919050565b6000612217602483612785565b915061222282612bd2565b604082019050919050565b600061223a601983612785565b915061224582612c21565b602082019050919050565b600061225d602c83612785565b915061226882612c4a565b604082019050919050565b6000612280603883612785565b915061228b82612c99565b604082019050919050565b60006122a3602a83612785565b91506122ae82612ce8565b604082019050919050565b60006122c6602983612785565b91506122d182612d37565b604082019050919050565b60006122e9602083612785565b91506122f482612d86565b602082019050919050565b600061230c602c83612785565b915061231782612daf565b604082019050919050565b600061232f602083612785565b915061233a82612dfe565b602082019050919050565b6000612352602f83612785565b915061235d82612e27565b604082019050919050565b6000612375602183612785565b915061238082612e76565b604082019050919050565b6000612398603183612785565b91506123a382612ec5565b604082019050919050565b6123b7816128c6565b82525050565b60006123c9828561214d565b91506123d5828461214d565b91508190509392505050565b60006020820190506123f660008301846120bd565b92915050565b600060808201905061241160008301876120bd565b61241e60208301866120bd565b61242b60408301856123ae565b818103606083015261243d81846120db565b905095945050505050565b600060208201905061245d60008301846120cc565b92915050565b6000602082019050818103600083015261247d8184612114565b905092915050565b6000604082019050818103600083015261249f8185612114565b905081810360208301526124b38184612114565b90509392505050565b600060208201905081810360008301526124d58161217e565b9050919050565b600060208201905081810360008301526124f5816121a1565b9050919050565b60006020820190508181036000830152612515816121c4565b9050919050565b60006020820190508181036000830152612535816121e7565b9050919050565b600060208201905081810360008301526125558161220a565b9050919050565b600060208201905081810360008301526125758161222d565b9050919050565b6000602082019050818103600083015261259581612250565b9050919050565b600060208201905081810360008301526125b581612273565b9050919050565b600060208201905081810360008301526125d581612296565b9050919050565b600060208201905081810360008301526125f5816122b9565b9050919050565b60006020820190508181036000830152612615816122dc565b9050919050565b60006020820190508181036000830152612635816122ff565b9050919050565b6000602082019050818103600083015261265581612322565b9050919050565b6000602082019050818103600083015261267581612345565b9050919050565b6000602082019050818103600083015261269581612368565b9050919050565b600060208201905081810360008301526126b58161238b565b9050919050565b60006020820190506126d160008301846123ae565b92915050565b60006126e16126f2565b90506126ed8282612944565b919050565b6000604051905090565b600067ffffffffffffffff82111561271757612716612a7c565b5b61272082612aab565b9050602081019050919050565b600067ffffffffffffffff82111561274857612747612a7c565b5b61275182612aab565b9050602081019050919050565b600081519050919050565b600081519050919050565b600082825260208201905092915050565b600082825260208201905092915050565b600081905092915050565b60006127ac826128c6565b91506127b7836128c6565b9250827fffffffffffffffffffffffffffffffffffffffffffffffffffffffffffffffff038211156127ec576127eb6129ef565b5b828201905092915050565b6000612802826128c6565b915061280d836128c6565b92508261281d5761281c612a1e565b5b828204905092915050565b6000612833826128c6565b915061283e836128c6565b925082821015612851576128506129ef565b5b828203905092915050565b6000612867826128a6565b9050919050565b60008115159050919050565b60007fffffffff0000000000000000000000000000000000000000000000000000000082169050919050565b600073ffffffffffffffffffffffffffffffffffffffff82169050919050565b6000819050919050565b82818337600083830152505050565b60005b838110156128fd5780820151818401526020810190506128e2565b8381111561290c576000848401525b50505050565b6000600282049050600182168061292a57607f821691505b6020821081141561293e5761293d612a4d565b5b50919050565b61294d82612aab565b810181811067ffffffffffffffff8211171561296c5761296b612a7c565b5b80604052505050565b6000612980826128c6565b91507fffffffffffffffffffffffffffffffffffffffffffffffffffffffffffffffff8214156129b3576129b26129ef565b5b600182019050919050565b60006129c9826128c6565b91506129d4836128c6565b9250826129e4576129e3612a1e565b5b828206905092915050565b7f4e487b7100000000000000000000000000000000000000000000000000000000600052601160045260246000fd5b7f4e487b7100000000000000000000000000000000000000000000000000000000600052601260045260246000fd5b7f4e487b7100000000000000000000000000000000000000000000000000000000600052602260045260246000fd5b7f4e487b7100000000000000000000000000000000000000000000000000000000600052604160045260246000fd5b6000601f19601f8301169050919050565b7f4552433732313a207472616e7366657220746f206e6f6e20455243373231526560008201527f63656976657220696d706c656d656e7465720000000000000000000000000000602082015250565b7f4f776e61626c653a206e6577206f776e657220697320746865207a65726f206160008201527f6464726573730000000000000000000000000000000000000000000000000000602082015250565b7f4552433732313a207472616e736665722066726f6d20696e636f72726563742060008201527f6f776e6572000000000000000000000000000000000000000000000000000000602082015250565b7f4552433732313a20746f6b656e20616c7265616479206d696e74656400000000600082015250565b7f4552433732313a207472616e7366657220746f20746865207a65726f2061646460008201527f7265737300000000000000000000000000000000000000000000000000000000602082015250565b7f4552433732313a20617070726f766520746f2063616c6c657200000000000000600082015250565b7f4552433732313a206f70657261746f7220717565727920666f72206e6f6e657860008201527f697374656e7420746f6b656e0000000000000000000000000000000000000000602082015250565b7f4552433732313a20617070726f76652063616c6c6572206973206e6f74206f7760008201527f6e6572206e6f7220617070726f76656420666f7220616c6c0000000000000000602082015250565b7f4552433732313a2062616c616e636520717565727920666f7220746865207a6560008201527f726f206164647265737300000000000000000000000000000000000000000000602082015250565b7f4552433732313a206f776e657220717565727920666f72206e6f6e657869737460008201527f656e7420746f6b656e0000000000000000000000000000000000000000000000602082015250565b7f4552433732313a206d696e7420746f20746865207a65726f2061646472657373600082015250565b7f4552433732313a20617070726f76656420717565727920666f72206e6f6e657860008201527f697374656e7420746f6b656e0000000000000000000000000000000000000000602082015250565b7f4f776e61626c653a2063616c6c6572206973206e6f7420746865206f776e6572600082015250565b7f4552433732314d657461646174613a2055524920717565727920666f72206e6f60008201527f6e6578697374656e7420746f6b656e0000000000000000000000000000000000602082015250565b7f4552433732313a20617070726f76616c20746f2063757272656e74206f776e6560008201527f7200000000000000000000000000000000000000000000000000000000000000602082015250565b7f4552433732313a207472616e736665722063616c6c6572206973206e6f74206f60008201527f776e6572206e6f7220617070726f766564000000000000000000000000000000602082015250565b612f1d8161285c565b8114612f2857600080fd5b50565b612f348161286e565b8114612f3f57600080fd5b50565b612f4b8161287a565b8114612f5657600080fd5b50565b612f62816128c6565b8114612f6d57600080fd5b5056fea26469706673582212208c0eb4514773237ead85fe7edff384f3a1e0c82dc583c71007ddba9c9d81bb9f64736f6c6343000804003360806040523480156200001157600080fd5b506040518060400160405280600c81526020017f52656365697074546f6b656e00000000000000000000000000000000000000008152506040518060400160405280600381526020017f5250540000000000000000000000000000000000000000000000000000000000815250816000908051906020019062000096929190620001a6565b508060019080519060200190620000af929190620001a6565b505050620000d2620000c6620000d860201b60201c565b620000e060201b60201c565b620002bb565b600033905090565b6000600660009054906101000a900473ffffffffffffffffffffffffffffffffffffffff16905081600660006101000a81548173ffffffffffffffffffffffffffffffffffffffff021916908373ffffffffffffffffffffffffffffffffffffffff1602179055508173ffffffffffffffffffffffffffffffffffffffff168173ffffffffffffffffffffffffffffffffffffffff167f8be0079c531659141344cd1fd0a4f28419497f9722a3daafe3b4186f6b6457e060405160405180910390a35050565b828054620001b49062000256565b90600052602060002090601f016020900481019282620001d8576000855562000224565b82601f10620001f357805160ff191683800117855562000224565b8280016001018555821562000224579182015b828111156200022357825182559160200191906001019062000206565b5b50905062000233919062000237565b5090565b5b808211156200025257600081600090555060010162000238565b5090565b600060028204905060018216806200026f57607f821691505b602082108114156200028657620002856200028c565b5b50919050565b7f4e487b7100000000000000000000000000000000000000000000000000000000600052602260045260246000fd5b612e7b80620002cb6000396000f3fe608060405234801561001057600080fd5b50600436106101215760003560e01c806370a08231116100ad578063b88d4fde11610071578063b88d4fde14610306578063c87b56dd14610322578063d62914c914610352578063e985e9c514610382578063f2fde38b146103b257610121565b806370a0823114610274578063715018a6146102a45780638da5cb5b146102ae57806395d89b41146102cc578063a22cb465146102ea57610121565b806323b872dd116100f457806323b872dd146101c057806327d35db7146101dc57806342842e0e1461020c57806342966c68146102285780636352211e1461024457610121565b806301ffc9a71461012657806306fdde0314610156578063081812fc14610174578063095ea7b3146101a4575b600080fd5b610140600480360381019061013b9190611eed565b6103ce565b60405161014d9190612316565b60405180910390f35b61015e6104b0565b60405161016b9190612331565b60405180910390f35b61018e60048036038101906101899190611f3f565b610542565b60405161019b91906122af565b60405180910390f35b6101be60048036038101906101b99190611eb1565b6105c7565b005b6101da60048036038101906101d59190611dab565b6106df565b005b6101f660048036038101906101f19190611f3f565b61073f565b6040516102039190612573565b60405180910390f35b61022660048036038101906102219190611dab565b610757565b005b610242600480360381019061023d9190611f3f565b610777565b005b61025e60048036038101906102599190611f3f565b6107d3565b60405161026b91906122af565b60405180910390f35b61028e60048036038101906102899190611d46565b610885565b60405161029b9190612573565b60405180910390f35b6102ac61093d565b005b6102b66109c5565b6040516102c391906122af565b60405180910390f35b6102d46109ef565b6040516102e19190612331565b60405180910390f35b61030460048036038101906102ff9190611e75565b610a81565b005b610320600480360381019061031b9190611dfa565b610a97565b005b61033c60048036038101906103379190611f3f565b610af9565b6040516103499190612331565b60405180910390f35b61036c60048036038101906103679190611eb1565b610ba0565b6040516103799190612573565b60405180910390f35b61039c60048036038101906103979190611d6f565b610c62565b6040516103a99190612316565b60405180910390f35b6103cc60048036038101906103c79190611d46565b610cf6565b005b60007f80ac58cd000000000000000000000000000000000000000000000000000000007bffffffffffffffffffffffffffffffffffffffffffffffffffffffff1916827bffffffffffffffffffffffffffffffffffffffffffffffffffffffff1916148061049957507f5b5e139f000000000000000000000000000000000000000000000000000000007bffffffffffffffffffffffffffffffffffffffffffffffffffffffff1916827bffffffffffffffffffffffffffffffffffffffffffffffffffffffff1916145b806104a957506104a882610dee565b5b9050919050565b6060600080546104bf90612798565b80601f01602080910402602001604051908101604052809291908181526020018280546104eb90612798565b80156105385780601f1061050d57610100808354040283529160200191610538565b820191906000526020600020905b81548152906001019060200180831161051b57829003601f168201915b5050505050905090565b600061054d82610e58565b61058c576040517f08c379a0000000000000000000000000000000000000000000000000000000008152600401610583906124b3565b60405180910390fd5b6004600083815260200190815260200160002060009054906101000a900473ffffffffffffffffffffffffffffffffffffffff169050919050565b60006105d2826107d3565b90508073ffffffffffffffffffffffffffffffffffffffff168373ffffffffffffffffffffffffffffffffffffffff161415610643576040517f08c379a000000000000000000000000000000000000000000000000000000000815260040161063a90612513565b60405180910390fd5b8073ffffffffffffffffffffffffffffffffffffffff16610662610ec4565b73ffffffffffffffffffffffffffffffffffffffff16148061069157506106908161068b610ec4565b610c62565b5b6106d0576040517f08c379a00000000000000000000000000000000000000000000000000000000081526004016106c790612433565b60405180910390fd5b6106da8383610ecc565b505050565b6106f06106ea610ec4565b82610f85565b61072f576040517f08c379a000000000000000000000000000000000000000000000000000000000815260040161072690612533565b60405180910390fd5b61073a838383611063565b505050565b60086020528060005260406000206000915090505481565b61077283838360405180602001604052806000815250610a97565b505050565b610788610782610ec4565b82610f85565b6107c7576040517f08c379a00000000000000000000000000000000000000000000000000000000081526004016107be90612553565b60405180910390fd5b6107d0816112ca565b50565b6000806002600084815260200190815260200160002060009054906101000a900473ffffffffffffffffffffffffffffffffffffffff169050600073ffffffffffffffffffffffffffffffffffffffff168173ffffffffffffffffffffffffffffffffffffffff16141561087c576040517f08c379a000000000000000000000000000000000000000000000000000000000815260040161087390612473565b60405180910390fd5b80915050919050565b60008073ffffffffffffffffffffffffffffffffffffffff168273ffffffffffffffffffffffffffffffffffffffff1614156108f6576040517f08c379a00000000000000000000000000000000000000000000000000000000081526004016108ed90612453565b60405180910390fd5b600360008373ffffffffffffffffffffffffffffffffffffffff1673ffffffffffffffffffffffffffffffffffffffff168152602001908152602001600020549050919050565b610945610ec4565b73ffffffffffffffffffffffffffffffffffffffff166109636109c5565b73ffffffffffffffffffffffffffffffffffffffff16146109b9576040517f08c379a00000000000000000000000000000000000000000000000000000000081526004016109b0906124d3565b60405180910390fd5b6109c360006113e7565b565b6000600660009054906101000a900473ffffffffffffffffffffffffffffffffffffffff16905090565b6060600180546109fe90612798565b80601f0160208091040260200160405190810160405280929190818152602001828054610a2a90612798565b8015610a775780601f10610a4c57610100808354040283529160200191610a77565b820191906000526020600020905b815481529060010190602001808311610a5a57829003601f168201915b5050505050905090565b610a93610a8c610ec4565b83836114ad565b5050565b610aa8610aa2610ec4565b83610f85565b610ae7576040517f08c379a0000000000000000000000000000000000000000000000000000000008152600401610ade90612533565b60405180910390fd5b610af38484848461161a565b50505050565b6060610b0482610e58565b610b43576040517f08c379a0000000000000000000000000000000000000000000000000000000008152600401610b3a906124f3565b60405180910390fd5b6000610b4d611676565b90506000815111610b6d5760405180602001604052806000815250610b98565b80610b778461168d565b604051602001610b8892919061228b565b6040516020818303038152906040525b915050919050565b6000610baa610ec4565b73ffffffffffffffffffffffffffffffffffffffff16610bc86109c5565b73ffffffffffffffffffffffffffffffffffffffff1614610c1e576040517f08c379a0000000000000000000000000000000000000000000000000000000008152600401610c15906124d3565b60405180910390fd5b610c28600761183a565b6000610c346007611850565b9050610c40848261185e565b8260086000838152602001908152602001600020819055508091505092915050565b6000600560008473ffffffffffffffffffffffffffffffffffffffff1673ffffffffffffffffffffffffffffffffffffffff16815260200190815260200160002060008373ffffffffffffffffffffffffffffffffffffffff1673ffffffffffffffffffffffffffffffffffffffff16815260200190815260200160002060009054906101000a900460ff16905092915050565b610cfe610ec4565b73ffffffffffffffffffffffffffffffffffffffff16610d1c6109c5565b73ffffffffffffffffffffffffffffffffffffffff1614610d72576040517f08c379a0000000000000000000000000000000000000000000000000000000008152600401610d69906124d3565b60405180910390fd5b600073ffffffffffffffffffffffffffffffffffffffff168173ffffffffffffffffffffffffffffffffffffffff161415610de2576040517f08c379a0000000000000000000000000000000000000000000000000000000008152600401610dd990612373565b60405180910390fd5b610deb816113e7565b50565b60007f01ffc9a7000000000000000000000000000000000000000000000000000000007bffffffffffffffffffffffffffffffffffffffffffffffffffffffff1916827bffffffffffffffffffffffffffffffffffffffffffffffffffffffff1916149050919050565b60008073ffffffffffffffffffffffffffffffffffffffff166002600084815260200190815260200160002060009054906101000a900473ffffffffffffffffffffffffffffffffffffffff1673ffffffffffffffffffffffffffffffffffffffff1614159050919050565b600033905090565b816004600083815260200190815260200160002060006101000a81548173ffffffffffffffffffffffffffffffffffffffff021916908373ffffffffffffffffffffffffffffffffffffffff160217905550808273ffffffffffffffffffffffffffffffffffffffff16610f3f836107d3565b73ffffffffffffffffffffffffffffffffffffffff167f8c5be1e5ebec7d5bd14f71427d1e84f3dd0314c0f7b2291e5b200ac8c7c3b92560405160405180910390a45050565b6000610f9082610e58565b610fcf576040517f08c379a0000000000000000000000000000000000000000000000000000000008152600401610fc690612413565b60405180910390fd5b6000610fda836107d3565b90508073ffffffffffffffffffffffffffffffffffffffff168473ffffffffffffffffffffffffffffffffffffffff16148061104957508373ffffffffffffffffffffffffffffffffffffffff1661103184610542565b73ffffffffffffffffffffffffffffffffffffffff16145b8061105a57506110598185610c62565b5b91505092915050565b8273ffffffffffffffffffffffffffffffffffffffff16611083826107d3565b73ffffffffffffffffffffffffffffffffffffffff16146110d9576040517f08c379a00000000000000000000000000000000000000000000000000000000081526004016110d090612393565b60405180910390fd5b600073ffffffffffffffffffffffffffffffffffffffff168273ffffffffffffffffffffffffffffffffffffffff161415611149576040517f08c379a0000000000000000000000000000000000000000000000000000000008152600401611140906123d3565b60405180910390fd5b61115483838361187c565b61115f600082610ecc565b6001600360008573ffffffffffffffffffffffffffffffffffffffff1673ffffffffffffffffffffffffffffffffffffffff16815260200190815260200160002060008282546111af91906126ae565b925050819055506001600360008473ffffffffffffffffffffffffffffffffffffffff1673ffffffffffffffffffffffffffffffffffffffff16815260200190815260200160002060008282546112069190612627565b92505081905550816002600083815260200190815260200160002060006101000a81548173ffffffffffffffffffffffffffffffffffffffff021916908373ffffffffffffffffffffffffffffffffffffffff160217905550808273ffffffffffffffffffffffffffffffffffffffff168473ffffffffffffffffffffffffffffffffffffffff167fddf252ad1be2c89b69c2b068fc378daa952ba7f163c4a11628f55a4df523b3ef60405160405180910390a46112c5838383611881565b505050565b60006112d5826107d3565b90506112e38160008461187c565b6112ee600083610ecc565b6001600360008373ffffffffffffffffffffffffffffffffffffffff1673ffffffffffffffffffffffffffffffffffffffff168152602001908152602001600020600082825461133e91906126ae565b925050819055506002600083815260200190815260200160002060006101000a81549073ffffffffffffffffffffffffffffffffffffffff021916905581600073ffffffffffffffffffffffffffffffffffffffff168273ffffffffffffffffffffffffffffffffffffffff167fddf252ad1be2c89b69c2b068fc378daa952ba7f163c4a11628f55a4df523b3ef60405160405180910390a46113e381600084611881565b5050565b6000600660009054906101000a900473ffffffffffffffffffffffffffffffffffffffff16905081600660006101000a81548173ffffffffffffffffffffffffffffffffffffffff021916908373ffffffffffffffffffffffffffffffffffffffff1602179055508173ffffffffffffffffffffffffffffffffffffffff168173ffffffffffffffffffffffffffffffffffffffff167f8be0079c531659141344cd1fd0a4f28419497f9722a3daafe3b4186f6b6457e060405160405180910390a35050565b8173ffffffffffffffffffffffffffffffffffffffff168373ffffffffffffffffffffffffffffffffffffffff16141561151c576040517f08c379a0000000000000000000000000000000000000000000000000000000008152600401611513906123f3565b60405180910390fd5b80600560008573ffffffffffffffffffffffffffffffffffffffff1673ffffffffffffffffffffffffffffffffffffffff16815260200190815260200160002060008473ffffffffffffffffffffffffffffffffffffffff1673ffffffffffffffffffffffffffffffffffffffff16815260200190815260200160002060006101000a81548160ff0219169083151502179055508173ffffffffffffffffffffffffffffffffffffffff168373ffffffffffffffffffffffffffffffffffffffff167f17307eab39ab6107e8899845ad3d59bd9653f200f220920489ca2b5937696c318360405161160d9190612316565b60405180910390a3505050565b611625848484611063565b61163184848484611886565b611670576040517f08c379a000000000000000000000000000000000000000000000000000000000815260040161166790612353565b60405180910390fd5b50505050565b606060405180602001604052806000815250905090565b606060008214156116d5576040518060400160405280600181526020017f30000000000000000000000000000000000000000000000000000000000000008152509050611835565b600082905060005b600082146117075780806116f0906127fb565b915050600a82611700919061267d565b91506116dd565b60008167ffffffffffffffff811115611749577f4e487b7100000000000000000000000000000000000000000000000000000000600052604160045260246000fd5b6040519080825280601f01601f19166020018201604052801561177b5781602001600182028036833780820191505090505b5090505b6000851461182e5760018261179491906126ae565b9150600a856117a39190612844565b60306117af9190612627565b60f81b8183815181106117eb577f4e487b7100000000000000000000000000000000000000000000000000000000600052603260045260246000fd5b60200101907effffffffffffffffffffffffffffffffffffffffffffffffffffffffffffff1916908160001a905350600a85611827919061267d565b945061177f565b8093505050505b919050565b6001816000016000828254019250508190555050565b600081600001549050919050565b611878828260405180602001604052806000815250611a1d565b5050565b505050565b505050565b60006118a78473ffffffffffffffffffffffffffffffffffffffff16611a78565b15611a10578373ffffffffffffffffffffffffffffffffffffffff1663150b7a026118d0610ec4565b8786866040518563ffffffff1660e01b81526004016118f294939291906122ca565b602060405180830381600087803b15801561190c57600080fd5b505af192505050801561193d57506040513d601f19601f8201168201806040525081019061193a9190611f16565b60015b6119c0573d806000811461196d576040519150601f19603f3d011682016040523d82523d6000602084013e611972565b606091505b506000815114156119b8576040517f08c379a00000000000000000000000000000000000000000000000000000000081526004016119af90612353565b60405180910390fd5b805181602001fd5b63150b7a0260e01b7bffffffffffffffffffffffffffffffffffffffffffffffffffffffff1916817bffffffffffffffffffffffffffffffffffffffffffffffffffffffff191614915050611a15565b600190505b949350505050565b611a278383611a9b565b611a346000848484611886565b611a73576040517f08c379a0000000000000000000000000000000000000000000000000000000008152600401611a6a90612353565b60405180910390fd5b505050565b6000808273ffffffffffffffffffffffffffffffffffffffff163b119050919050565b600073ffffffffffffffffffffffffffffffffffffffff168273ffffffffffffffffffffffffffffffffffffffff161415611b0b576040517f08c379a0000000000000000000000000000000000000000000000000000000008152600401611b0290612493565b60405180910390fd5b611b1481610e58565b15611b54576040517f08c379a0000000000000000000000000000000000000000000000000000000008152600401611b4b906123b3565b60405180910390fd5b611b606000838361187c565b6001600360008473ffffffffffffffffffffffffffffffffffffffff1673ffffffffffffffffffffffffffffffffffffffff1681526020019081526020016000206000828254611bb09190612627565b92505081905550816002600083815260200190815260200160002060006101000a81548173ffffffffffffffffffffffffffffffffffffffff021916908373ffffffffffffffffffffffffffffffffffffffff160217905550808273ffffffffffffffffffffffffffffffffffffffff16600073ffffffffffffffffffffffffffffffffffffffff167fddf252ad1be2c89b69c2b068fc378daa952ba7f163c4a11628f55a4df523b3ef60405160405180910390a4611c7160008383611881565b5050565b6000611c88611c83846125b3565b61258e565b905082815260208101848484011115611ca057600080fd5b611cab848285612756565b509392505050565b600081359050611cc281612de9565b92915050565b600081359050611cd781612e00565b92915050565b600081359050611cec81612e17565b92915050565b600081519050611d0181612e17565b92915050565b600082601f830112611d1857600080fd5b8135611d28848260208601611c75565b91505092915050565b600081359050611d4081612e2e565b92915050565b600060208284031215611d5857600080fd5b6000611d6684828501611cb3565b91505092915050565b60008060408385031215611d8257600080fd5b6000611d9085828601611cb3565b9250506020611da185828601611cb3565b9150509250929050565b600080600060608486031215611dc057600080fd5b6000611dce86828701611cb3565b9350506020611ddf86828701611cb3565b9250506040611df086828701611d31565b9150509250925092565b60008060008060808587031215611e1057600080fd5b6000611e1e87828801611cb3565b9450506020611e2f87828801611cb3565b9350506040611e4087828801611d31565b925050606085013567ffffffffffffffff811115611e5d57600080fd5b611e6987828801611d07565b91505092959194509250565b60008060408385031215611e8857600080fd5b6000611e9685828601611cb3565b9250506020611ea785828601611cc8565b9150509250929050565b60008060408385031215611ec457600080fd5b6000611ed285828601611cb3565b9250506020611ee385828601611d31565b9150509250929050565b600060208284031215611eff57600080fd5b6000611f0d84828501611cdd565b91505092915050565b600060208284031215611f2857600080fd5b6000611f3684828501611cf2565b91505092915050565b600060208284031215611f5157600080fd5b6000611f5f84828501611d31565b91505092915050565b611f71816126e2565b82525050565b611f80816126f4565b82525050565b6000611f91826125e4565b611f9b81856125fa565b9350611fab818560208601612765565b611fb481612931565b840191505092915050565b6000611fca826125ef565b611fd4818561260b565b9350611fe4818560208601612765565b611fed81612931565b840191505092915050565b6000612003826125ef565b61200d818561261c565b935061201d818560208601612765565b80840191505092915050565b600061203660328361260b565b915061204182612942565b604082019050919050565b600061205960268361260b565b915061206482612991565b604082019050919050565b600061207c60258361260b565b9150612087826129e0565b604082019050919050565b600061209f601c8361260b565b91506120aa82612a2f565b602082019050919050565b60006120c260248361260b565b91506120cd82612a58565b604082019050919050565b60006120e560198361260b565b91506120f082612aa7565b602082019050919050565b6000612108602c8361260b565b915061211382612ad0565b604082019050919050565b600061212b60388361260b565b915061213682612b1f565b604082019050919050565b600061214e602a8361260b565b915061215982612b6e565b604082019050919050565b600061217160298361260b565b915061217c82612bbd565b604082019050919050565b600061219460208361260b565b915061219f82612c0c565b602082019050919050565b60006121b7602c8361260b565b91506121c282612c35565b604082019050919050565b60006121da60208361260b565b91506121e582612c84565b602082019050919050565b60006121fd602f8361260b565b915061220882612cad565b604082019050919050565b600061222060218361260b565b915061222b82612cfc565b604082019050919050565b600061224360318361260b565b915061224e82612d4b565b604082019050919050565b600061226660308361260b565b915061227182612d9a565b604082019050919050565b6122858161274c565b82525050565b60006122978285611ff8565b91506122a38284611ff8565b91508190509392505050565b60006020820190506122c46000830184611f68565b92915050565b60006080820190506122df6000830187611f68565b6122ec6020830186611f68565b6122f9604083018561227c565b818103606083015261230b8184611f86565b905095945050505050565b600060208201905061232b6000830184611f77565b92915050565b6000602082019050818103600083015261234b8184611fbf565b905092915050565b6000602082019050818103600083015261236c81612029565b9050919050565b6000602082019050818103600083015261238c8161204c565b9050919050565b600060208201905081810360008301526123ac8161206f565b9050919050565b600060208201905081810360008301526123cc81612092565b9050919050565b600060208201905081810360008301526123ec816120b5565b9050919050565b6000602082019050818103600083015261240c816120d8565b9050919050565b6000602082019050818103600083015261242c816120fb565b9050919050565b6000602082019050818103600083015261244c8161211e565b9050919050565b6000602082019050818103600083015261246c81612141565b9050919050565b6000602082019050818103600083015261248c81612164565b9050919050565b600060208201905081810360008301526124ac81612187565b9050919050565b600060208201905081810360008301526124cc816121aa565b9050919050565b600060208201905081810360008301526124ec816121cd565b9050919050565b6000602082019050818103600083015261250c816121f0565b9050919050565b6000602082019050818103600083015261252c81612213565b9050919050565b6000602082019050818103600083015261254c81612236565b9050919050565b6000602082019050818103600083015261256c81612259565b9050919050565b6000602082019050612588600083018461227c565b92915050565b60006125986125a9565b90506125a482826127ca565b919050565b6000604051905090565b600067ffffffffffffffff8211156125ce576125cd612902565b5b6125d782612931565b9050602081019050919050565b600081519050919050565b600081519050919050565b600082825260208201905092915050565b600082825260208201905092915050565b600081905092915050565b60006126328261274c565b915061263d8361274c565b9250827fffffffffffffffffffffffffffffffffffffffffffffffffffffffffffffffff0382111561267257612671612875565b5b828201905092915050565b60006126888261274c565b91506126938361274c565b9250826126a3576126a26128a4565b5b828204905092915050565b60006126b98261274c565b91506126c48361274c565b9250828210156126d7576126d6612875565b5b828203905092915050565b60006126ed8261272c565b9050919050565b60008115159050919050565b60007fffffffff0000000000000000000000000000000000000000000000000000000082169050919050565b600073ffffffffffffffffffffffffffffffffffffffff82169050919050565b6000819050919050565b82818337600083830152505050565b60005b83811015612783578082015181840152602081019050612768565b83811115612792576000848401525b50505050565b600060028204905060018216806127b057607f821691505b602082108114156127c4576127c36128d3565b5b50919050565b6127d382612931565b810181811067ffffffffffffffff821117156127f2576127f1612902565b5b80604052505050565b60006128068261274c565b91507fffffffffffffffffffffffffffffffffffffffffffffffffffffffffffffffff82141561283957612838612875565b5b600182019050919050565b600061284f8261274c565b915061285a8361274c565b92508261286a576128696128a4565b5b828206905092915050565b7f4e487b7100000000000000000000000000000000000000000000000000000000600052601160045260246000fd5b7f4e487b7100000000000000000000000000000000000000000000000000000000600052601260045260246000fd5b7f4e487b7100000000000000000000000000000000000000000000000000000000600052602260045260246000fd5b7f4e487b7100000000000000000000000000000000000000000000000000000000600052604160045260246000fd5b6000601f19601f8301169050919050565b7f4552433732313a207472616e7366657220746f206e6f6e20455243373231526560008201527f63656976657220696d706c656d656e7465720000000000000000000000000000602082015250565b7f4f776e61626c653a206e6577206f776e657220697320746865207a65726f206160008201527f6464726573730000000000000000000000000000000000000000000000000000602082015250565b7f4552433732313a207472616e736665722066726f6d20696e636f72726563742060008201527f6f776e6572000000000000000000000000000000000000000000000000000000602082015250565b7f4552433732313a20746f6b656e20616c7265616479206d696e74656400000000600082015250565b7f4552433732313a207472616e7366657220746f20746865207a65726f2061646460008201527f7265737300000000000000000000000000000000000000000000000000000000602082015250565b7f4552433732313a20617070726f766520746f2063616c6c657200000000000000600082015250565b7f4552433732313a206f70657261746f7220717565727920666f72206e6f6e657860008201527f697374656e7420746f6b656e0000000000000000000000000000000000000000602082015250565b7f4552433732313a20617070726f76652063616c6c6572206973206e6f74206f7760008201527f6e6572206e6f7220617070726f76656420666f7220616c6c0000000000000000602082015250565b7f4552433732313a2062616c616e636520717565727920666f7220746865207a6560008201527f726f206164647265737300000000000000000000000000000000000000000000602082015250565b7f4552433732313a206f776e657220717565727920666f72206e6f6e657869737460008201527f656e7420746f6b656e0000000000000000000000000000000000000000000000602082015250565b7f4552433732313a206d696e7420746f20746865207a65726f2061646472657373600082015250565b7f4552433732313a20617070726f76656420717565727920666f72206e6f6e657860008201527f697374656e7420746f6b656e0000000000000000000000000000000000000000602082015250565b7f4f776e61626c653a2063616c6c6572206973206e6f7420746865206f776e6572600082015250565b7f4552433732314d657461646174613a2055524920717565727920666f72206e6f60008201527f6e6578697374656e7420746f6b656e0000000000000000000000000000000000602082015250565b7f4552433732313a20617070726f76616c20746f2063757272656e74206f776e6560008201527f7200000000000000000000000000000000000000000000000000000000000000602082015250565b7f4552433732313a207472616e736665722063616c6c6572206973206e6f74206f60008201527f776e6572206e6f7220617070726f766564000000000000000000000000000000602082015250565b7f4552433732314275726e61626c653a2063616c6c6572206973206e6f74206f7760008201527f6e6572206e6f7220617070726f76656400000000000000000000000000000000602082015250565b612df2816126e2565b8114612dfd57600080fd5b50565b612e09816126f4565b8114612e1457600080fd5b50565b612e2081612700565b8114612e2b57600080fd5b50565b612e378161274c565b8114612e4257600080fd5b5056fea264697066735822122076439bc9903a2c331557acc462409d9c3d612058fbfd7b7f1b0b473aef8e1bea64736f6c63430008040033",
  "immutableReferences": {},
  "source": "// SPDX-License-Identifier: MIT\npragma solidity ^0.8.0;\n\nimport '@openzeppelin/contracts/token/ERC721/utils/ERC721Holder.sol';\n\nimport \"./DeliveryNode.sol\";\nimport \"./PackageToken.sol\";\nimport \"./ReceiptToken.sol\";\n\ncontract DeliveryCoordinator is ERC721Holder {\n\n  PackageToken public packageToken;\n  ReceiptToken public receiptToken;\n  DeliveryNode[] public deliveryNodes; // TODO - Use only one of the two delivery node properties\n  mapping(address => bool) private knownDeliveryNodes;\n\n  constructor() {\n    packageToken = new PackageToken();\n    receiptToken = new ReceiptToken();\n  }\n\n  function addDeliveryNode(string memory _nodeName) external {\n    DeliveryNode newDeliveryNode = new DeliveryNode(_nodeName, DeliveryNode.NodeStatus.ONLINE, address(packageToken));\n    deliveryNodes.push(newDeliveryNode);\n    knownDeliveryNodes[address(newDeliveryNode)] = true;\n  }\n\n  function numberOfDeliveryNodes() external view returns(uint256) {\n    return deliveryNodes.length;\n  }\n\n  function createPackage(string memory _packageContents, string memory _packageWeight) external returns (uint256) {\n    return packageToken.createPackage(msg.sender, _packageContents, _packageWeight);\n  }\n\n  function forwardPackage(address destinationNode, uint256 packageTokenId) external {\n    require(knownDeliveryNodes[destinationNode] == true, \"The provided destination address is not that of a known delivery node\");\n\n    address currentPackageOwner = packageToken.ownerOf(packageTokenId);\n\n    require(knownDeliveryNodes[currentPackageOwner] == true || currentPackageOwner == address(this),\n      \"The package token is neither held by the delivery coordinator, nor a known delivery node\");\n\n    if (knownDeliveryNodes[currentPackageOwner] == true) {\n      DeliveryNode deliveryNodeContract = DeliveryNode(currentPackageOwner);\n      deliveryNodeContract.forwardPackage(destinationNode, packageTokenId);\n    } else if (currentPackageOwner == address(this)) {\n      packageToken.safeTransferFrom(address(this), destinationNode, packageTokenId);\n    }\n  }\n\n  function onERC721Received(address operator, address from, uint256 tokenId, bytes memory data) public override returns (bytes4) {\n      require(msg.sender == address(packageToken) || msg.sender == address(receiptToken), \"ERC721 received is not from known token address\");\n\n      if (msg.sender == address(packageToken)) {\n        packageTokenReceived(from, tokenId);\n      }\n\n      if (msg.sender == address(receiptToken)) {\n        receiptTokenReceived(from, tokenId);\n      }\n\n      return super.onERC721Received(operator, from, tokenId, data);\n  }\n\n  function packageTokenReceived(address from, uint256 packageTokenId) internal {\n    receiptToken.createReceipt(from, packageTokenId);\n  }\n\n  function receiptTokenReceived(address from, uint256 receiptTokenId) internal {    \n    uint256 correspondingPackageTokenId = receiptToken.receiptData(receiptTokenId);\n    address currentPackageOwner = packageToken.ownerOf(correspondingPackageTokenId);\n\n    require(knownDeliveryNodes[currentPackageOwner] == true, \"The package token is not currently being held by a known delivery node\");\n\n    DeliveryNode packageHolder = DeliveryNode(currentPackageOwner);\n\n    packageHolder.forwardPackage(from, correspondingPackageTokenId);\n    receiptToken.burn(receiptTokenId);\n  }\n\n}\n",
  "sourcePath": "/home/james/Workspaces/tracking-demo/contracts/DeliveryCoordinator.sol",
  "compiler": {
    "name": "solc",
    "version": "0.8.4+commit.c7e474f2.Emscripten.clang"
  },
  "schemaVersion": "3.4.6",
  "updatedAt": "2022-05-05T14:46:25.252Z",
  "networkType": "ethereum",
  "devdoc": {
    "kind": "dev",
    "methods": {},
    "version": 1
  },
  "userdoc": {
    "kind": "user",
    "methods": {},
    "version": 1
  }
}