{
  "contractName": "DeliveryCoordinator",
  "abi": [
    {
      "anonymous": false,
      "inputs": [
        {
          "indexed": true,
          "internalType": "address",
          "name": "previousOwner",
          "type": "address"
        },
        {
          "indexed": true,
          "internalType": "address",
          "name": "newOwner",
          "type": "address"
        }
      ],
      "name": "OwnershipTransferred",
      "type": "event"
    },
    {
      "inputs": [
        {
          "internalType": "uint256",
          "name": "",
          "type": "uint256"
        }
      ],
      "name": "deliveryNodes",
      "outputs": [
        {
          "internalType": "contract DeliveryNode",
          "name": "",
          "type": "address"
        }
      ],
      "stateMutability": "view",
      "type": "function"
    },
    {
      "inputs": [],
      "name": "owner",
      "outputs": [
        {
          "internalType": "address",
          "name": "",
          "type": "address"
        }
      ],
      "stateMutability": "view",
      "type": "function"
    },
    {
      "inputs": [],
      "name": "renounceOwnership",
      "outputs": [],
      "stateMutability": "nonpayable",
      "type": "function"
    },
    {
      "inputs": [
        {
          "internalType": "address",
          "name": "newOwner",
          "type": "address"
        }
      ],
      "name": "transferOwnership",
      "outputs": [],
      "stateMutability": "nonpayable",
      "type": "function"
    },
    {
      "inputs": [
        {
          "internalType": "string",
          "name": "_nodeName",
          "type": "string"
        }
      ],
      "name": "addDeliveryNode",
      "outputs": [],
      "stateMutability": "nonpayable",
      "type": "function"
    }
  ],
  "bytecode": "0x608060405234801561001057600080fd5b5061002d61002261003260201b60201c565b61003a60201b60201c565b6100fe565b600033905090565b60008060009054906101000a900473ffffffffffffffffffffffffffffffffffffffff169050816000806101000a81548173ffffffffffffffffffffffffffffffffffffffff021916908373ffffffffffffffffffffffffffffffffffffffff1602179055508173ffffffffffffffffffffffffffffffffffffffff168173ffffffffffffffffffffffffffffffffffffffff167f8be0079c531659141344cd1fd0a4f28419497f9722a3daafe3b4186f6b6457e060405160405180910390a35050565b61112b8061010d6000396000f3fe60806040523480156200001157600080fd5b50600436106200005e5760003560e01c8063093fbbb71462000063578063715018a6146200008357806383b72592146200008f5780638da5cb5b14620000c5578063f2fde38b14620000e7575b600080fd5b6200008160048036038101906200007b9190620005cf565b62000107565b005b6200008d6200022b565b005b620000ad6004803603810190620000a7919062000614565b620002bc565b604051620000bc91906200071f565b60405180910390f35b620000cf620002fc565b604051620000de919062000702565b60405180910390f35b620001056004803603810190620000ff9190620005a3565b62000325565b005b6200011162000429565b73ffffffffffffffffffffffffffffffffffffffff1662000131620002fc565b73ffffffffffffffffffffffffffffffffffffffff16146200018a576040517f08c379a0000000000000000000000000000000000000000000000000000000008152600401620001819062000792565b60405180910390fd5b60018160006040516200019d90620004f5565b620001aa9291906200073c565b604051809103906000f080158015620001c7573d6000803e3d6000fd5b509080600181540180825580915050600190039060005260206000200160009091909190916101000a81548173ffffffffffffffffffffffffffffffffffffffff021916908373ffffffffffffffffffffffffffffffffffffffff16021790555050565b6200023562000429565b73ffffffffffffffffffffffffffffffffffffffff1662000255620002fc565b73ffffffffffffffffffffffffffffffffffffffff1614620002ae576040517f08c379a0000000000000000000000000000000000000000000000000000000008152600401620002a59062000792565b60405180910390fd5b620002ba600062000431565b565b60018181548110620002cd57600080fd5b906000526020600020016000915054906101000a900473ffffffffffffffffffffffffffffffffffffffff1681565b60008060009054906101000a900473ffffffffffffffffffffffffffffffffffffffff16905090565b6200032f62000429565b73ffffffffffffffffffffffffffffffffffffffff166200034f620002fc565b73ffffffffffffffffffffffffffffffffffffffff1614620003a8576040517f08c379a00000000000000000000000000000000000000000000000000000000081526004016200039f9062000792565b60405180910390fd5b600073ffffffffffffffffffffffffffffffffffffffff168173ffffffffffffffffffffffffffffffffffffffff1614156200041b576040517f08c379a0000000000000000000000000000000000000000000000000000000008152600401620004129062000770565b60405180910390fd5b620004268162000431565b50565b600033905090565b60008060009054906101000a900473ffffffffffffffffffffffffffffffffffffffff169050816000806101000a81548173ffffffffffffffffffffffffffffffffffffffff021916908373ffffffffffffffffffffffffffffffffffffffff1602179055508173ffffffffffffffffffffffffffffffffffffffff168173ffffffffffffffffffffffffffffffffffffffff167f8be0079c531659141344cd1fd0a4f28419497f9722a3daafe3b4186f6b6457e060405160405180910390a35050565b61068a8062000a6c83390190565b60006200051a6200051484620007dd565b620007b4565b9050828152602081018484840111156200053357600080fd5b62000540848285620008be565b509392505050565b600081359050620005598162000a37565b92915050565b600082601f8301126200057157600080fd5b81356200058384826020860162000503565b91505092915050565b6000813590506200059d8162000a51565b92915050565b600060208284031215620005b657600080fd5b6000620005c68482850162000548565b91505092915050565b600060208284031215620005e257600080fd5b600082013567ffffffffffffffff811115620005fd57600080fd5b6200060b848285016200055f565b91505092915050565b6000602082840312156200062757600080fd5b600062000637848285016200058c565b91505092915050565b6200064b816200082f565b82525050565b6200065c8162000882565b82525050565b6200066d81620008aa565b82525050565b6000620006808262000813565b6200068c81856200081e565b93506200069e818560208601620008cd565b620006a98162000997565b840191505092915050565b6000620006c36026836200081e565b9150620006d082620009a8565b604082019050919050565b6000620006ea6020836200081e565b9150620006f782620009f7565b602082019050919050565b600060208201905062000719600083018462000640565b92915050565b600060208201905062000736600083018462000651565b92915050565b6000604082019050818103600083015262000758818562000673565b905062000769602083018462000662565b9392505050565b600060208201905081810360008301526200078b81620006b4565b9050919050565b60006020820190508181036000830152620007ad81620006db565b9050919050565b6000620007c0620007d3565b9050620007ce828262000903565b919050565b6000604051905090565b600067ffffffffffffffff821115620007fb57620007fa62000968565b5b620008068262000997565b9050602081019050919050565b600081519050919050565b600082825260208201905092915050565b60006200083c8262000858565b9050919050565b6000819050620008538262000a20565b919050565b600073ffffffffffffffffffffffffffffffffffffffff82169050919050565b6000819050919050565b60006200088f8262000896565b9050919050565b6000620008a38262000858565b9050919050565b6000620008b78262000843565b9050919050565b82818337600083830152505050565b60005b83811015620008ed578082015181840152602081019050620008d0565b83811115620008fd576000848401525b50505050565b6200090e8262000997565b810181811067ffffffffffffffff8211171562000930576200092f62000968565b5b80604052505050565b7f4e487b7100000000000000000000000000000000000000000000000000000000600052602160045260246000fd5b7f4e487b7100000000000000000000000000000000000000000000000000000000600052604160045260246000fd5b6000601f19601f8301169050919050565b7f4f776e61626c653a206e6577206f776e657220697320746865207a65726f206160008201527f6464726573730000000000000000000000000000000000000000000000000000602082015250565b7f4f776e61626c653a2063616c6c6572206973206e6f7420746865206f776e6572600082015250565b6002811062000a345762000a3362000939565b5b50565b62000a42816200082f565b811462000a4e57600080fd5b50565b62000a5c8162000878565b811462000a6857600080fd5b5056fe608060405234801561001057600080fd5b5060405161068a38038061068a833981810160405281019061003291906101c0565b81600090805190602001906100489291906100a0565b5080600160006101000a81548160ff02191690836001811115610094577f4e487b7100000000000000000000000000000000000000000000000000000000600052602160045260246000fd5b0217905550505061037f565b8280546100ac9061029d565b90600052602060002090601f0160209004810192826100ce5760008555610115565b82601f106100e757805160ff1916838001178555610115565b82800160010185558215610115579182015b828111156101145782518255916020019190600101906100f9565b5b5090506101229190610126565b5090565b5b8082111561013f576000816000905550600101610127565b5090565b600061015661015184610239565b610214565b90508281526020810184848401111561016e57600080fd5b61017984828561026a565b509392505050565b6000815190506101908161036f565b92915050565b600082601f8301126101a757600080fd5b81516101b7848260208601610143565b91505092915050565b600080604083850312156101d357600080fd5b600083015167ffffffffffffffff8111156101ed57600080fd5b6101f985828601610196565b925050602061020a85828601610181565b9150509250929050565b600061021e61022f565b905061022a82826102cf565b919050565b6000604051905090565b600067ffffffffffffffff8211156102545761025361032f565b5b61025d8261035e565b9050602081019050919050565b60005b8381101561028857808201518184015260208101905061026d565b83811115610297576000848401525b50505050565b600060028204905060018216806102b557607f821691505b602082108114156102c9576102c8610300565b5b50919050565b6102d88261035e565b810181811067ffffffffffffffff821117156102f7576102f661032f565b5b80604052505050565b7f4e487b7100000000000000000000000000000000000000000000000000000000600052602260045260246000fd5b7f4e487b7100000000000000000000000000000000000000000000000000000000600052604160045260246000fd5b6000601f19601f8301169050919050565b6002811061037c57600080fd5b50565b6102fc8061038e6000396000f3fe608060405234801561001057600080fd5b50600436106100365760003560e01c806306fdde031461003b578063200d2ed214610059575b600080fd5b610043610077565b604051610050919061017b565b60405180910390f35b610061610105565b60405161006e9190610160565b60405180910390f35b6000805461008490610211565b80601f01602080910402602001604051908101604052809291908181526020018280546100b090610211565b80156100fd5780601f106100d2576101008083540402835291602001916100fd565b820191906000526020600020905b8154815290600101906020018083116100e057829003601f168201915b505050505081565b600160009054906101000a900460ff1681565b610121816101cc565b82525050565b60006101328261019d565b61013c81856101a8565b935061014c8185602086016101de565b610155816102a1565b840191505092915050565b60006020820190506101756000830184610118565b92915050565b600060208201905081810360008301526101958184610127565b905092915050565b600081519050919050565b600082825260208201905092915050565b60008190506101c7826102b2565b919050565b60006101d7826101b9565b9050919050565b60005b838110156101fc5780820151818401526020810190506101e1565b8381111561020b576000848401525b50505050565b6000600282049050600182168061022957607f821691505b6020821081141561023d5761023c610272565b5b50919050565b7f4e487b7100000000000000000000000000000000000000000000000000000000600052602160045260246000fd5b7f4e487b7100000000000000000000000000000000000000000000000000000000600052602260045260246000fd5b6000601f19601f8301169050919050565b600281106102c3576102c2610243565b5b5056fea264697066735822122019abfe2b972ea7e025373072df8209267057c5c511a487aae878a5871f80126264736f6c63430008040033a2646970667358221220ec11b0e57ca851f9957174e950b22c3cc421d5bece3ed49358f67a44d5c4cb1a64736f6c63430008040033",
  "immutableReferences": {},
  "source": "// SPDX-License-Identifier: MIT\npragma solidity ^0.8.0;\n\nimport '@openzeppelin/contracts/access/Ownable.sol';\n\nimport \"./DeliveryNode.sol\";\n\ncontract DeliveryCoordinator is Ownable {\n\n  DeliveryNode[] public deliveryNodes;\n\n  function addDeliveryNode(string memory _nodeName) public onlyOwner {\n    deliveryNodes.push(new DeliveryNode(_nodeName, DeliveryNode.NodeStatus.ONLINE));\n  }\n\n}\n",
  "sourcePath": "/home/james/Workspaces/tracking-demo/contracts/DeliveryCoordinator.sol",
  "compiler": {
    "name": "solc",
    "version": "0.8.4+commit.c7e474f2.Emscripten.clang"
  },
  "schemaVersion": "3.4.6",
  "updatedAt": "2022-03-31T14:51:24.285Z",
  "devdoc": {
    "kind": "dev",
    "methods": {
      "owner()": {
        "details": "Returns the address of the current owner."
      },
      "renounceOwnership()": {
        "details": "Leaves the contract without owner. It will not be possible to call `onlyOwner` functions anymore. Can only be called by the current owner. NOTE: Renouncing ownership will leave the contract without an owner, thereby removing any functionality that is only available to the owner."
      },
      "transferOwnership(address)": {
        "details": "Transfers ownership of the contract to a new account (`newOwner`). Can only be called by the current owner."
      }
    },
    "version": 1
  },
  "userdoc": {
    "kind": "user",
    "methods": {},
    "version": 1
  }
}