{
  "contractName": "DeliveryCoordinator",
  "abi": [
    {
      "inputs": [],
      "stateMutability": "nonpayable",
      "type": "constructor"
    },
    {
      "inputs": [
        {
          "internalType": "uint256",
          "name": "",
          "type": "uint256"
        }
      ],
      "name": "deliveryNodes",
      "outputs": [
        {
          "internalType": "contract DeliveryNode",
          "name": "",
          "type": "address"
        }
      ],
      "stateMutability": "view",
      "type": "function",
      "constant": true
    },
    {
      "inputs": [],
      "name": "packageToken",
      "outputs": [
        {
          "internalType": "contract PackageToken",
          "name": "",
          "type": "address"
        }
      ],
      "stateMutability": "view",
      "type": "function",
      "constant": true
    },
    {
      "inputs": [],
      "name": "receiptToken",
      "outputs": [
        {
          "internalType": "contract ReceiptToken",
          "name": "",
          "type": "address"
        }
      ],
      "stateMutability": "view",
      "type": "function",
      "constant": true
    },
    {
      "inputs": [
        {
          "internalType": "string",
          "name": "_nodeName",
          "type": "string"
        }
      ],
      "name": "addDeliveryNode",
      "outputs": [],
      "stateMutability": "nonpayable",
      "type": "function"
    },
    {
      "inputs": [],
      "name": "numberOfDeliveryNodes",
      "outputs": [
        {
          "internalType": "uint256",
          "name": "",
          "type": "uint256"
        }
      ],
      "stateMutability": "view",
      "type": "function",
      "constant": true
    },
    {
      "inputs": [
        {
          "internalType": "string",
          "name": "_packageContents",
          "type": "string"
        },
        {
          "internalType": "string",
          "name": "_packageWeight",
          "type": "string"
        }
      ],
      "name": "createPackage",
      "outputs": [
        {
          "internalType": "uint256",
          "name": "",
          "type": "uint256"
        }
      ],
      "stateMutability": "nonpayable",
      "type": "function"
    },
    {
      "inputs": [
        {
          "internalType": "address",
          "name": "destinationNode",
          "type": "address"
        },
        {
          "internalType": "uint256",
          "name": "packageTokenId",
          "type": "uint256"
        }
      ],
      "name": "forwardPackage",
      "outputs": [],
      "stateMutability": "nonpayable",
      "type": "function"
    },
    {
      "inputs": [
        {
          "internalType": "address",
          "name": "operator",
          "type": "address"
        },
        {
          "internalType": "address",
          "name": "from",
          "type": "address"
        },
        {
          "internalType": "uint256",
          "name": "tokenId",
          "type": "uint256"
        },
        {
          "internalType": "bytes",
          "name": "data",
          "type": "bytes"
        }
      ],
      "name": "onERC721Received",
      "outputs": [
        {
          "internalType": "bytes4",
          "name": "",
          "type": "bytes4"
        }
      ],
      "stateMutability": "nonpayable",
      "type": "function"
    }
  ],
  "bytecode": "0x60806040523480156200001157600080fd5b506040516200002090620000ef565b604051809103906000f0801580156200003d573d6000803e3d6000fd5b506000806101000a81548173ffffffffffffffffffffffffffffffffffffffff021916908373ffffffffffffffffffffffffffffffffffffffff1602179055506040516200008b90620000fd565b604051809103906000f080158015620000a8573d6000803e3d6000fd5b50600160006101000a81548173ffffffffffffffffffffffffffffffffffffffff021916908373ffffffffffffffffffffffffffffffffffffffff1602179055506200010b565b613a838062002faa83390190565b6139588062006a2d83390190565b612e8f806200011b6000396000f3fe60806040523480156200001157600080fd5b5060043610620000945760003560e01c806383b72592116200006357806383b725921462000145578063c4948715146200017b578063d8aa0b84146200019d578063ec78e83214620001bf5762000094565b8063018b16981462000099578063093fbbb714620000b9578063150b7a0214620000d957806328331c88146200010f575b600080fd5b620000b76004803603810190620000b1919062000fbc565b620001e1565b005b620000d76004803603810190620000d1919062000ffd565b6200059e565b005b620000f76004803603810190620000f1919062000f37565b620006c0565b60405162000106919062001316565b60405180910390f35b6200012d600480360381019062000127919062001042565b6200088b565b6040516200013c919062001456565b60405180910390f35b6200016360048036038101906200015d9190620010b5565b6200094b565b60405162000172919062001333565b60405180910390f35b620001856200098b565b60405162000194919062001456565b60405180910390f35b620001a762000998565b604051620001b6919062001350565b60405180910390f35b620001c9620009bc565b604051620001d891906200136d565b60405180910390f35b60011515600360008473ffffffffffffffffffffffffffffffffffffffff1673ffffffffffffffffffffffffffffffffffffffff16815260200190815260200160002060009054906101000a900460ff1615151462000277576040517f08c379a00000000000000000000000000000000000000000000000000000000081526004016200026e90620013ce565b60405180910390fd5b60008060009054906101000a900473ffffffffffffffffffffffffffffffffffffffff1673ffffffffffffffffffffffffffffffffffffffff16636352211e836040518263ffffffff1660e01b8152600401620002d5919062001456565b60206040518083038186803b158015620002ee57600080fd5b505afa15801562000303573d6000803e3d6000fd5b505050506040513d601f19601f8201168201806040525081019062000329919062000f0b565b905060011515600360008373ffffffffffffffffffffffffffffffffffffffff1673ffffffffffffffffffffffffffffffffffffffff16815260200190815260200160002060009054906101000a900460ff1615151480620003b657503073ffffffffffffffffffffffffffffffffffffffff168173ffffffffffffffffffffffffffffffffffffffff16145b620003f8576040517f08c379a0000000000000000000000000000000000000000000000000000000008152600401620003ef9062001434565b60405180910390fd5b60011515600360008373ffffffffffffffffffffffffffffffffffffffff1673ffffffffffffffffffffffffffffffffffffffff16815260200190815260200160002060009054906101000a900460ff1615151415620004cf5760008190508073ffffffffffffffffffffffffffffffffffffffff1663018b169885856040518363ffffffff1660e01b815260040162000494929190620012e9565b600060405180830381600087803b158015620004af57600080fd5b505af1158015620004c4573d6000803e3d6000fd5b505050505062000599565b3073ffffffffffffffffffffffffffffffffffffffff168173ffffffffffffffffffffffffffffffffffffffff161415620005985760008054906101000a900473ffffffffffffffffffffffffffffffffffffffff1673ffffffffffffffffffffffffffffffffffffffff166342842e0e3085856040518463ffffffff1660e01b8152600401620005639392919062001261565b600060405180830381600087803b1580156200057e57600080fd5b505af115801562000593573d6000803e3d6000fd5b505050505b5b505050565b60008160008060009054906101000a900473ffffffffffffffffffffffffffffffffffffffff16604051620005d39062000dbd565b620005e1939291906200138a565b604051809103906000f080158015620005fe573d6000803e3d6000fd5b5090506002819080600181540180825580915050600190039060005260206000200160009091909190916101000a81548173ffffffffffffffffffffffffffffffffffffffff021916908373ffffffffffffffffffffffffffffffffffffffff1602179055506001600360008373ffffffffffffffffffffffffffffffffffffffff1673ffffffffffffffffffffffffffffffffffffffff16815260200190815260200160002060006101000a81548160ff0219169083151502179055505050565b60008060009054906101000a900473ffffffffffffffffffffffffffffffffffffffff1673ffffffffffffffffffffffffffffffffffffffff163373ffffffffffffffffffffffffffffffffffffffff1614806200076b5750600160009054906101000a900473ffffffffffffffffffffffffffffffffffffffff1673ffffffffffffffffffffffffffffffffffffffff163373ffffffffffffffffffffffffffffffffffffffff16145b620007ad576040517f08c379a0000000000000000000000000000000000000000000000000000000008152600401620007a490620013f0565b60405180910390fd5b60008054906101000a900473ffffffffffffffffffffffffffffffffffffffff1673ffffffffffffffffffffffffffffffffffffffff163373ffffffffffffffffffffffffffffffffffffffff1614156200080f576200080e8484620009e2565b5b600160009054906101000a900473ffffffffffffffffffffffffffffffffffffffff1673ffffffffffffffffffffffffffffffffffffffff163373ffffffffffffffffffffffffffffffffffffffff161415620008735762000872848462000a9c565b5b620008818585858562000da9565b9050949350505050565b60008060009054906101000a900473ffffffffffffffffffffffffffffffffffffffff1673ffffffffffffffffffffffffffffffffffffffff16636c8d75353385856040518463ffffffff1660e01b8152600401620008ed939291906200129e565b602060405180830381600087803b1580156200090857600080fd5b505af11580156200091d573d6000803e3d6000fd5b505050506040513d601f19601f82011682018060405250810190620009439190620010e1565b905092915050565b600281815481106200095c57600080fd5b906000526020600020016000915054906101000a900473ffffffffffffffffffffffffffffffffffffffff1681565b6000600280549050905090565b60008054906101000a900473ffffffffffffffffffffffffffffffffffffffff1681565b600160009054906101000a900473ffffffffffffffffffffffffffffffffffffffff1681565b600160009054906101000a900473ffffffffffffffffffffffffffffffffffffffff1673ffffffffffffffffffffffffffffffffffffffff1663d62914c983836040518363ffffffff1660e01b815260040162000a41929190620012e9565b602060405180830381600087803b15801562000a5c57600080fd5b505af115801562000a71573d6000803e3d6000fd5b505050506040513d601f19601f8201168201806040525081019062000a979190620010e1565b505050565b6000600160009054906101000a900473ffffffffffffffffffffffffffffffffffffffff1673ffffffffffffffffffffffffffffffffffffffff166327d35db7836040518263ffffffff1660e01b815260040162000afb919062001456565b60206040518083038186803b15801562000b1457600080fd5b505afa15801562000b29573d6000803e3d6000fd5b505050506040513d601f19601f8201168201806040525081019062000b4f9190620010e1565b905060008060009054906101000a900473ffffffffffffffffffffffffffffffffffffffff1673ffffffffffffffffffffffffffffffffffffffff16636352211e836040518263ffffffff1660e01b815260040162000baf919062001456565b60206040518083038186803b15801562000bc857600080fd5b505afa15801562000bdd573d6000803e3d6000fd5b505050506040513d601f19601f8201168201806040525081019062000c03919062000f0b565b905060011515600360008373ffffffffffffffffffffffffffffffffffffffff1673ffffffffffffffffffffffffffffffffffffffff16815260200190815260200160002060009054906101000a900460ff1615151462000c9b576040517f08c379a000000000000000000000000000000000000000000000000000000000815260040162000c929062001412565b60405180910390fd5b60008190508073ffffffffffffffffffffffffffffffffffffffff1663018b169886856040518363ffffffff1660e01b815260040162000cdd929190620012e9565b600060405180830381600087803b15801562000cf857600080fd5b505af115801562000d0d573d6000803e3d6000fd5b50505050600160009054906101000a900473ffffffffffffffffffffffffffffffffffffffff1673ffffffffffffffffffffffffffffffffffffffff166342966c68856040518263ffffffff1660e01b815260040162000d6e919062001456565b600060405180830381600087803b15801562000d8957600080fd5b505af115801562000d9e573d6000803e3d6000fd5b505050505050505050565b600063150b7a0260e01b9050949350505050565b611547806200191383390190565b600062000de262000ddc846200149c565b62001473565b90508281526020810184848401111562000dfb57600080fd5b62000e088482856200162f565b509392505050565b600062000e2762000e2184620014d2565b62001473565b90508281526020810184848401111562000e4057600080fd5b62000e4d8482856200162f565b509392505050565b60008135905062000e6681620018de565b92915050565b60008151905062000e7d81620018de565b92915050565b600082601f83011262000e9557600080fd5b813562000ea784826020860162000dcb565b91505092915050565b600082601f83011262000ec257600080fd5b813562000ed484826020860162000e10565b91505092915050565b60008135905062000eee81620018f8565b92915050565b60008151905062000f0581620018f8565b92915050565b60006020828403121562000f1e57600080fd5b600062000f2e8482850162000e6c565b91505092915050565b6000806000806080858703121562000f4e57600080fd5b600062000f5e8782880162000e55565b945050602062000f718782880162000e55565b935050604062000f848782880162000edd565b925050606085013567ffffffffffffffff81111562000fa257600080fd5b62000fb08782880162000e83565b91505092959194509250565b6000806040838503121562000fd057600080fd5b600062000fe08582860162000e55565b925050602062000ff38582860162000edd565b9150509250929050565b6000602082840312156200101057600080fd5b600082013567ffffffffffffffff8111156200102b57600080fd5b620010398482850162000eb0565b91505092915050565b600080604083850312156200105657600080fd5b600083013567ffffffffffffffff8111156200107157600080fd5b6200107f8582860162000eb0565b925050602083013567ffffffffffffffff8111156200109d57600080fd5b620010ab8582860162000eb0565b9150509250929050565b600060208284031215620010c857600080fd5b6000620010d88482850162000edd565b91505092915050565b600060208284031215620010f457600080fd5b6000620011048482850162000ef4565b91505092915050565b620011188162001524565b82525050565b620011298162001538565b82525050565b6200113a81620015a3565b82525050565b6200114b81620015cb565b82525050565b6200115c81620015f3565b82525050565b6200116d816200161b565b82525050565b6000620011808262001508565b6200118c818562001513565b93506200119e8185602086016200163e565b620011a98162001708565b840191505092915050565b6000620011c360458362001513565b9150620011d08262001719565b606082019050919050565b6000620011ea602f8362001513565b9150620011f7826200178e565b604082019050919050565b60006200121160468362001513565b91506200121e82620017dd565b606082019050919050565b60006200123860588362001513565b9150620012458262001852565b606082019050919050565b6200125b8162001599565b82525050565b60006060820190506200127860008301866200110d565b6200128760208301856200110d565b62001296604083018462001250565b949350505050565b6000606082019050620012b560008301866200110d565b8181036020830152620012c9818562001173565b90508181036040830152620012df818462001173565b9050949350505050565b60006040820190506200130060008301856200110d565b6200130f602083018462001250565b9392505050565b60006020820190506200132d60008301846200111e565b92915050565b60006020820190506200134a60008301846200112f565b92915050565b600060208201905062001367600083018462001140565b92915050565b600060208201905062001384600083018462001151565b92915050565b60006060820190508181036000830152620013a6818662001173565b9050620013b7602083018562001162565b620013c660408301846200110d565b949350505050565b60006020820190508181036000830152620013e981620011b4565b9050919050565b600060208201905081810360008301526200140b81620011db565b9050919050565b600060208201905081810360008301526200142d8162001202565b9050919050565b600060208201905081810360008301526200144f8162001229565b9050919050565b60006020820190506200146d600083018462001250565b92915050565b60006200147f62001492565b90506200148d828262001674565b919050565b6000604051905090565b600067ffffffffffffffff821115620014ba57620014b9620016d9565b5b620014c58262001708565b9050602081019050919050565b600067ffffffffffffffff821115620014f057620014ef620016d9565b5b620014fb8262001708565b9050602081019050919050565b600081519050919050565b600082825260208201905092915050565b6000620015318262001579565b9050919050565b60007fffffffff0000000000000000000000000000000000000000000000000000000082169050919050565b60008190506200157482620018c7565b919050565b600073ffffffffffffffffffffffffffffffffffffffff82169050919050565b6000819050919050565b6000620015b082620015b7565b9050919050565b6000620015c48262001579565b9050919050565b6000620015d882620015df565b9050919050565b6000620015ec8262001579565b9050919050565b6000620016008262001607565b9050919050565b6000620016148262001579565b9050919050565b6000620016288262001564565b9050919050565b82818337600083830152505050565b60005b838110156200165e57808201518184015260208101905062001641565b838111156200166e576000848401525b50505050565b6200167f8262001708565b810181811067ffffffffffffffff82111715620016a157620016a0620016d9565b5b80604052505050565b7f4e487b7100000000000000000000000000000000000000000000000000000000600052602160045260246000fd5b7f4e487b7100000000000000000000000000000000000000000000000000000000600052604160045260246000fd5b6000601f19601f8301169050919050565b7f5468652070726f76696465642064657374696e6174696f6e206164647265737360008201527f206973206e6f742074686174206f662061206b6e6f776e2064656c697665727960208201527f206e6f6465000000000000000000000000000000000000000000000000000000604082015250565b7f455243373231207265636569766564206973206e6f742066726f6d206b6e6f7760008201527f6e20746f6b656e20616464726573730000000000000000000000000000000000602082015250565b7f546865207061636b61676520746f6b656e206973206e6f742063757272656e7460008201527f6c79206265696e672068656c642062792061206b6e6f776e2064656c6976657260208201527f79206e6f64650000000000000000000000000000000000000000000000000000604082015250565b7f546865207061636b61676520746f6b656e206973206e6569746865722068656c60008201527f64206279207468652064656c697665727920636f6f7264696e61746f722c206e60208201527f6f722061206b6e6f776e2064656c6976657279206e6f64650000000000000000604082015250565b60028110620018db57620018da620016aa565b5b50565b620018e98162001524565b8114620018f557600080fd5b50565b620019038162001599565b81146200190f57600080fd5b5056fe60806040523480156200001157600080fd5b506040516200154738038062001547833981810160405281019062000037919062000327565b620000576200004b6200010b60201b60201c565b6200011360201b60201c565b82600190805190602001906200006f929190620001d7565b5081600260006101000a81548160ff02191690836001811115620000bc577f4e487b7100000000000000000000000000000000000000000000000000000000600052602160045260246000fd5b021790555080600260016101000a81548173ffffffffffffffffffffffffffffffffffffffff021916908373ffffffffffffffffffffffffffffffffffffffff16021790555050505062000565565b600033905090565b60008060009054906101000a900473ffffffffffffffffffffffffffffffffffffffff169050816000806101000a81548173ffffffffffffffffffffffffffffffffffffffff021916908373ffffffffffffffffffffffffffffffffffffffff1602179055508173ffffffffffffffffffffffffffffffffffffffff168173ffffffffffffffffffffffffffffffffffffffff167f8be0079c531659141344cd1fd0a4f28419497f9722a3daafe3b4186f6b6457e060405160405180910390a35050565b828054620001e5906200045f565b90600052602060002090601f01602090048101928262000209576000855562000255565b82601f106200022457805160ff191683800117855562000255565b8280016001018555821562000255579182015b828111156200025457825182559160200191906001019062000237565b5b50905062000264919062000268565b5090565b5b808211156200028357600081600090555060010162000269565b5090565b60006200029e6200029884620003bf565b62000396565b905082815260208101848484011115620002b757600080fd5b620002c484828562000429565b509392505050565b600081519050620002dd816200053a565b92915050565b600081519050620002f48162000554565b92915050565b600082601f8301126200030c57600080fd5b81516200031e84826020860162000287565b91505092915050565b6000806000606084860312156200033d57600080fd5b600084015167ffffffffffffffff8111156200035857600080fd5b6200036686828701620002fa565b93505060206200037986828701620002e3565b92505060406200038c86828701620002cc565b9150509250925092565b6000620003a2620003b5565b9050620003b0828262000495565b919050565b6000604051905090565b600067ffffffffffffffff821115620003dd57620003dc620004fa565b5b620003e88262000529565b9050602081019050919050565b6000620004028262000409565b9050919050565b600073ffffffffffffffffffffffffffffffffffffffff82169050919050565b60005b83811015620004495780820151818401526020810190506200042c565b8381111562000459576000848401525b50505050565b600060028204905060018216806200047857607f821691505b602082108114156200048f576200048e620004cb565b5b50919050565b620004a08262000529565b810181811067ffffffffffffffff82111715620004c257620004c1620004fa565b5b80604052505050565b7f4e487b7100000000000000000000000000000000000000000000000000000000600052602260045260246000fd5b7f4e487b7100000000000000000000000000000000000000000000000000000000600052604160045260246000fd5b6000601f19601f8301169050919050565b6200054581620003f5565b81146200055157600080fd5b50565b600281106200056257600080fd5b50565b610fd280620005756000396000f3fe608060405234801561001057600080fd5b50600436106100935760003560e01c80636e2ebae7116100665780636e2ebae714610120578063715018a61461013c5780638da5cb5b146101465780639d8d817814610164578063f2fde38b1461018257610093565b8063018b16981461009857806306fdde03146100b4578063150b7a02146100d2578063200d2ed214610102575b600080fd5b6100b260048036038101906100ad9190610988565b61019e565b005b6100bc6102b5565b6040516100c99190610b76565b60405180910390f35b6100ec60048036038101906100e7919061090d565b610343565b6040516100f99190610b40565b60405180910390f35b61010a6104ac565b6040516101179190610b5b565b60405180910390f35b61013a600480360381019061013591906109c4565b6104bf565b005b61014461058e565b005b61014e610616565b60405161015b9190610aee565b60405180910390f35b61016c61063f565b6040516101799190610aee565b60405180910390f35b61019c600480360381019061019791906108e4565b610665565b005b6101a661075d565b73ffffffffffffffffffffffffffffffffffffffff166101c4610616565b73ffffffffffffffffffffffffffffffffffffffff161461021a576040517f08c379a000000000000000000000000000000000000000000000000000000000815260040161021190610bd8565b60405180910390fd5b6000600260019054906101000a900473ffffffffffffffffffffffffffffffffffffffff1690508073ffffffffffffffffffffffffffffffffffffffff166342842e0e3085856040518463ffffffff1660e01b815260040161027e93929190610b09565b600060405180830381600087803b15801561029857600080fd5b505af11580156102ac573d6000803e3d6000fd5b50505050505050565b600180546102c290610d59565b80601f01602080910402602001604051908101604052809291908181526020018280546102ee90610d59565b801561033b5780601f106103105761010080835404028352916020019161033b565b820191906000526020600020905b81548152906001019060200180831161031e57829003601f168201915b505050505081565b600080600181111561037e577f4e487b7100000000000000000000000000000000000000000000000000000000600052602160045260246000fd5b600260009054906101000a900460ff1660018111156103c6577f4e487b7100000000000000000000000000000000000000000000000000000000600052602160045260246000fd5b14610406576040517f08c379a00000000000000000000000000000000000000000000000000000000081526004016103fd90610b98565b60405180910390fd5b600260019054906101000a900473ffffffffffffffffffffffffffffffffffffffff1673ffffffffffffffffffffffffffffffffffffffff163373ffffffffffffffffffffffffffffffffffffffff1614610496576040517f08c379a000000000000000000000000000000000000000000000000000000000815260040161048d90610bf8565b60405180910390fd5b6104a285858585610765565b9050949350505050565b600260009054906101000a900460ff1681565b6104c761075d565b73ffffffffffffffffffffffffffffffffffffffff166104e5610616565b73ffffffffffffffffffffffffffffffffffffffff161461053b576040517f08c379a000000000000000000000000000000000000000000000000000000000815260040161053290610bd8565b60405180910390fd5b80600260006101000a81548160ff02191690836001811115610586577f4e487b7100000000000000000000000000000000000000000000000000000000600052602160045260246000fd5b021790555050565b61059661075d565b73ffffffffffffffffffffffffffffffffffffffff166105b4610616565b73ffffffffffffffffffffffffffffffffffffffff161461060a576040517f08c379a000000000000000000000000000000000000000000000000000000000815260040161060190610bd8565b60405180910390fd5b6106146000610779565b565b60008060009054906101000a900473ffffffffffffffffffffffffffffffffffffffff16905090565b600260019054906101000a900473ffffffffffffffffffffffffffffffffffffffff1681565b61066d61075d565b73ffffffffffffffffffffffffffffffffffffffff1661068b610616565b73ffffffffffffffffffffffffffffffffffffffff16146106e1576040517f08c379a00000000000000000000000000000000000000000000000000000000081526004016106d890610bd8565b60405180910390fd5b600073ffffffffffffffffffffffffffffffffffffffff168173ffffffffffffffffffffffffffffffffffffffff161415610751576040517f08c379a000000000000000000000000000000000000000000000000000000000815260040161074890610bb8565b60405180910390fd5b61075a81610779565b50565b600033905090565b600063150b7a0260e01b9050949350505050565b60008060009054906101000a900473ffffffffffffffffffffffffffffffffffffffff169050816000806101000a81548173ffffffffffffffffffffffffffffffffffffffff021916908373ffffffffffffffffffffffffffffffffffffffff1602179055508173ffffffffffffffffffffffffffffffffffffffff168173ffffffffffffffffffffffffffffffffffffffff167f8be0079c531659141344cd1fd0a4f28419497f9722a3daafe3b4186f6b6457e060405160405180910390a35050565b600061085061084b84610c3d565b610c18565b90508281526020810184848401111561086857600080fd5b610873848285610d17565b509392505050565b60008135905061088a81610f5e565b92915050565b600082601f8301126108a157600080fd5b81356108b184826020860161083d565b91505092915050565b6000813590506108c981610f75565b92915050565b6000813590506108de81610f85565b92915050565b6000602082840312156108f657600080fd5b60006109048482850161087b565b91505092915050565b6000806000806080858703121561092357600080fd5b60006109318782880161087b565b94505060206109428782880161087b565b9350506040610953878288016108cf565b925050606085013567ffffffffffffffff81111561097057600080fd5b61097c87828801610890565b91505092959194509250565b6000806040838503121561099b57600080fd5b60006109a98582860161087b565b92505060206109ba858286016108cf565b9150509250929050565b6000602082840312156109d657600080fd5b60006109e4848285016108ba565b91505092915050565b6109f681610c8a565b82525050565b610a0581610c9c565b82525050565b610a1481610d05565b82525050565b6000610a2582610c6e565b610a2f8185610c79565b9350610a3f818560208601610d26565b610a4881610e49565b840191505092915050565b6000610a60601883610c79565b9150610a6b82610e5a565b602082019050919050565b6000610a83602683610c79565b9150610a8e82610e83565b604082019050919050565b6000610aa6602083610c79565b9150610ab182610ed2565b602082019050919050565b6000610ac9602f83610c79565b9150610ad482610efb565b604082019050919050565b610ae881610cfb565b82525050565b6000602082019050610b0360008301846109ed565b92915050565b6000606082019050610b1e60008301866109ed565b610b2b60208301856109ed565b610b386040830184610adf565b949350505050565b6000602082019050610b5560008301846109fc565b92915050565b6000602082019050610b706000830184610a0b565b92915050565b60006020820190508181036000830152610b908184610a1a565b905092915050565b60006020820190508181036000830152610bb181610a53565b9050919050565b60006020820190508181036000830152610bd181610a76565b9050919050565b60006020820190508181036000830152610bf181610a99565b9050919050565b60006020820190508181036000830152610c1181610abc565b9050919050565b6000610c22610c33565b9050610c2e8282610d8b565b919050565b6000604051905090565b600067ffffffffffffffff821115610c5857610c57610e1a565b5b610c6182610e49565b9050602081019050919050565b600081519050919050565b600082825260208201905092915050565b6000610c9582610cdb565b9050919050565b60007fffffffff0000000000000000000000000000000000000000000000000000000082169050919050565b6000819050610cd682610f4a565b919050565b600073ffffffffffffffffffffffffffffffffffffffff82169050919050565b6000819050919050565b6000610d1082610cc8565b9050919050565b82818337600083830152505050565b60005b83811015610d44578082015181840152602081019050610d29565b83811115610d53576000848401525b50505050565b60006002820490506001821680610d7157607f821691505b60208210811415610d8557610d84610deb565b5b50919050565b610d9482610e49565b810181811067ffffffffffffffff82111715610db357610db2610e1a565b5b80604052505050565b7f4e487b7100000000000000000000000000000000000000000000000000000000600052602160045260246000fd5b7f4e487b7100000000000000000000000000000000000000000000000000000000600052602260045260246000fd5b7f4e487b7100000000000000000000000000000000000000000000000000000000600052604160045260246000fd5b6000601f19601f8301169050919050565b7f44656c6976657279206e6f6465206973206f66666c696e650000000000000000600082015250565b7f4f776e61626c653a206e6577206f776e657220697320746865207a65726f206160008201527f6464726573730000000000000000000000000000000000000000000000000000602082015250565b7f4f776e61626c653a2063616c6c6572206973206e6f7420746865206f776e6572600082015250565b7f455243373231207265636569766564206973206e6f742066726f6d206b6e6f7760008201527f6e20746f6b656e20616464726573730000000000000000000000000000000000602082015250565b60028110610f5b57610f5a610dbc565b5b50565b610f6781610c8a565b8114610f7257600080fd5b50565b60028110610f8257600080fd5b50565b610f8e81610cfb565b8114610f9957600080fd5b5056fea26469706673582212204bf7b9cc15985908ab88d6e2cb962408ae72e32c04b99f72bd614ceae63becc764736f6c63430008040033a2646970667358221220b4d1e4efa27d71ce6439f551925bfd1a6033f55fbb899dbd41dd33d228f2e42a64736f6c6343000804003360806040523480156200001157600080fd5b506040518060400160405280600c81526020017f5061636b616765546f6b656e00000000000000000000000000000000000000008152506040518060400160405280600381526020017f504b470000000000000000000000000000000000000000000000000000000000815250816000908051906020019062000096929190620001a6565b508060019080519060200190620000af929190620001a6565b505050620000d2620000c6620000d860201b60201c565b620000e060201b60201c565b620002bb565b600033905090565b6000600a60009054906101000a900473ffffffffffffffffffffffffffffffffffffffff16905081600a60006101000a81548173ffffffffffffffffffffffffffffffffffffffff021916908373ffffffffffffffffffffffffffffffffffffffff1602179055508173ffffffffffffffffffffffffffffffffffffffff168173ffffffffffffffffffffffffffffffffffffffff167f8be0079c531659141344cd1fd0a4f28419497f9722a3daafe3b4186f6b6457e060405160405180910390a35050565b828054620001b49062000256565b90600052602060002090601f016020900481019282620001d8576000855562000224565b82601f10620001f357805160ff191683800117855562000224565b8280016001018555821562000224579182015b828111156200022357825182559160200191906001019062000206565b5b50905062000233919062000237565b5090565b5b808211156200025257600081600090555060010162000238565b5090565b600060028204905060018216806200026f57607f821691505b602082108114156200028657620002856200028c565b5b50919050565b7f4e487b7100000000000000000000000000000000000000000000000000000000600052602260045260246000fd5b6137b880620002cb6000396000f3fe608060405234801561001057600080fd5b50600436106101375760003560e01c80636c8d7535116100b8578063a22cb4651161007c578063a22cb46514610362578063abc785441461037e578063b88d4fde146103af578063c87b56dd146103cb578063e985e9c5146103fb578063f2fde38b1461042b57610137565b80636c8d7535146102bc57806370a08231146102ec578063715018a61461031c5780638da5cb5b1461032657806395d89b411461034457610137565b806323b872dd116100ff57806323b872dd146101f45780632f745c591461021057806342842e0e146102405780634f6ccce71461025c5780636352211e1461028c57610137565b806301ffc9a71461013c57806306fdde031461016c578063081812fc1461018a578063095ea7b3146101ba57806318160ddd146101d6575b600080fd5b61015660048036038101906101519190612730565b610447565b6040516101639190612b7c565b60405180910390f35b6101746104c1565b6040516101819190612b97565b60405180910390f35b6101a4600480360381019061019f9190612782565b610553565b6040516101b19190612b15565b60405180910390f35b6101d460048036038101906101cf91906126f4565b6105d8565b005b6101de6106f0565b6040516101eb9190612e30565b60405180910390f35b61020e6004803603810190610209919061256f565b6106fd565b005b61022a600480360381019061022591906126f4565b61075d565b6040516102379190612e30565b60405180910390f35b61025a6004803603810190610255919061256f565b610802565b005b61027660048036038101906102719190612782565b610822565b6040516102839190612e30565b60405180910390f35b6102a660048036038101906102a19190612782565b6108b9565b6040516102b39190612b15565b60405180910390f35b6102d660048036038101906102d19190612675565b61096b565b6040516102e39190612e30565b60405180910390f35b6103066004803603810190610301919061250a565b610a7b565b6040516103139190612e30565b60405180910390f35b610324610b33565b005b61032e610bbb565b60405161033b9190612b15565b60405180910390f35b61034c610be5565b6040516103599190612b97565b60405180910390f35b61037c60048036038101906103779190612639565b610c77565b005b61039860048036038101906103939190612782565b610c8d565b6040516103a6929190612bb9565b60405180910390f35b6103c960048036038101906103c491906125be565b610dc1565b005b6103e560048036038101906103e09190612782565b610e23565b6040516103f29190612b97565b60405180910390f35b61041560048036038101906104109190612533565b610eca565b6040516104229190612b7c565b60405180910390f35b6104456004803603810190610440919061250a565b610f5e565b005b60007f780e9d63000000000000000000000000000000000000000000000000000000007bffffffffffffffffffffffffffffffffffffffffffffffffffffffff1916827bffffffffffffffffffffffffffffffffffffffffffffffffffffffff191614806104ba57506104b982611056565b5b9050919050565b6060600080546104d090613086565b80601f01602080910402602001604051908101604052809291908181526020018280546104fc90613086565b80156105495780601f1061051e57610100808354040283529160200191610549565b820191906000526020600020905b81548152906001019060200180831161052c57829003601f168201915b5050505050905090565b600061055e82611138565b61059d576040517f08c379a000000000000000000000000000000000000000000000000000000000815260040161059490612d70565b60405180910390fd5b6004600083815260200190815260200160002060009054906101000a900473ffffffffffffffffffffffffffffffffffffffff169050919050565b60006105e3826108b9565b90508073ffffffffffffffffffffffffffffffffffffffff168373ffffffffffffffffffffffffffffffffffffffff161415610654576040517f08c379a000000000000000000000000000000000000000000000000000000000815260040161064b90612dd0565b60405180910390fd5b8073ffffffffffffffffffffffffffffffffffffffff166106736111a4565b73ffffffffffffffffffffffffffffffffffffffff1614806106a257506106a18161069c6111a4565b610eca565b5b6106e1576040517f08c379a00000000000000000000000000000000000000000000000000000000081526004016106d890612cf0565b60405180910390fd5b6106eb83836111ac565b505050565b6000600880549050905090565b61070e6107086111a4565b82611265565b61074d576040517f08c379a000000000000000000000000000000000000000000000000000000000815260040161074490612df0565b60405180910390fd5b610758838383611343565b505050565b600061076883610a7b565b82106107a9576040517f08c379a00000000000000000000000000000000000000000000000000000000081526004016107a090612bf0565b60405180910390fd5b600660008473ffffffffffffffffffffffffffffffffffffffff1673ffffffffffffffffffffffffffffffffffffffff168152602001908152602001600020600083815260200190815260200160002054905092915050565b61081d83838360405180602001604052806000815250610dc1565b505050565b600061082c6106f0565b821061086d576040517f08c379a000000000000000000000000000000000000000000000000000000000815260040161086490612e10565b60405180910390fd5b600882815481106108a7577f4e487b7100000000000000000000000000000000000000000000000000000000600052603260045260246000fd5b90600052602060002001549050919050565b6000806002600084815260200190815260200160002060009054906101000a900473ffffffffffffffffffffffffffffffffffffffff169050600073ffffffffffffffffffffffffffffffffffffffff168173ffffffffffffffffffffffffffffffffffffffff161415610962576040517f08c379a000000000000000000000000000000000000000000000000000000000815260040161095990612d30565b60405180910390fd5b80915050919050565b60006109756111a4565b73ffffffffffffffffffffffffffffffffffffffff16610993610bbb565b73ffffffffffffffffffffffffffffffffffffffff16146109e9576040517f08c379a00000000000000000000000000000000000000000000000000000000081526004016109e090612d90565b60405180910390fd5b6109f3600b6115aa565b60006109ff600b6115c0565b9050610a0b85826115ce565b604051806040016040528085815260200184815250600c60008381526020019081526020016000206000820151816000019080519060200190610a4f92919061232e565b506020820151816001019080519060200190610a6c92919061232e565b50905050809150509392505050565b60008073ffffffffffffffffffffffffffffffffffffffff168273ffffffffffffffffffffffffffffffffffffffff161415610aec576040517f08c379a0000000000000000000000000000000000000000000000000000000008152600401610ae390612d10565b60405180910390fd5b600360008373ffffffffffffffffffffffffffffffffffffffff1673ffffffffffffffffffffffffffffffffffffffff168152602001908152602001600020549050919050565b610b3b6111a4565b73ffffffffffffffffffffffffffffffffffffffff16610b59610bbb565b73ffffffffffffffffffffffffffffffffffffffff1614610baf576040517f08c379a0000000000000000000000000000000000000000000000000000000008152600401610ba690612d90565b60405180910390fd5b610bb960006115ec565b565b6000600a60009054906101000a900473ffffffffffffffffffffffffffffffffffffffff16905090565b606060018054610bf490613086565b80601f0160208091040260200160405190810160405280929190818152602001828054610c2090613086565b8015610c6d5780601f10610c4257610100808354040283529160200191610c6d565b820191906000526020600020905b815481529060010190602001808311610c5057829003601f168201915b5050505050905090565b610c89610c826111a4565b83836116b2565b5050565b600c602052806000526040600020600091509050806000018054610cb090613086565b80601f0160208091040260200160405190810160405280929190818152602001828054610cdc90613086565b8015610d295780601f10610cfe57610100808354040283529160200191610d29565b820191906000526020600020905b815481529060010190602001808311610d0c57829003601f168201915b505050505090806001018054610d3e90613086565b80601f0160208091040260200160405190810160405280929190818152602001828054610d6a90613086565b8015610db75780601f10610d8c57610100808354040283529160200191610db7565b820191906000526020600020905b815481529060010190602001808311610d9a57829003601f168201915b5050505050905082565b610dd2610dcc6111a4565b83611265565b610e11576040517f08c379a0000000000000000000000000000000000000000000000000000000008152600401610e0890612df0565b60405180910390fd5b610e1d8484848461181f565b50505050565b6060610e2e82611138565b610e6d576040517f08c379a0000000000000000000000000000000000000000000000000000000008152600401610e6490612db0565b60405180910390fd5b6000610e7761187b565b90506000815111610e975760405180602001604052806000815250610ec2565b80610ea184611892565b604051602001610eb2929190612af1565b6040516020818303038152906040525b915050919050565b6000600560008473ffffffffffffffffffffffffffffffffffffffff1673ffffffffffffffffffffffffffffffffffffffff16815260200190815260200160002060008373ffffffffffffffffffffffffffffffffffffffff1673ffffffffffffffffffffffffffffffffffffffff16815260200190815260200160002060009054906101000a900460ff16905092915050565b610f666111a4565b73ffffffffffffffffffffffffffffffffffffffff16610f84610bbb565b73ffffffffffffffffffffffffffffffffffffffff1614610fda576040517f08c379a0000000000000000000000000000000000000000000000000000000008152600401610fd190612d90565b60405180910390fd5b600073ffffffffffffffffffffffffffffffffffffffff168173ffffffffffffffffffffffffffffffffffffffff16141561104a576040517f08c379a000000000000000000000000000000000000000000000000000000000815260040161104190612c30565b60405180910390fd5b611053816115ec565b50565b60007f80ac58cd000000000000000000000000000000000000000000000000000000007bffffffffffffffffffffffffffffffffffffffffffffffffffffffff1916827bffffffffffffffffffffffffffffffffffffffffffffffffffffffff1916148061112157507f5b5e139f000000000000000000000000000000000000000000000000000000007bffffffffffffffffffffffffffffffffffffffffffffffffffffffff1916827bffffffffffffffffffffffffffffffffffffffffffffffffffffffff1916145b80611131575061113082611a3f565b5b9050919050565b60008073ffffffffffffffffffffffffffffffffffffffff166002600084815260200190815260200160002060009054906101000a900473ffffffffffffffffffffffffffffffffffffffff1673ffffffffffffffffffffffffffffffffffffffff1614159050919050565b600033905090565b816004600083815260200190815260200160002060006101000a81548173ffffffffffffffffffffffffffffffffffffffff021916908373ffffffffffffffffffffffffffffffffffffffff160217905550808273ffffffffffffffffffffffffffffffffffffffff1661121f836108b9565b73ffffffffffffffffffffffffffffffffffffffff167f8c5be1e5ebec7d5bd14f71427d1e84f3dd0314c0f7b2291e5b200ac8c7c3b92560405160405180910390a45050565b600061127082611138565b6112af576040517f08c379a00000000000000000000000000000000000000000000000000000000081526004016112a690612cd0565b60405180910390fd5b60006112ba836108b9565b90508073ffffffffffffffffffffffffffffffffffffffff168473ffffffffffffffffffffffffffffffffffffffff16148061132957508373ffffffffffffffffffffffffffffffffffffffff1661131184610553565b73ffffffffffffffffffffffffffffffffffffffff16145b8061133a57506113398185610eca565b5b91505092915050565b8273ffffffffffffffffffffffffffffffffffffffff16611363826108b9565b73ffffffffffffffffffffffffffffffffffffffff16146113b9576040517f08c379a00000000000000000000000000000000000000000000000000000000081526004016113b090612c50565b60405180910390fd5b600073ffffffffffffffffffffffffffffffffffffffff168273ffffffffffffffffffffffffffffffffffffffff161415611429576040517f08c379a000000000000000000000000000000000000000000000000000000000815260040161142090612c90565b60405180910390fd5b611434838383611aa9565b61143f6000826111ac565b6001600360008573ffffffffffffffffffffffffffffffffffffffff1673ffffffffffffffffffffffffffffffffffffffff168152602001908152602001600020600082825461148f9190612f9c565b925050819055506001600360008473ffffffffffffffffffffffffffffffffffffffff1673ffffffffffffffffffffffffffffffffffffffff16815260200190815260200160002060008282546114e69190612f15565b92505081905550816002600083815260200190815260200160002060006101000a81548173ffffffffffffffffffffffffffffffffffffffff021916908373ffffffffffffffffffffffffffffffffffffffff160217905550808273ffffffffffffffffffffffffffffffffffffffff168473ffffffffffffffffffffffffffffffffffffffff167fddf252ad1be2c89b69c2b068fc378daa952ba7f163c4a11628f55a4df523b3ef60405160405180910390a46115a5838383611bbd565b505050565b6001816000016000828254019250508190555050565b600081600001549050919050565b6115e8828260405180602001604052806000815250611bc2565b5050565b6000600a60009054906101000a900473ffffffffffffffffffffffffffffffffffffffff16905081600a60006101000a81548173ffffffffffffffffffffffffffffffffffffffff021916908373ffffffffffffffffffffffffffffffffffffffff1602179055508173ffffffffffffffffffffffffffffffffffffffff168173ffffffffffffffffffffffffffffffffffffffff167f8be0079c531659141344cd1fd0a4f28419497f9722a3daafe3b4186f6b6457e060405160405180910390a35050565b8173ffffffffffffffffffffffffffffffffffffffff168373ffffffffffffffffffffffffffffffffffffffff161415611721576040517f08c379a000000000000000000000000000000000000000000000000000000000815260040161171890612cb0565b60405180910390fd5b80600560008573ffffffffffffffffffffffffffffffffffffffff1673ffffffffffffffffffffffffffffffffffffffff16815260200190815260200160002060008473ffffffffffffffffffffffffffffffffffffffff1673ffffffffffffffffffffffffffffffffffffffff16815260200190815260200160002060006101000a81548160ff0219169083151502179055508173ffffffffffffffffffffffffffffffffffffffff168373ffffffffffffffffffffffffffffffffffffffff167f17307eab39ab6107e8899845ad3d59bd9653f200f220920489ca2b5937696c31836040516118129190612b7c565b60405180910390a3505050565b61182a848484611343565b61183684848484611c1d565b611875576040517f08c379a000000000000000000000000000000000000000000000000000000000815260040161186c90612c10565b60405180910390fd5b50505050565b606060405180602001604052806000815250905090565b606060008214156118da576040518060400160405280600181526020017f30000000000000000000000000000000000000000000000000000000000000008152509050611a3a565b600082905060005b6000821461190c5780806118f5906130e9565b915050600a826119059190612f6b565b91506118e2565b60008167ffffffffffffffff81111561194e577f4e487b7100000000000000000000000000000000000000000000000000000000600052604160045260246000fd5b6040519080825280601f01601f1916602001820160405280156119805781602001600182028036833780820191505090505b5090505b60008514611a33576001826119999190612f9c565b9150600a856119a89190613132565b60306119b49190612f15565b60f81b8183815181106119f0577f4e487b7100000000000000000000000000000000000000000000000000000000600052603260045260246000fd5b60200101907effffffffffffffffffffffffffffffffffffffffffffffffffffffffffffff1916908160001a905350600a85611a2c9190612f6b565b9450611984565b8093505050505b919050565b60007f01ffc9a7000000000000000000000000000000000000000000000000000000007bffffffffffffffffffffffffffffffffffffffffffffffffffffffff1916827bffffffffffffffffffffffffffffffffffffffffffffffffffffffff1916149050919050565b611ab4838383611db4565b600073ffffffffffffffffffffffffffffffffffffffff168373ffffffffffffffffffffffffffffffffffffffff161415611af757611af281611db9565b611b36565b8173ffffffffffffffffffffffffffffffffffffffff168373ffffffffffffffffffffffffffffffffffffffff1614611b3557611b348382611e02565b5b5b600073ffffffffffffffffffffffffffffffffffffffff168273ffffffffffffffffffffffffffffffffffffffff161415611b7957611b7481611f6f565b611bb8565b8273ffffffffffffffffffffffffffffffffffffffff168273ffffffffffffffffffffffffffffffffffffffff1614611bb757611bb682826120b2565b5b5b505050565b505050565b611bcc8383612131565b611bd96000848484611c1d565b611c18576040517f08c379a0000000000000000000000000000000000000000000000000000000008152600401611c0f90612c10565b60405180910390fd5b505050565b6000611c3e8473ffffffffffffffffffffffffffffffffffffffff1661230b565b15611da7578373ffffffffffffffffffffffffffffffffffffffff1663150b7a02611c676111a4565b8786866040518563ffffffff1660e01b8152600401611c899493929190612b30565b602060405180830381600087803b158015611ca357600080fd5b505af1925050508015611cd457506040513d601f19601f82011682018060405250810190611cd19190612759565b60015b611d57573d8060008114611d04576040519150601f19603f3d011682016040523d82523d6000602084013e611d09565b606091505b50600081511415611d4f576040517f08c379a0000000000000000000000000000000000000000000000000000000008152600401611d4690612c10565b60405180910390fd5b805181602001fd5b63150b7a0260e01b7bffffffffffffffffffffffffffffffffffffffffffffffffffffffff1916817bffffffffffffffffffffffffffffffffffffffffffffffffffffffff191614915050611dac565b600190505b949350505050565b505050565b6008805490506009600083815260200190815260200160002081905550600881908060018154018082558091505060019003906000526020600020016000909190919091505550565b60006001611e0f84610a7b565b611e199190612f9c565b9050600060076000848152602001908152602001600020549050818114611efe576000600660008673ffffffffffffffffffffffffffffffffffffffff1673ffffffffffffffffffffffffffffffffffffffff168152602001908152602001600020600084815260200190815260200160002054905080600660008773ffffffffffffffffffffffffffffffffffffffff1673ffffffffffffffffffffffffffffffffffffffff168152602001908152602001600020600084815260200190815260200160002081905550816007600083815260200190815260200160002081905550505b6007600084815260200190815260200160002060009055600660008573ffffffffffffffffffffffffffffffffffffffff1673ffffffffffffffffffffffffffffffffffffffff16815260200190815260200160002060008381526020019081526020016000206000905550505050565b60006001600880549050611f839190612f9c565b9050600060096000848152602001908152602001600020549050600060088381548110611fd9577f4e487b7100000000000000000000000000000000000000000000000000000000600052603260045260246000fd5b906000526020600020015490508060088381548110612021577f4e487b7100000000000000000000000000000000000000000000000000000000600052603260045260246000fd5b906000526020600020018190555081600960008381526020019081526020016000208190555060096000858152602001908152602001600020600090556008805480612096577f4e487b7100000000000000000000000000000000000000000000000000000000600052603160045260246000fd5b6001900381819060005260206000200160009055905550505050565b60006120bd83610a7b565b905081600660008573ffffffffffffffffffffffffffffffffffffffff1673ffffffffffffffffffffffffffffffffffffffff168152602001908152602001600020600083815260200190815260200160002081905550806007600084815260200190815260200160002081905550505050565b600073ffffffffffffffffffffffffffffffffffffffff168273ffffffffffffffffffffffffffffffffffffffff1614156121a1576040517f08c379a000000000000000000000000000000000000000000000000000000000815260040161219890612d50565b60405180910390fd5b6121aa81611138565b156121ea576040517f08c379a00000000000000000000000000000000000000000000000000000000081526004016121e190612c70565b60405180910390fd5b6121f660008383611aa9565b6001600360008473ffffffffffffffffffffffffffffffffffffffff1673ffffffffffffffffffffffffffffffffffffffff16815260200190815260200160002060008282546122469190612f15565b92505081905550816002600083815260200190815260200160002060006101000a81548173ffffffffffffffffffffffffffffffffffffffff021916908373ffffffffffffffffffffffffffffffffffffffff160217905550808273ffffffffffffffffffffffffffffffffffffffff16600073ffffffffffffffffffffffffffffffffffffffff167fddf252ad1be2c89b69c2b068fc378daa952ba7f163c4a11628f55a4df523b3ef60405160405180910390a461230760008383611bbd565b5050565b6000808273ffffffffffffffffffffffffffffffffffffffff163b119050919050565b82805461233a90613086565b90600052602060002090601f01602090048101928261235c57600085556123a3565b82601f1061237557805160ff19168380011785556123a3565b828001600101855582156123a3579182015b828111156123a2578251825591602001919060010190612387565b5b5090506123b091906123b4565b5090565b5b808211156123cd5760008160009055506001016123b5565b5090565b60006123e46123df84612e70565b612e4b565b9050828152602081018484840111156123fc57600080fd5b612407848285613044565b509392505050565b600061242261241d84612ea1565b612e4b565b90508281526020810184848401111561243a57600080fd5b612445848285613044565b509392505050565b60008135905061245c81613726565b92915050565b6000813590506124718161373d565b92915050565b60008135905061248681613754565b92915050565b60008151905061249b81613754565b92915050565b600082601f8301126124b257600080fd5b81356124c28482602086016123d1565b91505092915050565b600082601f8301126124dc57600080fd5b81356124ec84826020860161240f565b91505092915050565b6000813590506125048161376b565b92915050565b60006020828403121561251c57600080fd5b600061252a8482850161244d565b91505092915050565b6000806040838503121561254657600080fd5b60006125548582860161244d565b92505060206125658582860161244d565b9150509250929050565b60008060006060848603121561258457600080fd5b60006125928682870161244d565b93505060206125a38682870161244d565b92505060406125b4868287016124f5565b9150509250925092565b600080600080608085870312156125d457600080fd5b60006125e28782880161244d565b94505060206125f38782880161244d565b9350506040612604878288016124f5565b925050606085013567ffffffffffffffff81111561262157600080fd5b61262d878288016124a1565b91505092959194509250565b6000806040838503121561264c57600080fd5b600061265a8582860161244d565b925050602061266b85828601612462565b9150509250929050565b60008060006060848603121561268a57600080fd5b60006126988682870161244d565b935050602084013567ffffffffffffffff8111156126b557600080fd5b6126c1868287016124cb565b925050604084013567ffffffffffffffff8111156126de57600080fd5b6126ea868287016124cb565b9150509250925092565b6000806040838503121561270757600080fd5b60006127158582860161244d565b9250506020612726858286016124f5565b9150509250929050565b60006020828403121561274257600080fd5b600061275084828501612477565b91505092915050565b60006020828403121561276b57600080fd5b60006127798482850161248c565b91505092915050565b60006020828403121561279457600080fd5b60006127a2848285016124f5565b91505092915050565b6127b481612fd0565b82525050565b6127c381612fe2565b82525050565b60006127d482612ed2565b6127de8185612ee8565b93506127ee818560208601613053565b6127f78161321f565b840191505092915050565b600061280d82612edd565b6128178185612ef9565b9350612827818560208601613053565b6128308161321f565b840191505092915050565b600061284682612edd565b6128508185612f0a565b9350612860818560208601613053565b80840191505092915050565b6000612879602b83612ef9565b915061288482613230565b604082019050919050565b600061289c603283612ef9565b91506128a78261327f565b604082019050919050565b60006128bf602683612ef9565b91506128ca826132ce565b604082019050919050565b60006128e2602583612ef9565b91506128ed8261331d565b604082019050919050565b6000612905601c83612ef9565b91506129108261336c565b602082019050919050565b6000612928602483612ef9565b915061293382613395565b604082019050919050565b600061294b601983612ef9565b9150612956826133e4565b602082019050919050565b600061296e602c83612ef9565b91506129798261340d565b604082019050919050565b6000612991603883612ef9565b915061299c8261345c565b604082019050919050565b60006129b4602a83612ef9565b91506129bf826134ab565b604082019050919050565b60006129d7602983612ef9565b91506129e2826134fa565b604082019050919050565b60006129fa602083612ef9565b9150612a0582613549565b602082019050919050565b6000612a1d602c83612ef9565b9150612a2882613572565b604082019050919050565b6000612a40602083612ef9565b9150612a4b826135c1565b602082019050919050565b6000612a63602f83612ef9565b9150612a6e826135ea565b604082019050919050565b6000612a86602183612ef9565b9150612a9182613639565b604082019050919050565b6000612aa9603183612ef9565b9150612ab482613688565b604082019050919050565b6000612acc602c83612ef9565b9150612ad7826136d7565b604082019050919050565b612aeb8161303a565b82525050565b6000612afd828561283b565b9150612b09828461283b565b91508190509392505050565b6000602082019050612b2a60008301846127ab565b92915050565b6000608082019050612b4560008301876127ab565b612b5260208301866127ab565b612b5f6040830185612ae2565b8181036060830152612b7181846127c9565b905095945050505050565b6000602082019050612b9160008301846127ba565b92915050565b60006020820190508181036000830152612bb18184612802565b905092915050565b60006040820190508181036000830152612bd38185612802565b90508181036020830152612be78184612802565b90509392505050565b60006020820190508181036000830152612c098161286c565b9050919050565b60006020820190508181036000830152612c298161288f565b9050919050565b60006020820190508181036000830152612c49816128b2565b9050919050565b60006020820190508181036000830152612c69816128d5565b9050919050565b60006020820190508181036000830152612c89816128f8565b9050919050565b60006020820190508181036000830152612ca98161291b565b9050919050565b60006020820190508181036000830152612cc98161293e565b9050919050565b60006020820190508181036000830152612ce981612961565b9050919050565b60006020820190508181036000830152612d0981612984565b9050919050565b60006020820190508181036000830152612d29816129a7565b9050919050565b60006020820190508181036000830152612d49816129ca565b9050919050565b60006020820190508181036000830152612d69816129ed565b9050919050565b60006020820190508181036000830152612d8981612a10565b9050919050565b60006020820190508181036000830152612da981612a33565b9050919050565b60006020820190508181036000830152612dc981612a56565b9050919050565b60006020820190508181036000830152612de981612a79565b9050919050565b60006020820190508181036000830152612e0981612a9c565b9050919050565b60006020820190508181036000830152612e2981612abf565b9050919050565b6000602082019050612e456000830184612ae2565b92915050565b6000612e55612e66565b9050612e6182826130b8565b919050565b6000604051905090565b600067ffffffffffffffff821115612e8b57612e8a6131f0565b5b612e948261321f565b9050602081019050919050565b600067ffffffffffffffff821115612ebc57612ebb6131f0565b5b612ec58261321f565b9050602081019050919050565b600081519050919050565b600081519050919050565b600082825260208201905092915050565b600082825260208201905092915050565b600081905092915050565b6000612f208261303a565b9150612f2b8361303a565b9250827fffffffffffffffffffffffffffffffffffffffffffffffffffffffffffffffff03821115612f6057612f5f613163565b5b828201905092915050565b6000612f768261303a565b9150612f818361303a565b925082612f9157612f90613192565b5b828204905092915050565b6000612fa78261303a565b9150612fb28361303a565b925082821015612fc557612fc4613163565b5b828203905092915050565b6000612fdb8261301a565b9050919050565b60008115159050919050565b60007fffffffff0000000000000000000000000000000000000000000000000000000082169050919050565b600073ffffffffffffffffffffffffffffffffffffffff82169050919050565b6000819050919050565b82818337600083830152505050565b60005b83811015613071578082015181840152602081019050613056565b83811115613080576000848401525b50505050565b6000600282049050600182168061309e57607f821691505b602082108114156130b2576130b16131c1565b5b50919050565b6130c18261321f565b810181811067ffffffffffffffff821117156130e0576130df6131f0565b5b80604052505050565b60006130f48261303a565b91507fffffffffffffffffffffffffffffffffffffffffffffffffffffffffffffffff82141561312757613126613163565b5b600182019050919050565b600061313d8261303a565b91506131488361303a565b92508261315857613157613192565b5b828206905092915050565b7f4e487b7100000000000000000000000000000000000000000000000000000000600052601160045260246000fd5b7f4e487b7100000000000000000000000000000000000000000000000000000000600052601260045260246000fd5b7f4e487b7100000000000000000000000000000000000000000000000000000000600052602260045260246000fd5b7f4e487b7100000000000000000000000000000000000000000000000000000000600052604160045260246000fd5b6000601f19601f8301169050919050565b7f455243373231456e756d657261626c653a206f776e657220696e646578206f7560008201527f74206f6620626f756e6473000000000000000000000000000000000000000000602082015250565b7f4552433732313a207472616e7366657220746f206e6f6e20455243373231526560008201527f63656976657220696d706c656d656e7465720000000000000000000000000000602082015250565b7f4f776e61626c653a206e6577206f776e657220697320746865207a65726f206160008201527f6464726573730000000000000000000000000000000000000000000000000000602082015250565b7f4552433732313a207472616e736665722066726f6d20696e636f72726563742060008201527f6f776e6572000000000000000000000000000000000000000000000000000000602082015250565b7f4552433732313a20746f6b656e20616c7265616479206d696e74656400000000600082015250565b7f4552433732313a207472616e7366657220746f20746865207a65726f2061646460008201527f7265737300000000000000000000000000000000000000000000000000000000602082015250565b7f4552433732313a20617070726f766520746f2063616c6c657200000000000000600082015250565b7f4552433732313a206f70657261746f7220717565727920666f72206e6f6e657860008201527f697374656e7420746f6b656e0000000000000000000000000000000000000000602082015250565b7f4552433732313a20617070726f76652063616c6c6572206973206e6f74206f7760008201527f6e6572206e6f7220617070726f76656420666f7220616c6c0000000000000000602082015250565b7f4552433732313a2062616c616e636520717565727920666f7220746865207a6560008201527f726f206164647265737300000000000000000000000000000000000000000000602082015250565b7f4552433732313a206f776e657220717565727920666f72206e6f6e657869737460008201527f656e7420746f6b656e0000000000000000000000000000000000000000000000602082015250565b7f4552433732313a206d696e7420746f20746865207a65726f2061646472657373600082015250565b7f4552433732313a20617070726f76656420717565727920666f72206e6f6e657860008201527f697374656e7420746f6b656e0000000000000000000000000000000000000000602082015250565b7f4f776e61626c653a2063616c6c6572206973206e6f7420746865206f776e6572600082015250565b7f4552433732314d657461646174613a2055524920717565727920666f72206e6f60008201527f6e6578697374656e7420746f6b656e0000000000000000000000000000000000602082015250565b7f4552433732313a20617070726f76616c20746f2063757272656e74206f776e6560008201527f7200000000000000000000000000000000000000000000000000000000000000602082015250565b7f4552433732313a207472616e736665722063616c6c6572206973206e6f74206f60008201527f776e6572206e6f7220617070726f766564000000000000000000000000000000602082015250565b7f455243373231456e756d657261626c653a20676c6f62616c20696e646578206f60008201527f7574206f6620626f756e64730000000000000000000000000000000000000000602082015250565b61372f81612fd0565b811461373a57600080fd5b50565b61374681612fe2565b811461375157600080fd5b50565b61375d81612fee565b811461376857600080fd5b50565b6137748161303a565b811461377f57600080fd5b5056fea2646970667358221220f837289d333f6f6eb367d1327adfd4bd478cd68508055c86731335bc69340ac464736f6c6343000804003360806040523480156200001157600080fd5b506040518060400160405280600c81526020017f52656365697074546f6b656e00000000000000000000000000000000000000008152506040518060400160405280600381526020017f5250540000000000000000000000000000000000000000000000000000000000815250816000908051906020019062000096929190620001a6565b508060019080519060200190620000af929190620001a6565b505050620000d2620000c6620000d860201b60201c565b620000e060201b60201c565b620002bb565b600033905090565b6000600a60009054906101000a900473ffffffffffffffffffffffffffffffffffffffff16905081600a60006101000a81548173ffffffffffffffffffffffffffffffffffffffff021916908373ffffffffffffffffffffffffffffffffffffffff1602179055508173ffffffffffffffffffffffffffffffffffffffff168173ffffffffffffffffffffffffffffffffffffffff167f8be0079c531659141344cd1fd0a4f28419497f9722a3daafe3b4186f6b6457e060405160405180910390a35050565b828054620001b49062000256565b90600052602060002090601f016020900481019282620001d8576000855562000224565b82601f10620001f357805160ff191683800117855562000224565b8280016001018555821562000224579182015b828111156200022357825182559160200191906001019062000206565b5b50905062000233919062000237565b5090565b5b808211156200025257600081600090555060010162000238565b5090565b600060028204905060018216806200026f57607f821691505b602082108114156200028657620002856200028c565b5b50919050565b7f4e487b7100000000000000000000000000000000000000000000000000000000600052602260045260246000fd5b61368d80620002cb6000396000f3fe608060405234801561001057600080fd5b50600436106101425760003560e01c80636352211e116100b8578063a22cb4651161007c578063a22cb46514610389578063b88d4fde146103a5578063c87b56dd146103c1578063d62914c9146103f1578063e985e9c514610421578063f2fde38b1461045157610142565b80636352211e146102e357806370a0823114610313578063715018a6146103435780638da5cb5b1461034d57806395d89b411461036b57610142565b806323b872dd1161010a57806323b872dd146101ff57806327d35db71461021b5780632f745c591461024b57806342842e0e1461027b57806342966c68146102975780634f6ccce7146102b357610142565b806301ffc9a71461014757806306fdde0314610177578063081812fc14610195578063095ea7b3146101c557806318160ddd146101e1575b600080fd5b610161600480360381019061015c91906125db565b61046d565b60405161016e9190612a4a565b60405180910390f35b61017f6104e7565b60405161018c9190612a65565b60405180910390f35b6101af60048036038101906101aa919061262d565b610579565b6040516101bc91906129e3565b60405180910390f35b6101df60048036038101906101da919061259f565b6105fe565b005b6101e9610716565b6040516101f69190612ce7565b60405180910390f35b61021960048036038101906102149190612499565b610723565b005b6102356004803603810190610230919061262d565b610783565b6040516102429190612ce7565b60405180910390f35b6102656004803603810190610260919061259f565b61079b565b6040516102729190612ce7565b60405180910390f35b61029560048036038101906102909190612499565b610840565b005b6102b160048036038101906102ac919061262d565b610860565b005b6102cd60048036038101906102c8919061262d565b6108bc565b6040516102da9190612ce7565b60405180910390f35b6102fd60048036038101906102f8919061262d565b610953565b60405161030a91906129e3565b60405180910390f35b61032d60048036038101906103289190612434565b610a05565b60405161033a9190612ce7565b60405180910390f35b61034b610abd565b005b610355610b45565b60405161036291906129e3565b60405180910390f35b610373610b6f565b6040516103809190612a65565b60405180910390f35b6103a3600480360381019061039e9190612563565b610c01565b005b6103bf60048036038101906103ba91906124e8565b610c17565b005b6103db60048036038101906103d6919061262d565b610c79565b6040516103e89190612a65565b60405180910390f35b61040b6004803603810190610406919061259f565b610d20565b6040516104189190612ce7565b60405180910390f35b61043b6004803603810190610436919061245d565b610de2565b6040516104489190612a4a565b60405180910390f35b61046b60048036038101906104669190612434565b610e76565b005b60007f780e9d63000000000000000000000000000000000000000000000000000000007bffffffffffffffffffffffffffffffffffffffffffffffffffffffff1916827bffffffffffffffffffffffffffffffffffffffffffffffffffffffff191614806104e057506104df82610f6e565b5b9050919050565b6060600080546104f690612f0c565b80601f016020809104026020016040519081016040528092919081815260200182805461052290612f0c565b801561056f5780601f106105445761010080835404028352916020019161056f565b820191906000526020600020905b81548152906001019060200180831161055257829003601f168201915b5050505050905090565b600061058482611050565b6105c3576040517f08c379a00000000000000000000000000000000000000000000000000000000081526004016105ba90612c07565b60405180910390fd5b6004600083815260200190815260200160002060009054906101000a900473ffffffffffffffffffffffffffffffffffffffff169050919050565b600061060982610953565b90508073ffffffffffffffffffffffffffffffffffffffff168373ffffffffffffffffffffffffffffffffffffffff16141561067a576040517f08c379a000000000000000000000000000000000000000000000000000000000815260040161067190612c67565b60405180910390fd5b8073ffffffffffffffffffffffffffffffffffffffff166106996110bc565b73ffffffffffffffffffffffffffffffffffffffff1614806106c857506106c7816106c26110bc565b610de2565b5b610707576040517f08c379a00000000000000000000000000000000000000000000000000000000081526004016106fe90612b87565b60405180910390fd5b61071183836110c4565b505050565b6000600880549050905090565b61073461072e6110bc565b8261117d565b610773576040517f08c379a000000000000000000000000000000000000000000000000000000000815260040161076a90612c87565b60405180910390fd5b61077e83838361125b565b505050565b600c6020528060005260406000206000915090505481565b60006107a683610a05565b82106107e7576040517f08c379a00000000000000000000000000000000000000000000000000000000081526004016107de90612a87565b60405180910390fd5b600660008473ffffffffffffffffffffffffffffffffffffffff1673ffffffffffffffffffffffffffffffffffffffff168152602001908152602001600020600083815260200190815260200160002054905092915050565b61085b83838360405180602001604052806000815250610c17565b505050565b61087161086b6110bc565b8261117d565b6108b0576040517f08c379a00000000000000000000000000000000000000000000000000000000081526004016108a790612cc7565b60405180910390fd5b6108b9816114c2565b50565b60006108c6610716565b8210610907576040517f08c379a00000000000000000000000000000000000000000000000000000000081526004016108fe90612ca7565b60405180910390fd5b60088281548110610941577f4e487b7100000000000000000000000000000000000000000000000000000000600052603260045260246000fd5b90600052602060002001549050919050565b6000806002600084815260200190815260200160002060009054906101000a900473ffffffffffffffffffffffffffffffffffffffff169050600073ffffffffffffffffffffffffffffffffffffffff168173ffffffffffffffffffffffffffffffffffffffff1614156109fc576040517f08c379a00000000000000000000000000000000000000000000000000000000081526004016109f390612bc7565b60405180910390fd5b80915050919050565b60008073ffffffffffffffffffffffffffffffffffffffff168273ffffffffffffffffffffffffffffffffffffffff161415610a76576040517f08c379a0000000000000000000000000000000000000000000000000000000008152600401610a6d90612ba7565b60405180910390fd5b600360008373ffffffffffffffffffffffffffffffffffffffff1673ffffffffffffffffffffffffffffffffffffffff168152602001908152602001600020549050919050565b610ac56110bc565b73ffffffffffffffffffffffffffffffffffffffff16610ae3610b45565b73ffffffffffffffffffffffffffffffffffffffff1614610b39576040517f08c379a0000000000000000000000000000000000000000000000000000000008152600401610b3090612c27565b60405180910390fd5b610b4360006115df565b565b6000600a60009054906101000a900473ffffffffffffffffffffffffffffffffffffffff16905090565b606060018054610b7e90612f0c565b80601f0160208091040260200160405190810160405280929190818152602001828054610baa90612f0c565b8015610bf75780601f10610bcc57610100808354040283529160200191610bf7565b820191906000526020600020905b815481529060010190602001808311610bda57829003601f168201915b5050505050905090565b610c13610c0c6110bc565b83836116a5565b5050565b610c28610c226110bc565b8361117d565b610c67576040517f08c379a0000000000000000000000000000000000000000000000000000000008152600401610c5e90612c87565b60405180910390fd5b610c7384848484611812565b50505050565b6060610c8482611050565b610cc3576040517f08c379a0000000000000000000000000000000000000000000000000000000008152600401610cba90612c47565b60405180910390fd5b6000610ccd61186e565b90506000815111610ced5760405180602001604052806000815250610d18565b80610cf784611885565b604051602001610d089291906129bf565b6040516020818303038152906040525b915050919050565b6000610d2a6110bc565b73ffffffffffffffffffffffffffffffffffffffff16610d48610b45565b73ffffffffffffffffffffffffffffffffffffffff1614610d9e576040517f08c379a0000000000000000000000000000000000000000000000000000000008152600401610d9590612c27565b60405180910390fd5b610da8600b611a32565b6000610db4600b611a48565b9050610dc08482611a56565b82600c6000838152602001908152602001600020819055508091505092915050565b6000600560008473ffffffffffffffffffffffffffffffffffffffff1673ffffffffffffffffffffffffffffffffffffffff16815260200190815260200160002060008373ffffffffffffffffffffffffffffffffffffffff1673ffffffffffffffffffffffffffffffffffffffff16815260200190815260200160002060009054906101000a900460ff16905092915050565b610e7e6110bc565b73ffffffffffffffffffffffffffffffffffffffff16610e9c610b45565b73ffffffffffffffffffffffffffffffffffffffff1614610ef2576040517f08c379a0000000000000000000000000000000000000000000000000000000008152600401610ee990612c27565b60405180910390fd5b600073ffffffffffffffffffffffffffffffffffffffff168173ffffffffffffffffffffffffffffffffffffffff161415610f62576040517f08c379a0000000000000000000000000000000000000000000000000000000008152600401610f5990612ac7565b60405180910390fd5b610f6b816115df565b50565b60007f80ac58cd000000000000000000000000000000000000000000000000000000007bffffffffffffffffffffffffffffffffffffffffffffffffffffffff1916827bffffffffffffffffffffffffffffffffffffffffffffffffffffffff1916148061103957507f5b5e139f000000000000000000000000000000000000000000000000000000007bffffffffffffffffffffffffffffffffffffffffffffffffffffffff1916827bffffffffffffffffffffffffffffffffffffffffffffffffffffffff1916145b80611049575061104882611a74565b5b9050919050565b60008073ffffffffffffffffffffffffffffffffffffffff166002600084815260200190815260200160002060009054906101000a900473ffffffffffffffffffffffffffffffffffffffff1673ffffffffffffffffffffffffffffffffffffffff1614159050919050565b600033905090565b816004600083815260200190815260200160002060006101000a81548173ffffffffffffffffffffffffffffffffffffffff021916908373ffffffffffffffffffffffffffffffffffffffff160217905550808273ffffffffffffffffffffffffffffffffffffffff1661113783610953565b73ffffffffffffffffffffffffffffffffffffffff167f8c5be1e5ebec7d5bd14f71427d1e84f3dd0314c0f7b2291e5b200ac8c7c3b92560405160405180910390a45050565b600061118882611050565b6111c7576040517f08c379a00000000000000000000000000000000000000000000000000000000081526004016111be90612b67565b60405180910390fd5b60006111d283610953565b90508073ffffffffffffffffffffffffffffffffffffffff168473ffffffffffffffffffffffffffffffffffffffff16148061124157508373ffffffffffffffffffffffffffffffffffffffff1661122984610579565b73ffffffffffffffffffffffffffffffffffffffff16145b8061125257506112518185610de2565b5b91505092915050565b8273ffffffffffffffffffffffffffffffffffffffff1661127b82610953565b73ffffffffffffffffffffffffffffffffffffffff16146112d1576040517f08c379a00000000000000000000000000000000000000000000000000000000081526004016112c890612ae7565b60405180910390fd5b600073ffffffffffffffffffffffffffffffffffffffff168273ffffffffffffffffffffffffffffffffffffffff161415611341576040517f08c379a000000000000000000000000000000000000000000000000000000000815260040161133890612b27565b60405180910390fd5b61134c838383611ade565b6113576000826110c4565b6001600360008573ffffffffffffffffffffffffffffffffffffffff1673ffffffffffffffffffffffffffffffffffffffff16815260200190815260200160002060008282546113a79190612e22565b925050819055506001600360008473ffffffffffffffffffffffffffffffffffffffff1673ffffffffffffffffffffffffffffffffffffffff16815260200190815260200160002060008282546113fe9190612d9b565b92505081905550816002600083815260200190815260200160002060006101000a81548173ffffffffffffffffffffffffffffffffffffffff021916908373ffffffffffffffffffffffffffffffffffffffff160217905550808273ffffffffffffffffffffffffffffffffffffffff168473ffffffffffffffffffffffffffffffffffffffff167fddf252ad1be2c89b69c2b068fc378daa952ba7f163c4a11628f55a4df523b3ef60405160405180910390a46114bd838383611bf2565b505050565b60006114cd82610953565b90506114db81600084611ade565b6114e66000836110c4565b6001600360008373ffffffffffffffffffffffffffffffffffffffff1673ffffffffffffffffffffffffffffffffffffffff16815260200190815260200160002060008282546115369190612e22565b925050819055506002600083815260200190815260200160002060006101000a81549073ffffffffffffffffffffffffffffffffffffffff021916905581600073ffffffffffffffffffffffffffffffffffffffff168273ffffffffffffffffffffffffffffffffffffffff167fddf252ad1be2c89b69c2b068fc378daa952ba7f163c4a11628f55a4df523b3ef60405160405180910390a46115db81600084611bf2565b5050565b6000600a60009054906101000a900473ffffffffffffffffffffffffffffffffffffffff16905081600a60006101000a81548173ffffffffffffffffffffffffffffffffffffffff021916908373ffffffffffffffffffffffffffffffffffffffff1602179055508173ffffffffffffffffffffffffffffffffffffffff168173ffffffffffffffffffffffffffffffffffffffff167f8be0079c531659141344cd1fd0a4f28419497f9722a3daafe3b4186f6b6457e060405160405180910390a35050565b8173ffffffffffffffffffffffffffffffffffffffff168373ffffffffffffffffffffffffffffffffffffffff161415611714576040517f08c379a000000000000000000000000000000000000000000000000000000000815260040161170b90612b47565b60405180910390fd5b80600560008573ffffffffffffffffffffffffffffffffffffffff1673ffffffffffffffffffffffffffffffffffffffff16815260200190815260200160002060008473ffffffffffffffffffffffffffffffffffffffff1673ffffffffffffffffffffffffffffffffffffffff16815260200190815260200160002060006101000a81548160ff0219169083151502179055508173ffffffffffffffffffffffffffffffffffffffff168373ffffffffffffffffffffffffffffffffffffffff167f17307eab39ab6107e8899845ad3d59bd9653f200f220920489ca2b5937696c31836040516118059190612a4a565b60405180910390a3505050565b61181d84848461125b565b61182984848484611bf7565b611868576040517f08c379a000000000000000000000000000000000000000000000000000000000815260040161185f90612aa7565b60405180910390fd5b50505050565b606060405180602001604052806000815250905090565b606060008214156118cd576040518060400160405280600181526020017f30000000000000000000000000000000000000000000000000000000000000008152509050611a2d565b600082905060005b600082146118ff5780806118e890612f6f565b915050600a826118f89190612df1565b91506118d5565b60008167ffffffffffffffff811115611941577f4e487b7100000000000000000000000000000000000000000000000000000000600052604160045260246000fd5b6040519080825280601f01601f1916602001820160405280156119735781602001600182028036833780820191505090505b5090505b60008514611a265760018261198c9190612e22565b9150600a8561199b9190612fb8565b60306119a79190612d9b565b60f81b8183815181106119e3577f4e487b7100000000000000000000000000000000000000000000000000000000600052603260045260246000fd5b60200101907effffffffffffffffffffffffffffffffffffffffffffffffffffffffffffff1916908160001a905350600a85611a1f9190612df1565b9450611977565b8093505050505b919050565b6001816000016000828254019250508190555050565b600081600001549050919050565b611a70828260405180602001604052806000815250611d8e565b5050565b60007f01ffc9a7000000000000000000000000000000000000000000000000000000007bffffffffffffffffffffffffffffffffffffffffffffffffffffffff1916827bffffffffffffffffffffffffffffffffffffffffffffffffffffffff1916149050919050565b611ae9838383611de9565b600073ffffffffffffffffffffffffffffffffffffffff168373ffffffffffffffffffffffffffffffffffffffff161415611b2c57611b2781611dee565b611b6b565b8173ffffffffffffffffffffffffffffffffffffffff168373ffffffffffffffffffffffffffffffffffffffff1614611b6a57611b698382611e37565b5b5b600073ffffffffffffffffffffffffffffffffffffffff168273ffffffffffffffffffffffffffffffffffffffff161415611bae57611ba981611fa4565b611bed565b8273ffffffffffffffffffffffffffffffffffffffff168273ffffffffffffffffffffffffffffffffffffffff1614611bec57611beb82826120e7565b5b5b505050565b505050565b6000611c188473ffffffffffffffffffffffffffffffffffffffff16612166565b15611d81578373ffffffffffffffffffffffffffffffffffffffff1663150b7a02611c416110bc565b8786866040518563ffffffff1660e01b8152600401611c6394939291906129fe565b602060405180830381600087803b158015611c7d57600080fd5b505af1925050508015611cae57506040513d601f19601f82011682018060405250810190611cab9190612604565b60015b611d31573d8060008114611cde576040519150601f19603f3d011682016040523d82523d6000602084013e611ce3565b606091505b50600081511415611d29576040517f08c379a0000000000000000000000000000000000000000000000000000000008152600401611d2090612aa7565b60405180910390fd5b805181602001fd5b63150b7a0260e01b7bffffffffffffffffffffffffffffffffffffffffffffffffffffffff1916817bffffffffffffffffffffffffffffffffffffffffffffffffffffffff191614915050611d86565b600190505b949350505050565b611d988383612189565b611da56000848484611bf7565b611de4576040517f08c379a0000000000000000000000000000000000000000000000000000000008152600401611ddb90612aa7565b60405180910390fd5b505050565b505050565b6008805490506009600083815260200190815260200160002081905550600881908060018154018082558091505060019003906000526020600020016000909190919091505550565b60006001611e4484610a05565b611e4e9190612e22565b9050600060076000848152602001908152602001600020549050818114611f33576000600660008673ffffffffffffffffffffffffffffffffffffffff1673ffffffffffffffffffffffffffffffffffffffff168152602001908152602001600020600084815260200190815260200160002054905080600660008773ffffffffffffffffffffffffffffffffffffffff1673ffffffffffffffffffffffffffffffffffffffff168152602001908152602001600020600084815260200190815260200160002081905550816007600083815260200190815260200160002081905550505b6007600084815260200190815260200160002060009055600660008573ffffffffffffffffffffffffffffffffffffffff1673ffffffffffffffffffffffffffffffffffffffff16815260200190815260200160002060008381526020019081526020016000206000905550505050565b60006001600880549050611fb89190612e22565b905060006009600084815260200190815260200160002054905060006008838154811061200e577f4e487b7100000000000000000000000000000000000000000000000000000000600052603260045260246000fd5b906000526020600020015490508060088381548110612056577f4e487b7100000000000000000000000000000000000000000000000000000000600052603260045260246000fd5b9060005260206000200181905550816009600083815260200190815260200160002081905550600960008581526020019081526020016000206000905560088054806120cb577f4e487b7100000000000000000000000000000000000000000000000000000000600052603160045260246000fd5b6001900381819060005260206000200160009055905550505050565b60006120f283610a05565b905081600660008573ffffffffffffffffffffffffffffffffffffffff1673ffffffffffffffffffffffffffffffffffffffff168152602001908152602001600020600083815260200190815260200160002081905550806007600084815260200190815260200160002081905550505050565b6000808273ffffffffffffffffffffffffffffffffffffffff163b119050919050565b600073ffffffffffffffffffffffffffffffffffffffff168273ffffffffffffffffffffffffffffffffffffffff1614156121f9576040517f08c379a00000000000000000000000000000000000000000000000000000000081526004016121f090612be7565b60405180910390fd5b61220281611050565b15612242576040517f08c379a000000000000000000000000000000000000000000000000000000000815260040161223990612b07565b60405180910390fd5b61224e60008383611ade565b6001600360008473ffffffffffffffffffffffffffffffffffffffff1673ffffffffffffffffffffffffffffffffffffffff168152602001908152602001600020600082825461229e9190612d9b565b92505081905550816002600083815260200190815260200160002060006101000a81548173ffffffffffffffffffffffffffffffffffffffff021916908373ffffffffffffffffffffffffffffffffffffffff160217905550808273ffffffffffffffffffffffffffffffffffffffff16600073ffffffffffffffffffffffffffffffffffffffff167fddf252ad1be2c89b69c2b068fc378daa952ba7f163c4a11628f55a4df523b3ef60405160405180910390a461235f60008383611bf2565b5050565b600061237661237184612d27565b612d02565b90508281526020810184848401111561238e57600080fd5b612399848285612eca565b509392505050565b6000813590506123b0816135fb565b92915050565b6000813590506123c581613612565b92915050565b6000813590506123da81613629565b92915050565b6000815190506123ef81613629565b92915050565b600082601f83011261240657600080fd5b8135612416848260208601612363565b91505092915050565b60008135905061242e81613640565b92915050565b60006020828403121561244657600080fd5b6000612454848285016123a1565b91505092915050565b6000806040838503121561247057600080fd5b600061247e858286016123a1565b925050602061248f858286016123a1565b9150509250929050565b6000806000606084860312156124ae57600080fd5b60006124bc868287016123a1565b93505060206124cd868287016123a1565b92505060406124de8682870161241f565b9150509250925092565b600080600080608085870312156124fe57600080fd5b600061250c878288016123a1565b945050602061251d878288016123a1565b935050604061252e8782880161241f565b925050606085013567ffffffffffffffff81111561254b57600080fd5b612557878288016123f5565b91505092959194509250565b6000806040838503121561257657600080fd5b6000612584858286016123a1565b9250506020612595858286016123b6565b9150509250929050565b600080604083850312156125b257600080fd5b60006125c0858286016123a1565b92505060206125d18582860161241f565b9150509250929050565b6000602082840312156125ed57600080fd5b60006125fb848285016123cb565b91505092915050565b60006020828403121561261657600080fd5b6000612624848285016123e0565b91505092915050565b60006020828403121561263f57600080fd5b600061264d8482850161241f565b91505092915050565b61265f81612e56565b82525050565b61266e81612e68565b82525050565b600061267f82612d58565b6126898185612d6e565b9350612699818560208601612ed9565b6126a2816130a5565b840191505092915050565b60006126b882612d63565b6126c28185612d7f565b93506126d2818560208601612ed9565b6126db816130a5565b840191505092915050565b60006126f182612d63565b6126fb8185612d90565b935061270b818560208601612ed9565b80840191505092915050565b6000612724602b83612d7f565b915061272f826130b6565b604082019050919050565b6000612747603283612d7f565b915061275282613105565b604082019050919050565b600061276a602683612d7f565b915061277582613154565b604082019050919050565b600061278d602583612d7f565b9150612798826131a3565b604082019050919050565b60006127b0601c83612d7f565b91506127bb826131f2565b602082019050919050565b60006127d3602483612d7f565b91506127de8261321b565b604082019050919050565b60006127f6601983612d7f565b91506128018261326a565b602082019050919050565b6000612819602c83612d7f565b915061282482613293565b604082019050919050565b600061283c603883612d7f565b9150612847826132e2565b604082019050919050565b600061285f602a83612d7f565b915061286a82613331565b604082019050919050565b6000612882602983612d7f565b915061288d82613380565b604082019050919050565b60006128a5602083612d7f565b91506128b0826133cf565b602082019050919050565b60006128c8602c83612d7f565b91506128d3826133f8565b604082019050919050565b60006128eb602083612d7f565b91506128f682613447565b602082019050919050565b600061290e602f83612d7f565b915061291982613470565b604082019050919050565b6000612931602183612d7f565b915061293c826134bf565b604082019050919050565b6000612954603183612d7f565b915061295f8261350e565b604082019050919050565b6000612977602c83612d7f565b91506129828261355d565b604082019050919050565b600061299a603083612d7f565b91506129a5826135ac565b604082019050919050565b6129b981612ec0565b82525050565b60006129cb82856126e6565b91506129d782846126e6565b91508190509392505050565b60006020820190506129f86000830184612656565b92915050565b6000608082019050612a136000830187612656565b612a206020830186612656565b612a2d60408301856129b0565b8181036060830152612a3f8184612674565b905095945050505050565b6000602082019050612a5f6000830184612665565b92915050565b60006020820190508181036000830152612a7f81846126ad565b905092915050565b60006020820190508181036000830152612aa081612717565b9050919050565b60006020820190508181036000830152612ac08161273a565b9050919050565b60006020820190508181036000830152612ae08161275d565b9050919050565b60006020820190508181036000830152612b0081612780565b9050919050565b60006020820190508181036000830152612b20816127a3565b9050919050565b60006020820190508181036000830152612b40816127c6565b9050919050565b60006020820190508181036000830152612b60816127e9565b9050919050565b60006020820190508181036000830152612b808161280c565b9050919050565b60006020820190508181036000830152612ba08161282f565b9050919050565b60006020820190508181036000830152612bc081612852565b9050919050565b60006020820190508181036000830152612be081612875565b9050919050565b60006020820190508181036000830152612c0081612898565b9050919050565b60006020820190508181036000830152612c20816128bb565b9050919050565b60006020820190508181036000830152612c40816128de565b9050919050565b60006020820190508181036000830152612c6081612901565b9050919050565b60006020820190508181036000830152612c8081612924565b9050919050565b60006020820190508181036000830152612ca081612947565b9050919050565b60006020820190508181036000830152612cc08161296a565b9050919050565b60006020820190508181036000830152612ce08161298d565b9050919050565b6000602082019050612cfc60008301846129b0565b92915050565b6000612d0c612d1d565b9050612d188282612f3e565b919050565b6000604051905090565b600067ffffffffffffffff821115612d4257612d41613076565b5b612d4b826130a5565b9050602081019050919050565b600081519050919050565b600081519050919050565b600082825260208201905092915050565b600082825260208201905092915050565b600081905092915050565b6000612da682612ec0565b9150612db183612ec0565b9250827fffffffffffffffffffffffffffffffffffffffffffffffffffffffffffffffff03821115612de657612de5612fe9565b5b828201905092915050565b6000612dfc82612ec0565b9150612e0783612ec0565b925082612e1757612e16613018565b5b828204905092915050565b6000612e2d82612ec0565b9150612e3883612ec0565b925082821015612e4b57612e4a612fe9565b5b828203905092915050565b6000612e6182612ea0565b9050919050565b60008115159050919050565b60007fffffffff0000000000000000000000000000000000000000000000000000000082169050919050565b600073ffffffffffffffffffffffffffffffffffffffff82169050919050565b6000819050919050565b82818337600083830152505050565b60005b83811015612ef7578082015181840152602081019050612edc565b83811115612f06576000848401525b50505050565b60006002820490506001821680612f2457607f821691505b60208210811415612f3857612f37613047565b5b50919050565b612f47826130a5565b810181811067ffffffffffffffff82111715612f6657612f65613076565b5b80604052505050565b6000612f7a82612ec0565b91507fffffffffffffffffffffffffffffffffffffffffffffffffffffffffffffffff821415612fad57612fac612fe9565b5b600182019050919050565b6000612fc382612ec0565b9150612fce83612ec0565b925082612fde57612fdd613018565b5b828206905092915050565b7f4e487b7100000000000000000000000000000000000000000000000000000000600052601160045260246000fd5b7f4e487b7100000000000000000000000000000000000000000000000000000000600052601260045260246000fd5b7f4e487b7100000000000000000000000000000000000000000000000000000000600052602260045260246000fd5b7f4e487b7100000000000000000000000000000000000000000000000000000000600052604160045260246000fd5b6000601f19601f8301169050919050565b7f455243373231456e756d657261626c653a206f776e657220696e646578206f7560008201527f74206f6620626f756e6473000000000000000000000000000000000000000000602082015250565b7f4552433732313a207472616e7366657220746f206e6f6e20455243373231526560008201527f63656976657220696d706c656d656e7465720000000000000000000000000000602082015250565b7f4f776e61626c653a206e6577206f776e657220697320746865207a65726f206160008201527f6464726573730000000000000000000000000000000000000000000000000000602082015250565b7f4552433732313a207472616e736665722066726f6d20696e636f72726563742060008201527f6f776e6572000000000000000000000000000000000000000000000000000000602082015250565b7f4552433732313a20746f6b656e20616c7265616479206d696e74656400000000600082015250565b7f4552433732313a207472616e7366657220746f20746865207a65726f2061646460008201527f7265737300000000000000000000000000000000000000000000000000000000602082015250565b7f4552433732313a20617070726f766520746f2063616c6c657200000000000000600082015250565b7f4552433732313a206f70657261746f7220717565727920666f72206e6f6e657860008201527f697374656e7420746f6b656e0000000000000000000000000000000000000000602082015250565b7f4552433732313a20617070726f76652063616c6c6572206973206e6f74206f7760008201527f6e6572206e6f7220617070726f76656420666f7220616c6c0000000000000000602082015250565b7f4552433732313a2062616c616e636520717565727920666f7220746865207a6560008201527f726f206164647265737300000000000000000000000000000000000000000000602082015250565b7f4552433732313a206f776e657220717565727920666f72206e6f6e657869737460008201527f656e7420746f6b656e0000000000000000000000000000000000000000000000602082015250565b7f4552433732313a206d696e7420746f20746865207a65726f2061646472657373600082015250565b7f4552433732313a20617070726f76656420717565727920666f72206e6f6e657860008201527f697374656e7420746f6b656e0000000000000000000000000000000000000000602082015250565b7f4f776e61626c653a2063616c6c6572206973206e6f7420746865206f776e6572600082015250565b7f4552433732314d657461646174613a2055524920717565727920666f72206e6f60008201527f6e6578697374656e7420746f6b656e0000000000000000000000000000000000602082015250565b7f4552433732313a20617070726f76616c20746f2063757272656e74206f776e6560008201527f7200000000000000000000000000000000000000000000000000000000000000602082015250565b7f4552433732313a207472616e736665722063616c6c6572206973206e6f74206f60008201527f776e6572206e6f7220617070726f766564000000000000000000000000000000602082015250565b7f455243373231456e756d657261626c653a20676c6f62616c20696e646578206f60008201527f7574206f6620626f756e64730000000000000000000000000000000000000000602082015250565b7f4552433732314275726e61626c653a2063616c6c6572206973206e6f74206f7760008201527f6e6572206e6f7220617070726f76656400000000000000000000000000000000602082015250565b61360481612e56565b811461360f57600080fd5b50565b61361b81612e68565b811461362657600080fd5b50565b61363281612e74565b811461363d57600080fd5b50565b61364981612ec0565b811461365457600080fd5b5056fea26469706673582212207288233b7de580ea11f7c362a01bccd0e12eb042b500181b4d6c07dc005d377a64736f6c63430008040033",
  "immutableReferences": {},
  "source": "// SPDX-License-Identifier: MIT\npragma solidity ^0.8.0;\n\nimport '@openzeppelin/contracts/token/ERC721/utils/ERC721Holder.sol';\n\nimport \"./DeliveryNode.sol\";\nimport \"./PackageToken.sol\";\nimport \"./ReceiptToken.sol\";\n\ncontract DeliveryCoordinator is ERC721Holder {\n\n  PackageToken public packageToken;\n  ReceiptToken public receiptToken;\n  DeliveryNode[] public deliveryNodes; // TODO - Use only one of the two delivery node properties\n  mapping(address => bool) private knownDeliveryNodes;\n\n  constructor() {\n    packageToken = new PackageToken();\n    receiptToken = new ReceiptToken();\n  }\n\n  function addDeliveryNode(string memory _nodeName) external {\n    DeliveryNode newDeliveryNode = new DeliveryNode(_nodeName, DeliveryNode.NodeStatus.ONLINE, address(packageToken));\n    deliveryNodes.push(newDeliveryNode);\n    knownDeliveryNodes[address(newDeliveryNode)] = true;\n  }\n\n  function numberOfDeliveryNodes() external view returns(uint256) {\n    return deliveryNodes.length;\n  }\n\n  function createPackage(string memory _packageContents, string memory _packageWeight) external returns (uint256) {\n    return packageToken.createPackage(msg.sender, _packageContents, _packageWeight);\n  }\n\n  function forwardPackage(address destinationNode, uint256 packageTokenId) external {\n    require(knownDeliveryNodes[destinationNode] == true, \"The provided destination address is not that of a known delivery node\");\n\n    address currentPackageOwner = packageToken.ownerOf(packageTokenId);\n\n    require(knownDeliveryNodes[currentPackageOwner] == true || currentPackageOwner == address(this),\n      \"The package token is neither held by the delivery coordinator, nor a known delivery node\");\n\n    if (knownDeliveryNodes[currentPackageOwner] == true) {\n      DeliveryNode deliveryNodeContract = DeliveryNode(currentPackageOwner);\n      deliveryNodeContract.forwardPackage(destinationNode, packageTokenId);\n    } else if (currentPackageOwner == address(this)) {\n      packageToken.safeTransferFrom(address(this), destinationNode, packageTokenId);\n    }\n  }\n\n  function onERC721Received(address operator, address from, uint256 tokenId, bytes memory data) public override returns (bytes4) {\n      require(msg.sender == address(packageToken) || msg.sender == address(receiptToken), \"ERC721 received is not from known token address\");\n\n      if (msg.sender == address(packageToken)) {\n        packageTokenReceived(from, tokenId);\n      }\n\n      if (msg.sender == address(receiptToken)) {\n        receiptTokenReceived(from, tokenId);\n      }\n\n      return super.onERC721Received(operator, from, tokenId, data);\n  }\n\n  function packageTokenReceived(address from, uint256 packageTokenId) internal {\n    receiptToken.createReceipt(from, packageTokenId);\n  }\n\n  function receiptTokenReceived(address from, uint256 receiptTokenId) internal {    \n    uint256 correspondingPackageTokenId = receiptToken.receiptData(receiptTokenId);\n    address currentPackageOwner = packageToken.ownerOf(correspondingPackageTokenId);\n\n    require(knownDeliveryNodes[currentPackageOwner] == true, \"The package token is not currently being held by a known delivery node\");\n\n    DeliveryNode packageHolder = DeliveryNode(currentPackageOwner);\n\n    packageHolder.forwardPackage(from, correspondingPackageTokenId);\n    receiptToken.burn(receiptTokenId);\n  }\n\n}\n",
  "sourcePath": "/home/james/Workspaces/tracking-demo/contracts/DeliveryCoordinator.sol",
  "compiler": {
    "name": "solc",
    "version": "0.8.4+commit.c7e474f2.Emscripten.clang"
  },
  "schemaVersion": "3.4.6",
  "updatedAt": "2022-05-17T14:11:52.957Z",
  "networkType": "ethereum",
  "devdoc": {
    "kind": "dev",
    "methods": {},
    "version": 1
  },
  "userdoc": {
    "kind": "user",
    "methods": {},
    "version": 1
  }
}