{
  "contractName": "PackageToken",
  "abi": [
    {
      "inputs": [],
      "stateMutability": "nonpayable",
      "type": "constructor"
    },
    {
      "anonymous": false,
      "inputs": [
        {
          "indexed": true,
          "internalType": "address",
          "name": "owner",
          "type": "address"
        },
        {
          "indexed": true,
          "internalType": "address",
          "name": "approved",
          "type": "address"
        },
        {
          "indexed": true,
          "internalType": "uint256",
          "name": "tokenId",
          "type": "uint256"
        }
      ],
      "name": "Approval",
      "type": "event"
    },
    {
      "anonymous": false,
      "inputs": [
        {
          "indexed": true,
          "internalType": "address",
          "name": "owner",
          "type": "address"
        },
        {
          "indexed": true,
          "internalType": "address",
          "name": "operator",
          "type": "address"
        },
        {
          "indexed": false,
          "internalType": "bool",
          "name": "approved",
          "type": "bool"
        }
      ],
      "name": "ApprovalForAll",
      "type": "event"
    },
    {
      "anonymous": false,
      "inputs": [
        {
          "indexed": true,
          "internalType": "address",
          "name": "previousOwner",
          "type": "address"
        },
        {
          "indexed": true,
          "internalType": "address",
          "name": "newOwner",
          "type": "address"
        }
      ],
      "name": "OwnershipTransferred",
      "type": "event"
    },
    {
      "anonymous": false,
      "inputs": [
        {
          "indexed": true,
          "internalType": "address",
          "name": "from",
          "type": "address"
        },
        {
          "indexed": true,
          "internalType": "address",
          "name": "to",
          "type": "address"
        },
        {
          "indexed": true,
          "internalType": "uint256",
          "name": "tokenId",
          "type": "uint256"
        }
      ],
      "name": "Transfer",
      "type": "event"
    },
    {
      "inputs": [
        {
          "internalType": "address",
          "name": "to",
          "type": "address"
        },
        {
          "internalType": "uint256",
          "name": "tokenId",
          "type": "uint256"
        }
      ],
      "name": "approve",
      "outputs": [],
      "stateMutability": "nonpayable",
      "type": "function"
    },
    {
      "inputs": [
        {
          "internalType": "address",
          "name": "owner",
          "type": "address"
        }
      ],
      "name": "balanceOf",
      "outputs": [
        {
          "internalType": "uint256",
          "name": "",
          "type": "uint256"
        }
      ],
      "stateMutability": "view",
      "type": "function"
    },
    {
      "inputs": [
        {
          "internalType": "uint256",
          "name": "tokenId",
          "type": "uint256"
        }
      ],
      "name": "getApproved",
      "outputs": [
        {
          "internalType": "address",
          "name": "",
          "type": "address"
        }
      ],
      "stateMutability": "view",
      "type": "function"
    },
    {
      "inputs": [
        {
          "internalType": "address",
          "name": "owner",
          "type": "address"
        },
        {
          "internalType": "address",
          "name": "operator",
          "type": "address"
        }
      ],
      "name": "isApprovedForAll",
      "outputs": [
        {
          "internalType": "bool",
          "name": "",
          "type": "bool"
        }
      ],
      "stateMutability": "view",
      "type": "function"
    },
    {
      "inputs": [],
      "name": "name",
      "outputs": [
        {
          "internalType": "string",
          "name": "",
          "type": "string"
        }
      ],
      "stateMutability": "view",
      "type": "function"
    },
    {
      "inputs": [],
      "name": "owner",
      "outputs": [
        {
          "internalType": "address",
          "name": "",
          "type": "address"
        }
      ],
      "stateMutability": "view",
      "type": "function"
    },
    {
      "inputs": [
        {
          "internalType": "uint256",
          "name": "tokenId",
          "type": "uint256"
        }
      ],
      "name": "ownerOf",
      "outputs": [
        {
          "internalType": "address",
          "name": "",
          "type": "address"
        }
      ],
      "stateMutability": "view",
      "type": "function"
    },
    {
      "inputs": [
        {
          "internalType": "uint256",
          "name": "",
          "type": "uint256"
        }
      ],
      "name": "packageData",
      "outputs": [
        {
          "internalType": "string",
          "name": "packageContents",
          "type": "string"
        },
        {
          "internalType": "string",
          "name": "packageWeight",
          "type": "string"
        }
      ],
      "stateMutability": "view",
      "type": "function"
    },
    {
      "inputs": [],
      "name": "renounceOwnership",
      "outputs": [],
      "stateMutability": "nonpayable",
      "type": "function"
    },
    {
      "inputs": [
        {
          "internalType": "address",
          "name": "from",
          "type": "address"
        },
        {
          "internalType": "address",
          "name": "to",
          "type": "address"
        },
        {
          "internalType": "uint256",
          "name": "tokenId",
          "type": "uint256"
        }
      ],
      "name": "safeTransferFrom",
      "outputs": [],
      "stateMutability": "nonpayable",
      "type": "function"
    },
    {
      "inputs": [
        {
          "internalType": "address",
          "name": "from",
          "type": "address"
        },
        {
          "internalType": "address",
          "name": "to",
          "type": "address"
        },
        {
          "internalType": "uint256",
          "name": "tokenId",
          "type": "uint256"
        },
        {
          "internalType": "bytes",
          "name": "_data",
          "type": "bytes"
        }
      ],
      "name": "safeTransferFrom",
      "outputs": [],
      "stateMutability": "nonpayable",
      "type": "function"
    },
    {
      "inputs": [
        {
          "internalType": "address",
          "name": "operator",
          "type": "address"
        },
        {
          "internalType": "bool",
          "name": "approved",
          "type": "bool"
        }
      ],
      "name": "setApprovalForAll",
      "outputs": [],
      "stateMutability": "nonpayable",
      "type": "function"
    },
    {
      "inputs": [
        {
          "internalType": "bytes4",
          "name": "interfaceId",
          "type": "bytes4"
        }
      ],
      "name": "supportsInterface",
      "outputs": [
        {
          "internalType": "bool",
          "name": "",
          "type": "bool"
        }
      ],
      "stateMutability": "view",
      "type": "function"
    },
    {
      "inputs": [],
      "name": "symbol",
      "outputs": [
        {
          "internalType": "string",
          "name": "",
          "type": "string"
        }
      ],
      "stateMutability": "view",
      "type": "function"
    },
    {
      "inputs": [
        {
          "internalType": "uint256",
          "name": "tokenId",
          "type": "uint256"
        }
      ],
      "name": "tokenURI",
      "outputs": [
        {
          "internalType": "string",
          "name": "",
          "type": "string"
        }
      ],
      "stateMutability": "view",
      "type": "function"
    },
    {
      "inputs": [
        {
          "internalType": "address",
          "name": "from",
          "type": "address"
        },
        {
          "internalType": "address",
          "name": "to",
          "type": "address"
        },
        {
          "internalType": "uint256",
          "name": "tokenId",
          "type": "uint256"
        }
      ],
      "name": "transferFrom",
      "outputs": [],
      "stateMutability": "nonpayable",
      "type": "function"
    },
    {
      "inputs": [
        {
          "internalType": "address",
          "name": "newOwner",
          "type": "address"
        }
      ],
      "name": "transferOwnership",
      "outputs": [],
      "stateMutability": "nonpayable",
      "type": "function"
    },
    {
      "inputs": [
        {
          "internalType": "address",
          "name": "packageSender",
          "type": "address"
        },
        {
          "internalType": "string",
          "name": "packageContents",
          "type": "string"
        },
        {
          "internalType": "string",
          "name": "packageWeight",
          "type": "string"
        }
      ],
      "name": "createPackage",
      "outputs": [
        {
          "internalType": "uint256",
          "name": "",
          "type": "uint256"
        }
      ],
      "stateMutability": "nonpayable",
      "type": "function"
    }
  ],
  "bytecode": "0x60806040523480156200001157600080fd5b506040518060400160405280600c81526020017f5061636b616765546f6b656e00000000000000000000000000000000000000008152506040518060400160405280600381526020017f504b470000000000000000000000000000000000000000000000000000000000815250816000908051906020019062000096929190620001a6565b508060019080519060200190620000af929190620001a6565b505050620000d2620000c6620000d860201b60201c565b620000e060201b60201c565b620002bb565b600033905090565b6000600660009054906101000a900473ffffffffffffffffffffffffffffffffffffffff16905081600660006101000a81548173ffffffffffffffffffffffffffffffffffffffff021916908373ffffffffffffffffffffffffffffffffffffffff1602179055508173ffffffffffffffffffffffffffffffffffffffff168173ffffffffffffffffffffffffffffffffffffffff167f8be0079c531659141344cd1fd0a4f28419497f9722a3daafe3b4186f6b6457e060405160405180910390a35050565b828054620001b49062000256565b90600052602060002090601f016020900481019282620001d8576000855562000224565b82601f10620001f357805160ff191683800117855562000224565b8280016001018555821562000224579182015b828111156200022357825182559160200191906001019062000206565b5b50905062000233919062000237565b5090565b5b808211156200025257600081600090555060010162000238565b5090565b600060028204905060018216806200026f57607f821691505b602082108114156200028657620002856200028c565b5b50919050565b7f4e487b7100000000000000000000000000000000000000000000000000000000600052602260045260246000fd5b612fa680620002cb6000396000f3fe608060405234801561001057600080fd5b50600436106101165760003560e01c8063715018a6116100a2578063abc7854411610071578063abc78544146102df578063b88d4fde14610310578063c87b56dd1461032c578063e985e9c51461035c578063f2fde38b1461038c57610116565b8063715018a61461027d5780638da5cb5b1461028757806395d89b41146102a5578063a22cb465146102c357610116565b806323b872dd116100e957806323b872dd146101b557806342842e0e146101d15780636352211e146101ed5780636c8d75351461021d57806370a082311461024d57610116565b806301ffc9a71461011b57806306fdde031461014b578063081812fc14610169578063095ea7b314610199575b600080fd5b61013560048036038101906101309190612042565b6103a8565b6040516101429190612448565b60405180910390f35b61015361048a565b6040516101609190612463565b60405180910390f35b610183600480360381019061017e9190612094565b61051c565b60405161019091906123e1565b60405180910390f35b6101b360048036038101906101ae9190612006565b6105a1565b005b6101cf60048036038101906101ca9190611e81565b6106b9565b005b6101eb60048036038101906101e69190611e81565b610719565b005b61020760048036038101906102029190612094565b610739565b60405161021491906123e1565b60405180910390f35b61023760048036038101906102329190611f87565b6107eb565b60405161024491906126bc565b60405180910390f35b61026760048036038101906102629190611e1c565b6108fb565b60405161027491906126bc565b60405180910390f35b6102856109b3565b005b61028f610a3b565b60405161029c91906123e1565b60405180910390f35b6102ad610a65565b6040516102ba9190612463565b60405180910390f35b6102dd60048036038101906102d89190611f4b565b610af7565b005b6102f960048036038101906102f49190612094565b610b0d565b604051610307929190612485565b60405180910390f35b61032a60048036038101906103259190611ed0565b610c41565b005b61034660048036038101906103419190612094565b610ca3565b6040516103539190612463565b60405180910390f35b61037660048036038101906103719190611e45565b610d4a565b6040516103839190612448565b60405180910390f35b6103a660048036038101906103a19190611e1c565b610dde565b005b60007f80ac58cd000000000000000000000000000000000000000000000000000000007bffffffffffffffffffffffffffffffffffffffffffffffffffffffff1916827bffffffffffffffffffffffffffffffffffffffffffffffffffffffff1916148061047357507f5b5e139f000000000000000000000000000000000000000000000000000000007bffffffffffffffffffffffffffffffffffffffffffffffffffffffff1916827bffffffffffffffffffffffffffffffffffffffffffffffffffffffff1916145b80610483575061048282610ed6565b5b9050919050565b60606000805461049990612912565b80601f01602080910402602001604051908101604052809291908181526020018280546104c590612912565b80156105125780601f106104e757610100808354040283529160200191610512565b820191906000526020600020905b8154815290600101906020018083116104f557829003601f168201915b5050505050905090565b600061052782610f40565b610566576040517f08c379a000000000000000000000000000000000000000000000000000000000815260040161055d9061261c565b60405180910390fd5b6004600083815260200190815260200160002060009054906101000a900473ffffffffffffffffffffffffffffffffffffffff169050919050565b60006105ac82610739565b90508073ffffffffffffffffffffffffffffffffffffffff168373ffffffffffffffffffffffffffffffffffffffff16141561061d576040517f08c379a00000000000000000000000000000000000000000000000000000000081526004016106149061267c565b60405180910390fd5b8073ffffffffffffffffffffffffffffffffffffffff1661063c610fac565b73ffffffffffffffffffffffffffffffffffffffff16148061066b575061066a81610665610fac565b610d4a565b5b6106aa576040517f08c379a00000000000000000000000000000000000000000000000000000000081526004016106a19061259c565b60405180910390fd5b6106b48383610fb4565b505050565b6106ca6106c4610fac565b8261106d565b610709576040517f08c379a00000000000000000000000000000000000000000000000000000000081526004016107009061269c565b60405180910390fd5b61071483838361114b565b505050565b61073483838360405180602001604052806000815250610c41565b505050565b6000806002600084815260200190815260200160002060009054906101000a900473ffffffffffffffffffffffffffffffffffffffff169050600073ffffffffffffffffffffffffffffffffffffffff168173ffffffffffffffffffffffffffffffffffffffff1614156107e2576040517f08c379a00000000000000000000000000000000000000000000000000000000081526004016107d9906125dc565b60405180910390fd5b80915050919050565b60006107f5610fac565b73ffffffffffffffffffffffffffffffffffffffff16610813610a3b565b73ffffffffffffffffffffffffffffffffffffffff1614610869576040517f08c379a00000000000000000000000000000000000000000000000000000000081526004016108609061263c565b60405180910390fd5b61087360076113b2565b600061087f60076113c8565b905061088b85826113d6565b6040518060400160405280858152602001848152506008600083815260200190815260200160002060008201518160000190805190602001906108cf929190611c40565b5060208201518160010190805190602001906108ec929190611c40565b50905050809150509392505050565b60008073ffffffffffffffffffffffffffffffffffffffff168273ffffffffffffffffffffffffffffffffffffffff16141561096c576040517f08c379a0000000000000000000000000000000000000000000000000000000008152600401610963906125bc565b60405180910390fd5b600360008373ffffffffffffffffffffffffffffffffffffffff1673ffffffffffffffffffffffffffffffffffffffff168152602001908152602001600020549050919050565b6109bb610fac565b73ffffffffffffffffffffffffffffffffffffffff166109d9610a3b565b73ffffffffffffffffffffffffffffffffffffffff1614610a2f576040517f08c379a0000000000000000000000000000000000000000000000000000000008152600401610a269061263c565b60405180910390fd5b610a3960006113f4565b565b6000600660009054906101000a900473ffffffffffffffffffffffffffffffffffffffff16905090565b606060018054610a7490612912565b80601f0160208091040260200160405190810160405280929190818152602001828054610aa090612912565b8015610aed5780601f10610ac257610100808354040283529160200191610aed565b820191906000526020600020905b815481529060010190602001808311610ad057829003601f168201915b5050505050905090565b610b09610b02610fac565b83836114ba565b5050565b6008602052806000526040600020600091509050806000018054610b3090612912565b80601f0160208091040260200160405190810160405280929190818152602001828054610b5c90612912565b8015610ba95780601f10610b7e57610100808354040283529160200191610ba9565b820191906000526020600020905b815481529060010190602001808311610b8c57829003601f168201915b505050505090806001018054610bbe90612912565b80601f0160208091040260200160405190810160405280929190818152602001828054610bea90612912565b8015610c375780601f10610c0c57610100808354040283529160200191610c37565b820191906000526020600020905b815481529060010190602001808311610c1a57829003601f168201915b5050505050905082565b610c52610c4c610fac565b8361106d565b610c91576040517f08c379a0000000000000000000000000000000000000000000000000000000008152600401610c889061269c565b60405180910390fd5b610c9d84848484611627565b50505050565b6060610cae82610f40565b610ced576040517f08c379a0000000000000000000000000000000000000000000000000000000008152600401610ce49061265c565b60405180910390fd5b6000610cf7611683565b90506000815111610d175760405180602001604052806000815250610d42565b80610d218461169a565b604051602001610d329291906123bd565b6040516020818303038152906040525b915050919050565b6000600560008473ffffffffffffffffffffffffffffffffffffffff1673ffffffffffffffffffffffffffffffffffffffff16815260200190815260200160002060008373ffffffffffffffffffffffffffffffffffffffff1673ffffffffffffffffffffffffffffffffffffffff16815260200190815260200160002060009054906101000a900460ff16905092915050565b610de6610fac565b73ffffffffffffffffffffffffffffffffffffffff16610e04610a3b565b73ffffffffffffffffffffffffffffffffffffffff1614610e5a576040517f08c379a0000000000000000000000000000000000000000000000000000000008152600401610e519061263c565b60405180910390fd5b600073ffffffffffffffffffffffffffffffffffffffff168173ffffffffffffffffffffffffffffffffffffffff161415610eca576040517f08c379a0000000000000000000000000000000000000000000000000000000008152600401610ec1906124dc565b60405180910390fd5b610ed3816113f4565b50565b60007f01ffc9a7000000000000000000000000000000000000000000000000000000007bffffffffffffffffffffffffffffffffffffffffffffffffffffffff1916827bffffffffffffffffffffffffffffffffffffffffffffffffffffffff1916149050919050565b60008073ffffffffffffffffffffffffffffffffffffffff166002600084815260200190815260200160002060009054906101000a900473ffffffffffffffffffffffffffffffffffffffff1673ffffffffffffffffffffffffffffffffffffffff1614159050919050565b600033905090565b816004600083815260200190815260200160002060006101000a81548173ffffffffffffffffffffffffffffffffffffffff021916908373ffffffffffffffffffffffffffffffffffffffff160217905550808273ffffffffffffffffffffffffffffffffffffffff1661102783610739565b73ffffffffffffffffffffffffffffffffffffffff167f8c5be1e5ebec7d5bd14f71427d1e84f3dd0314c0f7b2291e5b200ac8c7c3b92560405160405180910390a45050565b600061107882610f40565b6110b7576040517f08c379a00000000000000000000000000000000000000000000000000000000081526004016110ae9061257c565b60405180910390fd5b60006110c283610739565b90508073ffffffffffffffffffffffffffffffffffffffff168473ffffffffffffffffffffffffffffffffffffffff16148061113157508373ffffffffffffffffffffffffffffffffffffffff166111198461051c565b73ffffffffffffffffffffffffffffffffffffffff16145b8061114257506111418185610d4a565b5b91505092915050565b8273ffffffffffffffffffffffffffffffffffffffff1661116b82610739565b73ffffffffffffffffffffffffffffffffffffffff16146111c1576040517f08c379a00000000000000000000000000000000000000000000000000000000081526004016111b8906124fc565b60405180910390fd5b600073ffffffffffffffffffffffffffffffffffffffff168273ffffffffffffffffffffffffffffffffffffffff161415611231576040517f08c379a00000000000000000000000000000000000000000000000000000000081526004016112289061253c565b60405180910390fd5b61123c838383611847565b611247600082610fb4565b6001600360008573ffffffffffffffffffffffffffffffffffffffff1673ffffffffffffffffffffffffffffffffffffffff16815260200190815260200160002060008282546112979190612828565b925050819055506001600360008473ffffffffffffffffffffffffffffffffffffffff1673ffffffffffffffffffffffffffffffffffffffff16815260200190815260200160002060008282546112ee91906127a1565b92505081905550816002600083815260200190815260200160002060006101000a81548173ffffffffffffffffffffffffffffffffffffffff021916908373ffffffffffffffffffffffffffffffffffffffff160217905550808273ffffffffffffffffffffffffffffffffffffffff168473ffffffffffffffffffffffffffffffffffffffff167fddf252ad1be2c89b69c2b068fc378daa952ba7f163c4a11628f55a4df523b3ef60405160405180910390a46113ad83838361184c565b505050565b6001816000016000828254019250508190555050565b600081600001549050919050565b6113f0828260405180602001604052806000815250611851565b5050565b6000600660009054906101000a900473ffffffffffffffffffffffffffffffffffffffff16905081600660006101000a81548173ffffffffffffffffffffffffffffffffffffffff021916908373ffffffffffffffffffffffffffffffffffffffff1602179055508173ffffffffffffffffffffffffffffffffffffffff168173ffffffffffffffffffffffffffffffffffffffff167f8be0079c531659141344cd1fd0a4f28419497f9722a3daafe3b4186f6b6457e060405160405180910390a35050565b8173ffffffffffffffffffffffffffffffffffffffff168373ffffffffffffffffffffffffffffffffffffffff161415611529576040517f08c379a00000000000000000000000000000000000000000000000000000000081526004016115209061255c565b60405180910390fd5b80600560008573ffffffffffffffffffffffffffffffffffffffff1673ffffffffffffffffffffffffffffffffffffffff16815260200190815260200160002060008473ffffffffffffffffffffffffffffffffffffffff1673ffffffffffffffffffffffffffffffffffffffff16815260200190815260200160002060006101000a81548160ff0219169083151502179055508173ffffffffffffffffffffffffffffffffffffffff168373ffffffffffffffffffffffffffffffffffffffff167f17307eab39ab6107e8899845ad3d59bd9653f200f220920489ca2b5937696c318360405161161a9190612448565b60405180910390a3505050565b61163284848461114b565b61163e848484846118ac565b61167d576040517f08c379a0000000000000000000000000000000000000000000000000000000008152600401611674906124bc565b60405180910390fd5b50505050565b606060405180602001604052806000815250905090565b606060008214156116e2576040518060400160405280600181526020017f30000000000000000000000000000000000000000000000000000000000000008152509050611842565b600082905060005b600082146117145780806116fd90612975565b915050600a8261170d91906127f7565b91506116ea565b60008167ffffffffffffffff811115611756577f4e487b7100000000000000000000000000000000000000000000000000000000600052604160045260246000fd5b6040519080825280601f01601f1916602001820160405280156117885781602001600182028036833780820191505090505b5090505b6000851461183b576001826117a19190612828565b9150600a856117b091906129be565b60306117bc91906127a1565b60f81b8183815181106117f8577f4e487b7100000000000000000000000000000000000000000000000000000000600052603260045260246000fd5b60200101907effffffffffffffffffffffffffffffffffffffffffffffffffffffffffffff1916908160001a905350600a8561183491906127f7565b945061178c565b8093505050505b919050565b505050565b505050565b61185b8383611a43565b61186860008484846118ac565b6118a7576040517f08c379a000000000000000000000000000000000000000000000000000000000815260040161189e906124bc565b60405180910390fd5b505050565b60006118cd8473ffffffffffffffffffffffffffffffffffffffff16611c1d565b15611a36578373ffffffffffffffffffffffffffffffffffffffff1663150b7a026118f6610fac565b8786866040518563ffffffff1660e01b815260040161191894939291906123fc565b602060405180830381600087803b15801561193257600080fd5b505af192505050801561196357506040513d601f19601f82011682018060405250810190611960919061206b565b60015b6119e6573d8060008114611993576040519150601f19603f3d011682016040523d82523d6000602084013e611998565b606091505b506000815114156119de576040517f08c379a00000000000000000000000000000000000000000000000000000000081526004016119d5906124bc565b60405180910390fd5b805181602001fd5b63150b7a0260e01b7bffffffffffffffffffffffffffffffffffffffffffffffffffffffff1916817bffffffffffffffffffffffffffffffffffffffffffffffffffffffff191614915050611a3b565b600190505b949350505050565b600073ffffffffffffffffffffffffffffffffffffffff168273ffffffffffffffffffffffffffffffffffffffff161415611ab3576040517f08c379a0000000000000000000000000000000000000000000000000000000008152600401611aaa906125fc565b60405180910390fd5b611abc81610f40565b15611afc576040517f08c379a0000000000000000000000000000000000000000000000000000000008152600401611af39061251c565b60405180910390fd5b611b0860008383611847565b6001600360008473ffffffffffffffffffffffffffffffffffffffff1673ffffffffffffffffffffffffffffffffffffffff1681526020019081526020016000206000828254611b5891906127a1565b92505081905550816002600083815260200190815260200160002060006101000a81548173ffffffffffffffffffffffffffffffffffffffff021916908373ffffffffffffffffffffffffffffffffffffffff160217905550808273ffffffffffffffffffffffffffffffffffffffff16600073ffffffffffffffffffffffffffffffffffffffff167fddf252ad1be2c89b69c2b068fc378daa952ba7f163c4a11628f55a4df523b3ef60405160405180910390a4611c196000838361184c565b5050565b6000808273ffffffffffffffffffffffffffffffffffffffff163b119050919050565b828054611c4c90612912565b90600052602060002090601f016020900481019282611c6e5760008555611cb5565b82601f10611c8757805160ff1916838001178555611cb5565b82800160010185558215611cb5579182015b82811115611cb4578251825591602001919060010190611c99565b5b509050611cc29190611cc6565b5090565b5b80821115611cdf576000816000905550600101611cc7565b5090565b6000611cf6611cf1846126fc565b6126d7565b905082815260208101848484011115611d0e57600080fd5b611d198482856128d0565b509392505050565b6000611d34611d2f8461272d565b6126d7565b905082815260208101848484011115611d4c57600080fd5b611d578482856128d0565b509392505050565b600081359050611d6e81612f14565b92915050565b600081359050611d8381612f2b565b92915050565b600081359050611d9881612f42565b92915050565b600081519050611dad81612f42565b92915050565b600082601f830112611dc457600080fd5b8135611dd4848260208601611ce3565b91505092915050565b600082601f830112611dee57600080fd5b8135611dfe848260208601611d21565b91505092915050565b600081359050611e1681612f59565b92915050565b600060208284031215611e2e57600080fd5b6000611e3c84828501611d5f565b91505092915050565b60008060408385031215611e5857600080fd5b6000611e6685828601611d5f565b9250506020611e7785828601611d5f565b9150509250929050565b600080600060608486031215611e9657600080fd5b6000611ea486828701611d5f565b9350506020611eb586828701611d5f565b9250506040611ec686828701611e07565b9150509250925092565b60008060008060808587031215611ee657600080fd5b6000611ef487828801611d5f565b9450506020611f0587828801611d5f565b9350506040611f1687828801611e07565b925050606085013567ffffffffffffffff811115611f3357600080fd5b611f3f87828801611db3565b91505092959194509250565b60008060408385031215611f5e57600080fd5b6000611f6c85828601611d5f565b9250506020611f7d85828601611d74565b9150509250929050565b600080600060608486031215611f9c57600080fd5b6000611faa86828701611d5f565b935050602084013567ffffffffffffffff811115611fc757600080fd5b611fd386828701611ddd565b925050604084013567ffffffffffffffff811115611ff057600080fd5b611ffc86828701611ddd565b9150509250925092565b6000806040838503121561201957600080fd5b600061202785828601611d5f565b925050602061203885828601611e07565b9150509250929050565b60006020828403121561205457600080fd5b600061206284828501611d89565b91505092915050565b60006020828403121561207d57600080fd5b600061208b84828501611d9e565b91505092915050565b6000602082840312156120a657600080fd5b60006120b484828501611e07565b91505092915050565b6120c68161285c565b82525050565b6120d58161286e565b82525050565b60006120e68261275e565b6120f08185612774565b93506121008185602086016128df565b61210981612aab565b840191505092915050565b600061211f82612769565b6121298185612785565b93506121398185602086016128df565b61214281612aab565b840191505092915050565b600061215882612769565b6121628185612796565b93506121728185602086016128df565b80840191505092915050565b600061218b603283612785565b915061219682612abc565b604082019050919050565b60006121ae602683612785565b91506121b982612b0b565b604082019050919050565b60006121d1602583612785565b91506121dc82612b5a565b604082019050919050565b60006121f4601c83612785565b91506121ff82612ba9565b602082019050919050565b6000612217602483612785565b915061222282612bd2565b604082019050919050565b600061223a601983612785565b915061224582612c21565b602082019050919050565b600061225d602c83612785565b915061226882612c4a565b604082019050919050565b6000612280603883612785565b915061228b82612c99565b604082019050919050565b60006122a3602a83612785565b91506122ae82612ce8565b604082019050919050565b60006122c6602983612785565b91506122d182612d37565b604082019050919050565b60006122e9602083612785565b91506122f482612d86565b602082019050919050565b600061230c602c83612785565b915061231782612daf565b604082019050919050565b600061232f602083612785565b915061233a82612dfe565b602082019050919050565b6000612352602f83612785565b915061235d82612e27565b604082019050919050565b6000612375602183612785565b915061238082612e76565b604082019050919050565b6000612398603183612785565b91506123a382612ec5565b604082019050919050565b6123b7816128c6565b82525050565b60006123c9828561214d565b91506123d5828461214d565b91508190509392505050565b60006020820190506123f660008301846120bd565b92915050565b600060808201905061241160008301876120bd565b61241e60208301866120bd565b61242b60408301856123ae565b818103606083015261243d81846120db565b905095945050505050565b600060208201905061245d60008301846120cc565b92915050565b6000602082019050818103600083015261247d8184612114565b905092915050565b6000604082019050818103600083015261249f8185612114565b905081810360208301526124b38184612114565b90509392505050565b600060208201905081810360008301526124d58161217e565b9050919050565b600060208201905081810360008301526124f5816121a1565b9050919050565b60006020820190508181036000830152612515816121c4565b9050919050565b60006020820190508181036000830152612535816121e7565b9050919050565b600060208201905081810360008301526125558161220a565b9050919050565b600060208201905081810360008301526125758161222d565b9050919050565b6000602082019050818103600083015261259581612250565b9050919050565b600060208201905081810360008301526125b581612273565b9050919050565b600060208201905081810360008301526125d581612296565b9050919050565b600060208201905081810360008301526125f5816122b9565b9050919050565b60006020820190508181036000830152612615816122dc565b9050919050565b60006020820190508181036000830152612635816122ff565b9050919050565b6000602082019050818103600083015261265581612322565b9050919050565b6000602082019050818103600083015261267581612345565b9050919050565b6000602082019050818103600083015261269581612368565b9050919050565b600060208201905081810360008301526126b58161238b565b9050919050565b60006020820190506126d160008301846123ae565b92915050565b60006126e16126f2565b90506126ed8282612944565b919050565b6000604051905090565b600067ffffffffffffffff82111561271757612716612a7c565b5b61272082612aab565b9050602081019050919050565b600067ffffffffffffffff82111561274857612747612a7c565b5b61275182612aab565b9050602081019050919050565b600081519050919050565b600081519050919050565b600082825260208201905092915050565b600082825260208201905092915050565b600081905092915050565b60006127ac826128c6565b91506127b7836128c6565b9250827fffffffffffffffffffffffffffffffffffffffffffffffffffffffffffffffff038211156127ec576127eb6129ef565b5b828201905092915050565b6000612802826128c6565b915061280d836128c6565b92508261281d5761281c612a1e565b5b828204905092915050565b6000612833826128c6565b915061283e836128c6565b925082821015612851576128506129ef565b5b828203905092915050565b6000612867826128a6565b9050919050565b60008115159050919050565b60007fffffffff0000000000000000000000000000000000000000000000000000000082169050919050565b600073ffffffffffffffffffffffffffffffffffffffff82169050919050565b6000819050919050565b82818337600083830152505050565b60005b838110156128fd5780820151818401526020810190506128e2565b8381111561290c576000848401525b50505050565b6000600282049050600182168061292a57607f821691505b6020821081141561293e5761293d612a4d565b5b50919050565b61294d82612aab565b810181811067ffffffffffffffff8211171561296c5761296b612a7c565b5b80604052505050565b6000612980826128c6565b91507fffffffffffffffffffffffffffffffffffffffffffffffffffffffffffffffff8214156129b3576129b26129ef565b5b600182019050919050565b60006129c9826128c6565b91506129d4836128c6565b9250826129e4576129e3612a1e565b5b828206905092915050565b7f4e487b7100000000000000000000000000000000000000000000000000000000600052601160045260246000fd5b7f4e487b7100000000000000000000000000000000000000000000000000000000600052601260045260246000fd5b7f4e487b7100000000000000000000000000000000000000000000000000000000600052602260045260246000fd5b7f4e487b7100000000000000000000000000000000000000000000000000000000600052604160045260246000fd5b6000601f19601f8301169050919050565b7f4552433732313a207472616e7366657220746f206e6f6e20455243373231526560008201527f63656976657220696d706c656d656e7465720000000000000000000000000000602082015250565b7f4f776e61626c653a206e6577206f776e657220697320746865207a65726f206160008201527f6464726573730000000000000000000000000000000000000000000000000000602082015250565b7f4552433732313a207472616e736665722066726f6d20696e636f72726563742060008201527f6f776e6572000000000000000000000000000000000000000000000000000000602082015250565b7f4552433732313a20746f6b656e20616c7265616479206d696e74656400000000600082015250565b7f4552433732313a207472616e7366657220746f20746865207a65726f2061646460008201527f7265737300000000000000000000000000000000000000000000000000000000602082015250565b7f4552433732313a20617070726f766520746f2063616c6c657200000000000000600082015250565b7f4552433732313a206f70657261746f7220717565727920666f72206e6f6e657860008201527f697374656e7420746f6b656e0000000000000000000000000000000000000000602082015250565b7f4552433732313a20617070726f76652063616c6c6572206973206e6f74206f7760008201527f6e6572206e6f7220617070726f76656420666f7220616c6c0000000000000000602082015250565b7f4552433732313a2062616c616e636520717565727920666f7220746865207a6560008201527f726f206164647265737300000000000000000000000000000000000000000000602082015250565b7f4552433732313a206f776e657220717565727920666f72206e6f6e657869737460008201527f656e7420746f6b656e0000000000000000000000000000000000000000000000602082015250565b7f4552433732313a206d696e7420746f20746865207a65726f2061646472657373600082015250565b7f4552433732313a20617070726f76656420717565727920666f72206e6f6e657860008201527f697374656e7420746f6b656e0000000000000000000000000000000000000000602082015250565b7f4f776e61626c653a2063616c6c6572206973206e6f7420746865206f776e6572600082015250565b7f4552433732314d657461646174613a2055524920717565727920666f72206e6f60008201527f6e6578697374656e7420746f6b656e0000000000000000000000000000000000602082015250565b7f4552433732313a20617070726f76616c20746f2063757272656e74206f776e6560008201527f7200000000000000000000000000000000000000000000000000000000000000602082015250565b7f4552433732313a207472616e736665722063616c6c6572206973206e6f74206f60008201527f776e6572206e6f7220617070726f766564000000000000000000000000000000602082015250565b612f1d8161285c565b8114612f2857600080fd5b50565b612f348161286e565b8114612f3f57600080fd5b50565b612f4b8161287a565b8114612f5657600080fd5b50565b612f62816128c6565b8114612f6d57600080fd5b5056fea2646970667358221220946b01512869d4a42d4a566476536156656735f86f70c6b3c5262175a67c275464736f6c63430008040033",
  "immutableReferences": {},
  "source": "// SPDX-License-Identifier: MIT\npragma solidity ^0.8.0;\n\nimport '@openzeppelin/contracts/access/Ownable.sol';\nimport '@openzeppelin/contracts/token/ERC721/ERC721.sol';\nimport '@openzeppelin/contracts/utils/Counters.sol';\n\ncontract PackageToken is ERC721, Ownable {\n\n    using Counters for Counters.Counter;\n\n    struct PackageInfo {\n        string packageContents;\n        string packageWeight;\n    }\n\n    Counters.Counter private _tokenIds;\n\n    mapping(uint256 => PackageInfo) public packageData;\n  \n    constructor() ERC721(\"PackageToken\", \"PKG\") {}\n\n    function createPackage(address packageSender, string memory packageContents, string memory packageWeight) public onlyOwner returns (uint256) {\n        _tokenIds.increment();\n        \n        uint256 newPackageId = _tokenIds.current();\n        _safeMint(packageSender, newPackageId);\n        packageData[newPackageId] = PackageInfo(packageContents, packageWeight);\n\n        return newPackageId;\n    }\n\n}\n",
  "sourcePath": "/home/james/Workspaces/tracking-demo/contracts/PackageToken.sol",
  "compiler": {
    "name": "solc",
    "version": "0.8.4+commit.c7e474f2.Emscripten.clang"
  },
  "schemaVersion": "3.4.6",
  "updatedAt": "2022-04-26T13:20:17.535Z",
  "devdoc": {
    "kind": "dev",
    "methods": {
      "approve(address,uint256)": {
        "details": "See {IERC721-approve}."
      },
      "balanceOf(address)": {
        "details": "See {IERC721-balanceOf}."
      },
      "getApproved(uint256)": {
        "details": "See {IERC721-getApproved}."
      },
      "isApprovedForAll(address,address)": {
        "details": "See {IERC721-isApprovedForAll}."
      },
      "name()": {
        "details": "See {IERC721Metadata-name}."
      },
      "owner()": {
        "details": "Returns the address of the current owner."
      },
      "ownerOf(uint256)": {
        "details": "See {IERC721-ownerOf}."
      },
      "renounceOwnership()": {
        "details": "Leaves the contract without owner. It will not be possible to call `onlyOwner` functions anymore. Can only be called by the current owner. NOTE: Renouncing ownership will leave the contract without an owner, thereby removing any functionality that is only available to the owner."
      },
      "safeTransferFrom(address,address,uint256)": {
        "details": "See {IERC721-safeTransferFrom}."
      },
      "safeTransferFrom(address,address,uint256,bytes)": {
        "details": "See {IERC721-safeTransferFrom}."
      },
      "setApprovalForAll(address,bool)": {
        "details": "See {IERC721-setApprovalForAll}."
      },
      "supportsInterface(bytes4)": {
        "details": "See {IERC165-supportsInterface}."
      },
      "symbol()": {
        "details": "See {IERC721Metadata-symbol}."
      },
      "tokenURI(uint256)": {
        "details": "See {IERC721Metadata-tokenURI}."
      },
      "transferFrom(address,address,uint256)": {
        "details": "See {IERC721-transferFrom}."
      },
      "transferOwnership(address)": {
        "details": "Transfers ownership of the contract to a new account (`newOwner`). Can only be called by the current owner."
      }
    },
    "version": 1
  },
  "userdoc": {
    "kind": "user",
    "methods": {},
    "version": 1
  }
}