{
  "contractName": "PackageToken",
  "abi": [
    {
      "inputs": [],
      "stateMutability": "nonpayable",
      "type": "constructor"
    },
    {
      "anonymous": false,
      "inputs": [
        {
          "indexed": true,
          "internalType": "address",
          "name": "owner",
          "type": "address"
        },
        {
          "indexed": true,
          "internalType": "address",
          "name": "approved",
          "type": "address"
        },
        {
          "indexed": true,
          "internalType": "uint256",
          "name": "tokenId",
          "type": "uint256"
        }
      ],
      "name": "Approval",
      "type": "event"
    },
    {
      "anonymous": false,
      "inputs": [
        {
          "indexed": true,
          "internalType": "address",
          "name": "owner",
          "type": "address"
        },
        {
          "indexed": true,
          "internalType": "address",
          "name": "operator",
          "type": "address"
        },
        {
          "indexed": false,
          "internalType": "bool",
          "name": "approved",
          "type": "bool"
        }
      ],
      "name": "ApprovalForAll",
      "type": "event"
    },
    {
      "anonymous": false,
      "inputs": [
        {
          "indexed": true,
          "internalType": "address",
          "name": "previousOwner",
          "type": "address"
        },
        {
          "indexed": true,
          "internalType": "address",
          "name": "newOwner",
          "type": "address"
        }
      ],
      "name": "OwnershipTransferred",
      "type": "event"
    },
    {
      "anonymous": false,
      "inputs": [
        {
          "indexed": true,
          "internalType": "address",
          "name": "from",
          "type": "address"
        },
        {
          "indexed": true,
          "internalType": "address",
          "name": "to",
          "type": "address"
        },
        {
          "indexed": true,
          "internalType": "uint256",
          "name": "tokenId",
          "type": "uint256"
        }
      ],
      "name": "Transfer",
      "type": "event"
    },
    {
      "inputs": [
        {
          "internalType": "address",
          "name": "to",
          "type": "address"
        },
        {
          "internalType": "uint256",
          "name": "tokenId",
          "type": "uint256"
        }
      ],
      "name": "approve",
      "outputs": [],
      "stateMutability": "nonpayable",
      "type": "function"
    },
    {
      "inputs": [
        {
          "internalType": "address",
          "name": "owner",
          "type": "address"
        }
      ],
      "name": "balanceOf",
      "outputs": [
        {
          "internalType": "uint256",
          "name": "",
          "type": "uint256"
        }
      ],
      "stateMutability": "view",
      "type": "function",
      "constant": true
    },
    {
      "inputs": [
        {
          "internalType": "uint256",
          "name": "tokenId",
          "type": "uint256"
        }
      ],
      "name": "getApproved",
      "outputs": [
        {
          "internalType": "address",
          "name": "",
          "type": "address"
        }
      ],
      "stateMutability": "view",
      "type": "function",
      "constant": true
    },
    {
      "inputs": [
        {
          "internalType": "address",
          "name": "owner",
          "type": "address"
        },
        {
          "internalType": "address",
          "name": "operator",
          "type": "address"
        }
      ],
      "name": "isApprovedForAll",
      "outputs": [
        {
          "internalType": "bool",
          "name": "",
          "type": "bool"
        }
      ],
      "stateMutability": "view",
      "type": "function",
      "constant": true
    },
    {
      "inputs": [],
      "name": "name",
      "outputs": [
        {
          "internalType": "string",
          "name": "",
          "type": "string"
        }
      ],
      "stateMutability": "view",
      "type": "function",
      "constant": true
    },
    {
      "inputs": [],
      "name": "owner",
      "outputs": [
        {
          "internalType": "address",
          "name": "",
          "type": "address"
        }
      ],
      "stateMutability": "view",
      "type": "function",
      "constant": true
    },
    {
      "inputs": [
        {
          "internalType": "uint256",
          "name": "tokenId",
          "type": "uint256"
        }
      ],
      "name": "ownerOf",
      "outputs": [
        {
          "internalType": "address",
          "name": "",
          "type": "address"
        }
      ],
      "stateMutability": "view",
      "type": "function",
      "constant": true
    },
    {
      "inputs": [
        {
          "internalType": "uint256",
          "name": "",
          "type": "uint256"
        }
      ],
      "name": "packageData",
      "outputs": [
        {
          "internalType": "string",
          "name": "packageContents",
          "type": "string"
        },
        {
          "internalType": "string",
          "name": "packageWeight",
          "type": "string"
        }
      ],
      "stateMutability": "view",
      "type": "function",
      "constant": true
    },
    {
      "inputs": [],
      "name": "renounceOwnership",
      "outputs": [],
      "stateMutability": "nonpayable",
      "type": "function"
    },
    {
      "inputs": [
        {
          "internalType": "address",
          "name": "from",
          "type": "address"
        },
        {
          "internalType": "address",
          "name": "to",
          "type": "address"
        },
        {
          "internalType": "uint256",
          "name": "tokenId",
          "type": "uint256"
        }
      ],
      "name": "safeTransferFrom",
      "outputs": [],
      "stateMutability": "nonpayable",
      "type": "function"
    },
    {
      "inputs": [
        {
          "internalType": "address",
          "name": "from",
          "type": "address"
        },
        {
          "internalType": "address",
          "name": "to",
          "type": "address"
        },
        {
          "internalType": "uint256",
          "name": "tokenId",
          "type": "uint256"
        },
        {
          "internalType": "bytes",
          "name": "_data",
          "type": "bytes"
        }
      ],
      "name": "safeTransferFrom",
      "outputs": [],
      "stateMutability": "nonpayable",
      "type": "function"
    },
    {
      "inputs": [
        {
          "internalType": "address",
          "name": "operator",
          "type": "address"
        },
        {
          "internalType": "bool",
          "name": "approved",
          "type": "bool"
        }
      ],
      "name": "setApprovalForAll",
      "outputs": [],
      "stateMutability": "nonpayable",
      "type": "function"
    },
    {
      "inputs": [
        {
          "internalType": "bytes4",
          "name": "interfaceId",
          "type": "bytes4"
        }
      ],
      "name": "supportsInterface",
      "outputs": [
        {
          "internalType": "bool",
          "name": "",
          "type": "bool"
        }
      ],
      "stateMutability": "view",
      "type": "function",
      "constant": true
    },
    {
      "inputs": [],
      "name": "symbol",
      "outputs": [
        {
          "internalType": "string",
          "name": "",
          "type": "string"
        }
      ],
      "stateMutability": "view",
      "type": "function",
      "constant": true
    },
    {
      "inputs": [
        {
          "internalType": "uint256",
          "name": "index",
          "type": "uint256"
        }
      ],
      "name": "tokenByIndex",
      "outputs": [
        {
          "internalType": "uint256",
          "name": "",
          "type": "uint256"
        }
      ],
      "stateMutability": "view",
      "type": "function",
      "constant": true
    },
    {
      "inputs": [
        {
          "internalType": "address",
          "name": "owner",
          "type": "address"
        },
        {
          "internalType": "uint256",
          "name": "index",
          "type": "uint256"
        }
      ],
      "name": "tokenOfOwnerByIndex",
      "outputs": [
        {
          "internalType": "uint256",
          "name": "",
          "type": "uint256"
        }
      ],
      "stateMutability": "view",
      "type": "function",
      "constant": true
    },
    {
      "inputs": [
        {
          "internalType": "uint256",
          "name": "tokenId",
          "type": "uint256"
        }
      ],
      "name": "tokenURI",
      "outputs": [
        {
          "internalType": "string",
          "name": "",
          "type": "string"
        }
      ],
      "stateMutability": "view",
      "type": "function",
      "constant": true
    },
    {
      "inputs": [],
      "name": "totalSupply",
      "outputs": [
        {
          "internalType": "uint256",
          "name": "",
          "type": "uint256"
        }
      ],
      "stateMutability": "view",
      "type": "function",
      "constant": true
    },
    {
      "inputs": [
        {
          "internalType": "address",
          "name": "from",
          "type": "address"
        },
        {
          "internalType": "address",
          "name": "to",
          "type": "address"
        },
        {
          "internalType": "uint256",
          "name": "tokenId",
          "type": "uint256"
        }
      ],
      "name": "transferFrom",
      "outputs": [],
      "stateMutability": "nonpayable",
      "type": "function"
    },
    {
      "inputs": [
        {
          "internalType": "address",
          "name": "newOwner",
          "type": "address"
        }
      ],
      "name": "transferOwnership",
      "outputs": [],
      "stateMutability": "nonpayable",
      "type": "function"
    },
    {
      "inputs": [
        {
          "internalType": "address",
          "name": "packageSender",
          "type": "address"
        },
        {
          "internalType": "string",
          "name": "packageContents",
          "type": "string"
        },
        {
          "internalType": "string",
          "name": "packageWeight",
          "type": "string"
        }
      ],
      "name": "createPackage",
      "outputs": [
        {
          "internalType": "uint256",
          "name": "",
          "type": "uint256"
        }
      ],
      "stateMutability": "nonpayable",
      "type": "function"
    }
  ],
  "bytecode": "0x60806040523480156200001157600080fd5b506040518060400160405280600c81526020017f5061636b616765546f6b656e00000000000000000000000000000000000000008152506040518060400160405280600381526020017f504b470000000000000000000000000000000000000000000000000000000000815250816000908051906020019062000096929190620001a6565b508060019080519060200190620000af929190620001a6565b505050620000d2620000c6620000d860201b60201c565b620000e060201b60201c565b620002bb565b600033905090565b6000600a60009054906101000a900473ffffffffffffffffffffffffffffffffffffffff16905081600a60006101000a81548173ffffffffffffffffffffffffffffffffffffffff021916908373ffffffffffffffffffffffffffffffffffffffff1602179055508173ffffffffffffffffffffffffffffffffffffffff168173ffffffffffffffffffffffffffffffffffffffff167f8be0079c531659141344cd1fd0a4f28419497f9722a3daafe3b4186f6b6457e060405160405180910390a35050565b828054620001b49062000256565b90600052602060002090601f016020900481019282620001d8576000855562000224565b82601f10620001f357805160ff191683800117855562000224565b8280016001018555821562000224579182015b828111156200022357825182559160200191906001019062000206565b5b50905062000233919062000237565b5090565b5b808211156200025257600081600090555060010162000238565b5090565b600060028204905060018216806200026f57607f821691505b602082108114156200028657620002856200028c565b5b50919050565b7f4e487b7100000000000000000000000000000000000000000000000000000000600052602260045260246000fd5b6137b880620002cb6000396000f3fe608060405234801561001057600080fd5b50600436106101375760003560e01c80636c8d7535116100b8578063a22cb4651161007c578063a22cb46514610362578063abc785441461037e578063b88d4fde146103af578063c87b56dd146103cb578063e985e9c5146103fb578063f2fde38b1461042b57610137565b80636c8d7535146102bc57806370a08231146102ec578063715018a61461031c5780638da5cb5b1461032657806395d89b411461034457610137565b806323b872dd116100ff57806323b872dd146101f45780632f745c591461021057806342842e0e146102405780634f6ccce71461025c5780636352211e1461028c57610137565b806301ffc9a71461013c57806306fdde031461016c578063081812fc1461018a578063095ea7b3146101ba57806318160ddd146101d6575b600080fd5b61015660048036038101906101519190612730565b610447565b6040516101639190612b7c565b60405180910390f35b6101746104c1565b6040516101819190612b97565b60405180910390f35b6101a4600480360381019061019f9190612782565b610553565b6040516101b19190612b15565b60405180910390f35b6101d460048036038101906101cf91906126f4565b6105d8565b005b6101de6106f0565b6040516101eb9190612e30565b60405180910390f35b61020e6004803603810190610209919061256f565b6106fd565b005b61022a600480360381019061022591906126f4565b61075d565b6040516102379190612e30565b60405180910390f35b61025a6004803603810190610255919061256f565b610802565b005b61027660048036038101906102719190612782565b610822565b6040516102839190612e30565b60405180910390f35b6102a660048036038101906102a19190612782565b6108b9565b6040516102b39190612b15565b60405180910390f35b6102d660048036038101906102d19190612675565b61096b565b6040516102e39190612e30565b60405180910390f35b6103066004803603810190610301919061250a565b610a7b565b6040516103139190612e30565b60405180910390f35b610324610b33565b005b61032e610bbb565b60405161033b9190612b15565b60405180910390f35b61034c610be5565b6040516103599190612b97565b60405180910390f35b61037c60048036038101906103779190612639565b610c77565b005b61039860048036038101906103939190612782565b610c8d565b6040516103a6929190612bb9565b60405180910390f35b6103c960048036038101906103c491906125be565b610dc1565b005b6103e560048036038101906103e09190612782565b610e23565b6040516103f29190612b97565b60405180910390f35b61041560048036038101906104109190612533565b610eca565b6040516104229190612b7c565b60405180910390f35b6104456004803603810190610440919061250a565b610f5e565b005b60007f780e9d63000000000000000000000000000000000000000000000000000000007bffffffffffffffffffffffffffffffffffffffffffffffffffffffff1916827bffffffffffffffffffffffffffffffffffffffffffffffffffffffff191614806104ba57506104b982611056565b5b9050919050565b6060600080546104d090613086565b80601f01602080910402602001604051908101604052809291908181526020018280546104fc90613086565b80156105495780601f1061051e57610100808354040283529160200191610549565b820191906000526020600020905b81548152906001019060200180831161052c57829003601f168201915b5050505050905090565b600061055e82611138565b61059d576040517f08c379a000000000000000000000000000000000000000000000000000000000815260040161059490612d70565b60405180910390fd5b6004600083815260200190815260200160002060009054906101000a900473ffffffffffffffffffffffffffffffffffffffff169050919050565b60006105e3826108b9565b90508073ffffffffffffffffffffffffffffffffffffffff168373ffffffffffffffffffffffffffffffffffffffff161415610654576040517f08c379a000000000000000000000000000000000000000000000000000000000815260040161064b90612dd0565b60405180910390fd5b8073ffffffffffffffffffffffffffffffffffffffff166106736111a4565b73ffffffffffffffffffffffffffffffffffffffff1614806106a257506106a18161069c6111a4565b610eca565b5b6106e1576040517f08c379a00000000000000000000000000000000000000000000000000000000081526004016106d890612cf0565b60405180910390fd5b6106eb83836111ac565b505050565b6000600880549050905090565b61070e6107086111a4565b82611265565b61074d576040517f08c379a000000000000000000000000000000000000000000000000000000000815260040161074490612df0565b60405180910390fd5b610758838383611343565b505050565b600061076883610a7b565b82106107a9576040517f08c379a00000000000000000000000000000000000000000000000000000000081526004016107a090612bf0565b60405180910390fd5b600660008473ffffffffffffffffffffffffffffffffffffffff1673ffffffffffffffffffffffffffffffffffffffff168152602001908152602001600020600083815260200190815260200160002054905092915050565b61081d83838360405180602001604052806000815250610dc1565b505050565b600061082c6106f0565b821061086d576040517f08c379a000000000000000000000000000000000000000000000000000000000815260040161086490612e10565b60405180910390fd5b600882815481106108a7577f4e487b7100000000000000000000000000000000000000000000000000000000600052603260045260246000fd5b90600052602060002001549050919050565b6000806002600084815260200190815260200160002060009054906101000a900473ffffffffffffffffffffffffffffffffffffffff169050600073ffffffffffffffffffffffffffffffffffffffff168173ffffffffffffffffffffffffffffffffffffffff161415610962576040517f08c379a000000000000000000000000000000000000000000000000000000000815260040161095990612d30565b60405180910390fd5b80915050919050565b60006109756111a4565b73ffffffffffffffffffffffffffffffffffffffff16610993610bbb565b73ffffffffffffffffffffffffffffffffffffffff16146109e9576040517f08c379a00000000000000000000000000000000000000000000000000000000081526004016109e090612d90565b60405180910390fd5b6109f3600b6115aa565b60006109ff600b6115c0565b9050610a0b85826115ce565b604051806040016040528085815260200184815250600c60008381526020019081526020016000206000820151816000019080519060200190610a4f92919061232e565b506020820151816001019080519060200190610a6c92919061232e565b50905050809150509392505050565b60008073ffffffffffffffffffffffffffffffffffffffff168273ffffffffffffffffffffffffffffffffffffffff161415610aec576040517f08c379a0000000000000000000000000000000000000000000000000000000008152600401610ae390612d10565b60405180910390fd5b600360008373ffffffffffffffffffffffffffffffffffffffff1673ffffffffffffffffffffffffffffffffffffffff168152602001908152602001600020549050919050565b610b3b6111a4565b73ffffffffffffffffffffffffffffffffffffffff16610b59610bbb565b73ffffffffffffffffffffffffffffffffffffffff1614610baf576040517f08c379a0000000000000000000000000000000000000000000000000000000008152600401610ba690612d90565b60405180910390fd5b610bb960006115ec565b565b6000600a60009054906101000a900473ffffffffffffffffffffffffffffffffffffffff16905090565b606060018054610bf490613086565b80601f0160208091040260200160405190810160405280929190818152602001828054610c2090613086565b8015610c6d5780601f10610c4257610100808354040283529160200191610c6d565b820191906000526020600020905b815481529060010190602001808311610c5057829003601f168201915b5050505050905090565b610c89610c826111a4565b83836116b2565b5050565b600c602052806000526040600020600091509050806000018054610cb090613086565b80601f0160208091040260200160405190810160405280929190818152602001828054610cdc90613086565b8015610d295780601f10610cfe57610100808354040283529160200191610d29565b820191906000526020600020905b815481529060010190602001808311610d0c57829003601f168201915b505050505090806001018054610d3e90613086565b80601f0160208091040260200160405190810160405280929190818152602001828054610d6a90613086565b8015610db75780601f10610d8c57610100808354040283529160200191610db7565b820191906000526020600020905b815481529060010190602001808311610d9a57829003601f168201915b5050505050905082565b610dd2610dcc6111a4565b83611265565b610e11576040517f08c379a0000000000000000000000000000000000000000000000000000000008152600401610e0890612df0565b60405180910390fd5b610e1d8484848461181f565b50505050565b6060610e2e82611138565b610e6d576040517f08c379a0000000000000000000000000000000000000000000000000000000008152600401610e6490612db0565b60405180910390fd5b6000610e7761187b565b90506000815111610e975760405180602001604052806000815250610ec2565b80610ea184611892565b604051602001610eb2929190612af1565b6040516020818303038152906040525b915050919050565b6000600560008473ffffffffffffffffffffffffffffffffffffffff1673ffffffffffffffffffffffffffffffffffffffff16815260200190815260200160002060008373ffffffffffffffffffffffffffffffffffffffff1673ffffffffffffffffffffffffffffffffffffffff16815260200190815260200160002060009054906101000a900460ff16905092915050565b610f666111a4565b73ffffffffffffffffffffffffffffffffffffffff16610f84610bbb565b73ffffffffffffffffffffffffffffffffffffffff1614610fda576040517f08c379a0000000000000000000000000000000000000000000000000000000008152600401610fd190612d90565b60405180910390fd5b600073ffffffffffffffffffffffffffffffffffffffff168173ffffffffffffffffffffffffffffffffffffffff16141561104a576040517f08c379a000000000000000000000000000000000000000000000000000000000815260040161104190612c30565b60405180910390fd5b611053816115ec565b50565b60007f80ac58cd000000000000000000000000000000000000000000000000000000007bffffffffffffffffffffffffffffffffffffffffffffffffffffffff1916827bffffffffffffffffffffffffffffffffffffffffffffffffffffffff1916148061112157507f5b5e139f000000000000000000000000000000000000000000000000000000007bffffffffffffffffffffffffffffffffffffffffffffffffffffffff1916827bffffffffffffffffffffffffffffffffffffffffffffffffffffffff1916145b80611131575061113082611a3f565b5b9050919050565b60008073ffffffffffffffffffffffffffffffffffffffff166002600084815260200190815260200160002060009054906101000a900473ffffffffffffffffffffffffffffffffffffffff1673ffffffffffffffffffffffffffffffffffffffff1614159050919050565b600033905090565b816004600083815260200190815260200160002060006101000a81548173ffffffffffffffffffffffffffffffffffffffff021916908373ffffffffffffffffffffffffffffffffffffffff160217905550808273ffffffffffffffffffffffffffffffffffffffff1661121f836108b9565b73ffffffffffffffffffffffffffffffffffffffff167f8c5be1e5ebec7d5bd14f71427d1e84f3dd0314c0f7b2291e5b200ac8c7c3b92560405160405180910390a45050565b600061127082611138565b6112af576040517f08c379a00000000000000000000000000000000000000000000000000000000081526004016112a690612cd0565b60405180910390fd5b60006112ba836108b9565b90508073ffffffffffffffffffffffffffffffffffffffff168473ffffffffffffffffffffffffffffffffffffffff16148061132957508373ffffffffffffffffffffffffffffffffffffffff1661131184610553565b73ffffffffffffffffffffffffffffffffffffffff16145b8061133a57506113398185610eca565b5b91505092915050565b8273ffffffffffffffffffffffffffffffffffffffff16611363826108b9565b73ffffffffffffffffffffffffffffffffffffffff16146113b9576040517f08c379a00000000000000000000000000000000000000000000000000000000081526004016113b090612c50565b60405180910390fd5b600073ffffffffffffffffffffffffffffffffffffffff168273ffffffffffffffffffffffffffffffffffffffff161415611429576040517f08c379a000000000000000000000000000000000000000000000000000000000815260040161142090612c90565b60405180910390fd5b611434838383611aa9565b61143f6000826111ac565b6001600360008573ffffffffffffffffffffffffffffffffffffffff1673ffffffffffffffffffffffffffffffffffffffff168152602001908152602001600020600082825461148f9190612f9c565b925050819055506001600360008473ffffffffffffffffffffffffffffffffffffffff1673ffffffffffffffffffffffffffffffffffffffff16815260200190815260200160002060008282546114e69190612f15565b92505081905550816002600083815260200190815260200160002060006101000a81548173ffffffffffffffffffffffffffffffffffffffff021916908373ffffffffffffffffffffffffffffffffffffffff160217905550808273ffffffffffffffffffffffffffffffffffffffff168473ffffffffffffffffffffffffffffffffffffffff167fddf252ad1be2c89b69c2b068fc378daa952ba7f163c4a11628f55a4df523b3ef60405160405180910390a46115a5838383611bbd565b505050565b6001816000016000828254019250508190555050565b600081600001549050919050565b6115e8828260405180602001604052806000815250611bc2565b5050565b6000600a60009054906101000a900473ffffffffffffffffffffffffffffffffffffffff16905081600a60006101000a81548173ffffffffffffffffffffffffffffffffffffffff021916908373ffffffffffffffffffffffffffffffffffffffff1602179055508173ffffffffffffffffffffffffffffffffffffffff168173ffffffffffffffffffffffffffffffffffffffff167f8be0079c531659141344cd1fd0a4f28419497f9722a3daafe3b4186f6b6457e060405160405180910390a35050565b8173ffffffffffffffffffffffffffffffffffffffff168373ffffffffffffffffffffffffffffffffffffffff161415611721576040517f08c379a000000000000000000000000000000000000000000000000000000000815260040161171890612cb0565b60405180910390fd5b80600560008573ffffffffffffffffffffffffffffffffffffffff1673ffffffffffffffffffffffffffffffffffffffff16815260200190815260200160002060008473ffffffffffffffffffffffffffffffffffffffff1673ffffffffffffffffffffffffffffffffffffffff16815260200190815260200160002060006101000a81548160ff0219169083151502179055508173ffffffffffffffffffffffffffffffffffffffff168373ffffffffffffffffffffffffffffffffffffffff167f17307eab39ab6107e8899845ad3d59bd9653f200f220920489ca2b5937696c31836040516118129190612b7c565b60405180910390a3505050565b61182a848484611343565b61183684848484611c1d565b611875576040517f08c379a000000000000000000000000000000000000000000000000000000000815260040161186c90612c10565b60405180910390fd5b50505050565b606060405180602001604052806000815250905090565b606060008214156118da576040518060400160405280600181526020017f30000000000000000000000000000000000000000000000000000000000000008152509050611a3a565b600082905060005b6000821461190c5780806118f5906130e9565b915050600a826119059190612f6b565b91506118e2565b60008167ffffffffffffffff81111561194e577f4e487b7100000000000000000000000000000000000000000000000000000000600052604160045260246000fd5b6040519080825280601f01601f1916602001820160405280156119805781602001600182028036833780820191505090505b5090505b60008514611a33576001826119999190612f9c565b9150600a856119a89190613132565b60306119b49190612f15565b60f81b8183815181106119f0577f4e487b7100000000000000000000000000000000000000000000000000000000600052603260045260246000fd5b60200101907effffffffffffffffffffffffffffffffffffffffffffffffffffffffffffff1916908160001a905350600a85611a2c9190612f6b565b9450611984565b8093505050505b919050565b60007f01ffc9a7000000000000000000000000000000000000000000000000000000007bffffffffffffffffffffffffffffffffffffffffffffffffffffffff1916827bffffffffffffffffffffffffffffffffffffffffffffffffffffffff1916149050919050565b611ab4838383611db4565b600073ffffffffffffffffffffffffffffffffffffffff168373ffffffffffffffffffffffffffffffffffffffff161415611af757611af281611db9565b611b36565b8173ffffffffffffffffffffffffffffffffffffffff168373ffffffffffffffffffffffffffffffffffffffff1614611b3557611b348382611e02565b5b5b600073ffffffffffffffffffffffffffffffffffffffff168273ffffffffffffffffffffffffffffffffffffffff161415611b7957611b7481611f6f565b611bb8565b8273ffffffffffffffffffffffffffffffffffffffff168273ffffffffffffffffffffffffffffffffffffffff1614611bb757611bb682826120b2565b5b5b505050565b505050565b611bcc8383612131565b611bd96000848484611c1d565b611c18576040517f08c379a0000000000000000000000000000000000000000000000000000000008152600401611c0f90612c10565b60405180910390fd5b505050565b6000611c3e8473ffffffffffffffffffffffffffffffffffffffff1661230b565b15611da7578373ffffffffffffffffffffffffffffffffffffffff1663150b7a02611c676111a4565b8786866040518563ffffffff1660e01b8152600401611c899493929190612b30565b602060405180830381600087803b158015611ca357600080fd5b505af1925050508015611cd457506040513d601f19601f82011682018060405250810190611cd19190612759565b60015b611d57573d8060008114611d04576040519150601f19603f3d011682016040523d82523d6000602084013e611d09565b606091505b50600081511415611d4f576040517f08c379a0000000000000000000000000000000000000000000000000000000008152600401611d4690612c10565b60405180910390fd5b805181602001fd5b63150b7a0260e01b7bffffffffffffffffffffffffffffffffffffffffffffffffffffffff1916817bffffffffffffffffffffffffffffffffffffffffffffffffffffffff191614915050611dac565b600190505b949350505050565b505050565b6008805490506009600083815260200190815260200160002081905550600881908060018154018082558091505060019003906000526020600020016000909190919091505550565b60006001611e0f84610a7b565b611e199190612f9c565b9050600060076000848152602001908152602001600020549050818114611efe576000600660008673ffffffffffffffffffffffffffffffffffffffff1673ffffffffffffffffffffffffffffffffffffffff168152602001908152602001600020600084815260200190815260200160002054905080600660008773ffffffffffffffffffffffffffffffffffffffff1673ffffffffffffffffffffffffffffffffffffffff168152602001908152602001600020600084815260200190815260200160002081905550816007600083815260200190815260200160002081905550505b6007600084815260200190815260200160002060009055600660008573ffffffffffffffffffffffffffffffffffffffff1673ffffffffffffffffffffffffffffffffffffffff16815260200190815260200160002060008381526020019081526020016000206000905550505050565b60006001600880549050611f839190612f9c565b9050600060096000848152602001908152602001600020549050600060088381548110611fd9577f4e487b7100000000000000000000000000000000000000000000000000000000600052603260045260246000fd5b906000526020600020015490508060088381548110612021577f4e487b7100000000000000000000000000000000000000000000000000000000600052603260045260246000fd5b906000526020600020018190555081600960008381526020019081526020016000208190555060096000858152602001908152602001600020600090556008805480612096577f4e487b7100000000000000000000000000000000000000000000000000000000600052603160045260246000fd5b6001900381819060005260206000200160009055905550505050565b60006120bd83610a7b565b905081600660008573ffffffffffffffffffffffffffffffffffffffff1673ffffffffffffffffffffffffffffffffffffffff168152602001908152602001600020600083815260200190815260200160002081905550806007600084815260200190815260200160002081905550505050565b600073ffffffffffffffffffffffffffffffffffffffff168273ffffffffffffffffffffffffffffffffffffffff1614156121a1576040517f08c379a000000000000000000000000000000000000000000000000000000000815260040161219890612d50565b60405180910390fd5b6121aa81611138565b156121ea576040517f08c379a00000000000000000000000000000000000000000000000000000000081526004016121e190612c70565b60405180910390fd5b6121f660008383611aa9565b6001600360008473ffffffffffffffffffffffffffffffffffffffff1673ffffffffffffffffffffffffffffffffffffffff16815260200190815260200160002060008282546122469190612f15565b92505081905550816002600083815260200190815260200160002060006101000a81548173ffffffffffffffffffffffffffffffffffffffff021916908373ffffffffffffffffffffffffffffffffffffffff160217905550808273ffffffffffffffffffffffffffffffffffffffff16600073ffffffffffffffffffffffffffffffffffffffff167fddf252ad1be2c89b69c2b068fc378daa952ba7f163c4a11628f55a4df523b3ef60405160405180910390a461230760008383611bbd565b5050565b6000808273ffffffffffffffffffffffffffffffffffffffff163b119050919050565b82805461233a90613086565b90600052602060002090601f01602090048101928261235c57600085556123a3565b82601f1061237557805160ff19168380011785556123a3565b828001600101855582156123a3579182015b828111156123a2578251825591602001919060010190612387565b5b5090506123b091906123b4565b5090565b5b808211156123cd5760008160009055506001016123b5565b5090565b60006123e46123df84612e70565b612e4b565b9050828152602081018484840111156123fc57600080fd5b612407848285613044565b509392505050565b600061242261241d84612ea1565b612e4b565b90508281526020810184848401111561243a57600080fd5b612445848285613044565b509392505050565b60008135905061245c81613726565b92915050565b6000813590506124718161373d565b92915050565b60008135905061248681613754565b92915050565b60008151905061249b81613754565b92915050565b600082601f8301126124b257600080fd5b81356124c28482602086016123d1565b91505092915050565b600082601f8301126124dc57600080fd5b81356124ec84826020860161240f565b91505092915050565b6000813590506125048161376b565b92915050565b60006020828403121561251c57600080fd5b600061252a8482850161244d565b91505092915050565b6000806040838503121561254657600080fd5b60006125548582860161244d565b92505060206125658582860161244d565b9150509250929050565b60008060006060848603121561258457600080fd5b60006125928682870161244d565b93505060206125a38682870161244d565b92505060406125b4868287016124f5565b9150509250925092565b600080600080608085870312156125d457600080fd5b60006125e28782880161244d565b94505060206125f38782880161244d565b9350506040612604878288016124f5565b925050606085013567ffffffffffffffff81111561262157600080fd5b61262d878288016124a1565b91505092959194509250565b6000806040838503121561264c57600080fd5b600061265a8582860161244d565b925050602061266b85828601612462565b9150509250929050565b60008060006060848603121561268a57600080fd5b60006126988682870161244d565b935050602084013567ffffffffffffffff8111156126b557600080fd5b6126c1868287016124cb565b925050604084013567ffffffffffffffff8111156126de57600080fd5b6126ea868287016124cb565b9150509250925092565b6000806040838503121561270757600080fd5b60006127158582860161244d565b9250506020612726858286016124f5565b9150509250929050565b60006020828403121561274257600080fd5b600061275084828501612477565b91505092915050565b60006020828403121561276b57600080fd5b60006127798482850161248c565b91505092915050565b60006020828403121561279457600080fd5b60006127a2848285016124f5565b91505092915050565b6127b481612fd0565b82525050565b6127c381612fe2565b82525050565b60006127d482612ed2565b6127de8185612ee8565b93506127ee818560208601613053565b6127f78161321f565b840191505092915050565b600061280d82612edd565b6128178185612ef9565b9350612827818560208601613053565b6128308161321f565b840191505092915050565b600061284682612edd565b6128508185612f0a565b9350612860818560208601613053565b80840191505092915050565b6000612879602b83612ef9565b915061288482613230565b604082019050919050565b600061289c603283612ef9565b91506128a78261327f565b604082019050919050565b60006128bf602683612ef9565b91506128ca826132ce565b604082019050919050565b60006128e2602583612ef9565b91506128ed8261331d565b604082019050919050565b6000612905601c83612ef9565b91506129108261336c565b602082019050919050565b6000612928602483612ef9565b915061293382613395565b604082019050919050565b600061294b601983612ef9565b9150612956826133e4565b602082019050919050565b600061296e602c83612ef9565b91506129798261340d565b604082019050919050565b6000612991603883612ef9565b915061299c8261345c565b604082019050919050565b60006129b4602a83612ef9565b91506129bf826134ab565b604082019050919050565b60006129d7602983612ef9565b91506129e2826134fa565b604082019050919050565b60006129fa602083612ef9565b9150612a0582613549565b602082019050919050565b6000612a1d602c83612ef9565b9150612a2882613572565b604082019050919050565b6000612a40602083612ef9565b9150612a4b826135c1565b602082019050919050565b6000612a63602f83612ef9565b9150612a6e826135ea565b604082019050919050565b6000612a86602183612ef9565b9150612a9182613639565b604082019050919050565b6000612aa9603183612ef9565b9150612ab482613688565b604082019050919050565b6000612acc602c83612ef9565b9150612ad7826136d7565b604082019050919050565b612aeb8161303a565b82525050565b6000612afd828561283b565b9150612b09828461283b565b91508190509392505050565b6000602082019050612b2a60008301846127ab565b92915050565b6000608082019050612b4560008301876127ab565b612b5260208301866127ab565b612b5f6040830185612ae2565b8181036060830152612b7181846127c9565b905095945050505050565b6000602082019050612b9160008301846127ba565b92915050565b60006020820190508181036000830152612bb18184612802565b905092915050565b60006040820190508181036000830152612bd38185612802565b90508181036020830152612be78184612802565b90509392505050565b60006020820190508181036000830152612c098161286c565b9050919050565b60006020820190508181036000830152612c298161288f565b9050919050565b60006020820190508181036000830152612c49816128b2565b9050919050565b60006020820190508181036000830152612c69816128d5565b9050919050565b60006020820190508181036000830152612c89816128f8565b9050919050565b60006020820190508181036000830152612ca98161291b565b9050919050565b60006020820190508181036000830152612cc98161293e565b9050919050565b60006020820190508181036000830152612ce981612961565b9050919050565b60006020820190508181036000830152612d0981612984565b9050919050565b60006020820190508181036000830152612d29816129a7565b9050919050565b60006020820190508181036000830152612d49816129ca565b9050919050565b60006020820190508181036000830152612d69816129ed565b9050919050565b60006020820190508181036000830152612d8981612a10565b9050919050565b60006020820190508181036000830152612da981612a33565b9050919050565b60006020820190508181036000830152612dc981612a56565b9050919050565b60006020820190508181036000830152612de981612a79565b9050919050565b60006020820190508181036000830152612e0981612a9c565b9050919050565b60006020820190508181036000830152612e2981612abf565b9050919050565b6000602082019050612e456000830184612ae2565b92915050565b6000612e55612e66565b9050612e6182826130b8565b919050565b6000604051905090565b600067ffffffffffffffff821115612e8b57612e8a6131f0565b5b612e948261321f565b9050602081019050919050565b600067ffffffffffffffff821115612ebc57612ebb6131f0565b5b612ec58261321f565b9050602081019050919050565b600081519050919050565b600081519050919050565b600082825260208201905092915050565b600082825260208201905092915050565b600081905092915050565b6000612f208261303a565b9150612f2b8361303a565b9250827fffffffffffffffffffffffffffffffffffffffffffffffffffffffffffffffff03821115612f6057612f5f613163565b5b828201905092915050565b6000612f768261303a565b9150612f818361303a565b925082612f9157612f90613192565b5b828204905092915050565b6000612fa78261303a565b9150612fb28361303a565b925082821015612fc557612fc4613163565b5b828203905092915050565b6000612fdb8261301a565b9050919050565b60008115159050919050565b60007fffffffff0000000000000000000000000000000000000000000000000000000082169050919050565b600073ffffffffffffffffffffffffffffffffffffffff82169050919050565b6000819050919050565b82818337600083830152505050565b60005b83811015613071578082015181840152602081019050613056565b83811115613080576000848401525b50505050565b6000600282049050600182168061309e57607f821691505b602082108114156130b2576130b16131c1565b5b50919050565b6130c18261321f565b810181811067ffffffffffffffff821117156130e0576130df6131f0565b5b80604052505050565b60006130f48261303a565b91507fffffffffffffffffffffffffffffffffffffffffffffffffffffffffffffffff82141561312757613126613163565b5b600182019050919050565b600061313d8261303a565b91506131488361303a565b92508261315857613157613192565b5b828206905092915050565b7f4e487b7100000000000000000000000000000000000000000000000000000000600052601160045260246000fd5b7f4e487b7100000000000000000000000000000000000000000000000000000000600052601260045260246000fd5b7f4e487b7100000000000000000000000000000000000000000000000000000000600052602260045260246000fd5b7f4e487b7100000000000000000000000000000000000000000000000000000000600052604160045260246000fd5b6000601f19601f8301169050919050565b7f455243373231456e756d657261626c653a206f776e657220696e646578206f7560008201527f74206f6620626f756e6473000000000000000000000000000000000000000000602082015250565b7f4552433732313a207472616e7366657220746f206e6f6e20455243373231526560008201527f63656976657220696d706c656d656e7465720000000000000000000000000000602082015250565b7f4f776e61626c653a206e6577206f776e657220697320746865207a65726f206160008201527f6464726573730000000000000000000000000000000000000000000000000000602082015250565b7f4552433732313a207472616e736665722066726f6d20696e636f72726563742060008201527f6f776e6572000000000000000000000000000000000000000000000000000000602082015250565b7f4552433732313a20746f6b656e20616c7265616479206d696e74656400000000600082015250565b7f4552433732313a207472616e7366657220746f20746865207a65726f2061646460008201527f7265737300000000000000000000000000000000000000000000000000000000602082015250565b7f4552433732313a20617070726f766520746f2063616c6c657200000000000000600082015250565b7f4552433732313a206f70657261746f7220717565727920666f72206e6f6e657860008201527f697374656e7420746f6b656e0000000000000000000000000000000000000000602082015250565b7f4552433732313a20617070726f76652063616c6c6572206973206e6f74206f7760008201527f6e6572206e6f7220617070726f76656420666f7220616c6c0000000000000000602082015250565b7f4552433732313a2062616c616e636520717565727920666f7220746865207a6560008201527f726f206164647265737300000000000000000000000000000000000000000000602082015250565b7f4552433732313a206f776e657220717565727920666f72206e6f6e657869737460008201527f656e7420746f6b656e0000000000000000000000000000000000000000000000602082015250565b7f4552433732313a206d696e7420746f20746865207a65726f2061646472657373600082015250565b7f4552433732313a20617070726f76656420717565727920666f72206e6f6e657860008201527f697374656e7420746f6b656e0000000000000000000000000000000000000000602082015250565b7f4f776e61626c653a2063616c6c6572206973206e6f7420746865206f776e6572600082015250565b7f4552433732314d657461646174613a2055524920717565727920666f72206e6f60008201527f6e6578697374656e7420746f6b656e0000000000000000000000000000000000602082015250565b7f4552433732313a20617070726f76616c20746f2063757272656e74206f776e6560008201527f7200000000000000000000000000000000000000000000000000000000000000602082015250565b7f4552433732313a207472616e736665722063616c6c6572206973206e6f74206f60008201527f776e6572206e6f7220617070726f766564000000000000000000000000000000602082015250565b7f455243373231456e756d657261626c653a20676c6f62616c20696e646578206f60008201527f7574206f6620626f756e64730000000000000000000000000000000000000000602082015250565b61372f81612fd0565b811461373a57600080fd5b50565b61374681612fe2565b811461375157600080fd5b50565b61375d81612fee565b811461376857600080fd5b50565b6137748161303a565b811461377f57600080fd5b5056fea2646970667358221220f837289d333f6f6eb367d1327adfd4bd478cd68508055c86731335bc69340ac464736f6c63430008040033",
  "immutableReferences": {},
  "source": "// SPDX-License-Identifier: MIT\npragma solidity ^0.8.0;\n\nimport '@openzeppelin/contracts/access/Ownable.sol';\nimport '@openzeppelin/contracts/token/ERC721/extensions/ERC721Enumerable.sol';\nimport '@openzeppelin/contracts/utils/Counters.sol';\n\ncontract PackageToken is ERC721Enumerable, Ownable {\n\n    using Counters for Counters.Counter;\n\n    struct PackageInfo {\n        string packageContents;\n        string packageWeight;\n    }\n\n    Counters.Counter private _tokenIds;\n\n    mapping(uint256 => PackageInfo) public packageData;\n  \n    constructor() ERC721(\"PackageToken\", \"PKG\") {}\n\n    function createPackage(address packageSender, string memory packageContents, string memory packageWeight) external onlyOwner returns (uint256) {\n        _tokenIds.increment();\n        \n        uint256 newPackageId = _tokenIds.current();\n        _safeMint(packageSender, newPackageId);\n        packageData[newPackageId] = PackageInfo(packageContents, packageWeight);\n\n        return newPackageId;\n    }\n\n}\n",
  "sourcePath": "/home/james/Workspaces/tracking-demo/contracts/PackageToken.sol",
  "compiler": {
    "name": "solc",
    "version": "0.8.4+commit.c7e474f2.Emscripten.clang"
  },
  "schemaVersion": "3.4.6",
  "updatedAt": "2022-05-24T15:03:45.466Z",
  "networkType": "ethereum",
  "devdoc": {
    "kind": "dev",
    "methods": {
      "approve(address,uint256)": {
        "details": "See {IERC721-approve}."
      },
      "balanceOf(address)": {
        "details": "See {IERC721-balanceOf}."
      },
      "getApproved(uint256)": {
        "details": "See {IERC721-getApproved}."
      },
      "isApprovedForAll(address,address)": {
        "details": "See {IERC721-isApprovedForAll}."
      },
      "name()": {
        "details": "See {IERC721Metadata-name}."
      },
      "owner()": {
        "details": "Returns the address of the current owner."
      },
      "ownerOf(uint256)": {
        "details": "See {IERC721-ownerOf}."
      },
      "renounceOwnership()": {
        "details": "Leaves the contract without owner. It will not be possible to call `onlyOwner` functions anymore. Can only be called by the current owner. NOTE: Renouncing ownership will leave the contract without an owner, thereby removing any functionality that is only available to the owner."
      },
      "safeTransferFrom(address,address,uint256)": {
        "details": "See {IERC721-safeTransferFrom}."
      },
      "safeTransferFrom(address,address,uint256,bytes)": {
        "details": "See {IERC721-safeTransferFrom}."
      },
      "setApprovalForAll(address,bool)": {
        "details": "See {IERC721-setApprovalForAll}."
      },
      "supportsInterface(bytes4)": {
        "details": "See {IERC165-supportsInterface}."
      },
      "symbol()": {
        "details": "See {IERC721Metadata-symbol}."
      },
      "tokenByIndex(uint256)": {
        "details": "See {IERC721Enumerable-tokenByIndex}."
      },
      "tokenOfOwnerByIndex(address,uint256)": {
        "details": "See {IERC721Enumerable-tokenOfOwnerByIndex}."
      },
      "tokenURI(uint256)": {
        "details": "See {IERC721Metadata-tokenURI}."
      },
      "totalSupply()": {
        "details": "See {IERC721Enumerable-totalSupply}."
      },
      "transferFrom(address,address,uint256)": {
        "details": "See {IERC721-transferFrom}."
      },
      "transferOwnership(address)": {
        "details": "Transfers ownership of the contract to a new account (`newOwner`). Can only be called by the current owner."
      }
    },
    "version": 1
  },
  "userdoc": {
    "kind": "user",
    "methods": {},
    "version": 1
  }
}