{
  "contractName": "PackageToken",
  "abi": [
    {
      "inputs": [],
      "stateMutability": "nonpayable",
      "type": "constructor"
    },
    {
      "anonymous": false,
      "inputs": [
        {
          "indexed": true,
          "internalType": "address",
          "name": "owner",
          "type": "address"
        },
        {
          "indexed": true,
          "internalType": "address",
          "name": "approved",
          "type": "address"
        },
        {
          "indexed": true,
          "internalType": "uint256",
          "name": "tokenId",
          "type": "uint256"
        }
      ],
      "name": "Approval",
      "type": "event"
    },
    {
      "anonymous": false,
      "inputs": [
        {
          "indexed": true,
          "internalType": "address",
          "name": "owner",
          "type": "address"
        },
        {
          "indexed": true,
          "internalType": "address",
          "name": "operator",
          "type": "address"
        },
        {
          "indexed": false,
          "internalType": "bool",
          "name": "approved",
          "type": "bool"
        }
      ],
      "name": "ApprovalForAll",
      "type": "event"
    },
    {
      "anonymous": false,
      "inputs": [
        {
          "indexed": true,
          "internalType": "address",
          "name": "from",
          "type": "address"
        },
        {
          "indexed": true,
          "internalType": "address",
          "name": "to",
          "type": "address"
        },
        {
          "indexed": true,
          "internalType": "uint256",
          "name": "tokenId",
          "type": "uint256"
        }
      ],
      "name": "Transfer",
      "type": "event"
    },
    {
      "inputs": [
        {
          "internalType": "address",
          "name": "to",
          "type": "address"
        },
        {
          "internalType": "uint256",
          "name": "tokenId",
          "type": "uint256"
        }
      ],
      "name": "approve",
      "outputs": [],
      "stateMutability": "nonpayable",
      "type": "function"
    },
    {
      "inputs": [
        {
          "internalType": "address",
          "name": "owner",
          "type": "address"
        }
      ],
      "name": "balanceOf",
      "outputs": [
        {
          "internalType": "uint256",
          "name": "",
          "type": "uint256"
        }
      ],
      "stateMutability": "view",
      "type": "function"
    },
    {
      "inputs": [
        {
          "internalType": "uint256",
          "name": "tokenId",
          "type": "uint256"
        }
      ],
      "name": "getApproved",
      "outputs": [
        {
          "internalType": "address",
          "name": "",
          "type": "address"
        }
      ],
      "stateMutability": "view",
      "type": "function"
    },
    {
      "inputs": [
        {
          "internalType": "address",
          "name": "owner",
          "type": "address"
        },
        {
          "internalType": "address",
          "name": "operator",
          "type": "address"
        }
      ],
      "name": "isApprovedForAll",
      "outputs": [
        {
          "internalType": "bool",
          "name": "",
          "type": "bool"
        }
      ],
      "stateMutability": "view",
      "type": "function"
    },
    {
      "inputs": [],
      "name": "name",
      "outputs": [
        {
          "internalType": "string",
          "name": "",
          "type": "string"
        }
      ],
      "stateMutability": "view",
      "type": "function"
    },
    {
      "inputs": [
        {
          "internalType": "uint256",
          "name": "tokenId",
          "type": "uint256"
        }
      ],
      "name": "ownerOf",
      "outputs": [
        {
          "internalType": "address",
          "name": "",
          "type": "address"
        }
      ],
      "stateMutability": "view",
      "type": "function"
    },
    {
      "inputs": [
        {
          "internalType": "uint256",
          "name": "",
          "type": "uint256"
        }
      ],
      "name": "packageData",
      "outputs": [
        {
          "internalType": "string",
          "name": "packageContents",
          "type": "string"
        },
        {
          "internalType": "string",
          "name": "packageWeight",
          "type": "string"
        }
      ],
      "stateMutability": "view",
      "type": "function"
    },
    {
      "inputs": [
        {
          "internalType": "address",
          "name": "from",
          "type": "address"
        },
        {
          "internalType": "address",
          "name": "to",
          "type": "address"
        },
        {
          "internalType": "uint256",
          "name": "tokenId",
          "type": "uint256"
        }
      ],
      "name": "safeTransferFrom",
      "outputs": [],
      "stateMutability": "nonpayable",
      "type": "function"
    },
    {
      "inputs": [
        {
          "internalType": "address",
          "name": "from",
          "type": "address"
        },
        {
          "internalType": "address",
          "name": "to",
          "type": "address"
        },
        {
          "internalType": "uint256",
          "name": "tokenId",
          "type": "uint256"
        },
        {
          "internalType": "bytes",
          "name": "_data",
          "type": "bytes"
        }
      ],
      "name": "safeTransferFrom",
      "outputs": [],
      "stateMutability": "nonpayable",
      "type": "function"
    },
    {
      "inputs": [
        {
          "internalType": "address",
          "name": "operator",
          "type": "address"
        },
        {
          "internalType": "bool",
          "name": "approved",
          "type": "bool"
        }
      ],
      "name": "setApprovalForAll",
      "outputs": [],
      "stateMutability": "nonpayable",
      "type": "function"
    },
    {
      "inputs": [
        {
          "internalType": "bytes4",
          "name": "interfaceId",
          "type": "bytes4"
        }
      ],
      "name": "supportsInterface",
      "outputs": [
        {
          "internalType": "bool",
          "name": "",
          "type": "bool"
        }
      ],
      "stateMutability": "view",
      "type": "function"
    },
    {
      "inputs": [],
      "name": "symbol",
      "outputs": [
        {
          "internalType": "string",
          "name": "",
          "type": "string"
        }
      ],
      "stateMutability": "view",
      "type": "function"
    },
    {
      "inputs": [
        {
          "internalType": "uint256",
          "name": "tokenId",
          "type": "uint256"
        }
      ],
      "name": "tokenURI",
      "outputs": [
        {
          "internalType": "string",
          "name": "",
          "type": "string"
        }
      ],
      "stateMutability": "view",
      "type": "function"
    },
    {
      "inputs": [
        {
          "internalType": "address",
          "name": "from",
          "type": "address"
        },
        {
          "internalType": "address",
          "name": "to",
          "type": "address"
        },
        {
          "internalType": "uint256",
          "name": "tokenId",
          "type": "uint256"
        }
      ],
      "name": "transferFrom",
      "outputs": [],
      "stateMutability": "nonpayable",
      "type": "function"
    },
    {
      "inputs": [
        {
          "internalType": "address",
          "name": "packageSender",
          "type": "address"
        },
        {
          "internalType": "string",
          "name": "packageContents",
          "type": "string"
        },
        {
          "internalType": "string",
          "name": "packageWeight",
          "type": "string"
        }
      ],
      "name": "createPackage",
      "outputs": [
        {
          "internalType": "uint256",
          "name": "",
          "type": "uint256"
        }
      ],
      "stateMutability": "nonpayable",
      "type": "function"
    }
  ],
  "bytecode": "0x60806040523480156200001157600080fd5b506040518060400160405280600c81526020017f5061636b616765546f6b656e00000000000000000000000000000000000000008152506040518060400160405280600381526020017f504b470000000000000000000000000000000000000000000000000000000000815250816000908051906020019062000096929190620000b8565b508060019080519060200190620000af929190620000b8565b505050620001cd565b828054620000c69062000168565b90600052602060002090601f016020900481019282620000ea576000855562000136565b82601f106200010557805160ff191683800117855562000136565b8280016001018555821562000136579182015b828111156200013557825182559160200191906001019062000118565b5b50905062000145919062000149565b5090565b5b80821115620001645760008160009055506001016200014a565b5090565b600060028204905060018216806200018157607f821691505b602082108114156200019857620001976200019e565b5b50919050565b7f4e487b7100000000000000000000000000000000000000000000000000000000600052602260045260246000fd5b612b5780620001dd6000396000f3fe608060405234801561001057600080fd5b50600436106100f55760003560e01c80636c8d753511610097578063abc7854411610066578063abc7854414610296578063b88d4fde146102c7578063c87b56dd146102e3578063e985e9c514610313576100f5565b80636c8d7535146101fc57806370a082311461022c57806395d89b411461025c578063a22cb4651461027a576100f5565b8063095ea7b3116100d3578063095ea7b31461017857806323b872dd1461019457806342842e0e146101b05780636352211e146101cc576100f5565b806301ffc9a7146100fa57806306fdde031461012a578063081812fc14610148575b600080fd5b610114600480360381019061010f9190611cf1565b610343565b60405161012191906120b1565b60405180910390f35b610132610425565b60405161013f91906120cc565b60405180910390f35b610162600480360381019061015d9190611d43565b6104b7565b60405161016f919061204a565b60405180910390f35b610192600480360381019061018d9190611cb5565b61053c565b005b6101ae60048036038101906101a99190611b30565b610654565b005b6101ca60048036038101906101c59190611b30565b6106b4565b005b6101e660048036038101906101e19190611d43565b6106d4565b6040516101f3919061204a565b60405180910390f35b61021660048036038101906102119190611c36565b610786565b60405161022391906122e5565b60405180910390f35b61024660048036038101906102419190611acb565b61081a565b60405161025391906122e5565b60405180910390f35b6102646108d2565b60405161027191906120cc565b60405180910390f35b610294600480360381019061028f9190611bfa565b610964565b005b6102b060048036038101906102ab9190611d43565b61097a565b6040516102be9291906120ee565b60405180910390f35b6102e160048036038101906102dc9190611b7f565b610aae565b005b6102fd60048036038101906102f89190611d43565b610b10565b60405161030a91906120cc565b60405180910390f35b61032d60048036038101906103289190611af4565b610bb7565b60405161033a91906120b1565b60405180910390f35b60007f80ac58cd000000000000000000000000000000000000000000000000000000007bffffffffffffffffffffffffffffffffffffffffffffffffffffffff1916827bffffffffffffffffffffffffffffffffffffffffffffffffffffffff1916148061040e57507f5b5e139f000000000000000000000000000000000000000000000000000000007bffffffffffffffffffffffffffffffffffffffffffffffffffffffff1916827bffffffffffffffffffffffffffffffffffffffffffffffffffffffff1916145b8061041e575061041d82610c4b565b5b9050919050565b6060600080546104349061253b565b80601f01602080910402602001604051908101604052809291908181526020018280546104609061253b565b80156104ad5780601f10610482576101008083540402835291602001916104ad565b820191906000526020600020905b81548152906001019060200180831161049057829003601f168201915b5050505050905090565b60006104c282610cb5565b610501576040517f08c379a00000000000000000000000000000000000000000000000000000000081526004016104f890612265565b60405180910390fd5b6004600083815260200190815260200160002060009054906101000a900473ffffffffffffffffffffffffffffffffffffffff169050919050565b6000610547826106d4565b90508073ffffffffffffffffffffffffffffffffffffffff168373ffffffffffffffffffffffffffffffffffffffff1614156105b8576040517f08c379a00000000000000000000000000000000000000000000000000000000081526004016105af906122a5565b60405180910390fd5b8073ffffffffffffffffffffffffffffffffffffffff166105d7610d21565b73ffffffffffffffffffffffffffffffffffffffff161480610606575061060581610600610d21565b610bb7565b5b610645576040517f08c379a000000000000000000000000000000000000000000000000000000000815260040161063c906121e5565b60405180910390fd5b61064f8383610d29565b505050565b61066561065f610d21565b82610de2565b6106a4576040517f08c379a000000000000000000000000000000000000000000000000000000000815260040161069b906122c5565b60405180910390fd5b6106af838383610ec0565b505050565b6106cf83838360405180602001604052806000815250610aae565b505050565b6000806002600084815260200190815260200160002060009054906101000a900473ffffffffffffffffffffffffffffffffffffffff169050600073ffffffffffffffffffffffffffffffffffffffff168173ffffffffffffffffffffffffffffffffffffffff16141561077d576040517f08c379a000000000000000000000000000000000000000000000000000000000815260040161077490612225565b60405180910390fd5b80915050919050565b60006107926006611127565b600061079e600661113d565b90506107aa858261114b565b6040518060400160405280858152602001848152506007600083815260200190815260200160002060008201518160000190805190602001906107ee9291906118ef565b50602082015181600101908051906020019061080b9291906118ef565b50905050809150509392505050565b60008073ffffffffffffffffffffffffffffffffffffffff168273ffffffffffffffffffffffffffffffffffffffff16141561088b576040517f08c379a000000000000000000000000000000000000000000000000000000000815260040161088290612205565b60405180910390fd5b600360008373ffffffffffffffffffffffffffffffffffffffff1673ffffffffffffffffffffffffffffffffffffffff168152602001908152602001600020549050919050565b6060600180546108e19061253b565b80601f016020809104026020016040519081016040528092919081815260200182805461090d9061253b565b801561095a5780601f1061092f5761010080835404028352916020019161095a565b820191906000526020600020905b81548152906001019060200180831161093d57829003601f168201915b5050505050905090565b61097661096f610d21565b8383611169565b5050565b600760205280600052604060002060009150905080600001805461099d9061253b565b80601f01602080910402602001604051908101604052809291908181526020018280546109c99061253b565b8015610a165780601f106109eb57610100808354040283529160200191610a16565b820191906000526020600020905b8154815290600101906020018083116109f957829003601f168201915b505050505090806001018054610a2b9061253b565b80601f0160208091040260200160405190810160405280929190818152602001828054610a579061253b565b8015610aa45780601f10610a7957610100808354040283529160200191610aa4565b820191906000526020600020905b815481529060010190602001808311610a8757829003601f168201915b5050505050905082565b610abf610ab9610d21565b83610de2565b610afe576040517f08c379a0000000000000000000000000000000000000000000000000000000008152600401610af5906122c5565b60405180910390fd5b610b0a848484846112d6565b50505050565b6060610b1b82610cb5565b610b5a576040517f08c379a0000000000000000000000000000000000000000000000000000000008152600401610b5190612285565b60405180910390fd5b6000610b64611332565b90506000815111610b845760405180602001604052806000815250610baf565b80610b8e84611349565b604051602001610b9f929190612026565b6040516020818303038152906040525b915050919050565b6000600560008473ffffffffffffffffffffffffffffffffffffffff1673ffffffffffffffffffffffffffffffffffffffff16815260200190815260200160002060008373ffffffffffffffffffffffffffffffffffffffff1673ffffffffffffffffffffffffffffffffffffffff16815260200190815260200160002060009054906101000a900460ff16905092915050565b60007f01ffc9a7000000000000000000000000000000000000000000000000000000007bffffffffffffffffffffffffffffffffffffffffffffffffffffffff1916827bffffffffffffffffffffffffffffffffffffffffffffffffffffffff1916149050919050565b60008073ffffffffffffffffffffffffffffffffffffffff166002600084815260200190815260200160002060009054906101000a900473ffffffffffffffffffffffffffffffffffffffff1673ffffffffffffffffffffffffffffffffffffffff1614159050919050565b600033905090565b816004600083815260200190815260200160002060006101000a81548173ffffffffffffffffffffffffffffffffffffffff021916908373ffffffffffffffffffffffffffffffffffffffff160217905550808273ffffffffffffffffffffffffffffffffffffffff16610d9c836106d4565b73ffffffffffffffffffffffffffffffffffffffff167f8c5be1e5ebec7d5bd14f71427d1e84f3dd0314c0f7b2291e5b200ac8c7c3b92560405160405180910390a45050565b6000610ded82610cb5565b610e2c576040517f08c379a0000000000000000000000000000000000000000000000000000000008152600401610e23906121c5565b60405180910390fd5b6000610e37836106d4565b90508073ffffffffffffffffffffffffffffffffffffffff168473ffffffffffffffffffffffffffffffffffffffff161480610ea657508373ffffffffffffffffffffffffffffffffffffffff16610e8e846104b7565b73ffffffffffffffffffffffffffffffffffffffff16145b80610eb75750610eb68185610bb7565b5b91505092915050565b8273ffffffffffffffffffffffffffffffffffffffff16610ee0826106d4565b73ffffffffffffffffffffffffffffffffffffffff1614610f36576040517f08c379a0000000000000000000000000000000000000000000000000000000008152600401610f2d90612145565b60405180910390fd5b600073ffffffffffffffffffffffffffffffffffffffff168273ffffffffffffffffffffffffffffffffffffffff161415610fa6576040517f08c379a0000000000000000000000000000000000000000000000000000000008152600401610f9d90612185565b60405180910390fd5b610fb18383836114f6565b610fbc600082610d29565b6001600360008573ffffffffffffffffffffffffffffffffffffffff1673ffffffffffffffffffffffffffffffffffffffff168152602001908152602001600020600082825461100c9190612451565b925050819055506001600360008473ffffffffffffffffffffffffffffffffffffffff1673ffffffffffffffffffffffffffffffffffffffff168152602001908152602001600020600082825461106391906123ca565b92505081905550816002600083815260200190815260200160002060006101000a81548173ffffffffffffffffffffffffffffffffffffffff021916908373ffffffffffffffffffffffffffffffffffffffff160217905550808273ffffffffffffffffffffffffffffffffffffffff168473ffffffffffffffffffffffffffffffffffffffff167fddf252ad1be2c89b69c2b068fc378daa952ba7f163c4a11628f55a4df523b3ef60405160405180910390a46111228383836114fb565b505050565b6001816000016000828254019250508190555050565b600081600001549050919050565b611165828260405180602001604052806000815250611500565b5050565b8173ffffffffffffffffffffffffffffffffffffffff168373ffffffffffffffffffffffffffffffffffffffff1614156111d8576040517f08c379a00000000000000000000000000000000000000000000000000000000081526004016111cf906121a5565b60405180910390fd5b80600560008573ffffffffffffffffffffffffffffffffffffffff1673ffffffffffffffffffffffffffffffffffffffff16815260200190815260200160002060008473ffffffffffffffffffffffffffffffffffffffff1673ffffffffffffffffffffffffffffffffffffffff16815260200190815260200160002060006101000a81548160ff0219169083151502179055508173ffffffffffffffffffffffffffffffffffffffff168373ffffffffffffffffffffffffffffffffffffffff167f17307eab39ab6107e8899845ad3d59bd9653f200f220920489ca2b5937696c31836040516112c991906120b1565b60405180910390a3505050565b6112e1848484610ec0565b6112ed8484848461155b565b61132c576040517f08c379a000000000000000000000000000000000000000000000000000000000815260040161132390612125565b60405180910390fd5b50505050565b606060405180602001604052806000815250905090565b60606000821415611391576040518060400160405280600181526020017f300000000000000000000000000000000000000000000000000000000000000081525090506114f1565b600082905060005b600082146113c35780806113ac9061259e565b915050600a826113bc9190612420565b9150611399565b60008167ffffffffffffffff811115611405577f4e487b7100000000000000000000000000000000000000000000000000000000600052604160045260246000fd5b6040519080825280601f01601f1916602001820160405280156114375781602001600182028036833780820191505090505b5090505b600085146114ea576001826114509190612451565b9150600a8561145f91906125e7565b603061146b91906123ca565b60f81b8183815181106114a7577f4e487b7100000000000000000000000000000000000000000000000000000000600052603260045260246000fd5b60200101907effffffffffffffffffffffffffffffffffffffffffffffffffffffffffffff1916908160001a905350600a856114e39190612420565b945061143b565b8093505050505b919050565b505050565b505050565b61150a83836116f2565b611517600084848461155b565b611556576040517f08c379a000000000000000000000000000000000000000000000000000000000815260040161154d90612125565b60405180910390fd5b505050565b600061157c8473ffffffffffffffffffffffffffffffffffffffff166118cc565b156116e5578373ffffffffffffffffffffffffffffffffffffffff1663150b7a026115a5610d21565b8786866040518563ffffffff1660e01b81526004016115c79493929190612065565b602060405180830381600087803b1580156115e157600080fd5b505af192505050801561161257506040513d601f19601f8201168201806040525081019061160f9190611d1a565b60015b611695573d8060008114611642576040519150601f19603f3d011682016040523d82523d6000602084013e611647565b606091505b5060008151141561168d576040517f08c379a000000000000000000000000000000000000000000000000000000000815260040161168490612125565b60405180910390fd5b805181602001fd5b63150b7a0260e01b7bffffffffffffffffffffffffffffffffffffffffffffffffffffffff1916817bffffffffffffffffffffffffffffffffffffffffffffffffffffffff1916149150506116ea565b600190505b949350505050565b600073ffffffffffffffffffffffffffffffffffffffff168273ffffffffffffffffffffffffffffffffffffffff161415611762576040517f08c379a000000000000000000000000000000000000000000000000000000000815260040161175990612245565b60405180910390fd5b61176b81610cb5565b156117ab576040517f08c379a00000000000000000000000000000000000000000000000000000000081526004016117a290612165565b60405180910390fd5b6117b7600083836114f6565b6001600360008473ffffffffffffffffffffffffffffffffffffffff1673ffffffffffffffffffffffffffffffffffffffff168152602001908152602001600020600082825461180791906123ca565b92505081905550816002600083815260200190815260200160002060006101000a81548173ffffffffffffffffffffffffffffffffffffffff021916908373ffffffffffffffffffffffffffffffffffffffff160217905550808273ffffffffffffffffffffffffffffffffffffffff16600073ffffffffffffffffffffffffffffffffffffffff167fddf252ad1be2c89b69c2b068fc378daa952ba7f163c4a11628f55a4df523b3ef60405160405180910390a46118c8600083836114fb565b5050565b6000808273ffffffffffffffffffffffffffffffffffffffff163b119050919050565b8280546118fb9061253b565b90600052602060002090601f01602090048101928261191d5760008555611964565b82601f1061193657805160ff1916838001178555611964565b82800160010185558215611964579182015b82811115611963578251825591602001919060010190611948565b5b5090506119719190611975565b5090565b5b8082111561198e576000816000905550600101611976565b5090565b60006119a56119a084612325565b612300565b9050828152602081018484840111156119bd57600080fd5b6119c88482856124f9565b509392505050565b60006119e36119de84612356565b612300565b9050828152602081018484840111156119fb57600080fd5b611a068482856124f9565b509392505050565b600081359050611a1d81612ac5565b92915050565b600081359050611a3281612adc565b92915050565b600081359050611a4781612af3565b92915050565b600081519050611a5c81612af3565b92915050565b600082601f830112611a7357600080fd5b8135611a83848260208601611992565b91505092915050565b600082601f830112611a9d57600080fd5b8135611aad8482602086016119d0565b91505092915050565b600081359050611ac581612b0a565b92915050565b600060208284031215611add57600080fd5b6000611aeb84828501611a0e565b91505092915050565b60008060408385031215611b0757600080fd5b6000611b1585828601611a0e565b9250506020611b2685828601611a0e565b9150509250929050565b600080600060608486031215611b4557600080fd5b6000611b5386828701611a0e565b9350506020611b6486828701611a0e565b9250506040611b7586828701611ab6565b9150509250925092565b60008060008060808587031215611b9557600080fd5b6000611ba387828801611a0e565b9450506020611bb487828801611a0e565b9350506040611bc587828801611ab6565b925050606085013567ffffffffffffffff811115611be257600080fd5b611bee87828801611a62565b91505092959194509250565b60008060408385031215611c0d57600080fd5b6000611c1b85828601611a0e565b9250506020611c2c85828601611a23565b9150509250929050565b600080600060608486031215611c4b57600080fd5b6000611c5986828701611a0e565b935050602084013567ffffffffffffffff811115611c7657600080fd5b611c8286828701611a8c565b925050604084013567ffffffffffffffff811115611c9f57600080fd5b611cab86828701611a8c565b9150509250925092565b60008060408385031215611cc857600080fd5b6000611cd685828601611a0e565b9250506020611ce785828601611ab6565b9150509250929050565b600060208284031215611d0357600080fd5b6000611d1184828501611a38565b91505092915050565b600060208284031215611d2c57600080fd5b6000611d3a84828501611a4d565b91505092915050565b600060208284031215611d5557600080fd5b6000611d6384828501611ab6565b91505092915050565b611d7581612485565b82525050565b611d8481612497565b82525050565b6000611d9582612387565b611d9f818561239d565b9350611daf818560208601612508565b611db8816126d4565b840191505092915050565b6000611dce82612392565b611dd881856123ae565b9350611de8818560208601612508565b611df1816126d4565b840191505092915050565b6000611e0782612392565b611e1181856123bf565b9350611e21818560208601612508565b80840191505092915050565b6000611e3a6032836123ae565b9150611e45826126e5565b604082019050919050565b6000611e5d6025836123ae565b9150611e6882612734565b604082019050919050565b6000611e80601c836123ae565b9150611e8b82612783565b602082019050919050565b6000611ea36024836123ae565b9150611eae826127ac565b604082019050919050565b6000611ec66019836123ae565b9150611ed1826127fb565b602082019050919050565b6000611ee9602c836123ae565b9150611ef482612824565b604082019050919050565b6000611f0c6038836123ae565b9150611f1782612873565b604082019050919050565b6000611f2f602a836123ae565b9150611f3a826128c2565b604082019050919050565b6000611f526029836123ae565b9150611f5d82612911565b604082019050919050565b6000611f756020836123ae565b9150611f8082612960565b602082019050919050565b6000611f98602c836123ae565b9150611fa382612989565b604082019050919050565b6000611fbb602f836123ae565b9150611fc6826129d8565b604082019050919050565b6000611fde6021836123ae565b9150611fe982612a27565b604082019050919050565b60006120016031836123ae565b915061200c82612a76565b604082019050919050565b612020816124ef565b82525050565b60006120328285611dfc565b915061203e8284611dfc565b91508190509392505050565b600060208201905061205f6000830184611d6c565b92915050565b600060808201905061207a6000830187611d6c565b6120876020830186611d6c565b6120946040830185612017565b81810360608301526120a68184611d8a565b905095945050505050565b60006020820190506120c66000830184611d7b565b92915050565b600060208201905081810360008301526120e68184611dc3565b905092915050565b600060408201905081810360008301526121088185611dc3565b9050818103602083015261211c8184611dc3565b90509392505050565b6000602082019050818103600083015261213e81611e2d565b9050919050565b6000602082019050818103600083015261215e81611e50565b9050919050565b6000602082019050818103600083015261217e81611e73565b9050919050565b6000602082019050818103600083015261219e81611e96565b9050919050565b600060208201905081810360008301526121be81611eb9565b9050919050565b600060208201905081810360008301526121de81611edc565b9050919050565b600060208201905081810360008301526121fe81611eff565b9050919050565b6000602082019050818103600083015261221e81611f22565b9050919050565b6000602082019050818103600083015261223e81611f45565b9050919050565b6000602082019050818103600083015261225e81611f68565b9050919050565b6000602082019050818103600083015261227e81611f8b565b9050919050565b6000602082019050818103600083015261229e81611fae565b9050919050565b600060208201905081810360008301526122be81611fd1565b9050919050565b600060208201905081810360008301526122de81611ff4565b9050919050565b60006020820190506122fa6000830184612017565b92915050565b600061230a61231b565b9050612316828261256d565b919050565b6000604051905090565b600067ffffffffffffffff8211156123405761233f6126a5565b5b612349826126d4565b9050602081019050919050565b600067ffffffffffffffff821115612371576123706126a5565b5b61237a826126d4565b9050602081019050919050565b600081519050919050565b600081519050919050565b600082825260208201905092915050565b600082825260208201905092915050565b600081905092915050565b60006123d5826124ef565b91506123e0836124ef565b9250827fffffffffffffffffffffffffffffffffffffffffffffffffffffffffffffffff0382111561241557612414612618565b5b828201905092915050565b600061242b826124ef565b9150612436836124ef565b92508261244657612445612647565b5b828204905092915050565b600061245c826124ef565b9150612467836124ef565b92508282101561247a57612479612618565b5b828203905092915050565b6000612490826124cf565b9050919050565b60008115159050919050565b60007fffffffff0000000000000000000000000000000000000000000000000000000082169050919050565b600073ffffffffffffffffffffffffffffffffffffffff82169050919050565b6000819050919050565b82818337600083830152505050565b60005b8381101561252657808201518184015260208101905061250b565b83811115612535576000848401525b50505050565b6000600282049050600182168061255357607f821691505b6020821081141561256757612566612676565b5b50919050565b612576826126d4565b810181811067ffffffffffffffff82111715612595576125946126a5565b5b80604052505050565b60006125a9826124ef565b91507fffffffffffffffffffffffffffffffffffffffffffffffffffffffffffffffff8214156125dc576125db612618565b5b600182019050919050565b60006125f2826124ef565b91506125fd836124ef565b92508261260d5761260c612647565b5b828206905092915050565b7f4e487b7100000000000000000000000000000000000000000000000000000000600052601160045260246000fd5b7f4e487b7100000000000000000000000000000000000000000000000000000000600052601260045260246000fd5b7f4e487b7100000000000000000000000000000000000000000000000000000000600052602260045260246000fd5b7f4e487b7100000000000000000000000000000000000000000000000000000000600052604160045260246000fd5b6000601f19601f8301169050919050565b7f4552433732313a207472616e7366657220746f206e6f6e20455243373231526560008201527f63656976657220696d706c656d656e7465720000000000000000000000000000602082015250565b7f4552433732313a207472616e736665722066726f6d20696e636f72726563742060008201527f6f776e6572000000000000000000000000000000000000000000000000000000602082015250565b7f4552433732313a20746f6b656e20616c7265616479206d696e74656400000000600082015250565b7f4552433732313a207472616e7366657220746f20746865207a65726f2061646460008201527f7265737300000000000000000000000000000000000000000000000000000000602082015250565b7f4552433732313a20617070726f766520746f2063616c6c657200000000000000600082015250565b7f4552433732313a206f70657261746f7220717565727920666f72206e6f6e657860008201527f697374656e7420746f6b656e0000000000000000000000000000000000000000602082015250565b7f4552433732313a20617070726f76652063616c6c6572206973206e6f74206f7760008201527f6e6572206e6f7220617070726f76656420666f7220616c6c0000000000000000602082015250565b7f4552433732313a2062616c616e636520717565727920666f7220746865207a6560008201527f726f206164647265737300000000000000000000000000000000000000000000602082015250565b7f4552433732313a206f776e657220717565727920666f72206e6f6e657869737460008201527f656e7420746f6b656e0000000000000000000000000000000000000000000000602082015250565b7f4552433732313a206d696e7420746f20746865207a65726f2061646472657373600082015250565b7f4552433732313a20617070726f76656420717565727920666f72206e6f6e657860008201527f697374656e7420746f6b656e0000000000000000000000000000000000000000602082015250565b7f4552433732314d657461646174613a2055524920717565727920666f72206e6f60008201527f6e6578697374656e7420746f6b656e0000000000000000000000000000000000602082015250565b7f4552433732313a20617070726f76616c20746f2063757272656e74206f776e6560008201527f7200000000000000000000000000000000000000000000000000000000000000602082015250565b7f4552433732313a207472616e736665722063616c6c6572206973206e6f74206f60008201527f776e6572206e6f7220617070726f766564000000000000000000000000000000602082015250565b612ace81612485565b8114612ad957600080fd5b50565b612ae581612497565b8114612af057600080fd5b50565b612afc816124a3565b8114612b0757600080fd5b50565b612b13816124ef565b8114612b1e57600080fd5b5056fea264697066735822122002321c79c6586fb5e67b44032806ef2e8b3e22771dfb02b49a6356a58dee73c664736f6c63430008040033",
  "immutableReferences": {},
  "source": "// SPDX-License-Identifier: MIT\npragma solidity ^0.8.0;\n\nimport '@openzeppelin/contracts/token/ERC721/ERC721.sol';\nimport '@openzeppelin/contracts/utils/Counters.sol';\n\ncontract PackageToken is ERC721 {\n\n    using Counters for Counters.Counter;\n\n    struct PackageInfo {\n        string packageContents;\n        string packageWeight;\n    }\n\n    Counters.Counter private _tokenIds;\n\n    mapping(uint256 => PackageInfo) public packageData;\n  \n    constructor() ERC721(\"PackageToken\", \"PKG\") {}\n\n    function createPackage(address packageSender, string memory packageContents, string memory packageWeight) public returns (uint256) {\n        _tokenIds.increment();\n        \n        uint256 newPackageId = _tokenIds.current();\n        _safeMint(packageSender, newPackageId);\n        packageData[newPackageId] = PackageInfo(packageContents, packageWeight);\n\n        return newPackageId;\n    }\n\n}\n",
  "sourcePath": "/home/james/Workspaces/tracking-demo/contracts/PackageToken.sol",
  "compiler": {
    "name": "solc",
    "version": "0.8.4+commit.c7e474f2.Emscripten.clang"
  },
  "schemaVersion": "3.4.6",
  "updatedAt": "2022-04-07T14:35:39.153Z",
  "devdoc": {
    "kind": "dev",
    "methods": {
      "approve(address,uint256)": {
        "details": "See {IERC721-approve}."
      },
      "balanceOf(address)": {
        "details": "See {IERC721-balanceOf}."
      },
      "getApproved(uint256)": {
        "details": "See {IERC721-getApproved}."
      },
      "isApprovedForAll(address,address)": {
        "details": "See {IERC721-isApprovedForAll}."
      },
      "name()": {
        "details": "See {IERC721Metadata-name}."
      },
      "ownerOf(uint256)": {
        "details": "See {IERC721-ownerOf}."
      },
      "safeTransferFrom(address,address,uint256)": {
        "details": "See {IERC721-safeTransferFrom}."
      },
      "safeTransferFrom(address,address,uint256,bytes)": {
        "details": "See {IERC721-safeTransferFrom}."
      },
      "setApprovalForAll(address,bool)": {
        "details": "See {IERC721-setApprovalForAll}."
      },
      "supportsInterface(bytes4)": {
        "details": "See {IERC165-supportsInterface}."
      },
      "symbol()": {
        "details": "See {IERC721Metadata-symbol}."
      },
      "tokenURI(uint256)": {
        "details": "See {IERC721Metadata-tokenURI}."
      },
      "transferFrom(address,address,uint256)": {
        "details": "See {IERC721-transferFrom}."
      }
    },
    "version": 1
  },
  "userdoc": {
    "kind": "user",
    "methods": {},
    "version": 1
  }
}