{
  "contractName": "ReceiptToken",
  "abi": [
    {
      "inputs": [],
      "stateMutability": "nonpayable",
      "type": "constructor"
    },
    {
      "anonymous": false,
      "inputs": [
        {
          "indexed": true,
          "internalType": "address",
          "name": "owner",
          "type": "address"
        },
        {
          "indexed": true,
          "internalType": "address",
          "name": "approved",
          "type": "address"
        },
        {
          "indexed": true,
          "internalType": "uint256",
          "name": "tokenId",
          "type": "uint256"
        }
      ],
      "name": "Approval",
      "type": "event"
    },
    {
      "anonymous": false,
      "inputs": [
        {
          "indexed": true,
          "internalType": "address",
          "name": "owner",
          "type": "address"
        },
        {
          "indexed": true,
          "internalType": "address",
          "name": "operator",
          "type": "address"
        },
        {
          "indexed": false,
          "internalType": "bool",
          "name": "approved",
          "type": "bool"
        }
      ],
      "name": "ApprovalForAll",
      "type": "event"
    },
    {
      "anonymous": false,
      "inputs": [
        {
          "indexed": true,
          "internalType": "address",
          "name": "from",
          "type": "address"
        },
        {
          "indexed": true,
          "internalType": "address",
          "name": "to",
          "type": "address"
        },
        {
          "indexed": true,
          "internalType": "uint256",
          "name": "tokenId",
          "type": "uint256"
        }
      ],
      "name": "Transfer",
      "type": "event"
    },
    {
      "inputs": [
        {
          "internalType": "address",
          "name": "to",
          "type": "address"
        },
        {
          "internalType": "uint256",
          "name": "tokenId",
          "type": "uint256"
        }
      ],
      "name": "approve",
      "outputs": [],
      "stateMutability": "nonpayable",
      "type": "function"
    },
    {
      "inputs": [
        {
          "internalType": "address",
          "name": "owner",
          "type": "address"
        }
      ],
      "name": "balanceOf",
      "outputs": [
        {
          "internalType": "uint256",
          "name": "",
          "type": "uint256"
        }
      ],
      "stateMutability": "view",
      "type": "function"
    },
    {
      "inputs": [
        {
          "internalType": "uint256",
          "name": "tokenId",
          "type": "uint256"
        }
      ],
      "name": "burn",
      "outputs": [],
      "stateMutability": "nonpayable",
      "type": "function"
    },
    {
      "inputs": [
        {
          "internalType": "uint256",
          "name": "tokenId",
          "type": "uint256"
        }
      ],
      "name": "getApproved",
      "outputs": [
        {
          "internalType": "address",
          "name": "",
          "type": "address"
        }
      ],
      "stateMutability": "view",
      "type": "function"
    },
    {
      "inputs": [
        {
          "internalType": "address",
          "name": "owner",
          "type": "address"
        },
        {
          "internalType": "address",
          "name": "operator",
          "type": "address"
        }
      ],
      "name": "isApprovedForAll",
      "outputs": [
        {
          "internalType": "bool",
          "name": "",
          "type": "bool"
        }
      ],
      "stateMutability": "view",
      "type": "function"
    },
    {
      "inputs": [],
      "name": "name",
      "outputs": [
        {
          "internalType": "string",
          "name": "",
          "type": "string"
        }
      ],
      "stateMutability": "view",
      "type": "function"
    },
    {
      "inputs": [
        {
          "internalType": "uint256",
          "name": "tokenId",
          "type": "uint256"
        }
      ],
      "name": "ownerOf",
      "outputs": [
        {
          "internalType": "address",
          "name": "",
          "type": "address"
        }
      ],
      "stateMutability": "view",
      "type": "function"
    },
    {
      "inputs": [
        {
          "internalType": "uint256",
          "name": "",
          "type": "uint256"
        }
      ],
      "name": "receiptData",
      "outputs": [
        {
          "internalType": "uint256",
          "name": "",
          "type": "uint256"
        }
      ],
      "stateMutability": "view",
      "type": "function"
    },
    {
      "inputs": [
        {
          "internalType": "address",
          "name": "from",
          "type": "address"
        },
        {
          "internalType": "address",
          "name": "to",
          "type": "address"
        },
        {
          "internalType": "uint256",
          "name": "tokenId",
          "type": "uint256"
        }
      ],
      "name": "safeTransferFrom",
      "outputs": [],
      "stateMutability": "nonpayable",
      "type": "function"
    },
    {
      "inputs": [
        {
          "internalType": "address",
          "name": "from",
          "type": "address"
        },
        {
          "internalType": "address",
          "name": "to",
          "type": "address"
        },
        {
          "internalType": "uint256",
          "name": "tokenId",
          "type": "uint256"
        },
        {
          "internalType": "bytes",
          "name": "_data",
          "type": "bytes"
        }
      ],
      "name": "safeTransferFrom",
      "outputs": [],
      "stateMutability": "nonpayable",
      "type": "function"
    },
    {
      "inputs": [
        {
          "internalType": "address",
          "name": "operator",
          "type": "address"
        },
        {
          "internalType": "bool",
          "name": "approved",
          "type": "bool"
        }
      ],
      "name": "setApprovalForAll",
      "outputs": [],
      "stateMutability": "nonpayable",
      "type": "function"
    },
    {
      "inputs": [
        {
          "internalType": "bytes4",
          "name": "interfaceId",
          "type": "bytes4"
        }
      ],
      "name": "supportsInterface",
      "outputs": [
        {
          "internalType": "bool",
          "name": "",
          "type": "bool"
        }
      ],
      "stateMutability": "view",
      "type": "function"
    },
    {
      "inputs": [],
      "name": "symbol",
      "outputs": [
        {
          "internalType": "string",
          "name": "",
          "type": "string"
        }
      ],
      "stateMutability": "view",
      "type": "function"
    },
    {
      "inputs": [
        {
          "internalType": "uint256",
          "name": "tokenId",
          "type": "uint256"
        }
      ],
      "name": "tokenURI",
      "outputs": [
        {
          "internalType": "string",
          "name": "",
          "type": "string"
        }
      ],
      "stateMutability": "view",
      "type": "function"
    },
    {
      "inputs": [
        {
          "internalType": "address",
          "name": "from",
          "type": "address"
        },
        {
          "internalType": "address",
          "name": "to",
          "type": "address"
        },
        {
          "internalType": "uint256",
          "name": "tokenId",
          "type": "uint256"
        }
      ],
      "name": "transferFrom",
      "outputs": [],
      "stateMutability": "nonpayable",
      "type": "function"
    },
    {
      "inputs": [
        {
          "internalType": "address",
          "name": "packageSender",
          "type": "address"
        },
        {
          "internalType": "uint256",
          "name": "packageTokenId",
          "type": "uint256"
        }
      ],
      "name": "createReceipt",
      "outputs": [
        {
          "internalType": "uint256",
          "name": "",
          "type": "uint256"
        }
      ],
      "stateMutability": "nonpayable",
      "type": "function"
    }
  ],
  "bytecode": "0x60806040523480156200001157600080fd5b506040518060400160405280600c81526020017f52656365697074546f6b656e00000000000000000000000000000000000000008152506040518060400160405280600381526020017f5250540000000000000000000000000000000000000000000000000000000000815250816000908051906020019062000096929190620000b8565b508060019080519060200190620000af929190620000b8565b505050620001cd565b828054620000c69062000168565b90600052602060002090601f016020900481019282620000ea576000855562000136565b82601f106200010557805160ff191683800117855562000136565b8280016001018555821562000136579182015b828111156200013557825182559160200191906001019062000118565b5b50905062000145919062000149565b5090565b5b80821115620001645760008160009055506001016200014a565b5090565b600060028204905060018216806200018157607f821691505b602082108114156200019857620001976200019e565b5b50919050565b7f4e487b7100000000000000000000000000000000000000000000000000000000600052602260045260246000fd5b612a2c80620001dd6000396000f3fe608060405234801561001057600080fd5b50600436106101005760003560e01c80636352211e11610097578063b88d4fde11610066578063b88d4fde146102bd578063c87b56dd146102d9578063d62914c914610309578063e985e9c51461033957610100565b80636352211e1461022357806370a082311461025357806395d89b4114610283578063a22cb465146102a157610100565b806323b872dd116100d357806323b872dd1461019f57806327d35db7146101bb57806342842e0e146101eb57806342966c681461020757610100565b806301ffc9a71461010557806306fdde0314610135578063081812fc14610153578063095ea7b314610183575b600080fd5b61011f600480360381019061011a9190611b9c565b610369565b60405161012c9190611f7f565b60405180910390f35b61013d61044b565b60405161014a9190611f9a565b60405180910390f35b61016d60048036038101906101689190611bee565b6104dd565b60405161017a9190611f18565b60405180910390f35b61019d60048036038101906101989190611b60565b610562565b005b6101b960048036038101906101b49190611a5a565b61067a565b005b6101d560048036038101906101d09190611bee565b6106da565b6040516101e2919061219c565b60405180910390f35b61020560048036038101906102009190611a5a565b6106f2565b005b610221600480360381019061021c9190611bee565b610712565b005b61023d60048036038101906102389190611bee565b61076e565b60405161024a9190611f18565b60405180910390f35b61026d600480360381019061026891906119f5565b610820565b60405161027a919061219c565b60405180910390f35b61028b6108d8565b6040516102989190611f9a565b60405180910390f35b6102bb60048036038101906102b69190611b24565b61096a565b005b6102d760048036038101906102d29190611aa9565b610980565b005b6102f360048036038101906102ee9190611bee565b6109e2565b6040516103009190611f9a565b60405180910390f35b610323600480360381019061031e9190611b60565b610a89565b604051610330919061219c565b60405180910390f35b610353600480360381019061034e9190611a1e565b610acf565b6040516103609190611f7f565b60405180910390f35b60007f80ac58cd000000000000000000000000000000000000000000000000000000007bffffffffffffffffffffffffffffffffffffffffffffffffffffffff1916827bffffffffffffffffffffffffffffffffffffffffffffffffffffffff1916148061043457507f5b5e139f000000000000000000000000000000000000000000000000000000007bffffffffffffffffffffffffffffffffffffffffffffffffffffffff1916827bffffffffffffffffffffffffffffffffffffffffffffffffffffffff1916145b80610444575061044382610b63565b5b9050919050565b60606000805461045a906123c1565b80601f0160208091040260200160405190810160405280929190818152602001828054610486906123c1565b80156104d35780601f106104a8576101008083540402835291602001916104d3565b820191906000526020600020905b8154815290600101906020018083116104b657829003601f168201915b5050505050905090565b60006104e882610bcd565b610527576040517f08c379a000000000000000000000000000000000000000000000000000000000815260040161051e906120fc565b60405180910390fd5b6004600083815260200190815260200160002060009054906101000a900473ffffffffffffffffffffffffffffffffffffffff169050919050565b600061056d8261076e565b90508073ffffffffffffffffffffffffffffffffffffffff168373ffffffffffffffffffffffffffffffffffffffff1614156105de576040517f08c379a00000000000000000000000000000000000000000000000000000000081526004016105d59061213c565b60405180910390fd5b8073ffffffffffffffffffffffffffffffffffffffff166105fd610c39565b73ffffffffffffffffffffffffffffffffffffffff16148061062c575061062b81610626610c39565b610acf565b5b61066b576040517f08c379a00000000000000000000000000000000000000000000000000000000081526004016106629061207c565b60405180910390fd5b6106758383610c41565b505050565b61068b610685610c39565b82610cfa565b6106ca576040517f08c379a00000000000000000000000000000000000000000000000000000000081526004016106c19061215c565b60405180910390fd5b6106d5838383610dd8565b505050565b60076020528060005260406000206000915090505481565b61070d83838360405180602001604052806000815250610980565b505050565b61072361071d610c39565b82610cfa565b610762576040517f08c379a00000000000000000000000000000000000000000000000000000000081526004016107599061217c565b60405180910390fd5b61076b8161103f565b50565b6000806002600084815260200190815260200160002060009054906101000a900473ffffffffffffffffffffffffffffffffffffffff169050600073ffffffffffffffffffffffffffffffffffffffff168173ffffffffffffffffffffffffffffffffffffffff161415610817576040517f08c379a000000000000000000000000000000000000000000000000000000000815260040161080e906120bc565b60405180910390fd5b80915050919050565b60008073ffffffffffffffffffffffffffffffffffffffff168273ffffffffffffffffffffffffffffffffffffffff161415610891576040517f08c379a00000000000000000000000000000000000000000000000000000000081526004016108889061209c565b60405180910390fd5b600360008373ffffffffffffffffffffffffffffffffffffffff1673ffffffffffffffffffffffffffffffffffffffff168152602001908152602001600020549050919050565b6060600180546108e7906123c1565b80601f0160208091040260200160405190810160405280929190818152602001828054610913906123c1565b80156109605780601f1061093557610100808354040283529160200191610960565b820191906000526020600020905b81548152906001019060200180831161094357829003601f168201915b5050505050905090565b61097c610975610c39565b838361115c565b5050565b61099161098b610c39565b83610cfa565b6109d0576040517f08c379a00000000000000000000000000000000000000000000000000000000081526004016109c79061215c565b60405180910390fd5b6109dc848484846112c9565b50505050565b60606109ed82610bcd565b610a2c576040517f08c379a0000000000000000000000000000000000000000000000000000000008152600401610a239061211c565b60405180910390fd5b6000610a36611325565b90506000815111610a565760405180602001604052806000815250610a81565b80610a608461133c565b604051602001610a71929190611ef4565b6040516020818303038152906040525b915050919050565b6000610a9560066114e9565b6000610aa160066114ff565b9050610aad848261150d565b8260076000838152602001908152602001600020819055508091505092915050565b6000600560008473ffffffffffffffffffffffffffffffffffffffff1673ffffffffffffffffffffffffffffffffffffffff16815260200190815260200160002060008373ffffffffffffffffffffffffffffffffffffffff1673ffffffffffffffffffffffffffffffffffffffff16815260200190815260200160002060009054906101000a900460ff16905092915050565b60007f01ffc9a7000000000000000000000000000000000000000000000000000000007bffffffffffffffffffffffffffffffffffffffffffffffffffffffff1916827bffffffffffffffffffffffffffffffffffffffffffffffffffffffff1916149050919050565b60008073ffffffffffffffffffffffffffffffffffffffff166002600084815260200190815260200160002060009054906101000a900473ffffffffffffffffffffffffffffffffffffffff1673ffffffffffffffffffffffffffffffffffffffff1614159050919050565b600033905090565b816004600083815260200190815260200160002060006101000a81548173ffffffffffffffffffffffffffffffffffffffff021916908373ffffffffffffffffffffffffffffffffffffffff160217905550808273ffffffffffffffffffffffffffffffffffffffff16610cb48361076e565b73ffffffffffffffffffffffffffffffffffffffff167f8c5be1e5ebec7d5bd14f71427d1e84f3dd0314c0f7b2291e5b200ac8c7c3b92560405160405180910390a45050565b6000610d0582610bcd565b610d44576040517f08c379a0000000000000000000000000000000000000000000000000000000008152600401610d3b9061205c565b60405180910390fd5b6000610d4f8361076e565b90508073ffffffffffffffffffffffffffffffffffffffff168473ffffffffffffffffffffffffffffffffffffffff161480610dbe57508373ffffffffffffffffffffffffffffffffffffffff16610da6846104dd565b73ffffffffffffffffffffffffffffffffffffffff16145b80610dcf5750610dce8185610acf565b5b91505092915050565b8273ffffffffffffffffffffffffffffffffffffffff16610df88261076e565b73ffffffffffffffffffffffffffffffffffffffff1614610e4e576040517f08c379a0000000000000000000000000000000000000000000000000000000008152600401610e4590611fdc565b60405180910390fd5b600073ffffffffffffffffffffffffffffffffffffffff168273ffffffffffffffffffffffffffffffffffffffff161415610ebe576040517f08c379a0000000000000000000000000000000000000000000000000000000008152600401610eb59061201c565b60405180910390fd5b610ec983838361152b565b610ed4600082610c41565b6001600360008573ffffffffffffffffffffffffffffffffffffffff1673ffffffffffffffffffffffffffffffffffffffff1681526020019081526020016000206000828254610f2491906122d7565b925050819055506001600360008473ffffffffffffffffffffffffffffffffffffffff1673ffffffffffffffffffffffffffffffffffffffff1681526020019081526020016000206000828254610f7b9190612250565b92505081905550816002600083815260200190815260200160002060006101000a81548173ffffffffffffffffffffffffffffffffffffffff021916908373ffffffffffffffffffffffffffffffffffffffff160217905550808273ffffffffffffffffffffffffffffffffffffffff168473ffffffffffffffffffffffffffffffffffffffff167fddf252ad1be2c89b69c2b068fc378daa952ba7f163c4a11628f55a4df523b3ef60405160405180910390a461103a838383611530565b505050565b600061104a8261076e565b90506110588160008461152b565b611063600083610c41565b6001600360008373ffffffffffffffffffffffffffffffffffffffff1673ffffffffffffffffffffffffffffffffffffffff16815260200190815260200160002060008282546110b391906122d7565b925050819055506002600083815260200190815260200160002060006101000a81549073ffffffffffffffffffffffffffffffffffffffff021916905581600073ffffffffffffffffffffffffffffffffffffffff168273ffffffffffffffffffffffffffffffffffffffff167fddf252ad1be2c89b69c2b068fc378daa952ba7f163c4a11628f55a4df523b3ef60405160405180910390a461115881600084611530565b5050565b8173ffffffffffffffffffffffffffffffffffffffff168373ffffffffffffffffffffffffffffffffffffffff1614156111cb576040517f08c379a00000000000000000000000000000000000000000000000000000000081526004016111c29061203c565b60405180910390fd5b80600560008573ffffffffffffffffffffffffffffffffffffffff1673ffffffffffffffffffffffffffffffffffffffff16815260200190815260200160002060008473ffffffffffffffffffffffffffffffffffffffff1673ffffffffffffffffffffffffffffffffffffffff16815260200190815260200160002060006101000a81548160ff0219169083151502179055508173ffffffffffffffffffffffffffffffffffffffff168373ffffffffffffffffffffffffffffffffffffffff167f17307eab39ab6107e8899845ad3d59bd9653f200f220920489ca2b5937696c31836040516112bc9190611f7f565b60405180910390a3505050565b6112d4848484610dd8565b6112e084848484611535565b61131f576040517f08c379a000000000000000000000000000000000000000000000000000000000815260040161131690611fbc565b60405180910390fd5b50505050565b606060405180602001604052806000815250905090565b60606000821415611384576040518060400160405280600181526020017f300000000000000000000000000000000000000000000000000000000000000081525090506114e4565b600082905060005b600082146113b657808061139f90612424565b915050600a826113af91906122a6565b915061138c565b60008167ffffffffffffffff8111156113f8577f4e487b7100000000000000000000000000000000000000000000000000000000600052604160045260246000fd5b6040519080825280601f01601f19166020018201604052801561142a5781602001600182028036833780820191505090505b5090505b600085146114dd5760018261144391906122d7565b9150600a85611452919061246d565b603061145e9190612250565b60f81b81838151811061149a577f4e487b7100000000000000000000000000000000000000000000000000000000600052603260045260246000fd5b60200101907effffffffffffffffffffffffffffffffffffffffffffffffffffffffffffff1916908160001a905350600a856114d691906122a6565b945061142e565b8093505050505b919050565b6001816000016000828254019250508190555050565b600081600001549050919050565b6115278282604051806020016040528060008152506116cc565b5050565b505050565b505050565b60006115568473ffffffffffffffffffffffffffffffffffffffff16611727565b156116bf578373ffffffffffffffffffffffffffffffffffffffff1663150b7a0261157f610c39565b8786866040518563ffffffff1660e01b81526004016115a19493929190611f33565b602060405180830381600087803b1580156115bb57600080fd5b505af19250505080156115ec57506040513d601f19601f820116820180604052508101906115e99190611bc5565b60015b61166f573d806000811461161c576040519150601f19603f3d011682016040523d82523d6000602084013e611621565b606091505b50600081511415611667576040517f08c379a000000000000000000000000000000000000000000000000000000000815260040161165e90611fbc565b60405180910390fd5b805181602001fd5b63150b7a0260e01b7bffffffffffffffffffffffffffffffffffffffffffffffffffffffff1916817bffffffffffffffffffffffffffffffffffffffffffffffffffffffff1916149150506116c4565b600190505b949350505050565b6116d6838361174a565b6116e36000848484611535565b611722576040517f08c379a000000000000000000000000000000000000000000000000000000000815260040161171990611fbc565b60405180910390fd5b505050565b6000808273ffffffffffffffffffffffffffffffffffffffff163b119050919050565b600073ffffffffffffffffffffffffffffffffffffffff168273ffffffffffffffffffffffffffffffffffffffff1614156117ba576040517f08c379a00000000000000000000000000000000000000000000000000000000081526004016117b1906120dc565b60405180910390fd5b6117c381610bcd565b15611803576040517f08c379a00000000000000000000000000000000000000000000000000000000081526004016117fa90611ffc565b60405180910390fd5b61180f6000838361152b565b6001600360008473ffffffffffffffffffffffffffffffffffffffff1673ffffffffffffffffffffffffffffffffffffffff168152602001908152602001600020600082825461185f9190612250565b92505081905550816002600083815260200190815260200160002060006101000a81548173ffffffffffffffffffffffffffffffffffffffff021916908373ffffffffffffffffffffffffffffffffffffffff160217905550808273ffffffffffffffffffffffffffffffffffffffff16600073ffffffffffffffffffffffffffffffffffffffff167fddf252ad1be2c89b69c2b068fc378daa952ba7f163c4a11628f55a4df523b3ef60405160405180910390a461192060008383611530565b5050565b6000611937611932846121dc565b6121b7565b90508281526020810184848401111561194f57600080fd5b61195a84828561237f565b509392505050565b6000813590506119718161299a565b92915050565b600081359050611986816129b1565b92915050565b60008135905061199b816129c8565b92915050565b6000815190506119b0816129c8565b92915050565b600082601f8301126119c757600080fd5b81356119d7848260208601611924565b91505092915050565b6000813590506119ef816129df565b92915050565b600060208284031215611a0757600080fd5b6000611a1584828501611962565b91505092915050565b60008060408385031215611a3157600080fd5b6000611a3f85828601611962565b9250506020611a5085828601611962565b9150509250929050565b600080600060608486031215611a6f57600080fd5b6000611a7d86828701611962565b9350506020611a8e86828701611962565b9250506040611a9f868287016119e0565b9150509250925092565b60008060008060808587031215611abf57600080fd5b6000611acd87828801611962565b9450506020611ade87828801611962565b9350506040611aef878288016119e0565b925050606085013567ffffffffffffffff811115611b0c57600080fd5b611b18878288016119b6565b91505092959194509250565b60008060408385031215611b3757600080fd5b6000611b4585828601611962565b9250506020611b5685828601611977565b9150509250929050565b60008060408385031215611b7357600080fd5b6000611b8185828601611962565b9250506020611b92858286016119e0565b9150509250929050565b600060208284031215611bae57600080fd5b6000611bbc8482850161198c565b91505092915050565b600060208284031215611bd757600080fd5b6000611be5848285016119a1565b91505092915050565b600060208284031215611c0057600080fd5b6000611c0e848285016119e0565b91505092915050565b611c208161230b565b82525050565b611c2f8161231d565b82525050565b6000611c408261220d565b611c4a8185612223565b9350611c5a81856020860161238e565b611c638161255a565b840191505092915050565b6000611c7982612218565b611c838185612234565b9350611c9381856020860161238e565b611c9c8161255a565b840191505092915050565b6000611cb282612218565b611cbc8185612245565b9350611ccc81856020860161238e565b80840191505092915050565b6000611ce5603283612234565b9150611cf08261256b565b604082019050919050565b6000611d08602583612234565b9150611d13826125ba565b604082019050919050565b6000611d2b601c83612234565b9150611d3682612609565b602082019050919050565b6000611d4e602483612234565b9150611d5982612632565b604082019050919050565b6000611d71601983612234565b9150611d7c82612681565b602082019050919050565b6000611d94602c83612234565b9150611d9f826126aa565b604082019050919050565b6000611db7603883612234565b9150611dc2826126f9565b604082019050919050565b6000611dda602a83612234565b9150611de582612748565b604082019050919050565b6000611dfd602983612234565b9150611e0882612797565b604082019050919050565b6000611e20602083612234565b9150611e2b826127e6565b602082019050919050565b6000611e43602c83612234565b9150611e4e8261280f565b604082019050919050565b6000611e66602f83612234565b9150611e718261285e565b604082019050919050565b6000611e89602183612234565b9150611e94826128ad565b604082019050919050565b6000611eac603183612234565b9150611eb7826128fc565b604082019050919050565b6000611ecf603083612234565b9150611eda8261294b565b604082019050919050565b611eee81612375565b82525050565b6000611f008285611ca7565b9150611f0c8284611ca7565b91508190509392505050565b6000602082019050611f2d6000830184611c17565b92915050565b6000608082019050611f486000830187611c17565b611f556020830186611c17565b611f626040830185611ee5565b8181036060830152611f748184611c35565b905095945050505050565b6000602082019050611f946000830184611c26565b92915050565b60006020820190508181036000830152611fb48184611c6e565b905092915050565b60006020820190508181036000830152611fd581611cd8565b9050919050565b60006020820190508181036000830152611ff581611cfb565b9050919050565b6000602082019050818103600083015261201581611d1e565b9050919050565b6000602082019050818103600083015261203581611d41565b9050919050565b6000602082019050818103600083015261205581611d64565b9050919050565b6000602082019050818103600083015261207581611d87565b9050919050565b6000602082019050818103600083015261209581611daa565b9050919050565b600060208201905081810360008301526120b581611dcd565b9050919050565b600060208201905081810360008301526120d581611df0565b9050919050565b600060208201905081810360008301526120f581611e13565b9050919050565b6000602082019050818103600083015261211581611e36565b9050919050565b6000602082019050818103600083015261213581611e59565b9050919050565b6000602082019050818103600083015261215581611e7c565b9050919050565b6000602082019050818103600083015261217581611e9f565b9050919050565b6000602082019050818103600083015261219581611ec2565b9050919050565b60006020820190506121b16000830184611ee5565b92915050565b60006121c16121d2565b90506121cd82826123f3565b919050565b6000604051905090565b600067ffffffffffffffff8211156121f7576121f661252b565b5b6122008261255a565b9050602081019050919050565b600081519050919050565b600081519050919050565b600082825260208201905092915050565b600082825260208201905092915050565b600081905092915050565b600061225b82612375565b915061226683612375565b9250827fffffffffffffffffffffffffffffffffffffffffffffffffffffffffffffffff0382111561229b5761229a61249e565b5b828201905092915050565b60006122b182612375565b91506122bc83612375565b9250826122cc576122cb6124cd565b5b828204905092915050565b60006122e282612375565b91506122ed83612375565b925082821015612300576122ff61249e565b5b828203905092915050565b600061231682612355565b9050919050565b60008115159050919050565b60007fffffffff0000000000000000000000000000000000000000000000000000000082169050919050565b600073ffffffffffffffffffffffffffffffffffffffff82169050919050565b6000819050919050565b82818337600083830152505050565b60005b838110156123ac578082015181840152602081019050612391565b838111156123bb576000848401525b50505050565b600060028204905060018216806123d957607f821691505b602082108114156123ed576123ec6124fc565b5b50919050565b6123fc8261255a565b810181811067ffffffffffffffff8211171561241b5761241a61252b565b5b80604052505050565b600061242f82612375565b91507fffffffffffffffffffffffffffffffffffffffffffffffffffffffffffffffff8214156124625761246161249e565b5b600182019050919050565b600061247882612375565b915061248383612375565b925082612493576124926124cd565b5b828206905092915050565b7f4e487b7100000000000000000000000000000000000000000000000000000000600052601160045260246000fd5b7f4e487b7100000000000000000000000000000000000000000000000000000000600052601260045260246000fd5b7f4e487b7100000000000000000000000000000000000000000000000000000000600052602260045260246000fd5b7f4e487b7100000000000000000000000000000000000000000000000000000000600052604160045260246000fd5b6000601f19601f8301169050919050565b7f4552433732313a207472616e7366657220746f206e6f6e20455243373231526560008201527f63656976657220696d706c656d656e7465720000000000000000000000000000602082015250565b7f4552433732313a207472616e736665722066726f6d20696e636f72726563742060008201527f6f776e6572000000000000000000000000000000000000000000000000000000602082015250565b7f4552433732313a20746f6b656e20616c7265616479206d696e74656400000000600082015250565b7f4552433732313a207472616e7366657220746f20746865207a65726f2061646460008201527f7265737300000000000000000000000000000000000000000000000000000000602082015250565b7f4552433732313a20617070726f766520746f2063616c6c657200000000000000600082015250565b7f4552433732313a206f70657261746f7220717565727920666f72206e6f6e657860008201527f697374656e7420746f6b656e0000000000000000000000000000000000000000602082015250565b7f4552433732313a20617070726f76652063616c6c6572206973206e6f74206f7760008201527f6e6572206e6f7220617070726f76656420666f7220616c6c0000000000000000602082015250565b7f4552433732313a2062616c616e636520717565727920666f7220746865207a6560008201527f726f206164647265737300000000000000000000000000000000000000000000602082015250565b7f4552433732313a206f776e657220717565727920666f72206e6f6e657869737460008201527f656e7420746f6b656e0000000000000000000000000000000000000000000000602082015250565b7f4552433732313a206d696e7420746f20746865207a65726f2061646472657373600082015250565b7f4552433732313a20617070726f76656420717565727920666f72206e6f6e657860008201527f697374656e7420746f6b656e0000000000000000000000000000000000000000602082015250565b7f4552433732314d657461646174613a2055524920717565727920666f72206e6f60008201527f6e6578697374656e7420746f6b656e0000000000000000000000000000000000602082015250565b7f4552433732313a20617070726f76616c20746f2063757272656e74206f776e6560008201527f7200000000000000000000000000000000000000000000000000000000000000602082015250565b7f4552433732313a207472616e736665722063616c6c6572206973206e6f74206f60008201527f776e6572206e6f7220617070726f766564000000000000000000000000000000602082015250565b7f4552433732314275726e61626c653a2063616c6c6572206973206e6f74206f7760008201527f6e6572206e6f7220617070726f76656400000000000000000000000000000000602082015250565b6129a38161230b565b81146129ae57600080fd5b50565b6129ba8161231d565b81146129c557600080fd5b50565b6129d181612329565b81146129dc57600080fd5b50565b6129e881612375565b81146129f357600080fd5b5056fea26469706673582212204ca9361ededefde8671c53203453cad2b5974dd669975057726057f9037be5cc64736f6c63430008040033",
  "immutableReferences": {},
  "source": "// SPDX-License-Identifier: MIT\npragma solidity ^0.8.0;\n\nimport '@openzeppelin/contracts/token/ERC721/extensions/ERC721Burnable.sol';\nimport '@openzeppelin/contracts/utils/Counters.sol';\n\ncontract ReceiptToken is ERC721Burnable {\n    \n    using Counters for Counters.Counter;\n\n    Counters.Counter private _tokenIds;\n\n    mapping(uint256 => uint256) public receiptData;\n\n    constructor() ERC721(\"ReceiptToken\", \"RPT\") {}\n\n    function createReceipt(address packageSender, uint256 packageTokenId) public returns (uint256) {\n        // TODO - assert that the sender owns the package in question or restrict access to this method to the delivery coordinator only\n        _tokenIds.increment();\n        \n        uint256 newReceiptId = _tokenIds.current();\n        _safeMint(packageSender, newReceiptId);\n        receiptData[newReceiptId] = packageTokenId;\n\n        return newReceiptId;\n    }\n\n}\n",
  "sourcePath": "/home/james/Workspaces/tracking-demo/contracts/ReceiptToken.sol",
  "compiler": {
    "name": "solc",
    "version": "0.8.4+commit.c7e474f2.Emscripten.clang"
  },
  "schemaVersion": "3.4.6",
  "updatedAt": "2022-04-07T15:13:52.702Z",
  "devdoc": {
    "kind": "dev",
    "methods": {
      "approve(address,uint256)": {
        "details": "See {IERC721-approve}."
      },
      "balanceOf(address)": {
        "details": "See {IERC721-balanceOf}."
      },
      "burn(uint256)": {
        "details": "Burns `tokenId`. See {ERC721-_burn}. Requirements: - The caller must own `tokenId` or be an approved operator."
      },
      "getApproved(uint256)": {
        "details": "See {IERC721-getApproved}."
      },
      "isApprovedForAll(address,address)": {
        "details": "See {IERC721-isApprovedForAll}."
      },
      "name()": {
        "details": "See {IERC721Metadata-name}."
      },
      "ownerOf(uint256)": {
        "details": "See {IERC721-ownerOf}."
      },
      "safeTransferFrom(address,address,uint256)": {
        "details": "See {IERC721-safeTransferFrom}."
      },
      "safeTransferFrom(address,address,uint256,bytes)": {
        "details": "See {IERC721-safeTransferFrom}."
      },
      "setApprovalForAll(address,bool)": {
        "details": "See {IERC721-setApprovalForAll}."
      },
      "supportsInterface(bytes4)": {
        "details": "See {IERC165-supportsInterface}."
      },
      "symbol()": {
        "details": "See {IERC721Metadata-symbol}."
      },
      "tokenURI(uint256)": {
        "details": "See {IERC721Metadata-tokenURI}."
      },
      "transferFrom(address,address,uint256)": {
        "details": "See {IERC721-transferFrom}."
      }
    },
    "version": 1
  },
  "userdoc": {
    "kind": "user",
    "methods": {},
    "version": 1
  }
}