{
  "contractName": "ReceiptToken",
  "abi": [
    {
      "inputs": [],
      "stateMutability": "nonpayable",
      "type": "constructor"
    },
    {
      "anonymous": false,
      "inputs": [
        {
          "indexed": true,
          "internalType": "address",
          "name": "owner",
          "type": "address"
        },
        {
          "indexed": true,
          "internalType": "address",
          "name": "approved",
          "type": "address"
        },
        {
          "indexed": true,
          "internalType": "uint256",
          "name": "tokenId",
          "type": "uint256"
        }
      ],
      "name": "Approval",
      "type": "event"
    },
    {
      "anonymous": false,
      "inputs": [
        {
          "indexed": true,
          "internalType": "address",
          "name": "owner",
          "type": "address"
        },
        {
          "indexed": true,
          "internalType": "address",
          "name": "operator",
          "type": "address"
        },
        {
          "indexed": false,
          "internalType": "bool",
          "name": "approved",
          "type": "bool"
        }
      ],
      "name": "ApprovalForAll",
      "type": "event"
    },
    {
      "anonymous": false,
      "inputs": [
        {
          "indexed": true,
          "internalType": "address",
          "name": "previousOwner",
          "type": "address"
        },
        {
          "indexed": true,
          "internalType": "address",
          "name": "newOwner",
          "type": "address"
        }
      ],
      "name": "OwnershipTransferred",
      "type": "event"
    },
    {
      "anonymous": false,
      "inputs": [
        {
          "indexed": true,
          "internalType": "address",
          "name": "from",
          "type": "address"
        },
        {
          "indexed": true,
          "internalType": "address",
          "name": "to",
          "type": "address"
        },
        {
          "indexed": true,
          "internalType": "uint256",
          "name": "tokenId",
          "type": "uint256"
        }
      ],
      "name": "Transfer",
      "type": "event"
    },
    {
      "inputs": [
        {
          "internalType": "address",
          "name": "to",
          "type": "address"
        },
        {
          "internalType": "uint256",
          "name": "tokenId",
          "type": "uint256"
        }
      ],
      "name": "approve",
      "outputs": [],
      "stateMutability": "nonpayable",
      "type": "function"
    },
    {
      "inputs": [
        {
          "internalType": "address",
          "name": "owner",
          "type": "address"
        }
      ],
      "name": "balanceOf",
      "outputs": [
        {
          "internalType": "uint256",
          "name": "",
          "type": "uint256"
        }
      ],
      "stateMutability": "view",
      "type": "function"
    },
    {
      "inputs": [
        {
          "internalType": "uint256",
          "name": "tokenId",
          "type": "uint256"
        }
      ],
      "name": "getApproved",
      "outputs": [
        {
          "internalType": "address",
          "name": "",
          "type": "address"
        }
      ],
      "stateMutability": "view",
      "type": "function"
    },
    {
      "inputs": [
        {
          "internalType": "address",
          "name": "owner",
          "type": "address"
        },
        {
          "internalType": "address",
          "name": "operator",
          "type": "address"
        }
      ],
      "name": "isApprovedForAll",
      "outputs": [
        {
          "internalType": "bool",
          "name": "",
          "type": "bool"
        }
      ],
      "stateMutability": "view",
      "type": "function"
    },
    {
      "inputs": [],
      "name": "name",
      "outputs": [
        {
          "internalType": "string",
          "name": "",
          "type": "string"
        }
      ],
      "stateMutability": "view",
      "type": "function"
    },
    {
      "inputs": [],
      "name": "owner",
      "outputs": [
        {
          "internalType": "address",
          "name": "",
          "type": "address"
        }
      ],
      "stateMutability": "view",
      "type": "function"
    },
    {
      "inputs": [
        {
          "internalType": "uint256",
          "name": "tokenId",
          "type": "uint256"
        }
      ],
      "name": "ownerOf",
      "outputs": [
        {
          "internalType": "address",
          "name": "",
          "type": "address"
        }
      ],
      "stateMutability": "view",
      "type": "function"
    },
    {
      "inputs": [
        {
          "internalType": "uint256",
          "name": "",
          "type": "uint256"
        }
      ],
      "name": "receiptData",
      "outputs": [
        {
          "internalType": "uint256",
          "name": "",
          "type": "uint256"
        }
      ],
      "stateMutability": "view",
      "type": "function"
    },
    {
      "inputs": [],
      "name": "renounceOwnership",
      "outputs": [],
      "stateMutability": "nonpayable",
      "type": "function"
    },
    {
      "inputs": [
        {
          "internalType": "address",
          "name": "from",
          "type": "address"
        },
        {
          "internalType": "address",
          "name": "to",
          "type": "address"
        },
        {
          "internalType": "uint256",
          "name": "tokenId",
          "type": "uint256"
        }
      ],
      "name": "safeTransferFrom",
      "outputs": [],
      "stateMutability": "nonpayable",
      "type": "function"
    },
    {
      "inputs": [
        {
          "internalType": "address",
          "name": "from",
          "type": "address"
        },
        {
          "internalType": "address",
          "name": "to",
          "type": "address"
        },
        {
          "internalType": "uint256",
          "name": "tokenId",
          "type": "uint256"
        },
        {
          "internalType": "bytes",
          "name": "_data",
          "type": "bytes"
        }
      ],
      "name": "safeTransferFrom",
      "outputs": [],
      "stateMutability": "nonpayable",
      "type": "function"
    },
    {
      "inputs": [
        {
          "internalType": "address",
          "name": "operator",
          "type": "address"
        },
        {
          "internalType": "bool",
          "name": "approved",
          "type": "bool"
        }
      ],
      "name": "setApprovalForAll",
      "outputs": [],
      "stateMutability": "nonpayable",
      "type": "function"
    },
    {
      "inputs": [
        {
          "internalType": "bytes4",
          "name": "interfaceId",
          "type": "bytes4"
        }
      ],
      "name": "supportsInterface",
      "outputs": [
        {
          "internalType": "bool",
          "name": "",
          "type": "bool"
        }
      ],
      "stateMutability": "view",
      "type": "function"
    },
    {
      "inputs": [],
      "name": "symbol",
      "outputs": [
        {
          "internalType": "string",
          "name": "",
          "type": "string"
        }
      ],
      "stateMutability": "view",
      "type": "function"
    },
    {
      "inputs": [
        {
          "internalType": "uint256",
          "name": "index",
          "type": "uint256"
        }
      ],
      "name": "tokenByIndex",
      "outputs": [
        {
          "internalType": "uint256",
          "name": "",
          "type": "uint256"
        }
      ],
      "stateMutability": "view",
      "type": "function"
    },
    {
      "inputs": [
        {
          "internalType": "address",
          "name": "owner",
          "type": "address"
        },
        {
          "internalType": "uint256",
          "name": "index",
          "type": "uint256"
        }
      ],
      "name": "tokenOfOwnerByIndex",
      "outputs": [
        {
          "internalType": "uint256",
          "name": "",
          "type": "uint256"
        }
      ],
      "stateMutability": "view",
      "type": "function"
    },
    {
      "inputs": [
        {
          "internalType": "uint256",
          "name": "tokenId",
          "type": "uint256"
        }
      ],
      "name": "tokenURI",
      "outputs": [
        {
          "internalType": "string",
          "name": "",
          "type": "string"
        }
      ],
      "stateMutability": "view",
      "type": "function"
    },
    {
      "inputs": [],
      "name": "totalSupply",
      "outputs": [
        {
          "internalType": "uint256",
          "name": "",
          "type": "uint256"
        }
      ],
      "stateMutability": "view",
      "type": "function"
    },
    {
      "inputs": [
        {
          "internalType": "address",
          "name": "from",
          "type": "address"
        },
        {
          "internalType": "address",
          "name": "to",
          "type": "address"
        },
        {
          "internalType": "uint256",
          "name": "tokenId",
          "type": "uint256"
        }
      ],
      "name": "transferFrom",
      "outputs": [],
      "stateMutability": "nonpayable",
      "type": "function"
    },
    {
      "inputs": [
        {
          "internalType": "address",
          "name": "newOwner",
          "type": "address"
        }
      ],
      "name": "transferOwnership",
      "outputs": [],
      "stateMutability": "nonpayable",
      "type": "function"
    },
    {
      "inputs": [
        {
          "internalType": "address",
          "name": "packageSender",
          "type": "address"
        },
        {
          "internalType": "uint256",
          "name": "packageTokenId",
          "type": "uint256"
        }
      ],
      "name": "createReceipt",
      "outputs": [
        {
          "internalType": "uint256",
          "name": "",
          "type": "uint256"
        }
      ],
      "stateMutability": "nonpayable",
      "type": "function"
    },
    {
      "inputs": [
        {
          "internalType": "uint256",
          "name": "tokenId",
          "type": "uint256"
        }
      ],
      "name": "burn",
      "outputs": [],
      "stateMutability": "nonpayable",
      "type": "function"
    }
  ],
  "bytecode": "0x60806040523480156200001157600080fd5b506040518060400160405280600c81526020017f52656365697074546f6b656e00000000000000000000000000000000000000008152506040518060400160405280600381526020017f5250540000000000000000000000000000000000000000000000000000000000815250816000908051906020019062000096929190620001a6565b508060019080519060200190620000af929190620001a6565b505050620000d2620000c6620000d860201b60201c565b620000e060201b60201c565b620002bb565b600033905090565b6000600a60009054906101000a900473ffffffffffffffffffffffffffffffffffffffff16905081600a60006101000a81548173ffffffffffffffffffffffffffffffffffffffff021916908373ffffffffffffffffffffffffffffffffffffffff1602179055508173ffffffffffffffffffffffffffffffffffffffff168173ffffffffffffffffffffffffffffffffffffffff167f8be0079c531659141344cd1fd0a4f28419497f9722a3daafe3b4186f6b6457e060405160405180910390a35050565b828054620001b49062000256565b90600052602060002090601f016020900481019282620001d8576000855562000224565b82601f10620001f357805160ff191683800117855562000224565b8280016001018555821562000224579182015b828111156200022357825182559160200191906001019062000206565b5b50905062000233919062000237565b5090565b5b808211156200025257600081600090555060010162000238565b5090565b600060028204905060018216806200026f57607f821691505b602082108114156200028657620002856200028c565b5b50919050565b7f4e487b7100000000000000000000000000000000000000000000000000000000600052602260045260246000fd5b61368d80620002cb6000396000f3fe608060405234801561001057600080fd5b50600436106101425760003560e01c80636352211e116100b8578063a22cb4651161007c578063a22cb46514610389578063b88d4fde146103a5578063c87b56dd146103c1578063d62914c9146103f1578063e985e9c514610421578063f2fde38b1461045157610142565b80636352211e146102e357806370a0823114610313578063715018a6146103435780638da5cb5b1461034d57806395d89b411461036b57610142565b806323b872dd1161010a57806323b872dd146101ff57806327d35db71461021b5780632f745c591461024b57806342842e0e1461027b57806342966c68146102975780634f6ccce7146102b357610142565b806301ffc9a71461014757806306fdde0314610177578063081812fc14610195578063095ea7b3146101c557806318160ddd146101e1575b600080fd5b610161600480360381019061015c91906125db565b61046d565b60405161016e9190612a4a565b60405180910390f35b61017f6104e7565b60405161018c9190612a65565b60405180910390f35b6101af60048036038101906101aa919061262d565b610579565b6040516101bc91906129e3565b60405180910390f35b6101df60048036038101906101da919061259f565b6105fe565b005b6101e9610716565b6040516101f69190612ce7565b60405180910390f35b61021960048036038101906102149190612499565b610723565b005b6102356004803603810190610230919061262d565b610783565b6040516102429190612ce7565b60405180910390f35b6102656004803603810190610260919061259f565b61079b565b6040516102729190612ce7565b60405180910390f35b61029560048036038101906102909190612499565b610840565b005b6102b160048036038101906102ac919061262d565b610860565b005b6102cd60048036038101906102c8919061262d565b6108bc565b6040516102da9190612ce7565b60405180910390f35b6102fd60048036038101906102f8919061262d565b610953565b60405161030a91906129e3565b60405180910390f35b61032d60048036038101906103289190612434565b610a05565b60405161033a9190612ce7565b60405180910390f35b61034b610abd565b005b610355610b45565b60405161036291906129e3565b60405180910390f35b610373610b6f565b6040516103809190612a65565b60405180910390f35b6103a3600480360381019061039e9190612563565b610c01565b005b6103bf60048036038101906103ba91906124e8565b610c17565b005b6103db60048036038101906103d6919061262d565b610c79565b6040516103e89190612a65565b60405180910390f35b61040b6004803603810190610406919061259f565b610d20565b6040516104189190612ce7565b60405180910390f35b61043b6004803603810190610436919061245d565b610de2565b6040516104489190612a4a565b60405180910390f35b61046b60048036038101906104669190612434565b610e76565b005b60007f780e9d63000000000000000000000000000000000000000000000000000000007bffffffffffffffffffffffffffffffffffffffffffffffffffffffff1916827bffffffffffffffffffffffffffffffffffffffffffffffffffffffff191614806104e057506104df82610f6e565b5b9050919050565b6060600080546104f690612f0c565b80601f016020809104026020016040519081016040528092919081815260200182805461052290612f0c565b801561056f5780601f106105445761010080835404028352916020019161056f565b820191906000526020600020905b81548152906001019060200180831161055257829003601f168201915b5050505050905090565b600061058482611050565b6105c3576040517f08c379a00000000000000000000000000000000000000000000000000000000081526004016105ba90612c07565b60405180910390fd5b6004600083815260200190815260200160002060009054906101000a900473ffffffffffffffffffffffffffffffffffffffff169050919050565b600061060982610953565b90508073ffffffffffffffffffffffffffffffffffffffff168373ffffffffffffffffffffffffffffffffffffffff16141561067a576040517f08c379a000000000000000000000000000000000000000000000000000000000815260040161067190612c67565b60405180910390fd5b8073ffffffffffffffffffffffffffffffffffffffff166106996110bc565b73ffffffffffffffffffffffffffffffffffffffff1614806106c857506106c7816106c26110bc565b610de2565b5b610707576040517f08c379a00000000000000000000000000000000000000000000000000000000081526004016106fe90612b87565b60405180910390fd5b61071183836110c4565b505050565b6000600880549050905090565b61073461072e6110bc565b8261117d565b610773576040517f08c379a000000000000000000000000000000000000000000000000000000000815260040161076a90612c87565b60405180910390fd5b61077e83838361125b565b505050565b600c6020528060005260406000206000915090505481565b60006107a683610a05565b82106107e7576040517f08c379a00000000000000000000000000000000000000000000000000000000081526004016107de90612a87565b60405180910390fd5b600660008473ffffffffffffffffffffffffffffffffffffffff1673ffffffffffffffffffffffffffffffffffffffff168152602001908152602001600020600083815260200190815260200160002054905092915050565b61085b83838360405180602001604052806000815250610c17565b505050565b61087161086b6110bc565b8261117d565b6108b0576040517f08c379a00000000000000000000000000000000000000000000000000000000081526004016108a790612cc7565b60405180910390fd5b6108b9816114c2565b50565b60006108c6610716565b8210610907576040517f08c379a00000000000000000000000000000000000000000000000000000000081526004016108fe90612ca7565b60405180910390fd5b60088281548110610941577f4e487b7100000000000000000000000000000000000000000000000000000000600052603260045260246000fd5b90600052602060002001549050919050565b6000806002600084815260200190815260200160002060009054906101000a900473ffffffffffffffffffffffffffffffffffffffff169050600073ffffffffffffffffffffffffffffffffffffffff168173ffffffffffffffffffffffffffffffffffffffff1614156109fc576040517f08c379a00000000000000000000000000000000000000000000000000000000081526004016109f390612bc7565b60405180910390fd5b80915050919050565b60008073ffffffffffffffffffffffffffffffffffffffff168273ffffffffffffffffffffffffffffffffffffffff161415610a76576040517f08c379a0000000000000000000000000000000000000000000000000000000008152600401610a6d90612ba7565b60405180910390fd5b600360008373ffffffffffffffffffffffffffffffffffffffff1673ffffffffffffffffffffffffffffffffffffffff168152602001908152602001600020549050919050565b610ac56110bc565b73ffffffffffffffffffffffffffffffffffffffff16610ae3610b45565b73ffffffffffffffffffffffffffffffffffffffff1614610b39576040517f08c379a0000000000000000000000000000000000000000000000000000000008152600401610b3090612c27565b60405180910390fd5b610b4360006115df565b565b6000600a60009054906101000a900473ffffffffffffffffffffffffffffffffffffffff16905090565b606060018054610b7e90612f0c565b80601f0160208091040260200160405190810160405280929190818152602001828054610baa90612f0c565b8015610bf75780601f10610bcc57610100808354040283529160200191610bf7565b820191906000526020600020905b815481529060010190602001808311610bda57829003601f168201915b5050505050905090565b610c13610c0c6110bc565b83836116a5565b5050565b610c28610c226110bc565b8361117d565b610c67576040517f08c379a0000000000000000000000000000000000000000000000000000000008152600401610c5e90612c87565b60405180910390fd5b610c7384848484611812565b50505050565b6060610c8482611050565b610cc3576040517f08c379a0000000000000000000000000000000000000000000000000000000008152600401610cba90612c47565b60405180910390fd5b6000610ccd61186e565b90506000815111610ced5760405180602001604052806000815250610d18565b80610cf784611885565b604051602001610d089291906129bf565b6040516020818303038152906040525b915050919050565b6000610d2a6110bc565b73ffffffffffffffffffffffffffffffffffffffff16610d48610b45565b73ffffffffffffffffffffffffffffffffffffffff1614610d9e576040517f08c379a0000000000000000000000000000000000000000000000000000000008152600401610d9590612c27565b60405180910390fd5b610da8600b611a32565b6000610db4600b611a48565b9050610dc08482611a56565b82600c6000838152602001908152602001600020819055508091505092915050565b6000600560008473ffffffffffffffffffffffffffffffffffffffff1673ffffffffffffffffffffffffffffffffffffffff16815260200190815260200160002060008373ffffffffffffffffffffffffffffffffffffffff1673ffffffffffffffffffffffffffffffffffffffff16815260200190815260200160002060009054906101000a900460ff16905092915050565b610e7e6110bc565b73ffffffffffffffffffffffffffffffffffffffff16610e9c610b45565b73ffffffffffffffffffffffffffffffffffffffff1614610ef2576040517f08c379a0000000000000000000000000000000000000000000000000000000008152600401610ee990612c27565b60405180910390fd5b600073ffffffffffffffffffffffffffffffffffffffff168173ffffffffffffffffffffffffffffffffffffffff161415610f62576040517f08c379a0000000000000000000000000000000000000000000000000000000008152600401610f5990612ac7565b60405180910390fd5b610f6b816115df565b50565b60007f80ac58cd000000000000000000000000000000000000000000000000000000007bffffffffffffffffffffffffffffffffffffffffffffffffffffffff1916827bffffffffffffffffffffffffffffffffffffffffffffffffffffffff1916148061103957507f5b5e139f000000000000000000000000000000000000000000000000000000007bffffffffffffffffffffffffffffffffffffffffffffffffffffffff1916827bffffffffffffffffffffffffffffffffffffffffffffffffffffffff1916145b80611049575061104882611a74565b5b9050919050565b60008073ffffffffffffffffffffffffffffffffffffffff166002600084815260200190815260200160002060009054906101000a900473ffffffffffffffffffffffffffffffffffffffff1673ffffffffffffffffffffffffffffffffffffffff1614159050919050565b600033905090565b816004600083815260200190815260200160002060006101000a81548173ffffffffffffffffffffffffffffffffffffffff021916908373ffffffffffffffffffffffffffffffffffffffff160217905550808273ffffffffffffffffffffffffffffffffffffffff1661113783610953565b73ffffffffffffffffffffffffffffffffffffffff167f8c5be1e5ebec7d5bd14f71427d1e84f3dd0314c0f7b2291e5b200ac8c7c3b92560405160405180910390a45050565b600061118882611050565b6111c7576040517f08c379a00000000000000000000000000000000000000000000000000000000081526004016111be90612b67565b60405180910390fd5b60006111d283610953565b90508073ffffffffffffffffffffffffffffffffffffffff168473ffffffffffffffffffffffffffffffffffffffff16148061124157508373ffffffffffffffffffffffffffffffffffffffff1661122984610579565b73ffffffffffffffffffffffffffffffffffffffff16145b8061125257506112518185610de2565b5b91505092915050565b8273ffffffffffffffffffffffffffffffffffffffff1661127b82610953565b73ffffffffffffffffffffffffffffffffffffffff16146112d1576040517f08c379a00000000000000000000000000000000000000000000000000000000081526004016112c890612ae7565b60405180910390fd5b600073ffffffffffffffffffffffffffffffffffffffff168273ffffffffffffffffffffffffffffffffffffffff161415611341576040517f08c379a000000000000000000000000000000000000000000000000000000000815260040161133890612b27565b60405180910390fd5b61134c838383611ade565b6113576000826110c4565b6001600360008573ffffffffffffffffffffffffffffffffffffffff1673ffffffffffffffffffffffffffffffffffffffff16815260200190815260200160002060008282546113a79190612e22565b925050819055506001600360008473ffffffffffffffffffffffffffffffffffffffff1673ffffffffffffffffffffffffffffffffffffffff16815260200190815260200160002060008282546113fe9190612d9b565b92505081905550816002600083815260200190815260200160002060006101000a81548173ffffffffffffffffffffffffffffffffffffffff021916908373ffffffffffffffffffffffffffffffffffffffff160217905550808273ffffffffffffffffffffffffffffffffffffffff168473ffffffffffffffffffffffffffffffffffffffff167fddf252ad1be2c89b69c2b068fc378daa952ba7f163c4a11628f55a4df523b3ef60405160405180910390a46114bd838383611bf2565b505050565b60006114cd82610953565b90506114db81600084611ade565b6114e66000836110c4565b6001600360008373ffffffffffffffffffffffffffffffffffffffff1673ffffffffffffffffffffffffffffffffffffffff16815260200190815260200160002060008282546115369190612e22565b925050819055506002600083815260200190815260200160002060006101000a81549073ffffffffffffffffffffffffffffffffffffffff021916905581600073ffffffffffffffffffffffffffffffffffffffff168273ffffffffffffffffffffffffffffffffffffffff167fddf252ad1be2c89b69c2b068fc378daa952ba7f163c4a11628f55a4df523b3ef60405160405180910390a46115db81600084611bf2565b5050565b6000600a60009054906101000a900473ffffffffffffffffffffffffffffffffffffffff16905081600a60006101000a81548173ffffffffffffffffffffffffffffffffffffffff021916908373ffffffffffffffffffffffffffffffffffffffff1602179055508173ffffffffffffffffffffffffffffffffffffffff168173ffffffffffffffffffffffffffffffffffffffff167f8be0079c531659141344cd1fd0a4f28419497f9722a3daafe3b4186f6b6457e060405160405180910390a35050565b8173ffffffffffffffffffffffffffffffffffffffff168373ffffffffffffffffffffffffffffffffffffffff161415611714576040517f08c379a000000000000000000000000000000000000000000000000000000000815260040161170b90612b47565b60405180910390fd5b80600560008573ffffffffffffffffffffffffffffffffffffffff1673ffffffffffffffffffffffffffffffffffffffff16815260200190815260200160002060008473ffffffffffffffffffffffffffffffffffffffff1673ffffffffffffffffffffffffffffffffffffffff16815260200190815260200160002060006101000a81548160ff0219169083151502179055508173ffffffffffffffffffffffffffffffffffffffff168373ffffffffffffffffffffffffffffffffffffffff167f17307eab39ab6107e8899845ad3d59bd9653f200f220920489ca2b5937696c31836040516118059190612a4a565b60405180910390a3505050565b61181d84848461125b565b61182984848484611bf7565b611868576040517f08c379a000000000000000000000000000000000000000000000000000000000815260040161185f90612aa7565b60405180910390fd5b50505050565b606060405180602001604052806000815250905090565b606060008214156118cd576040518060400160405280600181526020017f30000000000000000000000000000000000000000000000000000000000000008152509050611a2d565b600082905060005b600082146118ff5780806118e890612f6f565b915050600a826118f89190612df1565b91506118d5565b60008167ffffffffffffffff811115611941577f4e487b7100000000000000000000000000000000000000000000000000000000600052604160045260246000fd5b6040519080825280601f01601f1916602001820160405280156119735781602001600182028036833780820191505090505b5090505b60008514611a265760018261198c9190612e22565b9150600a8561199b9190612fb8565b60306119a79190612d9b565b60f81b8183815181106119e3577f4e487b7100000000000000000000000000000000000000000000000000000000600052603260045260246000fd5b60200101907effffffffffffffffffffffffffffffffffffffffffffffffffffffffffffff1916908160001a905350600a85611a1f9190612df1565b9450611977565b8093505050505b919050565b6001816000016000828254019250508190555050565b600081600001549050919050565b611a70828260405180602001604052806000815250611d8e565b5050565b60007f01ffc9a7000000000000000000000000000000000000000000000000000000007bffffffffffffffffffffffffffffffffffffffffffffffffffffffff1916827bffffffffffffffffffffffffffffffffffffffffffffffffffffffff1916149050919050565b611ae9838383611de9565b600073ffffffffffffffffffffffffffffffffffffffff168373ffffffffffffffffffffffffffffffffffffffff161415611b2c57611b2781611dee565b611b6b565b8173ffffffffffffffffffffffffffffffffffffffff168373ffffffffffffffffffffffffffffffffffffffff1614611b6a57611b698382611e37565b5b5b600073ffffffffffffffffffffffffffffffffffffffff168273ffffffffffffffffffffffffffffffffffffffff161415611bae57611ba981611fa4565b611bed565b8273ffffffffffffffffffffffffffffffffffffffff168273ffffffffffffffffffffffffffffffffffffffff1614611bec57611beb82826120e7565b5b5b505050565b505050565b6000611c188473ffffffffffffffffffffffffffffffffffffffff16612166565b15611d81578373ffffffffffffffffffffffffffffffffffffffff1663150b7a02611c416110bc565b8786866040518563ffffffff1660e01b8152600401611c6394939291906129fe565b602060405180830381600087803b158015611c7d57600080fd5b505af1925050508015611cae57506040513d601f19601f82011682018060405250810190611cab9190612604565b60015b611d31573d8060008114611cde576040519150601f19603f3d011682016040523d82523d6000602084013e611ce3565b606091505b50600081511415611d29576040517f08c379a0000000000000000000000000000000000000000000000000000000008152600401611d2090612aa7565b60405180910390fd5b805181602001fd5b63150b7a0260e01b7bffffffffffffffffffffffffffffffffffffffffffffffffffffffff1916817bffffffffffffffffffffffffffffffffffffffffffffffffffffffff191614915050611d86565b600190505b949350505050565b611d988383612189565b611da56000848484611bf7565b611de4576040517f08c379a0000000000000000000000000000000000000000000000000000000008152600401611ddb90612aa7565b60405180910390fd5b505050565b505050565b6008805490506009600083815260200190815260200160002081905550600881908060018154018082558091505060019003906000526020600020016000909190919091505550565b60006001611e4484610a05565b611e4e9190612e22565b9050600060076000848152602001908152602001600020549050818114611f33576000600660008673ffffffffffffffffffffffffffffffffffffffff1673ffffffffffffffffffffffffffffffffffffffff168152602001908152602001600020600084815260200190815260200160002054905080600660008773ffffffffffffffffffffffffffffffffffffffff1673ffffffffffffffffffffffffffffffffffffffff168152602001908152602001600020600084815260200190815260200160002081905550816007600083815260200190815260200160002081905550505b6007600084815260200190815260200160002060009055600660008573ffffffffffffffffffffffffffffffffffffffff1673ffffffffffffffffffffffffffffffffffffffff16815260200190815260200160002060008381526020019081526020016000206000905550505050565b60006001600880549050611fb89190612e22565b905060006009600084815260200190815260200160002054905060006008838154811061200e577f4e487b7100000000000000000000000000000000000000000000000000000000600052603260045260246000fd5b906000526020600020015490508060088381548110612056577f4e487b7100000000000000000000000000000000000000000000000000000000600052603260045260246000fd5b9060005260206000200181905550816009600083815260200190815260200160002081905550600960008581526020019081526020016000206000905560088054806120cb577f4e487b7100000000000000000000000000000000000000000000000000000000600052603160045260246000fd5b6001900381819060005260206000200160009055905550505050565b60006120f283610a05565b905081600660008573ffffffffffffffffffffffffffffffffffffffff1673ffffffffffffffffffffffffffffffffffffffff168152602001908152602001600020600083815260200190815260200160002081905550806007600084815260200190815260200160002081905550505050565b6000808273ffffffffffffffffffffffffffffffffffffffff163b119050919050565b600073ffffffffffffffffffffffffffffffffffffffff168273ffffffffffffffffffffffffffffffffffffffff1614156121f9576040517f08c379a00000000000000000000000000000000000000000000000000000000081526004016121f090612be7565b60405180910390fd5b61220281611050565b15612242576040517f08c379a000000000000000000000000000000000000000000000000000000000815260040161223990612b07565b60405180910390fd5b61224e60008383611ade565b6001600360008473ffffffffffffffffffffffffffffffffffffffff1673ffffffffffffffffffffffffffffffffffffffff168152602001908152602001600020600082825461229e9190612d9b565b92505081905550816002600083815260200190815260200160002060006101000a81548173ffffffffffffffffffffffffffffffffffffffff021916908373ffffffffffffffffffffffffffffffffffffffff160217905550808273ffffffffffffffffffffffffffffffffffffffff16600073ffffffffffffffffffffffffffffffffffffffff167fddf252ad1be2c89b69c2b068fc378daa952ba7f163c4a11628f55a4df523b3ef60405160405180910390a461235f60008383611bf2565b5050565b600061237661237184612d27565b612d02565b90508281526020810184848401111561238e57600080fd5b612399848285612eca565b509392505050565b6000813590506123b0816135fb565b92915050565b6000813590506123c581613612565b92915050565b6000813590506123da81613629565b92915050565b6000815190506123ef81613629565b92915050565b600082601f83011261240657600080fd5b8135612416848260208601612363565b91505092915050565b60008135905061242e81613640565b92915050565b60006020828403121561244657600080fd5b6000612454848285016123a1565b91505092915050565b6000806040838503121561247057600080fd5b600061247e858286016123a1565b925050602061248f858286016123a1565b9150509250929050565b6000806000606084860312156124ae57600080fd5b60006124bc868287016123a1565b93505060206124cd868287016123a1565b92505060406124de8682870161241f565b9150509250925092565b600080600080608085870312156124fe57600080fd5b600061250c878288016123a1565b945050602061251d878288016123a1565b935050604061252e8782880161241f565b925050606085013567ffffffffffffffff81111561254b57600080fd5b612557878288016123f5565b91505092959194509250565b6000806040838503121561257657600080fd5b6000612584858286016123a1565b9250506020612595858286016123b6565b9150509250929050565b600080604083850312156125b257600080fd5b60006125c0858286016123a1565b92505060206125d18582860161241f565b9150509250929050565b6000602082840312156125ed57600080fd5b60006125fb848285016123cb565b91505092915050565b60006020828403121561261657600080fd5b6000612624848285016123e0565b91505092915050565b60006020828403121561263f57600080fd5b600061264d8482850161241f565b91505092915050565b61265f81612e56565b82525050565b61266e81612e68565b82525050565b600061267f82612d58565b6126898185612d6e565b9350612699818560208601612ed9565b6126a2816130a5565b840191505092915050565b60006126b882612d63565b6126c28185612d7f565b93506126d2818560208601612ed9565b6126db816130a5565b840191505092915050565b60006126f182612d63565b6126fb8185612d90565b935061270b818560208601612ed9565b80840191505092915050565b6000612724602b83612d7f565b915061272f826130b6565b604082019050919050565b6000612747603283612d7f565b915061275282613105565b604082019050919050565b600061276a602683612d7f565b915061277582613154565b604082019050919050565b600061278d602583612d7f565b9150612798826131a3565b604082019050919050565b60006127b0601c83612d7f565b91506127bb826131f2565b602082019050919050565b60006127d3602483612d7f565b91506127de8261321b565b604082019050919050565b60006127f6601983612d7f565b91506128018261326a565b602082019050919050565b6000612819602c83612d7f565b915061282482613293565b604082019050919050565b600061283c603883612d7f565b9150612847826132e2565b604082019050919050565b600061285f602a83612d7f565b915061286a82613331565b604082019050919050565b6000612882602983612d7f565b915061288d82613380565b604082019050919050565b60006128a5602083612d7f565b91506128b0826133cf565b602082019050919050565b60006128c8602c83612d7f565b91506128d3826133f8565b604082019050919050565b60006128eb602083612d7f565b91506128f682613447565b602082019050919050565b600061290e602f83612d7f565b915061291982613470565b604082019050919050565b6000612931602183612d7f565b915061293c826134bf565b604082019050919050565b6000612954603183612d7f565b915061295f8261350e565b604082019050919050565b6000612977602c83612d7f565b91506129828261355d565b604082019050919050565b600061299a603083612d7f565b91506129a5826135ac565b604082019050919050565b6129b981612ec0565b82525050565b60006129cb82856126e6565b91506129d782846126e6565b91508190509392505050565b60006020820190506129f86000830184612656565b92915050565b6000608082019050612a136000830187612656565b612a206020830186612656565b612a2d60408301856129b0565b8181036060830152612a3f8184612674565b905095945050505050565b6000602082019050612a5f6000830184612665565b92915050565b60006020820190508181036000830152612a7f81846126ad565b905092915050565b60006020820190508181036000830152612aa081612717565b9050919050565b60006020820190508181036000830152612ac08161273a565b9050919050565b60006020820190508181036000830152612ae08161275d565b9050919050565b60006020820190508181036000830152612b0081612780565b9050919050565b60006020820190508181036000830152612b20816127a3565b9050919050565b60006020820190508181036000830152612b40816127c6565b9050919050565b60006020820190508181036000830152612b60816127e9565b9050919050565b60006020820190508181036000830152612b808161280c565b9050919050565b60006020820190508181036000830152612ba08161282f565b9050919050565b60006020820190508181036000830152612bc081612852565b9050919050565b60006020820190508181036000830152612be081612875565b9050919050565b60006020820190508181036000830152612c0081612898565b9050919050565b60006020820190508181036000830152612c20816128bb565b9050919050565b60006020820190508181036000830152612c40816128de565b9050919050565b60006020820190508181036000830152612c6081612901565b9050919050565b60006020820190508181036000830152612c8081612924565b9050919050565b60006020820190508181036000830152612ca081612947565b9050919050565b60006020820190508181036000830152612cc08161296a565b9050919050565b60006020820190508181036000830152612ce08161298d565b9050919050565b6000602082019050612cfc60008301846129b0565b92915050565b6000612d0c612d1d565b9050612d188282612f3e565b919050565b6000604051905090565b600067ffffffffffffffff821115612d4257612d41613076565b5b612d4b826130a5565b9050602081019050919050565b600081519050919050565b600081519050919050565b600082825260208201905092915050565b600082825260208201905092915050565b600081905092915050565b6000612da682612ec0565b9150612db183612ec0565b9250827fffffffffffffffffffffffffffffffffffffffffffffffffffffffffffffffff03821115612de657612de5612fe9565b5b828201905092915050565b6000612dfc82612ec0565b9150612e0783612ec0565b925082612e1757612e16613018565b5b828204905092915050565b6000612e2d82612ec0565b9150612e3883612ec0565b925082821015612e4b57612e4a612fe9565b5b828203905092915050565b6000612e6182612ea0565b9050919050565b60008115159050919050565b60007fffffffff0000000000000000000000000000000000000000000000000000000082169050919050565b600073ffffffffffffffffffffffffffffffffffffffff82169050919050565b6000819050919050565b82818337600083830152505050565b60005b83811015612ef7578082015181840152602081019050612edc565b83811115612f06576000848401525b50505050565b60006002820490506001821680612f2457607f821691505b60208210811415612f3857612f37613047565b5b50919050565b612f47826130a5565b810181811067ffffffffffffffff82111715612f6657612f65613076565b5b80604052505050565b6000612f7a82612ec0565b91507fffffffffffffffffffffffffffffffffffffffffffffffffffffffffffffffff821415612fad57612fac612fe9565b5b600182019050919050565b6000612fc382612ec0565b9150612fce83612ec0565b925082612fde57612fdd613018565b5b828206905092915050565b7f4e487b7100000000000000000000000000000000000000000000000000000000600052601160045260246000fd5b7f4e487b7100000000000000000000000000000000000000000000000000000000600052601260045260246000fd5b7f4e487b7100000000000000000000000000000000000000000000000000000000600052602260045260246000fd5b7f4e487b7100000000000000000000000000000000000000000000000000000000600052604160045260246000fd5b6000601f19601f8301169050919050565b7f455243373231456e756d657261626c653a206f776e657220696e646578206f7560008201527f74206f6620626f756e6473000000000000000000000000000000000000000000602082015250565b7f4552433732313a207472616e7366657220746f206e6f6e20455243373231526560008201527f63656976657220696d706c656d656e7465720000000000000000000000000000602082015250565b7f4f776e61626c653a206e6577206f776e657220697320746865207a65726f206160008201527f6464726573730000000000000000000000000000000000000000000000000000602082015250565b7f4552433732313a207472616e736665722066726f6d20696e636f72726563742060008201527f6f776e6572000000000000000000000000000000000000000000000000000000602082015250565b7f4552433732313a20746f6b656e20616c7265616479206d696e74656400000000600082015250565b7f4552433732313a207472616e7366657220746f20746865207a65726f2061646460008201527f7265737300000000000000000000000000000000000000000000000000000000602082015250565b7f4552433732313a20617070726f766520746f2063616c6c657200000000000000600082015250565b7f4552433732313a206f70657261746f7220717565727920666f72206e6f6e657860008201527f697374656e7420746f6b656e0000000000000000000000000000000000000000602082015250565b7f4552433732313a20617070726f76652063616c6c6572206973206e6f74206f7760008201527f6e6572206e6f7220617070726f76656420666f7220616c6c0000000000000000602082015250565b7f4552433732313a2062616c616e636520717565727920666f7220746865207a6560008201527f726f206164647265737300000000000000000000000000000000000000000000602082015250565b7f4552433732313a206f776e657220717565727920666f72206e6f6e657869737460008201527f656e7420746f6b656e0000000000000000000000000000000000000000000000602082015250565b7f4552433732313a206d696e7420746f20746865207a65726f2061646472657373600082015250565b7f4552433732313a20617070726f76656420717565727920666f72206e6f6e657860008201527f697374656e7420746f6b656e0000000000000000000000000000000000000000602082015250565b7f4f776e61626c653a2063616c6c6572206973206e6f7420746865206f776e6572600082015250565b7f4552433732314d657461646174613a2055524920717565727920666f72206e6f60008201527f6e6578697374656e7420746f6b656e0000000000000000000000000000000000602082015250565b7f4552433732313a20617070726f76616c20746f2063757272656e74206f776e6560008201527f7200000000000000000000000000000000000000000000000000000000000000602082015250565b7f4552433732313a207472616e736665722063616c6c6572206973206e6f74206f60008201527f776e6572206e6f7220617070726f766564000000000000000000000000000000602082015250565b7f455243373231456e756d657261626c653a20676c6f62616c20696e646578206f60008201527f7574206f6620626f756e64730000000000000000000000000000000000000000602082015250565b7f4552433732314275726e61626c653a2063616c6c6572206973206e6f74206f7760008201527f6e6572206e6f7220617070726f76656400000000000000000000000000000000602082015250565b61360481612e56565b811461360f57600080fd5b50565b61361b81612e68565b811461362657600080fd5b50565b61363281612e74565b811461363d57600080fd5b50565b61364981612ec0565b811461365457600080fd5b5056fea26469706673582212207288233b7de580ea11f7c362a01bccd0e12eb042b500181b4d6c07dc005d377a64736f6c63430008040033",
  "immutableReferences": {},
  "source": "// SPDX-License-Identifier: MIT\npragma solidity ^0.8.0;\n\nimport '@openzeppelin/contracts/access/Ownable.sol';\nimport '@openzeppelin/contracts/token/ERC721/extensions/ERC721Enumerable.sol';\nimport '@openzeppelin/contracts/utils/Counters.sol';\n\ncontract ReceiptToken is ERC721Enumerable, Ownable {\n    \n    using Counters for Counters.Counter;\n\n    Counters.Counter private _tokenIds;\n\n    mapping(uint256 => uint256) public receiptData;\n\n    constructor() ERC721(\"ReceiptToken\", \"RPT\") {}\n\n    function createReceipt(address packageSender, uint256 packageTokenId) external onlyOwner returns (uint256) {\n        _tokenIds.increment();\n        \n        uint256 newReceiptId = _tokenIds.current();\n        _safeMint(packageSender, newReceiptId);\n        receiptData[newReceiptId] = packageTokenId;\n\n        return newReceiptId;\n    }\n\n    // Taken from ERC721Burnable\n    function burn(uint256 tokenId) public virtual {\n        //solhint-disable-next-line max-line-length\n        require(_isApprovedOrOwner(_msgSender(), tokenId), \"ERC721Burnable: caller is not owner nor approved\");\n        _burn(tokenId);\n    }\n\n}\n",
  "sourcePath": "/home/james/Workspaces/tracking-demo/contracts/ReceiptToken.sol",
  "compiler": {
    "name": "solc",
    "version": "0.8.4+commit.c7e474f2.Emscripten.clang"
  },
  "schemaVersion": "3.4.6",
  "updatedAt": "2022-05-17T13:54:13.177Z",
  "devdoc": {
    "kind": "dev",
    "methods": {
      "approve(address,uint256)": {
        "details": "See {IERC721-approve}."
      },
      "balanceOf(address)": {
        "details": "See {IERC721-balanceOf}."
      },
      "getApproved(uint256)": {
        "details": "See {IERC721-getApproved}."
      },
      "isApprovedForAll(address,address)": {
        "details": "See {IERC721-isApprovedForAll}."
      },
      "name()": {
        "details": "See {IERC721Metadata-name}."
      },
      "owner()": {
        "details": "Returns the address of the current owner."
      },
      "ownerOf(uint256)": {
        "details": "See {IERC721-ownerOf}."
      },
      "renounceOwnership()": {
        "details": "Leaves the contract without owner. It will not be possible to call `onlyOwner` functions anymore. Can only be called by the current owner. NOTE: Renouncing ownership will leave the contract without an owner, thereby removing any functionality that is only available to the owner."
      },
      "safeTransferFrom(address,address,uint256)": {
        "details": "See {IERC721-safeTransferFrom}."
      },
      "safeTransferFrom(address,address,uint256,bytes)": {
        "details": "See {IERC721-safeTransferFrom}."
      },
      "setApprovalForAll(address,bool)": {
        "details": "See {IERC721-setApprovalForAll}."
      },
      "supportsInterface(bytes4)": {
        "details": "See {IERC165-supportsInterface}."
      },
      "symbol()": {
        "details": "See {IERC721Metadata-symbol}."
      },
      "tokenByIndex(uint256)": {
        "details": "See {IERC721Enumerable-tokenByIndex}."
      },
      "tokenOfOwnerByIndex(address,uint256)": {
        "details": "See {IERC721Enumerable-tokenOfOwnerByIndex}."
      },
      "tokenURI(uint256)": {
        "details": "See {IERC721Metadata-tokenURI}."
      },
      "totalSupply()": {
        "details": "See {IERC721Enumerable-totalSupply}."
      },
      "transferFrom(address,address,uint256)": {
        "details": "See {IERC721-transferFrom}."
      },
      "transferOwnership(address)": {
        "details": "Transfers ownership of the contract to a new account (`newOwner`). Can only be called by the current owner."
      }
    },
    "version": 1
  },
  "userdoc": {
    "kind": "user",
    "methods": {},
    "version": 1
  }
}