{
  "contractName": "ReceiptToken",
  "abi": [
    {
      "inputs": [],
      "stateMutability": "nonpayable",
      "type": "constructor"
    },
    {
      "anonymous": false,
      "inputs": [
        {
          "indexed": true,
          "internalType": "address",
          "name": "owner",
          "type": "address"
        },
        {
          "indexed": true,
          "internalType": "address",
          "name": "approved",
          "type": "address"
        },
        {
          "indexed": true,
          "internalType": "uint256",
          "name": "tokenId",
          "type": "uint256"
        }
      ],
      "name": "Approval",
      "type": "event"
    },
    {
      "anonymous": false,
      "inputs": [
        {
          "indexed": true,
          "internalType": "address",
          "name": "owner",
          "type": "address"
        },
        {
          "indexed": true,
          "internalType": "address",
          "name": "operator",
          "type": "address"
        },
        {
          "indexed": false,
          "internalType": "bool",
          "name": "approved",
          "type": "bool"
        }
      ],
      "name": "ApprovalForAll",
      "type": "event"
    },
    {
      "anonymous": false,
      "inputs": [
        {
          "indexed": true,
          "internalType": "address",
          "name": "previousOwner",
          "type": "address"
        },
        {
          "indexed": true,
          "internalType": "address",
          "name": "newOwner",
          "type": "address"
        }
      ],
      "name": "OwnershipTransferred",
      "type": "event"
    },
    {
      "anonymous": false,
      "inputs": [
        {
          "indexed": true,
          "internalType": "address",
          "name": "from",
          "type": "address"
        },
        {
          "indexed": true,
          "internalType": "address",
          "name": "to",
          "type": "address"
        },
        {
          "indexed": true,
          "internalType": "uint256",
          "name": "tokenId",
          "type": "uint256"
        }
      ],
      "name": "Transfer",
      "type": "event"
    },
    {
      "inputs": [
        {
          "internalType": "address",
          "name": "to",
          "type": "address"
        },
        {
          "internalType": "uint256",
          "name": "tokenId",
          "type": "uint256"
        }
      ],
      "name": "approve",
      "outputs": [],
      "stateMutability": "nonpayable",
      "type": "function"
    },
    {
      "inputs": [
        {
          "internalType": "address",
          "name": "owner",
          "type": "address"
        }
      ],
      "name": "balanceOf",
      "outputs": [
        {
          "internalType": "uint256",
          "name": "",
          "type": "uint256"
        }
      ],
      "stateMutability": "view",
      "type": "function"
    },
    {
      "inputs": [
        {
          "internalType": "uint256",
          "name": "tokenId",
          "type": "uint256"
        }
      ],
      "name": "burn",
      "outputs": [],
      "stateMutability": "nonpayable",
      "type": "function"
    },
    {
      "inputs": [
        {
          "internalType": "uint256",
          "name": "tokenId",
          "type": "uint256"
        }
      ],
      "name": "getApproved",
      "outputs": [
        {
          "internalType": "address",
          "name": "",
          "type": "address"
        }
      ],
      "stateMutability": "view",
      "type": "function"
    },
    {
      "inputs": [
        {
          "internalType": "address",
          "name": "owner",
          "type": "address"
        },
        {
          "internalType": "address",
          "name": "operator",
          "type": "address"
        }
      ],
      "name": "isApprovedForAll",
      "outputs": [
        {
          "internalType": "bool",
          "name": "",
          "type": "bool"
        }
      ],
      "stateMutability": "view",
      "type": "function"
    },
    {
      "inputs": [],
      "name": "name",
      "outputs": [
        {
          "internalType": "string",
          "name": "",
          "type": "string"
        }
      ],
      "stateMutability": "view",
      "type": "function"
    },
    {
      "inputs": [],
      "name": "owner",
      "outputs": [
        {
          "internalType": "address",
          "name": "",
          "type": "address"
        }
      ],
      "stateMutability": "view",
      "type": "function"
    },
    {
      "inputs": [
        {
          "internalType": "uint256",
          "name": "tokenId",
          "type": "uint256"
        }
      ],
      "name": "ownerOf",
      "outputs": [
        {
          "internalType": "address",
          "name": "",
          "type": "address"
        }
      ],
      "stateMutability": "view",
      "type": "function"
    },
    {
      "inputs": [
        {
          "internalType": "uint256",
          "name": "",
          "type": "uint256"
        }
      ],
      "name": "receiptData",
      "outputs": [
        {
          "internalType": "uint256",
          "name": "",
          "type": "uint256"
        }
      ],
      "stateMutability": "view",
      "type": "function"
    },
    {
      "inputs": [],
      "name": "renounceOwnership",
      "outputs": [],
      "stateMutability": "nonpayable",
      "type": "function"
    },
    {
      "inputs": [
        {
          "internalType": "address",
          "name": "from",
          "type": "address"
        },
        {
          "internalType": "address",
          "name": "to",
          "type": "address"
        },
        {
          "internalType": "uint256",
          "name": "tokenId",
          "type": "uint256"
        }
      ],
      "name": "safeTransferFrom",
      "outputs": [],
      "stateMutability": "nonpayable",
      "type": "function"
    },
    {
      "inputs": [
        {
          "internalType": "address",
          "name": "from",
          "type": "address"
        },
        {
          "internalType": "address",
          "name": "to",
          "type": "address"
        },
        {
          "internalType": "uint256",
          "name": "tokenId",
          "type": "uint256"
        },
        {
          "internalType": "bytes",
          "name": "_data",
          "type": "bytes"
        }
      ],
      "name": "safeTransferFrom",
      "outputs": [],
      "stateMutability": "nonpayable",
      "type": "function"
    },
    {
      "inputs": [
        {
          "internalType": "address",
          "name": "operator",
          "type": "address"
        },
        {
          "internalType": "bool",
          "name": "approved",
          "type": "bool"
        }
      ],
      "name": "setApprovalForAll",
      "outputs": [],
      "stateMutability": "nonpayable",
      "type": "function"
    },
    {
      "inputs": [
        {
          "internalType": "bytes4",
          "name": "interfaceId",
          "type": "bytes4"
        }
      ],
      "name": "supportsInterface",
      "outputs": [
        {
          "internalType": "bool",
          "name": "",
          "type": "bool"
        }
      ],
      "stateMutability": "view",
      "type": "function"
    },
    {
      "inputs": [],
      "name": "symbol",
      "outputs": [
        {
          "internalType": "string",
          "name": "",
          "type": "string"
        }
      ],
      "stateMutability": "view",
      "type": "function"
    },
    {
      "inputs": [
        {
          "internalType": "uint256",
          "name": "tokenId",
          "type": "uint256"
        }
      ],
      "name": "tokenURI",
      "outputs": [
        {
          "internalType": "string",
          "name": "",
          "type": "string"
        }
      ],
      "stateMutability": "view",
      "type": "function"
    },
    {
      "inputs": [
        {
          "internalType": "address",
          "name": "from",
          "type": "address"
        },
        {
          "internalType": "address",
          "name": "to",
          "type": "address"
        },
        {
          "internalType": "uint256",
          "name": "tokenId",
          "type": "uint256"
        }
      ],
      "name": "transferFrom",
      "outputs": [],
      "stateMutability": "nonpayable",
      "type": "function"
    },
    {
      "inputs": [
        {
          "internalType": "address",
          "name": "newOwner",
          "type": "address"
        }
      ],
      "name": "transferOwnership",
      "outputs": [],
      "stateMutability": "nonpayable",
      "type": "function"
    },
    {
      "inputs": [
        {
          "internalType": "address",
          "name": "packageSender",
          "type": "address"
        },
        {
          "internalType": "uint256",
          "name": "packageTokenId",
          "type": "uint256"
        }
      ],
      "name": "createReceipt",
      "outputs": [
        {
          "internalType": "uint256",
          "name": "",
          "type": "uint256"
        }
      ],
      "stateMutability": "nonpayable",
      "type": "function"
    }
  ],
  "bytecode": "0x60806040523480156200001157600080fd5b506040518060400160405280600c81526020017f52656365697074546f6b656e00000000000000000000000000000000000000008152506040518060400160405280600381526020017f5250540000000000000000000000000000000000000000000000000000000000815250816000908051906020019062000096929190620001a6565b508060019080519060200190620000af929190620001a6565b505050620000d2620000c6620000d860201b60201c565b620000e060201b60201c565b620002bb565b600033905090565b6000600660009054906101000a900473ffffffffffffffffffffffffffffffffffffffff16905081600660006101000a81548173ffffffffffffffffffffffffffffffffffffffff021916908373ffffffffffffffffffffffffffffffffffffffff1602179055508173ffffffffffffffffffffffffffffffffffffffff168173ffffffffffffffffffffffffffffffffffffffff167f8be0079c531659141344cd1fd0a4f28419497f9722a3daafe3b4186f6b6457e060405160405180910390a35050565b828054620001b49062000256565b90600052602060002090601f016020900481019282620001d8576000855562000224565b82601f10620001f357805160ff191683800117855562000224565b8280016001018555821562000224579182015b828111156200022357825182559160200191906001019062000206565b5b50905062000233919062000237565b5090565b5b808211156200025257600081600090555060010162000238565b5090565b600060028204905060018216806200026f57607f821691505b602082108114156200028657620002856200028c565b5b50919050565b7f4e487b7100000000000000000000000000000000000000000000000000000000600052602260045260246000fd5b612e7b80620002cb6000396000f3fe608060405234801561001057600080fd5b50600436106101215760003560e01c806370a08231116100ad578063b88d4fde11610071578063b88d4fde14610306578063c87b56dd14610322578063d62914c914610352578063e985e9c514610382578063f2fde38b146103b257610121565b806370a0823114610274578063715018a6146102a45780638da5cb5b146102ae57806395d89b41146102cc578063a22cb465146102ea57610121565b806323b872dd116100f457806323b872dd146101c057806327d35db7146101dc57806342842e0e1461020c57806342966c68146102285780636352211e1461024457610121565b806301ffc9a71461012657806306fdde0314610156578063081812fc14610174578063095ea7b3146101a4575b600080fd5b610140600480360381019061013b9190611eed565b6103ce565b60405161014d9190612316565b60405180910390f35b61015e6104b0565b60405161016b9190612331565b60405180910390f35b61018e60048036038101906101899190611f3f565b610542565b60405161019b91906122af565b60405180910390f35b6101be60048036038101906101b99190611eb1565b6105c7565b005b6101da60048036038101906101d59190611dab565b6106df565b005b6101f660048036038101906101f19190611f3f565b61073f565b6040516102039190612573565b60405180910390f35b61022660048036038101906102219190611dab565b610757565b005b610242600480360381019061023d9190611f3f565b610777565b005b61025e60048036038101906102599190611f3f565b6107d3565b60405161026b91906122af565b60405180910390f35b61028e60048036038101906102899190611d46565b610885565b60405161029b9190612573565b60405180910390f35b6102ac61093d565b005b6102b66109c5565b6040516102c391906122af565b60405180910390f35b6102d46109ef565b6040516102e19190612331565b60405180910390f35b61030460048036038101906102ff9190611e75565b610a81565b005b610320600480360381019061031b9190611dfa565b610a97565b005b61033c60048036038101906103379190611f3f565b610af9565b6040516103499190612331565b60405180910390f35b61036c60048036038101906103679190611eb1565b610ba0565b6040516103799190612573565b60405180910390f35b61039c60048036038101906103979190611d6f565b610c62565b6040516103a99190612316565b60405180910390f35b6103cc60048036038101906103c79190611d46565b610cf6565b005b60007f80ac58cd000000000000000000000000000000000000000000000000000000007bffffffffffffffffffffffffffffffffffffffffffffffffffffffff1916827bffffffffffffffffffffffffffffffffffffffffffffffffffffffff1916148061049957507f5b5e139f000000000000000000000000000000000000000000000000000000007bffffffffffffffffffffffffffffffffffffffffffffffffffffffff1916827bffffffffffffffffffffffffffffffffffffffffffffffffffffffff1916145b806104a957506104a882610dee565b5b9050919050565b6060600080546104bf90612798565b80601f01602080910402602001604051908101604052809291908181526020018280546104eb90612798565b80156105385780601f1061050d57610100808354040283529160200191610538565b820191906000526020600020905b81548152906001019060200180831161051b57829003601f168201915b5050505050905090565b600061054d82610e58565b61058c576040517f08c379a0000000000000000000000000000000000000000000000000000000008152600401610583906124b3565b60405180910390fd5b6004600083815260200190815260200160002060009054906101000a900473ffffffffffffffffffffffffffffffffffffffff169050919050565b60006105d2826107d3565b90508073ffffffffffffffffffffffffffffffffffffffff168373ffffffffffffffffffffffffffffffffffffffff161415610643576040517f08c379a000000000000000000000000000000000000000000000000000000000815260040161063a90612513565b60405180910390fd5b8073ffffffffffffffffffffffffffffffffffffffff16610662610ec4565b73ffffffffffffffffffffffffffffffffffffffff16148061069157506106908161068b610ec4565b610c62565b5b6106d0576040517f08c379a00000000000000000000000000000000000000000000000000000000081526004016106c790612433565b60405180910390fd5b6106da8383610ecc565b505050565b6106f06106ea610ec4565b82610f85565b61072f576040517f08c379a000000000000000000000000000000000000000000000000000000000815260040161072690612533565b60405180910390fd5b61073a838383611063565b505050565b60086020528060005260406000206000915090505481565b61077283838360405180602001604052806000815250610a97565b505050565b610788610782610ec4565b82610f85565b6107c7576040517f08c379a00000000000000000000000000000000000000000000000000000000081526004016107be90612553565b60405180910390fd5b6107d0816112ca565b50565b6000806002600084815260200190815260200160002060009054906101000a900473ffffffffffffffffffffffffffffffffffffffff169050600073ffffffffffffffffffffffffffffffffffffffff168173ffffffffffffffffffffffffffffffffffffffff16141561087c576040517f08c379a000000000000000000000000000000000000000000000000000000000815260040161087390612473565b60405180910390fd5b80915050919050565b60008073ffffffffffffffffffffffffffffffffffffffff168273ffffffffffffffffffffffffffffffffffffffff1614156108f6576040517f08c379a00000000000000000000000000000000000000000000000000000000081526004016108ed90612453565b60405180910390fd5b600360008373ffffffffffffffffffffffffffffffffffffffff1673ffffffffffffffffffffffffffffffffffffffff168152602001908152602001600020549050919050565b610945610ec4565b73ffffffffffffffffffffffffffffffffffffffff166109636109c5565b73ffffffffffffffffffffffffffffffffffffffff16146109b9576040517f08c379a00000000000000000000000000000000000000000000000000000000081526004016109b0906124d3565b60405180910390fd5b6109c360006113e7565b565b6000600660009054906101000a900473ffffffffffffffffffffffffffffffffffffffff16905090565b6060600180546109fe90612798565b80601f0160208091040260200160405190810160405280929190818152602001828054610a2a90612798565b8015610a775780601f10610a4c57610100808354040283529160200191610a77565b820191906000526020600020905b815481529060010190602001808311610a5a57829003601f168201915b5050505050905090565b610a93610a8c610ec4565b83836114ad565b5050565b610aa8610aa2610ec4565b83610f85565b610ae7576040517f08c379a0000000000000000000000000000000000000000000000000000000008152600401610ade90612533565b60405180910390fd5b610af38484848461161a565b50505050565b6060610b0482610e58565b610b43576040517f08c379a0000000000000000000000000000000000000000000000000000000008152600401610b3a906124f3565b60405180910390fd5b6000610b4d611676565b90506000815111610b6d5760405180602001604052806000815250610b98565b80610b778461168d565b604051602001610b8892919061228b565b6040516020818303038152906040525b915050919050565b6000610baa610ec4565b73ffffffffffffffffffffffffffffffffffffffff16610bc86109c5565b73ffffffffffffffffffffffffffffffffffffffff1614610c1e576040517f08c379a0000000000000000000000000000000000000000000000000000000008152600401610c15906124d3565b60405180910390fd5b610c28600761183a565b6000610c346007611850565b9050610c40848261185e565b8260086000838152602001908152602001600020819055508091505092915050565b6000600560008473ffffffffffffffffffffffffffffffffffffffff1673ffffffffffffffffffffffffffffffffffffffff16815260200190815260200160002060008373ffffffffffffffffffffffffffffffffffffffff1673ffffffffffffffffffffffffffffffffffffffff16815260200190815260200160002060009054906101000a900460ff16905092915050565b610cfe610ec4565b73ffffffffffffffffffffffffffffffffffffffff16610d1c6109c5565b73ffffffffffffffffffffffffffffffffffffffff1614610d72576040517f08c379a0000000000000000000000000000000000000000000000000000000008152600401610d69906124d3565b60405180910390fd5b600073ffffffffffffffffffffffffffffffffffffffff168173ffffffffffffffffffffffffffffffffffffffff161415610de2576040517f08c379a0000000000000000000000000000000000000000000000000000000008152600401610dd990612373565b60405180910390fd5b610deb816113e7565b50565b60007f01ffc9a7000000000000000000000000000000000000000000000000000000007bffffffffffffffffffffffffffffffffffffffffffffffffffffffff1916827bffffffffffffffffffffffffffffffffffffffffffffffffffffffff1916149050919050565b60008073ffffffffffffffffffffffffffffffffffffffff166002600084815260200190815260200160002060009054906101000a900473ffffffffffffffffffffffffffffffffffffffff1673ffffffffffffffffffffffffffffffffffffffff1614159050919050565b600033905090565b816004600083815260200190815260200160002060006101000a81548173ffffffffffffffffffffffffffffffffffffffff021916908373ffffffffffffffffffffffffffffffffffffffff160217905550808273ffffffffffffffffffffffffffffffffffffffff16610f3f836107d3565b73ffffffffffffffffffffffffffffffffffffffff167f8c5be1e5ebec7d5bd14f71427d1e84f3dd0314c0f7b2291e5b200ac8c7c3b92560405160405180910390a45050565b6000610f9082610e58565b610fcf576040517f08c379a0000000000000000000000000000000000000000000000000000000008152600401610fc690612413565b60405180910390fd5b6000610fda836107d3565b90508073ffffffffffffffffffffffffffffffffffffffff168473ffffffffffffffffffffffffffffffffffffffff16148061104957508373ffffffffffffffffffffffffffffffffffffffff1661103184610542565b73ffffffffffffffffffffffffffffffffffffffff16145b8061105a57506110598185610c62565b5b91505092915050565b8273ffffffffffffffffffffffffffffffffffffffff16611083826107d3565b73ffffffffffffffffffffffffffffffffffffffff16146110d9576040517f08c379a00000000000000000000000000000000000000000000000000000000081526004016110d090612393565b60405180910390fd5b600073ffffffffffffffffffffffffffffffffffffffff168273ffffffffffffffffffffffffffffffffffffffff161415611149576040517f08c379a0000000000000000000000000000000000000000000000000000000008152600401611140906123d3565b60405180910390fd5b61115483838361187c565b61115f600082610ecc565b6001600360008573ffffffffffffffffffffffffffffffffffffffff1673ffffffffffffffffffffffffffffffffffffffff16815260200190815260200160002060008282546111af91906126ae565b925050819055506001600360008473ffffffffffffffffffffffffffffffffffffffff1673ffffffffffffffffffffffffffffffffffffffff16815260200190815260200160002060008282546112069190612627565b92505081905550816002600083815260200190815260200160002060006101000a81548173ffffffffffffffffffffffffffffffffffffffff021916908373ffffffffffffffffffffffffffffffffffffffff160217905550808273ffffffffffffffffffffffffffffffffffffffff168473ffffffffffffffffffffffffffffffffffffffff167fddf252ad1be2c89b69c2b068fc378daa952ba7f163c4a11628f55a4df523b3ef60405160405180910390a46112c5838383611881565b505050565b60006112d5826107d3565b90506112e38160008461187c565b6112ee600083610ecc565b6001600360008373ffffffffffffffffffffffffffffffffffffffff1673ffffffffffffffffffffffffffffffffffffffff168152602001908152602001600020600082825461133e91906126ae565b925050819055506002600083815260200190815260200160002060006101000a81549073ffffffffffffffffffffffffffffffffffffffff021916905581600073ffffffffffffffffffffffffffffffffffffffff168273ffffffffffffffffffffffffffffffffffffffff167fddf252ad1be2c89b69c2b068fc378daa952ba7f163c4a11628f55a4df523b3ef60405160405180910390a46113e381600084611881565b5050565b6000600660009054906101000a900473ffffffffffffffffffffffffffffffffffffffff16905081600660006101000a81548173ffffffffffffffffffffffffffffffffffffffff021916908373ffffffffffffffffffffffffffffffffffffffff1602179055508173ffffffffffffffffffffffffffffffffffffffff168173ffffffffffffffffffffffffffffffffffffffff167f8be0079c531659141344cd1fd0a4f28419497f9722a3daafe3b4186f6b6457e060405160405180910390a35050565b8173ffffffffffffffffffffffffffffffffffffffff168373ffffffffffffffffffffffffffffffffffffffff16141561151c576040517f08c379a0000000000000000000000000000000000000000000000000000000008152600401611513906123f3565b60405180910390fd5b80600560008573ffffffffffffffffffffffffffffffffffffffff1673ffffffffffffffffffffffffffffffffffffffff16815260200190815260200160002060008473ffffffffffffffffffffffffffffffffffffffff1673ffffffffffffffffffffffffffffffffffffffff16815260200190815260200160002060006101000a81548160ff0219169083151502179055508173ffffffffffffffffffffffffffffffffffffffff168373ffffffffffffffffffffffffffffffffffffffff167f17307eab39ab6107e8899845ad3d59bd9653f200f220920489ca2b5937696c318360405161160d9190612316565b60405180910390a3505050565b611625848484611063565b61163184848484611886565b611670576040517f08c379a000000000000000000000000000000000000000000000000000000000815260040161166790612353565b60405180910390fd5b50505050565b606060405180602001604052806000815250905090565b606060008214156116d5576040518060400160405280600181526020017f30000000000000000000000000000000000000000000000000000000000000008152509050611835565b600082905060005b600082146117075780806116f0906127fb565b915050600a82611700919061267d565b91506116dd565b60008167ffffffffffffffff811115611749577f4e487b7100000000000000000000000000000000000000000000000000000000600052604160045260246000fd5b6040519080825280601f01601f19166020018201604052801561177b5781602001600182028036833780820191505090505b5090505b6000851461182e5760018261179491906126ae565b9150600a856117a39190612844565b60306117af9190612627565b60f81b8183815181106117eb577f4e487b7100000000000000000000000000000000000000000000000000000000600052603260045260246000fd5b60200101907effffffffffffffffffffffffffffffffffffffffffffffffffffffffffffff1916908160001a905350600a85611827919061267d565b945061177f565b8093505050505b919050565b6001816000016000828254019250508190555050565b600081600001549050919050565b611878828260405180602001604052806000815250611a1d565b5050565b505050565b505050565b60006118a78473ffffffffffffffffffffffffffffffffffffffff16611a78565b15611a10578373ffffffffffffffffffffffffffffffffffffffff1663150b7a026118d0610ec4565b8786866040518563ffffffff1660e01b81526004016118f294939291906122ca565b602060405180830381600087803b15801561190c57600080fd5b505af192505050801561193d57506040513d601f19601f8201168201806040525081019061193a9190611f16565b60015b6119c0573d806000811461196d576040519150601f19603f3d011682016040523d82523d6000602084013e611972565b606091505b506000815114156119b8576040517f08c379a00000000000000000000000000000000000000000000000000000000081526004016119af90612353565b60405180910390fd5b805181602001fd5b63150b7a0260e01b7bffffffffffffffffffffffffffffffffffffffffffffffffffffffff1916817bffffffffffffffffffffffffffffffffffffffffffffffffffffffff191614915050611a15565b600190505b949350505050565b611a278383611a9b565b611a346000848484611886565b611a73576040517f08c379a0000000000000000000000000000000000000000000000000000000008152600401611a6a90612353565b60405180910390fd5b505050565b6000808273ffffffffffffffffffffffffffffffffffffffff163b119050919050565b600073ffffffffffffffffffffffffffffffffffffffff168273ffffffffffffffffffffffffffffffffffffffff161415611b0b576040517f08c379a0000000000000000000000000000000000000000000000000000000008152600401611b0290612493565b60405180910390fd5b611b1481610e58565b15611b54576040517f08c379a0000000000000000000000000000000000000000000000000000000008152600401611b4b906123b3565b60405180910390fd5b611b606000838361187c565b6001600360008473ffffffffffffffffffffffffffffffffffffffff1673ffffffffffffffffffffffffffffffffffffffff1681526020019081526020016000206000828254611bb09190612627565b92505081905550816002600083815260200190815260200160002060006101000a81548173ffffffffffffffffffffffffffffffffffffffff021916908373ffffffffffffffffffffffffffffffffffffffff160217905550808273ffffffffffffffffffffffffffffffffffffffff16600073ffffffffffffffffffffffffffffffffffffffff167fddf252ad1be2c89b69c2b068fc378daa952ba7f163c4a11628f55a4df523b3ef60405160405180910390a4611c7160008383611881565b5050565b6000611c88611c83846125b3565b61258e565b905082815260208101848484011115611ca057600080fd5b611cab848285612756565b509392505050565b600081359050611cc281612de9565b92915050565b600081359050611cd781612e00565b92915050565b600081359050611cec81612e17565b92915050565b600081519050611d0181612e17565b92915050565b600082601f830112611d1857600080fd5b8135611d28848260208601611c75565b91505092915050565b600081359050611d4081612e2e565b92915050565b600060208284031215611d5857600080fd5b6000611d6684828501611cb3565b91505092915050565b60008060408385031215611d8257600080fd5b6000611d9085828601611cb3565b9250506020611da185828601611cb3565b9150509250929050565b600080600060608486031215611dc057600080fd5b6000611dce86828701611cb3565b9350506020611ddf86828701611cb3565b9250506040611df086828701611d31565b9150509250925092565b60008060008060808587031215611e1057600080fd5b6000611e1e87828801611cb3565b9450506020611e2f87828801611cb3565b9350506040611e4087828801611d31565b925050606085013567ffffffffffffffff811115611e5d57600080fd5b611e6987828801611d07565b91505092959194509250565b60008060408385031215611e8857600080fd5b6000611e9685828601611cb3565b9250506020611ea785828601611cc8565b9150509250929050565b60008060408385031215611ec457600080fd5b6000611ed285828601611cb3565b9250506020611ee385828601611d31565b9150509250929050565b600060208284031215611eff57600080fd5b6000611f0d84828501611cdd565b91505092915050565b600060208284031215611f2857600080fd5b6000611f3684828501611cf2565b91505092915050565b600060208284031215611f5157600080fd5b6000611f5f84828501611d31565b91505092915050565b611f71816126e2565b82525050565b611f80816126f4565b82525050565b6000611f91826125e4565b611f9b81856125fa565b9350611fab818560208601612765565b611fb481612931565b840191505092915050565b6000611fca826125ef565b611fd4818561260b565b9350611fe4818560208601612765565b611fed81612931565b840191505092915050565b6000612003826125ef565b61200d818561261c565b935061201d818560208601612765565b80840191505092915050565b600061203660328361260b565b915061204182612942565b604082019050919050565b600061205960268361260b565b915061206482612991565b604082019050919050565b600061207c60258361260b565b9150612087826129e0565b604082019050919050565b600061209f601c8361260b565b91506120aa82612a2f565b602082019050919050565b60006120c260248361260b565b91506120cd82612a58565b604082019050919050565b60006120e560198361260b565b91506120f082612aa7565b602082019050919050565b6000612108602c8361260b565b915061211382612ad0565b604082019050919050565b600061212b60388361260b565b915061213682612b1f565b604082019050919050565b600061214e602a8361260b565b915061215982612b6e565b604082019050919050565b600061217160298361260b565b915061217c82612bbd565b604082019050919050565b600061219460208361260b565b915061219f82612c0c565b602082019050919050565b60006121b7602c8361260b565b91506121c282612c35565b604082019050919050565b60006121da60208361260b565b91506121e582612c84565b602082019050919050565b60006121fd602f8361260b565b915061220882612cad565b604082019050919050565b600061222060218361260b565b915061222b82612cfc565b604082019050919050565b600061224360318361260b565b915061224e82612d4b565b604082019050919050565b600061226660308361260b565b915061227182612d9a565b604082019050919050565b6122858161274c565b82525050565b60006122978285611ff8565b91506122a38284611ff8565b91508190509392505050565b60006020820190506122c46000830184611f68565b92915050565b60006080820190506122df6000830187611f68565b6122ec6020830186611f68565b6122f9604083018561227c565b818103606083015261230b8184611f86565b905095945050505050565b600060208201905061232b6000830184611f77565b92915050565b6000602082019050818103600083015261234b8184611fbf565b905092915050565b6000602082019050818103600083015261236c81612029565b9050919050565b6000602082019050818103600083015261238c8161204c565b9050919050565b600060208201905081810360008301526123ac8161206f565b9050919050565b600060208201905081810360008301526123cc81612092565b9050919050565b600060208201905081810360008301526123ec816120b5565b9050919050565b6000602082019050818103600083015261240c816120d8565b9050919050565b6000602082019050818103600083015261242c816120fb565b9050919050565b6000602082019050818103600083015261244c8161211e565b9050919050565b6000602082019050818103600083015261246c81612141565b9050919050565b6000602082019050818103600083015261248c81612164565b9050919050565b600060208201905081810360008301526124ac81612187565b9050919050565b600060208201905081810360008301526124cc816121aa565b9050919050565b600060208201905081810360008301526124ec816121cd565b9050919050565b6000602082019050818103600083015261250c816121f0565b9050919050565b6000602082019050818103600083015261252c81612213565b9050919050565b6000602082019050818103600083015261254c81612236565b9050919050565b6000602082019050818103600083015261256c81612259565b9050919050565b6000602082019050612588600083018461227c565b92915050565b60006125986125a9565b90506125a482826127ca565b919050565b6000604051905090565b600067ffffffffffffffff8211156125ce576125cd612902565b5b6125d782612931565b9050602081019050919050565b600081519050919050565b600081519050919050565b600082825260208201905092915050565b600082825260208201905092915050565b600081905092915050565b60006126328261274c565b915061263d8361274c565b9250827fffffffffffffffffffffffffffffffffffffffffffffffffffffffffffffffff0382111561267257612671612875565b5b828201905092915050565b60006126888261274c565b91506126938361274c565b9250826126a3576126a26128a4565b5b828204905092915050565b60006126b98261274c565b91506126c48361274c565b9250828210156126d7576126d6612875565b5b828203905092915050565b60006126ed8261272c565b9050919050565b60008115159050919050565b60007fffffffff0000000000000000000000000000000000000000000000000000000082169050919050565b600073ffffffffffffffffffffffffffffffffffffffff82169050919050565b6000819050919050565b82818337600083830152505050565b60005b83811015612783578082015181840152602081019050612768565b83811115612792576000848401525b50505050565b600060028204905060018216806127b057607f821691505b602082108114156127c4576127c36128d3565b5b50919050565b6127d382612931565b810181811067ffffffffffffffff821117156127f2576127f1612902565b5b80604052505050565b60006128068261274c565b91507fffffffffffffffffffffffffffffffffffffffffffffffffffffffffffffffff82141561283957612838612875565b5b600182019050919050565b600061284f8261274c565b915061285a8361274c565b92508261286a576128696128a4565b5b828206905092915050565b7f4e487b7100000000000000000000000000000000000000000000000000000000600052601160045260246000fd5b7f4e487b7100000000000000000000000000000000000000000000000000000000600052601260045260246000fd5b7f4e487b7100000000000000000000000000000000000000000000000000000000600052602260045260246000fd5b7f4e487b7100000000000000000000000000000000000000000000000000000000600052604160045260246000fd5b6000601f19601f8301169050919050565b7f4552433732313a207472616e7366657220746f206e6f6e20455243373231526560008201527f63656976657220696d706c656d656e7465720000000000000000000000000000602082015250565b7f4f776e61626c653a206e6577206f776e657220697320746865207a65726f206160008201527f6464726573730000000000000000000000000000000000000000000000000000602082015250565b7f4552433732313a207472616e736665722066726f6d20696e636f72726563742060008201527f6f776e6572000000000000000000000000000000000000000000000000000000602082015250565b7f4552433732313a20746f6b656e20616c7265616479206d696e74656400000000600082015250565b7f4552433732313a207472616e7366657220746f20746865207a65726f2061646460008201527f7265737300000000000000000000000000000000000000000000000000000000602082015250565b7f4552433732313a20617070726f766520746f2063616c6c657200000000000000600082015250565b7f4552433732313a206f70657261746f7220717565727920666f72206e6f6e657860008201527f697374656e7420746f6b656e0000000000000000000000000000000000000000602082015250565b7f4552433732313a20617070726f76652063616c6c6572206973206e6f74206f7760008201527f6e6572206e6f7220617070726f76656420666f7220616c6c0000000000000000602082015250565b7f4552433732313a2062616c616e636520717565727920666f7220746865207a6560008201527f726f206164647265737300000000000000000000000000000000000000000000602082015250565b7f4552433732313a206f776e657220717565727920666f72206e6f6e657869737460008201527f656e7420746f6b656e0000000000000000000000000000000000000000000000602082015250565b7f4552433732313a206d696e7420746f20746865207a65726f2061646472657373600082015250565b7f4552433732313a20617070726f76656420717565727920666f72206e6f6e657860008201527f697374656e7420746f6b656e0000000000000000000000000000000000000000602082015250565b7f4f776e61626c653a2063616c6c6572206973206e6f7420746865206f776e6572600082015250565b7f4552433732314d657461646174613a2055524920717565727920666f72206e6f60008201527f6e6578697374656e7420746f6b656e0000000000000000000000000000000000602082015250565b7f4552433732313a20617070726f76616c20746f2063757272656e74206f776e6560008201527f7200000000000000000000000000000000000000000000000000000000000000602082015250565b7f4552433732313a207472616e736665722063616c6c6572206973206e6f74206f60008201527f776e6572206e6f7220617070726f766564000000000000000000000000000000602082015250565b7f4552433732314275726e61626c653a2063616c6c6572206973206e6f74206f7760008201527f6e6572206e6f7220617070726f76656400000000000000000000000000000000602082015250565b612df2816126e2565b8114612dfd57600080fd5b50565b612e09816126f4565b8114612e1457600080fd5b50565b612e2081612700565b8114612e2b57600080fd5b50565b612e378161274c565b8114612e4257600080fd5b5056fea26469706673582212205381e350aba12fd2f7e30f67f8de04bf2da3ab1fcce98fd6481d67b47a17299764736f6c63430008040033",
  "immutableReferences": {},
  "source": "// SPDX-License-Identifier: MIT\npragma solidity ^0.8.0;\n\nimport '@openzeppelin/contracts/access/Ownable.sol';\nimport '@openzeppelin/contracts/token/ERC721/extensions/ERC721Burnable.sol';\nimport '@openzeppelin/contracts/utils/Counters.sol';\n\ncontract ReceiptToken is ERC721Burnable, Ownable {\n    \n    using Counters for Counters.Counter;\n\n    Counters.Counter private _tokenIds;\n\n    mapping(uint256 => uint256) public receiptData;\n\n    constructor() ERC721(\"ReceiptToken\", \"RPT\") {}\n\n    function createReceipt(address packageSender, uint256 packageTokenId) public onlyOwner returns (uint256) {\n        _tokenIds.increment();\n        \n        uint256 newReceiptId = _tokenIds.current();\n        _safeMint(packageSender, newReceiptId);\n        receiptData[newReceiptId] = packageTokenId;\n\n        return newReceiptId;\n    }\n\n}\n",
  "sourcePath": "/home/james/Workspaces/tracking-demo/contracts/ReceiptToken.sol",
  "compiler": {
    "name": "solc",
    "version": "0.8.4+commit.c7e474f2.Emscripten.clang"
  },
  "schemaVersion": "3.4.6",
  "updatedAt": "2022-04-26T13:20:17.543Z",
  "devdoc": {
    "kind": "dev",
    "methods": {
      "approve(address,uint256)": {
        "details": "See {IERC721-approve}."
      },
      "balanceOf(address)": {
        "details": "See {IERC721-balanceOf}."
      },
      "burn(uint256)": {
        "details": "Burns `tokenId`. See {ERC721-_burn}. Requirements: - The caller must own `tokenId` or be an approved operator."
      },
      "getApproved(uint256)": {
        "details": "See {IERC721-getApproved}."
      },
      "isApprovedForAll(address,address)": {
        "details": "See {IERC721-isApprovedForAll}."
      },
      "name()": {
        "details": "See {IERC721Metadata-name}."
      },
      "owner()": {
        "details": "Returns the address of the current owner."
      },
      "ownerOf(uint256)": {
        "details": "See {IERC721-ownerOf}."
      },
      "renounceOwnership()": {
        "details": "Leaves the contract without owner. It will not be possible to call `onlyOwner` functions anymore. Can only be called by the current owner. NOTE: Renouncing ownership will leave the contract without an owner, thereby removing any functionality that is only available to the owner."
      },
      "safeTransferFrom(address,address,uint256)": {
        "details": "See {IERC721-safeTransferFrom}."
      },
      "safeTransferFrom(address,address,uint256,bytes)": {
        "details": "See {IERC721-safeTransferFrom}."
      },
      "setApprovalForAll(address,bool)": {
        "details": "See {IERC721-setApprovalForAll}."
      },
      "supportsInterface(bytes4)": {
        "details": "See {IERC165-supportsInterface}."
      },
      "symbol()": {
        "details": "See {IERC721Metadata-symbol}."
      },
      "tokenURI(uint256)": {
        "details": "See {IERC721Metadata-tokenURI}."
      },
      "transferFrom(address,address,uint256)": {
        "details": "See {IERC721-transferFrom}."
      },
      "transferOwnership(address)": {
        "details": "Transfers ownership of the contract to a new account (`newOwner`). Can only be called by the current owner."
      }
    },
    "version": 1
  },
  "userdoc": {
    "kind": "user",
    "methods": {},
    "version": 1
  }
}