{
  "contractName": "ReceiptToken",
  "abi": [
    {
      "inputs": [],
      "stateMutability": "nonpayable",
      "type": "constructor"
    },
    {
      "anonymous": false,
      "inputs": [
        {
          "indexed": true,
          "internalType": "address",
          "name": "owner",
          "type": "address"
        },
        {
          "indexed": true,
          "internalType": "address",
          "name": "approved",
          "type": "address"
        },
        {
          "indexed": true,
          "internalType": "uint256",
          "name": "tokenId",
          "type": "uint256"
        }
      ],
      "name": "Approval",
      "type": "event"
    },
    {
      "anonymous": false,
      "inputs": [
        {
          "indexed": true,
          "internalType": "address",
          "name": "owner",
          "type": "address"
        },
        {
          "indexed": true,
          "internalType": "address",
          "name": "operator",
          "type": "address"
        },
        {
          "indexed": false,
          "internalType": "bool",
          "name": "approved",
          "type": "bool"
        }
      ],
      "name": "ApprovalForAll",
      "type": "event"
    },
    {
      "anonymous": false,
      "inputs": [
        {
          "indexed": true,
          "internalType": "address",
          "name": "from",
          "type": "address"
        },
        {
          "indexed": true,
          "internalType": "address",
          "name": "to",
          "type": "address"
        },
        {
          "indexed": true,
          "internalType": "uint256",
          "name": "tokenId",
          "type": "uint256"
        }
      ],
      "name": "Transfer",
      "type": "event"
    },
    {
      "inputs": [
        {
          "internalType": "address",
          "name": "to",
          "type": "address"
        },
        {
          "internalType": "uint256",
          "name": "tokenId",
          "type": "uint256"
        }
      ],
      "name": "approve",
      "outputs": [],
      "stateMutability": "nonpayable",
      "type": "function"
    },
    {
      "inputs": [
        {
          "internalType": "address",
          "name": "owner",
          "type": "address"
        }
      ],
      "name": "balanceOf",
      "outputs": [
        {
          "internalType": "uint256",
          "name": "",
          "type": "uint256"
        }
      ],
      "stateMutability": "view",
      "type": "function",
      "constant": true
    },
    {
      "inputs": [
        {
          "internalType": "uint256",
          "name": "tokenId",
          "type": "uint256"
        }
      ],
      "name": "burn",
      "outputs": [],
      "stateMutability": "nonpayable",
      "type": "function"
    },
    {
      "inputs": [
        {
          "internalType": "uint256",
          "name": "tokenId",
          "type": "uint256"
        }
      ],
      "name": "getApproved",
      "outputs": [
        {
          "internalType": "address",
          "name": "",
          "type": "address"
        }
      ],
      "stateMutability": "view",
      "type": "function",
      "constant": true
    },
    {
      "inputs": [
        {
          "internalType": "address",
          "name": "owner",
          "type": "address"
        },
        {
          "internalType": "address",
          "name": "operator",
          "type": "address"
        }
      ],
      "name": "isApprovedForAll",
      "outputs": [
        {
          "internalType": "bool",
          "name": "",
          "type": "bool"
        }
      ],
      "stateMutability": "view",
      "type": "function",
      "constant": true
    },
    {
      "inputs": [],
      "name": "name",
      "outputs": [
        {
          "internalType": "string",
          "name": "",
          "type": "string"
        }
      ],
      "stateMutability": "view",
      "type": "function",
      "constant": true
    },
    {
      "inputs": [
        {
          "internalType": "uint256",
          "name": "tokenId",
          "type": "uint256"
        }
      ],
      "name": "ownerOf",
      "outputs": [
        {
          "internalType": "address",
          "name": "",
          "type": "address"
        }
      ],
      "stateMutability": "view",
      "type": "function",
      "constant": true
    },
    {
      "inputs": [
        {
          "internalType": "address",
          "name": "from",
          "type": "address"
        },
        {
          "internalType": "address",
          "name": "to",
          "type": "address"
        },
        {
          "internalType": "uint256",
          "name": "tokenId",
          "type": "uint256"
        }
      ],
      "name": "safeTransferFrom",
      "outputs": [],
      "stateMutability": "nonpayable",
      "type": "function"
    },
    {
      "inputs": [
        {
          "internalType": "address",
          "name": "from",
          "type": "address"
        },
        {
          "internalType": "address",
          "name": "to",
          "type": "address"
        },
        {
          "internalType": "uint256",
          "name": "tokenId",
          "type": "uint256"
        },
        {
          "internalType": "bytes",
          "name": "_data",
          "type": "bytes"
        }
      ],
      "name": "safeTransferFrom",
      "outputs": [],
      "stateMutability": "nonpayable",
      "type": "function"
    },
    {
      "inputs": [
        {
          "internalType": "address",
          "name": "operator",
          "type": "address"
        },
        {
          "internalType": "bool",
          "name": "approved",
          "type": "bool"
        }
      ],
      "name": "setApprovalForAll",
      "outputs": [],
      "stateMutability": "nonpayable",
      "type": "function"
    },
    {
      "inputs": [
        {
          "internalType": "bytes4",
          "name": "interfaceId",
          "type": "bytes4"
        }
      ],
      "name": "supportsInterface",
      "outputs": [
        {
          "internalType": "bool",
          "name": "",
          "type": "bool"
        }
      ],
      "stateMutability": "view",
      "type": "function",
      "constant": true
    },
    {
      "inputs": [],
      "name": "symbol",
      "outputs": [
        {
          "internalType": "string",
          "name": "",
          "type": "string"
        }
      ],
      "stateMutability": "view",
      "type": "function",
      "constant": true
    },
    {
      "inputs": [
        {
          "internalType": "uint256",
          "name": "tokenId",
          "type": "uint256"
        }
      ],
      "name": "tokenURI",
      "outputs": [
        {
          "internalType": "string",
          "name": "",
          "type": "string"
        }
      ],
      "stateMutability": "view",
      "type": "function",
      "constant": true
    },
    {
      "inputs": [
        {
          "internalType": "address",
          "name": "from",
          "type": "address"
        },
        {
          "internalType": "address",
          "name": "to",
          "type": "address"
        },
        {
          "internalType": "uint256",
          "name": "tokenId",
          "type": "uint256"
        }
      ],
      "name": "transferFrom",
      "outputs": [],
      "stateMutability": "nonpayable",
      "type": "function"
    }
  ],
  "bytecode": "0x60806040523480156200001157600080fd5b506040518060400160405280600c81526020017f52656365697074546f6b656e00000000000000000000000000000000000000008152506040518060400160405280600381526020017f5250540000000000000000000000000000000000000000000000000000000000815250816000908051906020019062000096929190620000b8565b508060019080519060200190620000af929190620000b8565b505050620001cd565b828054620000c69062000168565b90600052602060002090601f016020900481019282620000ea576000855562000136565b82601f106200010557805160ff191683800117855562000136565b8280016001018555821562000136579182015b828111156200013557825182559160200191906001019062000118565b5b50905062000145919062000149565b5090565b5b80821115620001645760008160009055506001016200014a565b5090565b600060028204905060018216806200018157607f821691505b602082108114156200019857620001976200019e565b5b50919050565b7f4e487b7100000000000000000000000000000000000000000000000000000000600052602260045260246000fd5b61260980620001dd6000396000f3fe608060405234801561001057600080fd5b50600436106100ea5760003560e01c80636352211e1161008c578063a22cb46511610066578063a22cb4651461025b578063b88d4fde14610277578063c87b56dd14610293578063e985e9c5146102c3576100ea565b80636352211e146101dd57806370a082311461020d57806395d89b411461023d576100ea565b8063095ea7b3116100c8578063095ea7b31461016d57806323b872dd1461018957806342842e0e146101a557806342966c68146101c1576100ea565b806301ffc9a7146100ef57806306fdde031461011f578063081812fc1461013d575b600080fd5b61010960048036038101906101049190611851565b6102f3565b6040516101169190611bee565b60405180910390f35b6101276103d5565b6040516101349190611c09565b60405180910390f35b610157600480360381019061015291906118a3565b610467565b6040516101649190611b87565b60405180910390f35b61018760048036038101906101829190611815565b6104ec565b005b6101a3600480360381019061019e919061170f565b610604565b005b6101bf60048036038101906101ba919061170f565b610664565b005b6101db60048036038101906101d691906118a3565b610684565b005b6101f760048036038101906101f291906118a3565b6106e0565b6040516102049190611b87565b60405180910390f35b610227600480360381019061022291906116aa565b610792565b6040516102349190611dcb565b60405180910390f35b61024561084a565b6040516102529190611c09565b60405180910390f35b610275600480360381019061027091906117d9565b6108dc565b005b610291600480360381019061028c919061175e565b6108f2565b005b6102ad60048036038101906102a891906118a3565b610954565b6040516102ba9190611c09565b60405180910390f35b6102dd60048036038101906102d891906116d3565b6109fb565b6040516102ea9190611bee565b60405180910390f35b60007f80ac58cd000000000000000000000000000000000000000000000000000000007bffffffffffffffffffffffffffffffffffffffffffffffffffffffff1916827bffffffffffffffffffffffffffffffffffffffffffffffffffffffff191614806103be57507f5b5e139f000000000000000000000000000000000000000000000000000000007bffffffffffffffffffffffffffffffffffffffffffffffffffffffff1916827bffffffffffffffffffffffffffffffffffffffffffffffffffffffff1916145b806103ce57506103cd82610a8f565b5b9050919050565b6060600080546103e490611ff0565b80601f016020809104026020016040519081016040528092919081815260200182805461041090611ff0565b801561045d5780601f106104325761010080835404028352916020019161045d565b820191906000526020600020905b81548152906001019060200180831161044057829003601f168201915b5050505050905090565b600061047282610af9565b6104b1576040517f08c379a00000000000000000000000000000000000000000000000000000000081526004016104a890611d2b565b60405180910390fd5b6004600083815260200190815260200160002060009054906101000a900473ffffffffffffffffffffffffffffffffffffffff169050919050565b60006104f7826106e0565b90508073ffffffffffffffffffffffffffffffffffffffff168373ffffffffffffffffffffffffffffffffffffffff161415610568576040517f08c379a000000000000000000000000000000000000000000000000000000000815260040161055f90611d6b565b60405180910390fd5b8073ffffffffffffffffffffffffffffffffffffffff16610587610b65565b73ffffffffffffffffffffffffffffffffffffffff1614806105b657506105b5816105b0610b65565b6109fb565b5b6105f5576040517f08c379a00000000000000000000000000000000000000000000000000000000081526004016105ec90611ccb565b60405180910390fd5b6105ff8383610b6d565b505050565b61061561060f610b65565b82610c26565b610654576040517f08c379a000000000000000000000000000000000000000000000000000000000815260040161064b90611d8b565b60405180910390fd5b61065f838383610d04565b505050565b61067f838383604051806020016040528060008152506108f2565b505050565b61069561068f610b65565b82610c26565b6106d4576040517f08c379a00000000000000000000000000000000000000000000000000000000081526004016106cb90611dab565b60405180910390fd5b6106dd81610f6b565b50565b6000806002600084815260200190815260200160002060009054906101000a900473ffffffffffffffffffffffffffffffffffffffff169050600073ffffffffffffffffffffffffffffffffffffffff168173ffffffffffffffffffffffffffffffffffffffff161415610789576040517f08c379a000000000000000000000000000000000000000000000000000000000815260040161078090611d0b565b60405180910390fd5b80915050919050565b60008073ffffffffffffffffffffffffffffffffffffffff168273ffffffffffffffffffffffffffffffffffffffff161415610803576040517f08c379a00000000000000000000000000000000000000000000000000000000081526004016107fa90611ceb565b60405180910390fd5b600360008373ffffffffffffffffffffffffffffffffffffffff1673ffffffffffffffffffffffffffffffffffffffff168152602001908152602001600020549050919050565b60606001805461085990611ff0565b80601f016020809104026020016040519081016040528092919081815260200182805461088590611ff0565b80156108d25780601f106108a7576101008083540402835291602001916108d2565b820191906000526020600020905b8154815290600101906020018083116108b557829003601f168201915b5050505050905090565b6108ee6108e7610b65565b8383611088565b5050565b6109036108fd610b65565b83610c26565b610942576040517f08c379a000000000000000000000000000000000000000000000000000000000815260040161093990611d8b565b60405180910390fd5b61094e848484846111f5565b50505050565b606061095f82610af9565b61099e576040517f08c379a000000000000000000000000000000000000000000000000000000000815260040161099590611d4b565b60405180910390fd5b60006109a8611251565b905060008151116109c857604051806020016040528060008152506109f3565b806109d284611268565b6040516020016109e3929190611b63565b6040516020818303038152906040525b915050919050565b6000600560008473ffffffffffffffffffffffffffffffffffffffff1673ffffffffffffffffffffffffffffffffffffffff16815260200190815260200160002060008373ffffffffffffffffffffffffffffffffffffffff1673ffffffffffffffffffffffffffffffffffffffff16815260200190815260200160002060009054906101000a900460ff16905092915050565b60007f01ffc9a7000000000000000000000000000000000000000000000000000000007bffffffffffffffffffffffffffffffffffffffffffffffffffffffff1916827bffffffffffffffffffffffffffffffffffffffffffffffffffffffff1916149050919050565b60008073ffffffffffffffffffffffffffffffffffffffff166002600084815260200190815260200160002060009054906101000a900473ffffffffffffffffffffffffffffffffffffffff1673ffffffffffffffffffffffffffffffffffffffff1614159050919050565b600033905090565b816004600083815260200190815260200160002060006101000a81548173ffffffffffffffffffffffffffffffffffffffff021916908373ffffffffffffffffffffffffffffffffffffffff160217905550808273ffffffffffffffffffffffffffffffffffffffff16610be0836106e0565b73ffffffffffffffffffffffffffffffffffffffff167f8c5be1e5ebec7d5bd14f71427d1e84f3dd0314c0f7b2291e5b200ac8c7c3b92560405160405180910390a45050565b6000610c3182610af9565b610c70576040517f08c379a0000000000000000000000000000000000000000000000000000000008152600401610c6790611cab565b60405180910390fd5b6000610c7b836106e0565b90508073ffffffffffffffffffffffffffffffffffffffff168473ffffffffffffffffffffffffffffffffffffffff161480610cea57508373ffffffffffffffffffffffffffffffffffffffff16610cd284610467565b73ffffffffffffffffffffffffffffffffffffffff16145b80610cfb5750610cfa81856109fb565b5b91505092915050565b8273ffffffffffffffffffffffffffffffffffffffff16610d24826106e0565b73ffffffffffffffffffffffffffffffffffffffff1614610d7a576040517f08c379a0000000000000000000000000000000000000000000000000000000008152600401610d7190611c4b565b60405180910390fd5b600073ffffffffffffffffffffffffffffffffffffffff168273ffffffffffffffffffffffffffffffffffffffff161415610dea576040517f08c379a0000000000000000000000000000000000000000000000000000000008152600401610de190611c6b565b60405180910390fd5b610df5838383611415565b610e00600082610b6d565b6001600360008573ffffffffffffffffffffffffffffffffffffffff1673ffffffffffffffffffffffffffffffffffffffff1681526020019081526020016000206000828254610e509190611f06565b925050819055506001600360008473ffffffffffffffffffffffffffffffffffffffff1673ffffffffffffffffffffffffffffffffffffffff1681526020019081526020016000206000828254610ea79190611e7f565b92505081905550816002600083815260200190815260200160002060006101000a81548173ffffffffffffffffffffffffffffffffffffffff021916908373ffffffffffffffffffffffffffffffffffffffff160217905550808273ffffffffffffffffffffffffffffffffffffffff168473ffffffffffffffffffffffffffffffffffffffff167fddf252ad1be2c89b69c2b068fc378daa952ba7f163c4a11628f55a4df523b3ef60405160405180910390a4610f6683838361141a565b505050565b6000610f76826106e0565b9050610f8481600084611415565b610f8f600083610b6d565b6001600360008373ffffffffffffffffffffffffffffffffffffffff1673ffffffffffffffffffffffffffffffffffffffff1681526020019081526020016000206000828254610fdf9190611f06565b925050819055506002600083815260200190815260200160002060006101000a81549073ffffffffffffffffffffffffffffffffffffffff021916905581600073ffffffffffffffffffffffffffffffffffffffff168273ffffffffffffffffffffffffffffffffffffffff167fddf252ad1be2c89b69c2b068fc378daa952ba7f163c4a11628f55a4df523b3ef60405160405180910390a46110848160008461141a565b5050565b8173ffffffffffffffffffffffffffffffffffffffff168373ffffffffffffffffffffffffffffffffffffffff1614156110f7576040517f08c379a00000000000000000000000000000000000000000000000000000000081526004016110ee90611c8b565b60405180910390fd5b80600560008573ffffffffffffffffffffffffffffffffffffffff1673ffffffffffffffffffffffffffffffffffffffff16815260200190815260200160002060008473ffffffffffffffffffffffffffffffffffffffff1673ffffffffffffffffffffffffffffffffffffffff16815260200190815260200160002060006101000a81548160ff0219169083151502179055508173ffffffffffffffffffffffffffffffffffffffff168373ffffffffffffffffffffffffffffffffffffffff167f17307eab39ab6107e8899845ad3d59bd9653f200f220920489ca2b5937696c31836040516111e89190611bee565b60405180910390a3505050565b611200848484610d04565b61120c8484848461141f565b61124b576040517f08c379a000000000000000000000000000000000000000000000000000000000815260040161124290611c2b565b60405180910390fd5b50505050565b606060405180602001604052806000815250905090565b606060008214156112b0576040518060400160405280600181526020017f30000000000000000000000000000000000000000000000000000000000000008152509050611410565b600082905060005b600082146112e25780806112cb90612053565b915050600a826112db9190611ed5565b91506112b8565b60008167ffffffffffffffff811115611324577f4e487b7100000000000000000000000000000000000000000000000000000000600052604160045260246000fd5b6040519080825280601f01601f1916602001820160405280156113565781602001600182028036833780820191505090505b5090505b600085146114095760018261136f9190611f06565b9150600a8561137e919061209c565b603061138a9190611e7f565b60f81b8183815181106113c6577f4e487b7100000000000000000000000000000000000000000000000000000000600052603260045260246000fd5b60200101907effffffffffffffffffffffffffffffffffffffffffffffffffffffffffffff1916908160001a905350600a856114029190611ed5565b945061135a565b8093505050505b919050565b505050565b505050565b60006114408473ffffffffffffffffffffffffffffffffffffffff166115b6565b156115a9578373ffffffffffffffffffffffffffffffffffffffff1663150b7a02611469610b65565b8786866040518563ffffffff1660e01b815260040161148b9493929190611ba2565b602060405180830381600087803b1580156114a557600080fd5b505af19250505080156114d657506040513d601f19601f820116820180604052508101906114d3919061187a565b60015b611559573d8060008114611506576040519150601f19603f3d011682016040523d82523d6000602084013e61150b565b606091505b50600081511415611551576040517f08c379a000000000000000000000000000000000000000000000000000000000815260040161154890611c2b565b60405180910390fd5b805181602001fd5b63150b7a0260e01b7bffffffffffffffffffffffffffffffffffffffffffffffffffffffff1916817bffffffffffffffffffffffffffffffffffffffffffffffffffffffff1916149150506115ae565b600190505b949350505050565b6000808273ffffffffffffffffffffffffffffffffffffffff163b119050919050565b60006115ec6115e784611e0b565b611de6565b90508281526020810184848401111561160457600080fd5b61160f848285611fae565b509392505050565b60008135905061162681612577565b92915050565b60008135905061163b8161258e565b92915050565b600081359050611650816125a5565b92915050565b600081519050611665816125a5565b92915050565b600082601f83011261167c57600080fd5b813561168c8482602086016115d9565b91505092915050565b6000813590506116a4816125bc565b92915050565b6000602082840312156116bc57600080fd5b60006116ca84828501611617565b91505092915050565b600080604083850312156116e657600080fd5b60006116f485828601611617565b925050602061170585828601611617565b9150509250929050565b60008060006060848603121561172457600080fd5b600061173286828701611617565b935050602061174386828701611617565b925050604061175486828701611695565b9150509250925092565b6000806000806080858703121561177457600080fd5b600061178287828801611617565b945050602061179387828801611617565b93505060406117a487828801611695565b925050606085013567ffffffffffffffff8111156117c157600080fd5b6117cd8782880161166b565b91505092959194509250565b600080604083850312156117ec57600080fd5b60006117fa85828601611617565b925050602061180b8582860161162c565b9150509250929050565b6000806040838503121561182857600080fd5b600061183685828601611617565b925050602061184785828601611695565b9150509250929050565b60006020828403121561186357600080fd5b600061187184828501611641565b91505092915050565b60006020828403121561188c57600080fd5b600061189a84828501611656565b91505092915050565b6000602082840312156118b557600080fd5b60006118c384828501611695565b91505092915050565b6118d581611f3a565b82525050565b6118e481611f4c565b82525050565b60006118f582611e3c565b6118ff8185611e52565b935061190f818560208601611fbd565b61191881612189565b840191505092915050565b600061192e82611e47565b6119388185611e63565b9350611948818560208601611fbd565b61195181612189565b840191505092915050565b600061196782611e47565b6119718185611e74565b9350611981818560208601611fbd565b80840191505092915050565b600061199a603283611e63565b91506119a58261219a565b604082019050919050565b60006119bd602583611e63565b91506119c8826121e9565b604082019050919050565b60006119e0602483611e63565b91506119eb82612238565b604082019050919050565b6000611a03601983611e63565b9150611a0e82612287565b602082019050919050565b6000611a26602c83611e63565b9150611a31826122b0565b604082019050919050565b6000611a49603883611e63565b9150611a54826122ff565b604082019050919050565b6000611a6c602a83611e63565b9150611a778261234e565b604082019050919050565b6000611a8f602983611e63565b9150611a9a8261239d565b604082019050919050565b6000611ab2602c83611e63565b9150611abd826123ec565b604082019050919050565b6000611ad5602f83611e63565b9150611ae08261243b565b604082019050919050565b6000611af8602183611e63565b9150611b038261248a565b604082019050919050565b6000611b1b603183611e63565b9150611b26826124d9565b604082019050919050565b6000611b3e603083611e63565b9150611b4982612528565b604082019050919050565b611b5d81611fa4565b82525050565b6000611b6f828561195c565b9150611b7b828461195c565b91508190509392505050565b6000602082019050611b9c60008301846118cc565b92915050565b6000608082019050611bb760008301876118cc565b611bc460208301866118cc565b611bd16040830185611b54565b8181036060830152611be381846118ea565b905095945050505050565b6000602082019050611c0360008301846118db565b92915050565b60006020820190508181036000830152611c238184611923565b905092915050565b60006020820190508181036000830152611c448161198d565b9050919050565b60006020820190508181036000830152611c64816119b0565b9050919050565b60006020820190508181036000830152611c84816119d3565b9050919050565b60006020820190508181036000830152611ca4816119f6565b9050919050565b60006020820190508181036000830152611cc481611a19565b9050919050565b60006020820190508181036000830152611ce481611a3c565b9050919050565b60006020820190508181036000830152611d0481611a5f565b9050919050565b60006020820190508181036000830152611d2481611a82565b9050919050565b60006020820190508181036000830152611d4481611aa5565b9050919050565b60006020820190508181036000830152611d6481611ac8565b9050919050565b60006020820190508181036000830152611d8481611aeb565b9050919050565b60006020820190508181036000830152611da481611b0e565b9050919050565b60006020820190508181036000830152611dc481611b31565b9050919050565b6000602082019050611de06000830184611b54565b92915050565b6000611df0611e01565b9050611dfc8282612022565b919050565b6000604051905090565b600067ffffffffffffffff821115611e2657611e2561215a565b5b611e2f82612189565b9050602081019050919050565b600081519050919050565b600081519050919050565b600082825260208201905092915050565b600082825260208201905092915050565b600081905092915050565b6000611e8a82611fa4565b9150611e9583611fa4565b9250827fffffffffffffffffffffffffffffffffffffffffffffffffffffffffffffffff03821115611eca57611ec96120cd565b5b828201905092915050565b6000611ee082611fa4565b9150611eeb83611fa4565b925082611efb57611efa6120fc565b5b828204905092915050565b6000611f1182611fa4565b9150611f1c83611fa4565b925082821015611f2f57611f2e6120cd565b5b828203905092915050565b6000611f4582611f84565b9050919050565b60008115159050919050565b60007fffffffff0000000000000000000000000000000000000000000000000000000082169050919050565b600073ffffffffffffffffffffffffffffffffffffffff82169050919050565b6000819050919050565b82818337600083830152505050565b60005b83811015611fdb578082015181840152602081019050611fc0565b83811115611fea576000848401525b50505050565b6000600282049050600182168061200857607f821691505b6020821081141561201c5761201b61212b565b5b50919050565b61202b82612189565b810181811067ffffffffffffffff8211171561204a5761204961215a565b5b80604052505050565b600061205e82611fa4565b91507fffffffffffffffffffffffffffffffffffffffffffffffffffffffffffffffff821415612091576120906120cd565b5b600182019050919050565b60006120a782611fa4565b91506120b283611fa4565b9250826120c2576120c16120fc565b5b828206905092915050565b7f4e487b7100000000000000000000000000000000000000000000000000000000600052601160045260246000fd5b7f4e487b7100000000000000000000000000000000000000000000000000000000600052601260045260246000fd5b7f4e487b7100000000000000000000000000000000000000000000000000000000600052602260045260246000fd5b7f4e487b7100000000000000000000000000000000000000000000000000000000600052604160045260246000fd5b6000601f19601f8301169050919050565b7f4552433732313a207472616e7366657220746f206e6f6e20455243373231526560008201527f63656976657220696d706c656d656e7465720000000000000000000000000000602082015250565b7f4552433732313a207472616e736665722066726f6d20696e636f72726563742060008201527f6f776e6572000000000000000000000000000000000000000000000000000000602082015250565b7f4552433732313a207472616e7366657220746f20746865207a65726f2061646460008201527f7265737300000000000000000000000000000000000000000000000000000000602082015250565b7f4552433732313a20617070726f766520746f2063616c6c657200000000000000600082015250565b7f4552433732313a206f70657261746f7220717565727920666f72206e6f6e657860008201527f697374656e7420746f6b656e0000000000000000000000000000000000000000602082015250565b7f4552433732313a20617070726f76652063616c6c6572206973206e6f74206f7760008201527f6e6572206e6f7220617070726f76656420666f7220616c6c0000000000000000602082015250565b7f4552433732313a2062616c616e636520717565727920666f7220746865207a6560008201527f726f206164647265737300000000000000000000000000000000000000000000602082015250565b7f4552433732313a206f776e657220717565727920666f72206e6f6e657869737460008201527f656e7420746f6b656e0000000000000000000000000000000000000000000000602082015250565b7f4552433732313a20617070726f76656420717565727920666f72206e6f6e657860008201527f697374656e7420746f6b656e0000000000000000000000000000000000000000602082015250565b7f4552433732314d657461646174613a2055524920717565727920666f72206e6f60008201527f6e6578697374656e7420746f6b656e0000000000000000000000000000000000602082015250565b7f4552433732313a20617070726f76616c20746f2063757272656e74206f776e6560008201527f7200000000000000000000000000000000000000000000000000000000000000602082015250565b7f4552433732313a207472616e736665722063616c6c6572206973206e6f74206f60008201527f776e6572206e6f7220617070726f766564000000000000000000000000000000602082015250565b7f4552433732314275726e61626c653a2063616c6c6572206973206e6f74206f7760008201527f6e6572206e6f7220617070726f76656400000000000000000000000000000000602082015250565b61258081611f3a565b811461258b57600080fd5b50565b61259781611f4c565b81146125a257600080fd5b50565b6125ae81611f58565b81146125b957600080fd5b50565b6125c581611fa4565b81146125d057600080fd5b5056fea264697066735822122002c7f0534de6b3ae9e2f14860f7cf86283a48d2817d20c1ff5ab57641af388c864736f6c63430008040033",
  "immutableReferences": {},
  "source": "// SPDX-License-Identifier: MIT\npragma solidity ^0.8.0;\n\nimport '@openzeppelin/contracts/token/ERC721/extensions/ERC721Burnable.sol';\n\ncontract ReceiptToken is ERC721Burnable {\n  \n    constructor() ERC721(\"ReceiptToken\", \"RPT\") {}\n\n}\n",
  "sourcePath": "/home/james/Workspaces/tracking-demo/contracts/ReceiptToken.sol",
  "compiler": {
    "name": "solc",
    "version": "0.8.4+commit.c7e474f2.Emscripten.clang"
  },
  "schemaVersion": "3.4.6",
  "updatedAt": "2022-04-04T15:20:05.081Z",
  "networkType": "ethereum",
  "devdoc": {
    "kind": "dev",
    "methods": {
      "approve(address,uint256)": {
        "details": "See {IERC721-approve}."
      },
      "balanceOf(address)": {
        "details": "See {IERC721-balanceOf}."
      },
      "burn(uint256)": {
        "details": "Burns `tokenId`. See {ERC721-_burn}. Requirements: - The caller must own `tokenId` or be an approved operator."
      },
      "getApproved(uint256)": {
        "details": "See {IERC721-getApproved}."
      },
      "isApprovedForAll(address,address)": {
        "details": "See {IERC721-isApprovedForAll}."
      },
      "name()": {
        "details": "See {IERC721Metadata-name}."
      },
      "ownerOf(uint256)": {
        "details": "See {IERC721-ownerOf}."
      },
      "safeTransferFrom(address,address,uint256)": {
        "details": "See {IERC721-safeTransferFrom}."
      },
      "safeTransferFrom(address,address,uint256,bytes)": {
        "details": "See {IERC721-safeTransferFrom}."
      },
      "setApprovalForAll(address,bool)": {
        "details": "See {IERC721-setApprovalForAll}."
      },
      "supportsInterface(bytes4)": {
        "details": "See {IERC165-supportsInterface}."
      },
      "symbol()": {
        "details": "See {IERC721Metadata-symbol}."
      },
      "tokenURI(uint256)": {
        "details": "See {IERC721Metadata-tokenURI}."
      },
      "transferFrom(address,address,uint256)": {
        "details": "See {IERC721-transferFrom}."
      }
    },
    "version": 1
  },
  "userdoc": {
    "kind": "user",
    "methods": {},
    "version": 1
  }
}